{
	"contracts/ERC1410/ERC1410Standard.sol": {
		"ERC1410Standard": {
			"abi": [
				{
					"anonymous": false,
					"inputs": [
						{
							"indexed": true,
							"internalType": "address",
							"name": "operator",
							"type": "address"
						},
						{
							"indexed": true,
							"internalType": "address",
							"name": "tokenHolder",
							"type": "address"
						}
					],
					"name": "AuthorizedOperator",
					"type": "event"
				},
				{
					"anonymous": false,
					"inputs": [
						{
							"indexed": true,
							"internalType": "bytes32",
							"name": "partition",
							"type": "bytes32"
						},
						{
							"indexed": true,
							"internalType": "address",
							"name": "operator",
							"type": "address"
						},
						{
							"indexed": true,
							"internalType": "address",
							"name": "tokenHolder",
							"type": "address"
						}
					],
					"name": "AuthorizedOperatorByPartition",
					"type": "event"
				},
				{
					"anonymous": false,
					"inputs": [
						{
							"indexed": true,
							"internalType": "address",
							"name": "to",
							"type": "address"
						},
						{
							"indexed": false,
							"internalType": "uint256",
							"name": "value",
							"type": "uint256"
						},
						{
							"indexed": false,
							"internalType": "bytes",
							"name": "data",
							"type": "bytes"
						}
					],
					"name": "Issued",
					"type": "event"
				},
				{
					"anonymous": false,
					"inputs": [
						{
							"indexed": true,
							"internalType": "bytes32",
							"name": "partition",
							"type": "bytes32"
						},
						{
							"indexed": true,
							"internalType": "address",
							"name": "to",
							"type": "address"
						},
						{
							"indexed": false,
							"internalType": "uint256",
							"name": "value",
							"type": "uint256"
						},
						{
							"indexed": false,
							"internalType": "bytes",
							"name": "data",
							"type": "bytes"
						}
					],
					"name": "IssuedByPartition",
					"type": "event"
				},
				{
					"anonymous": false,
					"inputs": [
						{
							"indexed": true,
							"internalType": "address",
							"name": "previousOwner",
							"type": "address"
						},
						{
							"indexed": true,
							"internalType": "address",
							"name": "newOwner",
							"type": "address"
						}
					],
					"name": "OwnershipTransferred",
					"type": "event"
				},
				{
					"anonymous": false,
					"inputs": [
						{
							"indexed": true,
							"internalType": "address",
							"name": "operator",
							"type": "address"
						},
						{
							"indexed": true,
							"internalType": "address",
							"name": "from",
							"type": "address"
						},
						{
							"indexed": false,
							"internalType": "uint256",
							"name": "value",
							"type": "uint256"
						},
						{
							"indexed": false,
							"internalType": "bytes",
							"name": "data",
							"type": "bytes"
						},
						{
							"indexed": false,
							"internalType": "bytes",
							"name": "operatorData",
							"type": "bytes"
						}
					],
					"name": "Redeemed",
					"type": "event"
				},
				{
					"anonymous": false,
					"inputs": [
						{
							"indexed": true,
							"internalType": "bytes32",
							"name": "partition",
							"type": "bytes32"
						},
						{
							"indexed": true,
							"internalType": "address",
							"name": "operator",
							"type": "address"
						},
						{
							"indexed": true,
							"internalType": "address",
							"name": "from",
							"type": "address"
						},
						{
							"indexed": false,
							"internalType": "uint256",
							"name": "value",
							"type": "uint256"
						},
						{
							"indexed": false,
							"internalType": "bytes",
							"name": "data",
							"type": "bytes"
						},
						{
							"indexed": false,
							"internalType": "bytes",
							"name": "operatorData",
							"type": "bytes"
						}
					],
					"name": "RedeemedByPartition",
					"type": "event"
				},
				{
					"anonymous": false,
					"inputs": [
						{
							"indexed": true,
							"internalType": "address",
							"name": "operator",
							"type": "address"
						},
						{
							"indexed": true,
							"internalType": "address",
							"name": "tokenHolder",
							"type": "address"
						}
					],
					"name": "RevokedOperator",
					"type": "event"
				},
				{
					"anonymous": false,
					"inputs": [
						{
							"indexed": true,
							"internalType": "bytes32",
							"name": "partition",
							"type": "bytes32"
						},
						{
							"indexed": true,
							"internalType": "address",
							"name": "operator",
							"type": "address"
						},
						{
							"indexed": true,
							"internalType": "address",
							"name": "tokenHolder",
							"type": "address"
						}
					],
					"name": "RevokedOperatorByPartition",
					"type": "event"
				},
				{
					"anonymous": false,
					"inputs": [
						{
							"indexed": false,
							"internalType": "address",
							"name": "_operator",
							"type": "address"
						},
						{
							"indexed": true,
							"internalType": "address",
							"name": "_from",
							"type": "address"
						},
						{
							"indexed": true,
							"internalType": "address",
							"name": "_to",
							"type": "address"
						},
						{
							"indexed": false,
							"internalType": "uint256",
							"name": "_value",
							"type": "uint256"
						},
						{
							"indexed": false,
							"internalType": "bytes",
							"name": "_data",
							"type": "bytes"
						},
						{
							"indexed": false,
							"internalType": "bytes",
							"name": "_operatorData",
							"type": "bytes"
						}
					],
					"name": "Transfer",
					"type": "event"
				},
				{
					"anonymous": false,
					"inputs": [
						{
							"indexed": true,
							"internalType": "bytes32",
							"name": "_fromPartition",
							"type": "bytes32"
						},
						{
							"indexed": false,
							"internalType": "address",
							"name": "_operator",
							"type": "address"
						},
						{
							"indexed": true,
							"internalType": "address",
							"name": "_from",
							"type": "address"
						},
						{
							"indexed": true,
							"internalType": "address",
							"name": "_to",
							"type": "address"
						},
						{
							"indexed": false,
							"internalType": "uint256",
							"name": "_value",
							"type": "uint256"
						},
						{
							"indexed": false,
							"internalType": "bytes",
							"name": "_data",
							"type": "bytes"
						},
						{
							"indexed": false,
							"internalType": "bytes",
							"name": "_operatorData",
							"type": "bytes"
						}
					],
					"name": "TransferByPartition",
					"type": "event"
				},
				{
					"inputs": [],
					"name": "HELD_FREE_PARTITION",
					"outputs": [
						{
							"internalType": "bytes32",
							"name": "",
							"type": "bytes32"
						}
					],
					"stateMutability": "view",
					"type": "function"
				},
				{
					"inputs": [],
					"name": "TRANSIT_PARTITION",
					"outputs": [
						{
							"internalType": "bytes32",
							"name": "",
							"type": "bytes32"
						}
					],
					"stateMutability": "view",
					"type": "function"
				},
				{
					"inputs": [],
					"name": "UNCONFIRMED_PARTITION",
					"outputs": [
						{
							"internalType": "bytes32",
							"name": "",
							"type": "bytes32"
						}
					],
					"stateMutability": "view",
					"type": "function"
				},
				{
					"inputs": [
						{
							"internalType": "bytes32",
							"name": "_partition",
							"type": "bytes32"
						},
						{
							"internalType": "address",
							"name": "_to",
							"type": "address"
						}
					],
					"name": "_validPartitionForReceiver",
					"outputs": [
						{
							"internalType": "bool",
							"name": "",
							"type": "bool"
						}
					],
					"stateMutability": "view",
					"type": "function"
				},
				{
					"inputs": [
						{
							"internalType": "address",
							"name": "_operator",
							"type": "address"
						}
					],
					"name": "authorizeOperator",
					"outputs": [],
					"stateMutability": "nonpayable",
					"type": "function"
				},
				{
					"inputs": [
						{
							"internalType": "bytes32",
							"name": "_partition",
							"type": "bytes32"
						},
						{
							"internalType": "address",
							"name": "_operator",
							"type": "address"
						}
					],
					"name": "authorizeOperatorByPartition",
					"outputs": [],
					"stateMutability": "nonpayable",
					"type": "function"
				},
				{
					"inputs": [
						{
							"internalType": "address",
							"name": "account",
							"type": "address"
						}
					],
					"name": "balanceOf",
					"outputs": [
						{
							"internalType": "uint256",
							"name": "",
							"type": "uint256"
						}
					],
					"stateMutability": "view",
					"type": "function"
				},
				{
					"inputs": [
						{
							"internalType": "bytes32",
							"name": "_partition",
							"type": "bytes32"
						},
						{
							"internalType": "address",
							"name": "_tokenHolder",
							"type": "address"
						}
					],
					"name": "balanceOfByPartition",
					"outputs": [
						{
							"internalType": "uint256",
							"name": "",
							"type": "uint256"
						}
					],
					"stateMutability": "view",
					"type": "function"
				},
				{
					"inputs": [
						{
							"internalType": "address",
							"name": "_from",
							"type": "address"
						},
						{
							"internalType": "address",
							"name": "_to",
							"type": "address"
						},
						{
							"internalType": "uint256",
							"name": "_value",
							"type": "uint256"
						},
						{
							"internalType": "bytes",
							"name": "_data",
							"type": "bytes"
						}
					],
					"name": "canTransfer",
					"outputs": [
						{
							"internalType": "bytes1",
							"name": "",
							"type": "bytes1"
						},
						{
							"internalType": "bytes32",
							"name": "",
							"type": "bytes32"
						},
						{
							"internalType": "bytes32",
							"name": "",
							"type": "bytes32"
						}
					],
					"stateMutability": "view",
					"type": "function"
				},
				{
					"inputs": [
						{
							"internalType": "address",
							"name": "_from",
							"type": "address"
						},
						{
							"internalType": "address",
							"name": "_to",
							"type": "address"
						},
						{
							"internalType": "bytes32",
							"name": "_partition",
							"type": "bytes32"
						},
						{
							"internalType": "uint256",
							"name": "_value",
							"type": "uint256"
						},
						{
							"internalType": "bytes",
							"name": "_data",
							"type": "bytes"
						}
					],
					"name": "canTransferByPartition",
					"outputs": [
						{
							"internalType": "bytes1",
							"name": "",
							"type": "bytes1"
						},
						{
							"internalType": "bytes32",
							"name": "",
							"type": "bytes32"
						},
						{
							"internalType": "bytes32",
							"name": "",
							"type": "bytes32"
						}
					],
					"stateMutability": "view",
					"type": "function"
				},
				{
					"inputs": [
						{
							"internalType": "address",
							"name": "_operator",
							"type": "address"
						},
						{
							"internalType": "address",
							"name": "_tokenHolder",
							"type": "address"
						}
					],
					"name": "isOperator",
					"outputs": [
						{
							"internalType": "bool",
							"name": "",
							"type": "bool"
						}
					],
					"stateMutability": "view",
					"type": "function"
				},
				{
					"inputs": [
						{
							"internalType": "bytes32",
							"name": "_partition",
							"type": "bytes32"
						},
						{
							"internalType": "address",
							"name": "_operator",
							"type": "address"
						},
						{
							"internalType": "address",
							"name": "_tokenHolder",
							"type": "address"
						}
					],
					"name": "isOperatorForPartition",
					"outputs": [
						{
							"internalType": "bool",
							"name": "",
							"type": "bool"
						}
					],
					"stateMutability": "view",
					"type": "function"
				},
				{
					"inputs": [
						{
							"internalType": "address",
							"name": "_tokenHolder",
							"type": "address"
						},
						{
							"internalType": "uint256",
							"name": "_value",
							"type": "uint256"
						},
						{
							"internalType": "bytes",
							"name": "_data",
							"type": "bytes"
						}
					],
					"name": "issue",
					"outputs": [],
					"stateMutability": "nonpayable",
					"type": "function"
				},
				{
					"inputs": [
						{
							"internalType": "bytes32",
							"name": "_partition",
							"type": "bytes32"
						},
						{
							"internalType": "address",
							"name": "_tokenHolder",
							"type": "address"
						},
						{
							"internalType": "uint256",
							"name": "_value",
							"type": "uint256"
						},
						{
							"internalType": "bytes",
							"name": "_data",
							"type": "bytes"
						}
					],
					"name": "issueByPartition",
					"outputs": [],
					"stateMutability": "nonpayable",
					"type": "function"
				},
				{
					"inputs": [
						{
							"internalType": "address",
							"name": "_tokenHolder",
							"type": "address"
						},
						{
							"internalType": "uint256",
							"name": "_value",
							"type": "uint256"
						},
						{
							"internalType": "bytes",
							"name": "_data",
							"type": "bytes"
						},
						{
							"internalType": "bytes",
							"name": "_operatorData",
							"type": "bytes"
						}
					],
					"name": "operatorIssue",
					"outputs": [],
					"stateMutability": "nonpayable",
					"type": "function"
				},
				{
					"inputs": [
						{
							"internalType": "bytes32",
							"name": "_partition",
							"type": "bytes32"
						},
						{
							"internalType": "address",
							"name": "_tokenHolder",
							"type": "address"
						},
						{
							"internalType": "uint256",
							"name": "_value",
							"type": "uint256"
						},
						{
							"internalType": "bytes",
							"name": "_data",
							"type": "bytes"
						},
						{
							"internalType": "bytes",
							"name": "_operatorData",
							"type": "bytes"
						}
					],
					"name": "operatorIssueByPartition",
					"outputs": [],
					"stateMutability": "nonpayable",
					"type": "function"
				},
				{
					"inputs": [
						{
							"internalType": "address",
							"name": "_tokenHolder",
							"type": "address"
						},
						{
							"internalType": "uint256",
							"name": "_value",
							"type": "uint256"
						},
						{
							"internalType": "bytes",
							"name": "_data",
							"type": "bytes"
						},
						{
							"internalType": "bytes",
							"name": "_operatorData",
							"type": "bytes"
						}
					],
					"name": "operatorRedeem",
					"outputs": [],
					"stateMutability": "nonpayable",
					"type": "function"
				},
				{
					"inputs": [
						{
							"internalType": "bytes32",
							"name": "_partition",
							"type": "bytes32"
						},
						{
							"internalType": "address",
							"name": "_tokenHolder",
							"type": "address"
						},
						{
							"internalType": "uint256",
							"name": "_value",
							"type": "uint256"
						},
						{
							"internalType": "bytes",
							"name": "_data",
							"type": "bytes"
						},
						{
							"internalType": "bytes",
							"name": "_operatorData",
							"type": "bytes"
						}
					],
					"name": "operatorRedeemByPartition",
					"outputs": [],
					"stateMutability": "nonpayable",
					"type": "function"
				},
				{
					"inputs": [
						{
							"internalType": "address",
							"name": "_from",
							"type": "address"
						},
						{
							"internalType": "address",
							"name": "_to",
							"type": "address"
						},
						{
							"internalType": "uint256",
							"name": "_value",
							"type": "uint256"
						},
						{
							"internalType": "bytes",
							"name": "_data",
							"type": "bytes"
						},
						{
							"internalType": "bytes",
							"name": "_operatorData",
							"type": "bytes"
						}
					],
					"name": "operatorTransfer",
					"outputs": [
						{
							"internalType": "bytes32",
							"name": "",
							"type": "bytes32"
						}
					],
					"stateMutability": "nonpayable",
					"type": "function"
				},
				{
					"inputs": [
						{
							"internalType": "bytes32",
							"name": "_partition",
							"type": "bytes32"
						},
						{
							"internalType": "address",
							"name": "_from",
							"type": "address"
						},
						{
							"internalType": "address",
							"name": "_to",
							"type": "address"
						},
						{
							"internalType": "uint256",
							"name": "_value",
							"type": "uint256"
						},
						{
							"internalType": "bytes",
							"name": "_data",
							"type": "bytes"
						},
						{
							"internalType": "bytes",
							"name": "_operatorData",
							"type": "bytes"
						}
					],
					"name": "operatorTransferByPartition",
					"outputs": [
						{
							"internalType": "bytes32",
							"name": "",
							"type": "bytes32"
						}
					],
					"stateMutability": "nonpayable",
					"type": "function"
				},
				{
					"inputs": [],
					"name": "owner",
					"outputs": [
						{
							"internalType": "address",
							"name": "",
							"type": "address"
						}
					],
					"stateMutability": "view",
					"type": "function"
				},
				{
					"inputs": [
						{
							"internalType": "address",
							"name": "_tokenHolder",
							"type": "address"
						}
					],
					"name": "partitionsOf",
					"outputs": [
						{
							"internalType": "bytes32[]",
							"name": "",
							"type": "bytes32[]"
						}
					],
					"stateMutability": "view",
					"type": "function"
				},
				{
					"inputs": [
						{
							"internalType": "uint256",
							"name": "_value",
							"type": "uint256"
						},
						{
							"internalType": "bytes",
							"name": "_data",
							"type": "bytes"
						}
					],
					"name": "redeem",
					"outputs": [],
					"stateMutability": "nonpayable",
					"type": "function"
				},
				{
					"inputs": [
						{
							"internalType": "bytes32",
							"name": "_partition",
							"type": "bytes32"
						},
						{
							"internalType": "uint256",
							"name": "_value",
							"type": "uint256"
						},
						{
							"internalType": "bytes",
							"name": "_data",
							"type": "bytes"
						}
					],
					"name": "redeemByPartition",
					"outputs": [],
					"stateMutability": "nonpayable",
					"type": "function"
				},
				{
					"inputs": [],
					"name": "renounceOwnership",
					"outputs": [],
					"stateMutability": "nonpayable",
					"type": "function"
				},
				{
					"inputs": [
						{
							"internalType": "address",
							"name": "_operator",
							"type": "address"
						}
					],
					"name": "revokeOperator",
					"outputs": [],
					"stateMutability": "nonpayable",
					"type": "function"
				},
				{
					"inputs": [
						{
							"internalType": "bytes32",
							"name": "_partition",
							"type": "bytes32"
						},
						{
							"internalType": "address",
							"name": "_operator",
							"type": "address"
						}
					],
					"name": "revokeOperatorByPartition",
					"outputs": [],
					"stateMutability": "nonpayable",
					"type": "function"
				},
				{
					"inputs": [],
					"name": "totalSupply",
					"outputs": [
						{
							"internalType": "uint256",
							"name": "",
							"type": "uint256"
						}
					],
					"stateMutability": "view",
					"type": "function"
				},
				{
					"inputs": [
						{
							"internalType": "address",
							"name": "_to",
							"type": "address"
						},
						{
							"internalType": "uint256",
							"name": "_value",
							"type": "uint256"
						},
						{
							"internalType": "bytes",
							"name": "_data",
							"type": "bytes"
						}
					],
					"name": "transfer",
					"outputs": [
						{
							"internalType": "bytes32",
							"name": "",
							"type": "bytes32"
						}
					],
					"stateMutability": "nonpayable",
					"type": "function"
				},
				{
					"inputs": [
						{
							"internalType": "bytes32",
							"name": "_partition",
							"type": "bytes32"
						},
						{
							"internalType": "address",
							"name": "_to",
							"type": "address"
						},
						{
							"internalType": "uint256",
							"name": "_value",
							"type": "uint256"
						},
						{
							"internalType": "bytes",
							"name": "_data",
							"type": "bytes"
						}
					],
					"name": "transferByPartition",
					"outputs": [
						{
							"internalType": "bytes32",
							"name": "",
							"type": "bytes32"
						}
					],
					"stateMutability": "nonpayable",
					"type": "function"
				},
				{
					"inputs": [
						{
							"internalType": "address",
							"name": "newOwner",
							"type": "address"
						}
					],
					"name": "transferOwnership",
					"outputs": [],
					"stateMutability": "nonpayable",
					"type": "function"
				}
			],
			"devdoc": {
				"kind": "dev",
				"methods": {
					"authorizeOperator(address)": {
						"params": {
							"_operator": "An address which is being authorised"
						}
					},
					"authorizeOperatorByPartition(bytes32,address)": {
						"params": {
							"_operator": "An address which is being authorised",
							"_partition": "The partition to which the operator is authorised"
						}
					},
					"balanceOf(address)": {
						"details": "See {IERC20-balanceOf}."
					},
					"balanceOfByPartition(bytes32,address)": {
						"params": {
							"_partition": "The partition for which to query the balance",
							"_tokenHolder": "An address for whom to query the balance"
						},
						"returns": {
							"_0": "The number of tokens owned by `_tokenHolder` with the metadata associated with `_partition`, possibly zero"
						}
					},
					"canTransfer(address,address,uint256,bytes)": {
						"params": {
							"_data": "Additional data attached to the transfer of tokens",
							"_from": "The address from whom the tokens get transferred.",
							"_to": "The address to which to transfer tokens to.",
							"_value": "The amount of tokens to transfer from `_partition`"
						},
						"returns": {
							"_0": "ESC (Ethereum Status Code) following the EIP-1066 standard",
							"_1": "Application specific reason codes with additional details",
							"_2": "The partition to which the transferred tokens were allocated for the _to address"
						}
					},
					"canTransferByPartition(address,address,bytes32,uint256,bytes)": {
						"params": {
							"_data": "Additional data attached to the transfer of tokens",
							"_from": "The address from whom the tokens get transferred.",
							"_partition": "The partition from which to transfer tokens",
							"_to": "The address to which to transfer tokens to.",
							"_value": "The amount of tokens to transfer from `_partition`"
						},
						"returns": {
							"_0": "ESC (Ethereum Status Code) following the EIP-1066 standard",
							"_1": "Application specific reason codes with additional details",
							"_2": "The partition to which the transferred tokens were allocated for the _to address"
						}
					},
					"isOperator(address,address)": {
						"params": {
							"_operator": "The operator to check",
							"_tokenHolder": "The token holder to check"
						},
						"returns": {
							"_0": "Whether the `_operator` is an operator for all partitions of `_tokenHolder`"
						}
					},
					"isOperatorForPartition(bytes32,address,address)": {
						"params": {
							"_operator": "The operator to check",
							"_partition": "The partition to check",
							"_tokenHolder": "The token holder to check"
						},
						"returns": {
							"_0": "Whether the `_operator` is an operator for a specified partition of `_tokenHolder`"
						}
					},
					"issue(address,uint256,bytes)": {
						"params": {
							"_data": "Additional data attached to the minting of tokens",
							"_tokenHolder": "The token holder whose balance should be increased",
							"_value": "The amount by which to increase the balance"
						}
					},
					"issueByPartition(bytes32,address,uint256,bytes)": {
						"params": {
							"_data": "Additional data attached to the minting of tokens",
							"_partition": "The partition to allocate the increase in balance",
							"_tokenHolder": "The token holder whose balance should be increased",
							"_value": "The amount by which to increase the balance"
						}
					},
					"operatorRedeem(address,uint256,bytes,bytes)": {
						"details": "This function can only be called by the authorised operator.",
						"params": {
							"_data": "Additional data attached to the burning of tokens",
							"_operatorData": "Additional data attached to the transfer of tokens by the operator",
							"_tokenHolder": "The token holder whose balance should be decreased",
							"_value": "The amount by which to decrease the balance"
						}
					},
					"operatorRedeemByPartition(bytes32,address,uint256,bytes,bytes)": {
						"details": "This function can only be called by the authorised operator.",
						"params": {
							"_data": "Additional data attached to the burning of tokens",
							"_operatorData": "Additional data attached to the transfer of tokens by the operator",
							"_partition": "The partition to allocate the decrease in balance.",
							"_tokenHolder": "The token holder whose balance should be decreased",
							"_value": "The amount by which to decrease the balance"
						}
					},
					"operatorTransfer(address,address,uint256,bytes,bytes)": {
						"params": {
							"_data": "Additional data attached to the transfer of tokens",
							"_from": "The address from which to transfer tokens from",
							"_operatorData": "Additional data attached to the transfer of tokens by the operator",
							"_to": "The address to which to transfer tokens to",
							"_value": "The amount of tokens to transfer from `_partition`"
						},
						"returns": {
							"_0": "The partition to which the transferred tokens were allocated for the _to address"
						}
					},
					"operatorTransferByPartition(bytes32,address,address,uint256,bytes,bytes)": {
						"params": {
							"_data": "Additional data attached to the transfer of tokens",
							"_from": "The address from which to transfer tokens from",
							"_operatorData": "Additional data attached to the transfer of tokens by the operator",
							"_partition": "The partition from which to transfer tokens",
							"_to": "The address to which to transfer tokens to",
							"_value": "The amount of tokens to transfer from `_partition`"
						},
						"returns": {
							"_0": "The partition to which the transferred tokens were allocated for the _to address"
						}
					},
					"owner()": {
						"details": "Returns the address of the current owner."
					},
					"partitionsOf(address)": {
						"params": {
							"_tokenHolder": "An address corresponds whom partition list is queried"
						},
						"returns": {
							"_0": "List of partitions"
						}
					},
					"redeem(uint256,bytes)": {
						"params": {
							"_data": "Additional data attached to the burning of tokens",
							"_value": "The amount by which to decrease the balance"
						}
					},
					"redeemByPartition(bytes32,uint256,bytes)": {
						"params": {
							"_data": "Additional data attached to the burning of tokens",
							"_partition": "The partition to allocate the decrease in balance",
							"_value": "The amount by which to decrease the balance"
						}
					},
					"renounceOwnership()": {
						"details": "Leaves the contract without owner. It will not be possible to call `onlyOwner` functions anymore. Can only be called by the current owner. NOTE: Renouncing ownership will leave the contract without an owner, thereby removing any functionality that is only available to the owner."
					},
					"revokeOperator(address)": {
						"params": {
							"_operator": "An address which is being de-authorised"
						}
					},
					"revokeOperatorByPartition(bytes32,address)": {
						"params": {
							"_operator": "An address which is being de-authorised",
							"_partition": "The partition to which the operator is de-authorised"
						}
					},
					"totalSupply()": {
						"details": "See {IERC20-totalSupply}."
					},
					"transfer(address,uint256,bytes)": {
						"params": {
							"_data": "Additional data attached to the transfer of tokens",
							"_to": "The address to which to transfer tokens to",
							"_value": "The amount of tokens to transfer from `_partition`"
						},
						"returns": {
							"_0": "The partition to which the transferred tokens were allocated for the _to address"
						}
					},
					"transferByPartition(bytes32,address,uint256,bytes)": {
						"params": {
							"_data": "Additional data attached to the transfer of tokens",
							"_partition": "The partition from which to transfer tokens",
							"_to": "The address to which to transfer tokens to",
							"_value": "The amount of tokens to transfer from `_partition`"
						},
						"returns": {
							"_0": "The partition to which the transferred tokens were allocated for the _to address"
						}
					},
					"transferOwnership(address)": {
						"details": "Transfers ownership of the contract to a new account (`newOwner`). Can only be called by the current owner."
					}
				},
				"version": 1
			},
			"evm": {
				"assembly": "    /* \"contracts/ERC1410/ERC1410Standard.sol\":291:25951  contract ERC1410Standard is IERC1410Partitioned, IERC1410Aggregated, Ownable {\r... */\n  mstore(0x40, 0x80)\n  callvalue\n  dup1\n  iszero\n  tag_1\n  jumpi\n  0x00\n  dup1\n  revert\ntag_1:\n  pop\n    /* \"openzeppelin-solidity/contracts/access/Ownable.sol\":884:901  address msgSender */\n  0x00\n    /* \"openzeppelin-solidity/contracts/access/Ownable.sol\":904:916  _msgSender() */\n  tag_4\n    /* \"openzeppelin-solidity/contracts/access/Ownable.sol\":904:914  _msgSender */\n  shl(0x20, tag_5)\n    /* \"openzeppelin-solidity/contracts/access/Ownable.sol\":904:916  _msgSender() */\n  0x20\n  shr\n  jump\t// in\ntag_4:\n    /* \"openzeppelin-solidity/contracts/access/Ownable.sol\":884:916  address msgSender = _msgSender() */\n  swap1\n  pop\n    /* \"openzeppelin-solidity/contracts/access/Ownable.sol\":935:944  msgSender */\n  dup1\n    /* \"openzeppelin-solidity/contracts/access/Ownable.sol\":926:932  _owner */\n  0x00\n  dup1\n    /* \"openzeppelin-solidity/contracts/access/Ownable.sol\":926:944  _owner = msgSender */\n  0x0100\n  exp\n  dup2\n  sload\n  dup2\n  0xffffffffffffffffffffffffffffffffffffffff\n  mul\n  not\n  and\n  swap1\n  dup4\n  0xffffffffffffffffffffffffffffffffffffffff\n  and\n  mul\n  or\n  swap1\n  sstore\n  pop\n    /* \"openzeppelin-solidity/contracts/access/Ownable.sol\":992:1001  msgSender */\n  dup1\n    /* \"openzeppelin-solidity/contracts/access/Ownable.sol\":959:1002  OwnershipTransferred(address(0), msgSender) */\n  0xffffffffffffffffffffffffffffffffffffffff\n  and\n    /* \"openzeppelin-solidity/contracts/access/Ownable.sol\":988:989  0 */\n  0x00\n    /* \"openzeppelin-solidity/contracts/access/Ownable.sol\":959:1002  OwnershipTransferred(address(0), msgSender) */\n  0xffffffffffffffffffffffffffffffffffffffff\n  and\n  0x8be0079c531659141344cd1fd0a4f28419497f9722a3daafe3b4186f6b6457e0\n  mload(0x40)\n  mload(0x40)\n  dup1\n  swap2\n  sub\n  swap1\n  log3\n    /* \"openzeppelin-solidity/contracts/access/Ownable.sol\":850:1009  constructor () internal {... */\n  pop\n    /* \"contracts/ERC1410/ERC1410Standard.sol\":291:25951  contract ERC1410Standard is IERC1410Partitioned, IERC1410Aggregated, Ownable {\r... */\n  jump(tag_6)\n    /* \"openzeppelin-solidity/contracts/utils/Context.sol\":598:702  function _msgSender() internal view virtual returns (address payable) {... */\ntag_5:\n    /* \"openzeppelin-solidity/contracts/utils/Context.sol\":651:666  address payable */\n  0x00\n    /* \"openzeppelin-solidity/contracts/utils/Context.sol\":685:695  msg.sender */\n  caller\n    /* \"openzeppelin-solidity/contracts/utils/Context.sol\":678:695  return msg.sender */\n  swap1\n  pop\n    /* \"openzeppelin-solidity/contracts/utils/Context.sol\":598:702  function _msgSender() internal view virtual returns (address payable) {... */\n  swap1\n  jump\t// out\n    /* \"contracts/ERC1410/ERC1410Standard.sol\":291:25951  contract ERC1410Standard is IERC1410Partitioned, IERC1410Aggregated, Ownable {\r... */\ntag_6:\n  dataSize(sub_0)\n  dup1\n  dataOffset(sub_0)\n  0x00\n  codecopy\n  0x00\n  return\nstop\n\nsub_0: assembly {\n        /* \"contracts/ERC1410/ERC1410Standard.sol\":291:25951  contract ERC1410Standard is IERC1410Partitioned, IERC1410Aggregated, Ownable {\r... */\n      mstore(0x40, 0x80)\n      callvalue\n      dup1\n      iszero\n      tag_1\n      jumpi\n      0x00\n      dup1\n      revert\n    tag_1:\n      pop\n      jumpi(tag_2, lt(calldatasize, 0x04))\n      shr(0xe0, calldataload(0x00))\n      dup1\n      0x8da5cb5b\n      gt\n      tag_34\n      jumpi\n      dup1\n      0xbe45fd62\n      gt\n      tag_35\n      jumpi\n      dup1\n      0xf2e35647\n      gt\n      tag_36\n      jumpi\n      dup1\n      0xf2e35647\n      eq\n      tag_30\n      jumpi\n      dup1\n      0xf2fde38b\n      eq\n      tag_31\n      jumpi\n      dup1\n      0xf3d490db\n      eq\n      tag_32\n      jumpi\n      dup1\n      0xfad8b32a\n      eq\n      tag_33\n      jumpi\n      jump(tag_2)\n    tag_36:\n      dup1\n      0xbe45fd62\n      eq\n      tag_26\n      jumpi\n      dup1\n      0xc01f3d65\n      eq\n      tag_27\n      jumpi\n      dup1\n      0xd7d5b928\n      eq\n      tag_28\n      jumpi\n      dup1\n      0xe77c646d\n      eq\n      tag_29\n      jumpi\n      jump(tag_2)\n    tag_35:\n      dup1\n      0xa82a4a62\n      gt\n      tag_37\n      jumpi\n      dup1\n      0xa82a4a62\n      eq\n      tag_22\n      jumpi\n      dup1\n      0xac781627\n      eq\n      tag_23\n      jumpi\n      dup1\n      0xb6363cf2\n      eq\n      tag_24\n      jumpi\n      dup1\n      0xbb3acde9\n      eq\n      tag_25\n      jumpi\n      jump(tag_2)\n    tag_37:\n      dup1\n      0x8da5cb5b\n      eq\n      tag_18\n      jumpi\n      dup1\n      0x959b8c3f\n      eq\n      tag_19\n      jumpi\n      dup1\n      0x9945e70e\n      eq\n      tag_20\n      jumpi\n      dup1\n      0x9d6232fa\n      eq\n      tag_21\n      jumpi\n      jump(tag_2)\n    tag_34:\n      dup1\n      0x4ad12aa4\n      gt\n      tag_38\n      jumpi\n      dup1\n      0x70a08231\n      gt\n      tag_39\n      jumpi\n      dup1\n      0x70a08231\n      eq\n      tag_14\n      jumpi\n      dup1\n      0x715018a6\n      eq\n      tag_15\n      jumpi\n      dup1\n      0x740ab8f4\n      eq\n      tag_16\n      jumpi\n      dup1\n      0x8c0dee9c\n      eq\n      tag_17\n      jumpi\n      jump(tag_2)\n    tag_39:\n      dup1\n      0x4ad12aa4\n      eq\n      tag_10\n      jumpi\n      dup1\n      0x62eb0068\n      eq\n      tag_11\n      jumpi\n      dup1\n      0x67c84919\n      eq\n      tag_12\n      jumpi\n      dup1\n      0x6d77cad6\n      eq\n      tag_13\n      jumpi\n      jump(tag_2)\n    tag_38:\n      dup1\n      0x13d557bc\n      gt\n      tag_40\n      jumpi\n      dup1\n      0x13d557bc\n      eq\n      tag_6\n      jumpi\n      dup1\n      0x168ecec5\n      eq\n      tag_7\n      jumpi\n      dup1\n      0x18160ddd\n      eq\n      tag_8\n      jumpi\n      dup1\n      0x30e82803\n      eq\n      tag_9\n      jumpi\n      jump(tag_2)\n    tag_40:\n      dup1\n      0x054426ce\n      eq\n      tag_3\n      jumpi\n      dup1\n      0x0d361c0a\n      eq\n      tag_4\n      jumpi\n      dup1\n      0x103ef9e1\n      eq\n      tag_5\n      jumpi\n    tag_2:\n      0x00\n      dup1\n      revert\n        /* \"contracts/ERC1410/ERC1410Standard.sol\":515:625  bytes32 public constant TRANSIT_PARTITION = 0x7465737600000000000000000000000000000000000000000000000000000000 */\n    tag_3:\n      tag_41\n      tag_42\n      jump\t// in\n    tag_41:\n      mload(0x40)\n      dup1\n      dup3\n      dup2\n      mstore\n      0x20\n      add\n      swap2\n      pop\n      pop\n      mload(0x40)\n      dup1\n      swap2\n      sub\n      swap1\n      return\n        /* \"contracts/ERC1410/ERC1410Standard.sol\":396:508  bytes32 public constant HELD_FREE_PARTITION = 0x7465737400000000000000000000000000000000000000000000000000000000 */\n    tag_4:\n      tag_43\n      tag_44\n      jump\t// in\n    tag_43:\n      mload(0x40)\n      dup1\n      dup3\n      dup2\n      mstore\n      0x20\n      add\n      swap2\n      pop\n      pop\n      mload(0x40)\n      dup1\n      swap2\n      sub\n      swap1\n      return\n        /* \"contracts/ERC1410/ERC1410Standard.sol\":14312:14566  function authorizeOperatorByPartition(bytes32 _partition, address _operator) external override {\r... */\n    tag_5:\n      tag_45\n      0x04\n      dup1\n      calldatasize\n      sub\n      0x40\n      dup2\n      lt\n      iszero\n      tag_46\n      jumpi\n      0x00\n      dup1\n      revert\n    tag_46:\n      dup2\n      add\n      swap1\n      dup1\n      dup1\n      calldataload\n      swap1\n      0x20\n      add\n      swap1\n      swap3\n      swap2\n      swap1\n      dup1\n      calldataload\n      0xffffffffffffffffffffffffffffffffffffffff\n      and\n      swap1\n      0x20\n      add\n      swap1\n      swap3\n      swap2\n      swap1\n      pop\n      pop\n      pop\n      tag_47\n      jump\t// in\n    tag_45:\n      stop\n        /* \"contracts/ERC1410/ERC1410Standard.sol\":23446:24093  function operatorRedeemByPartition(bytes32 _partition, address _tokenHolder, uint256 _value, bytes calldata _data, bytes calldata _operatorData) external override {\r... */\n    tag_6:\n      tag_48\n      0x04\n      dup1\n      calldatasize\n      sub\n      0xa0\n      dup2\n      lt\n      iszero\n      tag_49\n      jumpi\n      0x00\n      dup1\n      revert\n    tag_49:\n      dup2\n      add\n      swap1\n      dup1\n      dup1\n      calldataload\n      swap1\n      0x20\n      add\n      swap1\n      swap3\n      swap2\n      swap1\n      dup1\n      calldataload\n      0xffffffffffffffffffffffffffffffffffffffff\n      and\n      swap1\n      0x20\n      add\n      swap1\n      swap3\n      swap2\n      swap1\n      dup1\n      calldataload\n      swap1\n      0x20\n      add\n      swap1\n      swap3\n      swap2\n      swap1\n      dup1\n      calldataload\n      swap1\n      0x20\n      add\n      swap1\n      0x0100000000\n      dup2\n      gt\n      iszero\n      tag_50\n      jumpi\n      0x00\n      dup1\n      revert\n    tag_50:\n      dup3\n      add\n      dup4\n      0x20\n      dup3\n      add\n      gt\n      iszero\n      tag_51\n      jumpi\n      0x00\n      dup1\n      revert\n    tag_51:\n      dup1\n      calldataload\n      swap1\n      0x20\n      add\n      swap2\n      dup5\n      0x01\n      dup4\n      mul\n      dup5\n      add\n      gt\n      0x0100000000\n      dup4\n      gt\n      or\n      iszero\n      tag_52\n      jumpi\n      0x00\n      dup1\n      revert\n    tag_52:\n      swap1\n      swap2\n      swap3\n      swap4\n      swap2\n      swap3\n      swap4\n      swap1\n      dup1\n      calldataload\n      swap1\n      0x20\n      add\n      swap1\n      0x0100000000\n      dup2\n      gt\n      iszero\n      tag_53\n      jumpi\n      0x00\n      dup1\n      revert\n    tag_53:\n      dup3\n      add\n      dup4\n      0x20\n      dup3\n      add\n      gt\n      iszero\n      tag_54\n      jumpi\n      0x00\n      dup1\n      revert\n    tag_54:\n      dup1\n      calldataload\n      swap1\n      0x20\n      add\n      swap2\n      dup5\n      0x01\n      dup4\n      mul\n      dup5\n      add\n      gt\n      0x0100000000\n      dup4\n      gt\n      or\n      iszero\n      tag_55\n      jumpi\n      0x00\n      dup1\n      revert\n    tag_55:\n      swap1\n      swap2\n      swap3\n      swap4\n      swap2\n      swap3\n      swap4\n      swap1\n      pop\n      pop\n      pop\n      tag_56\n      jump\t// in\n    tag_48:\n      stop\n        /* \"contracts/ERC1410/ERC1410Standard.sol\":14833:15082  function revokeOperatorByPartition(bytes32 _partition, address _operator) external override {\r... */\n    tag_7:\n      tag_57\n      0x04\n      dup1\n      calldatasize\n      sub\n      0x40\n      dup2\n      lt\n      iszero\n      tag_58\n      jumpi\n      0x00\n      dup1\n      revert\n    tag_58:\n      dup2\n      add\n      swap1\n      dup1\n      dup1\n      calldataload\n      swap1\n      0x20\n      add\n      swap1\n      swap3\n      swap2\n      swap1\n      dup1\n      calldataload\n      0xffffffffffffffffffffffffffffffffffffffff\n      and\n      swap1\n      0x20\n      add\n      swap1\n      swap3\n      swap2\n      swap1\n      pop\n      pop\n      pop\n      tag_59\n      jump\t// in\n    tag_57:\n      stop\n        /* \"contracts/ERC1410/ERC1410Standard.sol\":1744:1852  function totalSupply() public view virtual override returns (uint256) {\r... */\n    tag_8:\n      tag_60\n      tag_61\n      jump\t// in\n    tag_60:\n      mload(0x40)\n      dup1\n      dup3\n      dup2\n      mstore\n      0x20\n      add\n      swap2\n      pop\n      pop\n      mload(0x40)\n      dup1\n      swap2\n      sub\n      swap1\n      return\n        /* \"contracts/ERC1410/ERC1410Standard.sol\":2417:2732  function balanceOfByPartition(bytes32 _partition, address _tokenHolder) external override view returns (uint256) {\r... */\n    tag_9:\n      tag_62\n      0x04\n      dup1\n      calldatasize\n      sub\n      0x40\n      dup2\n      lt\n      iszero\n      tag_63\n      jumpi\n      0x00\n      dup1\n      revert\n    tag_63:\n      dup2\n      add\n      swap1\n      dup1\n      dup1\n      calldataload\n      swap1\n      0x20\n      add\n      swap1\n      swap3\n      swap2\n      swap1\n      dup1\n      calldataload\n      0xffffffffffffffffffffffffffffffffffffffff\n      and\n      swap1\n      0x20\n      add\n      swap1\n      swap3\n      swap2\n      swap1\n      pop\n      pop\n      pop\n      tag_64\n      jump\t// in\n    tag_62:\n      mload(0x40)\n      dup1\n      dup3\n      dup2\n      mstore\n      0x20\n      add\n      swap2\n      pop\n      pop\n      mload(0x40)\n      dup1\n      swap2\n      sub\n      swap1\n      return\n        /* \"contracts/ERC1410/ERC1410Standard.sol\":16932:17540  function operatorTransfer( address _from, address _to, uint256 _value, bytes calldata _data, bytes calldata _operatorData) external override returns (bytes32) {\r... */\n    tag_10:\n      tag_65\n      0x04\n      dup1\n      calldatasize\n      sub\n      0xa0\n      dup2\n      lt\n      iszero\n      tag_66\n      jumpi\n      0x00\n      dup1\n      revert\n    tag_66:\n      dup2\n      add\n      swap1\n      dup1\n      dup1\n      calldataload\n      0xffffffffffffffffffffffffffffffffffffffff\n      and\n      swap1\n      0x20\n      add\n      swap1\n      swap3\n      swap2\n      swap1\n      dup1\n      calldataload\n      0xffffffffffffffffffffffffffffffffffffffff\n      and\n      swap1\n      0x20\n      add\n      swap1\n      swap3\n      swap2\n      swap1\n      dup1\n      calldataload\n      swap1\n      0x20\n      add\n      swap1\n      swap3\n      swap2\n      swap1\n      dup1\n      calldataload\n      swap1\n      0x20\n      add\n      swap1\n      0x0100000000\n      dup2\n      gt\n      iszero\n      tag_67\n      jumpi\n      0x00\n      dup1\n      revert\n    tag_67:\n      dup3\n      add\n      dup4\n      0x20\n      dup3\n      add\n      gt\n      iszero\n      tag_68\n      jumpi\n      0x00\n      dup1\n      revert\n    tag_68:\n      dup1\n      calldataload\n      swap1\n      0x20\n      add\n      swap2\n      dup5\n      0x01\n      dup4\n      mul\n      dup5\n      add\n      gt\n      0x0100000000\n      dup4\n      gt\n      or\n      iszero\n      tag_69\n      jumpi\n      0x00\n      dup1\n      revert\n    tag_69:\n      swap1\n      swap2\n      swap3\n      swap4\n      swap2\n      swap3\n      swap4\n      swap1\n      dup1\n      calldataload\n      swap1\n      0x20\n      add\n      swap1\n      0x0100000000\n      dup2\n      gt\n      iszero\n      tag_70\n      jumpi\n      0x00\n      dup1\n      revert\n    tag_70:\n      dup3\n      add\n      dup4\n      0x20\n      dup3\n      add\n      gt\n      iszero\n      tag_71\n      jumpi\n      0x00\n      dup1\n      revert\n    tag_71:\n      dup1\n      calldataload\n      swap1\n      0x20\n      add\n      swap2\n      dup5\n      0x01\n      dup4\n      mul\n      dup5\n      add\n      gt\n      0x0100000000\n      dup4\n      gt\n      or\n      iszero\n      tag_72\n      jumpi\n      0x00\n      dup1\n      revert\n    tag_72:\n      swap1\n      swap2\n      swap3\n      swap4\n      swap2\n      swap3\n      swap4\n      swap1\n      pop\n      pop\n      pop\n      tag_73\n      jump\t// in\n    tag_65:\n      mload(0x40)\n      dup1\n      dup3\n      dup2\n      mstore\n      0x20\n      add\n      swap2\n      pop\n      pop\n      mload(0x40)\n      dup1\n      swap2\n      sub\n      swap1\n      return\n        /* \"contracts/ERC1410/ERC1410Standard.sol\":21562:21820  function redeemByPartition(bytes32 _partition, uint256 _value, bytes calldata _data) external override {\r... */\n    tag_11:\n      tag_74\n      0x04\n      dup1\n      calldatasize\n      sub\n      0x60\n      dup2\n      lt\n      iszero\n      tag_75\n      jumpi\n      0x00\n      dup1\n      revert\n    tag_75:\n      dup2\n      add\n      swap1\n      dup1\n      dup1\n      calldataload\n      swap1\n      0x20\n      add\n      swap1\n      swap3\n      swap2\n      swap1\n      dup1\n      calldataload\n      swap1\n      0x20\n      add\n      swap1\n      swap3\n      swap2\n      swap1\n      dup1\n      calldataload\n      swap1\n      0x20\n      add\n      swap1\n      0x0100000000\n      dup2\n      gt\n      iszero\n      tag_76\n      jumpi\n      0x00\n      dup1\n      revert\n    tag_76:\n      dup3\n      add\n      dup4\n      0x20\n      dup3\n      add\n      gt\n      iszero\n      tag_77\n      jumpi\n      0x00\n      dup1\n      revert\n    tag_77:\n      dup1\n      calldataload\n      swap1\n      0x20\n      add\n      swap2\n      dup5\n      0x01\n      dup4\n      mul\n      dup5\n      add\n      gt\n      0x0100000000\n      dup4\n      gt\n      or\n      iszero\n      tag_78\n      jumpi\n      0x00\n      dup1\n      revert\n    tag_78:\n      swap1\n      swap2\n      swap3\n      swap4\n      swap2\n      swap3\n      swap4\n      swap1\n      pop\n      pop\n      pop\n      tag_79\n      jump\t// in\n    tag_74:\n      stop\n        /* \"contracts/ERC1410/ERC1410Standard.sol\":17944:18222  function issueByPartition(bytes32 _partition, address _tokenHolder, uint256 _value, bytes calldata _data) external override onlyOwner {\r... */\n    tag_12:\n      tag_80\n      0x04\n      dup1\n      calldatasize\n      sub\n      0x80\n      dup2\n      lt\n      iszero\n      tag_81\n      jumpi\n      0x00\n      dup1\n      revert\n    tag_81:\n      dup2\n      add\n      swap1\n      dup1\n      dup1\n      calldataload\n      swap1\n      0x20\n      add\n      swap1\n      swap3\n      swap2\n      swap1\n      dup1\n      calldataload\n      0xffffffffffffffffffffffffffffffffffffffff\n      and\n      swap1\n      0x20\n      add\n      swap1\n      swap3\n      swap2\n      swap1\n      dup1\n      calldataload\n      swap1\n      0x20\n      add\n      swap1\n      swap3\n      swap2\n      swap1\n      dup1\n      calldataload\n      swap1\n      0x20\n      add\n      swap1\n      0x0100000000\n      dup2\n      gt\n      iszero\n      tag_82\n      jumpi\n      0x00\n      dup1\n      revert\n    tag_82:\n      dup3\n      add\n      dup4\n      0x20\n      dup3\n      add\n      gt\n      iszero\n      tag_83\n      jumpi\n      0x00\n      dup1\n      revert\n    tag_83:\n      dup1\n      calldataload\n      swap1\n      0x20\n      add\n      swap2\n      dup5\n      0x01\n      dup4\n      mul\n      dup5\n      add\n      gt\n      0x0100000000\n      dup4\n      gt\n      or\n      iszero\n      tag_84\n      jumpi\n      0x00\n      dup1\n      revert\n    tag_84:\n      swap1\n      swap2\n      swap3\n      swap4\n      swap2\n      swap3\n      swap4\n      swap1\n      pop\n      pop\n      pop\n      tag_85\n      jump\t// in\n    tag_80:\n      stop\n        /* \"contracts/ERC1410/ERC1410Standard.sol\":13108:13318  function isOperatorForPartition(bytes32 _partition, address _operator, address _tokenHolder) public override view returns (bool) {\r... */\n    tag_13:\n      tag_86\n      0x04\n      dup1\n      calldatasize\n      sub\n      0x60\n      dup2\n      lt\n      iszero\n      tag_87\n      jumpi\n      0x00\n      dup1\n      revert\n    tag_87:\n      dup2\n      add\n      swap1\n      dup1\n      dup1\n      calldataload\n      swap1\n      0x20\n      add\n      swap1\n      swap3\n      swap2\n      swap1\n      dup1\n      calldataload\n      0xffffffffffffffffffffffffffffffffffffffff\n      and\n      swap1\n      0x20\n      add\n      swap1\n      swap3\n      swap2\n      swap1\n      dup1\n      calldataload\n      0xffffffffffffffffffffffffffffffffffffffff\n      and\n      swap1\n      0x20\n      add\n      swap1\n      swap3\n      swap2\n      swap1\n      pop\n      pop\n      pop\n      tag_88\n      jump\t// in\n    tag_86:\n      mload(0x40)\n      dup1\n      dup3\n      iszero\n      iszero\n      dup2\n      mstore\n      0x20\n      add\n      swap2\n      pop\n      pop\n      mload(0x40)\n      dup1\n      swap2\n      sub\n      swap1\n      return\n        /* \"contracts/ERC1410/ERC1410Standard.sol\":1915:2041  function balanceOf(address account) public view virtual override returns (uint256) {\r... */\n    tag_14:\n      tag_89\n      0x04\n      dup1\n      calldatasize\n      sub\n      0x20\n      dup2\n      lt\n      iszero\n      tag_90\n      jumpi\n      0x00\n      dup1\n      revert\n    tag_90:\n      dup2\n      add\n      swap1\n      dup1\n      dup1\n      calldataload\n      0xffffffffffffffffffffffffffffffffffffffff\n      and\n      swap1\n      0x20\n      add\n      swap1\n      swap3\n      swap2\n      swap1\n      pop\n      pop\n      pop\n      tag_91\n      jump\t// in\n    tag_89:\n      mload(0x40)\n      dup1\n      dup3\n      dup2\n      mstore\n      0x20\n      add\n      swap2\n      pop\n      pop\n      mload(0x40)\n      dup1\n      swap2\n      sub\n      swap1\n      return\n        /* \"openzeppelin-solidity/contracts/access/Ownable.sol\":1717:1862  function renounceOwnership() public virtual onlyOwner {... */\n    tag_15:\n      tag_92\n      tag_93\n      jump\t// in\n    tag_92:\n      stop\n        /* \"contracts/ERC1410/ERC1410Standard.sol\":2944:3326  function partitionsOf(address _tokenHolder) external override view returns (bytes32[] memory) {\r... */\n    tag_16:\n      tag_94\n      0x04\n      dup1\n      calldatasize\n      sub\n      0x20\n      dup2\n      lt\n      iszero\n      tag_95\n      jumpi\n      0x00\n      dup1\n      revert\n    tag_95:\n      dup2\n      add\n      swap1\n      dup1\n      dup1\n      calldataload\n      0xffffffffffffffffffffffffffffffffffffffff\n      and\n      swap1\n      0x20\n      add\n      swap1\n      swap3\n      swap2\n      swap1\n      pop\n      pop\n      pop\n      tag_96\n      jump\t// in\n    tag_94:\n      mload(0x40)\n      dup1\n      dup1\n      0x20\n      add\n      dup3\n      dup2\n      sub\n      dup3\n      mstore\n      dup4\n      dup2\n      dup2\n      mload\n      dup2\n      mstore\n      0x20\n      add\n      swap2\n      pop\n      dup1\n      mload\n      swap1\n      0x20\n      add\n      swap1\n      0x20\n      mul\n      dup1\n      dup4\n      dup4\n      0x00\n    tag_97:\n      dup4\n      dup2\n      lt\n      iszero\n      tag_99\n      jumpi\n      dup1\n      dup3\n      add\n      mload\n      dup2\n      dup5\n      add\n      mstore\n      0x20\n      dup2\n      add\n      swap1\n      pop\n      jump(tag_97)\n    tag_99:\n      pop\n      pop\n      pop\n      pop\n      swap1\n      pop\n      add\n      swap3\n      pop\n      pop\n      pop\n      mload(0x40)\n      dup1\n      swap2\n      sub\n      swap1\n      return\n        /* \"contracts/ERC1410/ERC1410Standard.sol\":15749:16338  function operatorTransferByPartition(bytes32 _partition, address _from, address _to, uint256 _value, bytes calldata _data, bytes calldata _operatorData) external override returns (bytes32) {\r... */\n    tag_17:\n      tag_100\n      0x04\n      dup1\n      calldatasize\n      sub\n      0xc0\n      dup2\n      lt\n      iszero\n      tag_101\n      jumpi\n      0x00\n      dup1\n      revert\n    tag_101:\n      dup2\n      add\n      swap1\n      dup1\n      dup1\n      calldataload\n      swap1\n      0x20\n      add\n      swap1\n      swap3\n      swap2\n      swap1\n      dup1\n      calldataload\n      0xffffffffffffffffffffffffffffffffffffffff\n      and\n      swap1\n      0x20\n      add\n      swap1\n      swap3\n      swap2\n      swap1\n      dup1\n      calldataload\n      0xffffffffffffffffffffffffffffffffffffffff\n      and\n      swap1\n      0x20\n      add\n      swap1\n      swap3\n      swap2\n      swap1\n      dup1\n      calldataload\n      swap1\n      0x20\n      add\n      swap1\n      swap3\n      swap2\n      swap1\n      dup1\n      calldataload\n      swap1\n      0x20\n      add\n      swap1\n      0x0100000000\n      dup2\n      gt\n      iszero\n      tag_102\n      jumpi\n      0x00\n      dup1\n      revert\n    tag_102:\n      dup3\n      add\n      dup4\n      0x20\n      dup3\n      add\n      gt\n      iszero\n      tag_103\n      jumpi\n      0x00\n      dup1\n      revert\n    tag_103:\n      dup1\n      calldataload\n      swap1\n      0x20\n      add\n      swap2\n      dup5\n      0x01\n      dup4\n      mul\n      dup5\n      add\n      gt\n      0x0100000000\n      dup4\n      gt\n      or\n      iszero\n      tag_104\n      jumpi\n      0x00\n      dup1\n      revert\n    tag_104:\n      swap1\n      swap2\n      swap3\n      swap4\n      swap2\n      swap3\n      swap4\n      swap1\n      dup1\n      calldataload\n      swap1\n      0x20\n      add\n      swap1\n      0x0100000000\n      dup2\n      gt\n      iszero\n      tag_105\n      jumpi\n      0x00\n      dup1\n      revert\n    tag_105:\n      dup3\n      add\n      dup4\n      0x20\n      dup3\n      add\n      gt\n      iszero\n      tag_106\n      jumpi\n      0x00\n      dup1\n      revert\n    tag_106:\n      dup1\n      calldataload\n      swap1\n      0x20\n      add\n      swap2\n      dup5\n      0x01\n      dup4\n      mul\n      dup5\n      add\n      gt\n      0x0100000000\n      dup4\n      gt\n      or\n      iszero\n      tag_107\n      jumpi\n      0x00\n      dup1\n      revert\n    tag_107:\n      swap1\n      swap2\n      swap3\n      swap4\n      swap2\n      swap3\n      swap4\n      swap1\n      pop\n      pop\n      pop\n      tag_108\n      jump\t// in\n    tag_100:\n      mload(0x40)\n      dup1\n      dup3\n      dup2\n      mstore\n      0x20\n      add\n      swap2\n      pop\n      pop\n      mload(0x40)\n      dup1\n      swap2\n      sub\n      swap1\n      return\n        /* \"openzeppelin-solidity/contracts/access/Ownable.sol\":1085:1170  function owner() public view virtual returns (address) {... */\n    tag_18:\n      tag_109\n      tag_110\n      jump\t// in\n    tag_109:\n      mload(0x40)\n      dup1\n      dup3\n      0xffffffffffffffffffffffffffffffffffffffff\n      and\n      dup2\n      mstore\n      0x20\n      add\n      swap2\n      pop\n      pop\n      mload(0x40)\n      dup1\n      swap2\n      sub\n      swap1\n      return\n        /* \"contracts/ERC1410/ERC1410Standard.sol\":13553:13732  function authorizeOperator(address _operator) external override {\r... */\n    tag_19:\n      tag_111\n      0x04\n      dup1\n      calldatasize\n      sub\n      0x20\n      dup2\n      lt\n      iszero\n      tag_112\n      jumpi\n      0x00\n      dup1\n      revert\n    tag_112:\n      dup2\n      add\n      swap1\n      dup1\n      dup1\n      calldataload\n      0xffffffffffffffffffffffffffffffffffffffff\n      and\n      swap1\n      0x20\n      add\n      swap1\n      swap3\n      swap2\n      swap1\n      pop\n      pop\n      pop\n      tag_113\n      jump\t// in\n    tag_111:\n      stop\n        /* \"contracts/ERC1410/ERC1410Standard.sol\":6980:7929  function canTransferByPartition(address _from, address _to, bytes32 _partition, uint256 _value, bytes calldata _data) external override view returns (bytes1, bytes32, bytes32) {\r... */\n    tag_20:\n      tag_114\n      0x04\n      dup1\n      calldatasize\n      sub\n      0xa0\n      dup2\n      lt\n      iszero\n      tag_115\n      jumpi\n      0x00\n      dup1\n      revert\n    tag_115:\n      dup2\n      add\n      swap1\n      dup1\n      dup1\n      calldataload\n      0xffffffffffffffffffffffffffffffffffffffff\n      and\n      swap1\n      0x20\n      add\n      swap1\n      swap3\n      swap2\n      swap1\n      dup1\n      calldataload\n      0xffffffffffffffffffffffffffffffffffffffff\n      and\n      swap1\n      0x20\n      add\n      swap1\n      swap3\n      swap2\n      swap1\n      dup1\n      calldataload\n      swap1\n      0x20\n      add\n      swap1\n      swap3\n      swap2\n      swap1\n      dup1\n      calldataload\n      swap1\n      0x20\n      add\n      swap1\n      swap3\n      swap2\n      swap1\n      dup1\n      calldataload\n      swap1\n      0x20\n      add\n      swap1\n      0x0100000000\n      dup2\n      gt\n      iszero\n      tag_116\n      jumpi\n      0x00\n      dup1\n      revert\n    tag_116:\n      dup3\n      add\n      dup4\n      0x20\n      dup3\n      add\n      gt\n      iszero\n      tag_117\n      jumpi\n      0x00\n      dup1\n      revert\n    tag_117:\n      dup1\n      calldataload\n      swap1\n      0x20\n      add\n      swap2\n      dup5\n      0x01\n      dup4\n      mul\n      dup5\n      add\n      gt\n      0x0100000000\n      dup4\n      gt\n      or\n      iszero\n      tag_118\n      jumpi\n      0x00\n      dup1\n      revert\n    tag_118:\n      swap1\n      swap2\n      swap3\n      swap4\n      swap2\n      swap3\n      swap4\n      swap1\n      pop\n      pop\n      pop\n      tag_119\n      jump\t// in\n    tag_114:\n      mload(0x40)\n      dup1\n      dup5\n      not(0xffffffffffffffffffffffffffffffffffffffffffffffffffffffffffffff)\n      and\n      dup2\n      mstore\n      0x20\n      add\n      dup4\n      dup2\n      mstore\n      0x20\n      add\n      dup3\n      dup2\n      mstore\n      0x20\n      add\n      swap4\n      pop\n      pop\n      pop\n      pop\n      mload(0x40)\n      dup1\n      swap2\n      sub\n      swap1\n      return\n        /* \"contracts/ERC1410/ERC1410Standard.sol\":8655:9623  function canTransfer(address _from, address _to,  uint256 _value, bytes calldata _data) external override view returns (bytes1, bytes32, bytes32) {\r... */\n    tag_21:\n      tag_120\n      0x04\n      dup1\n      calldatasize\n      sub\n      0x80\n      dup2\n      lt\n      iszero\n      tag_121\n      jumpi\n      0x00\n      dup1\n      revert\n    tag_121:\n      dup2\n      add\n      swap1\n      dup1\n      dup1\n      calldataload\n      0xffffffffffffffffffffffffffffffffffffffff\n      and\n      swap1\n      0x20\n      add\n      swap1\n      swap3\n      swap2\n      swap1\n      dup1\n      calldataload\n      0xffffffffffffffffffffffffffffffffffffffff\n      and\n      swap1\n      0x20\n      add\n      swap1\n      swap3\n      swap2\n      swap1\n      dup1\n      calldataload\n      swap1\n      0x20\n      add\n      swap1\n      swap3\n      swap2\n      swap1\n      dup1\n      calldataload\n      swap1\n      0x20\n      add\n      swap1\n      0x0100000000\n      dup2\n      gt\n      iszero\n      tag_122\n      jumpi\n      0x00\n      dup1\n      revert\n    tag_122:\n      dup3\n      add\n      dup4\n      0x20\n      dup3\n      add\n      gt\n      iszero\n      tag_123\n      jumpi\n      0x00\n      dup1\n      revert\n    tag_123:\n      dup1\n      calldataload\n      swap1\n      0x20\n      add\n      swap2\n      dup5\n      0x01\n      dup4\n      mul\n      dup5\n      add\n      gt\n      0x0100000000\n      dup4\n      gt\n      or\n      iszero\n      tag_124\n      jumpi\n      0x00\n      dup1\n      revert\n    tag_124:\n      swap1\n      swap2\n      swap3\n      swap4\n      swap2\n      swap3\n      swap4\n      swap1\n      pop\n      pop\n      pop\n      tag_125\n      jump\t// in\n    tag_120:\n      mload(0x40)\n      dup1\n      dup5\n      not(0xffffffffffffffffffffffffffffffffffffffffffffffffffffffffffffff)\n      and\n      dup2\n      mstore\n      0x20\n      add\n      dup4\n      dup2\n      mstore\n      0x20\n      add\n      dup3\n      dup2\n      mstore\n      0x20\n      add\n      swap4\n      pop\n      pop\n      pop\n      pop\n      mload(0x40)\n      dup1\n      swap2\n      sub\n      swap1\n      return\n        /* \"contracts/ERC1410/ERC1410Standard.sol\":18856:19305  function operatorIssue( address _tokenHolder, uint256 _value, bytes calldata _data, bytes calldata _operatorData) external override  {\r... */\n    tag_22:\n      tag_126\n      0x04\n      dup1\n      calldatasize\n      sub\n      0x80\n      dup2\n      lt\n      iszero\n      tag_127\n      jumpi\n      0x00\n      dup1\n      revert\n    tag_127:\n      dup2\n      add\n      swap1\n      dup1\n      dup1\n      calldataload\n      0xffffffffffffffffffffffffffffffffffffffff\n      and\n      swap1\n      0x20\n      add\n      swap1\n      swap3\n      swap2\n      swap1\n      dup1\n      calldataload\n      swap1\n      0x20\n      add\n      swap1\n      swap3\n      swap2\n      swap1\n      dup1\n      calldataload\n      swap1\n      0x20\n      add\n      swap1\n      0x0100000000\n      dup2\n      gt\n      iszero\n      tag_128\n      jumpi\n      0x00\n      dup1\n      revert\n    tag_128:\n      dup3\n      add\n      dup4\n      0x20\n      dup3\n      add\n      gt\n      iszero\n      tag_129\n      jumpi\n      0x00\n      dup1\n      revert\n    tag_129:\n      dup1\n      calldataload\n      swap1\n      0x20\n      add\n      swap2\n      dup5\n      0x01\n      dup4\n      mul\n      dup5\n      add\n      gt\n      0x0100000000\n      dup4\n      gt\n      or\n      iszero\n      tag_130\n      jumpi\n      0x00\n      dup1\n      revert\n    tag_130:\n      swap1\n      swap2\n      swap3\n      swap4\n      swap2\n      swap3\n      swap4\n      swap1\n      dup1\n      calldataload\n      swap1\n      0x20\n      add\n      swap1\n      0x0100000000\n      dup2\n      gt\n      iszero\n      tag_131\n      jumpi\n      0x00\n      dup1\n      revert\n    tag_131:\n      dup3\n      add\n      dup4\n      0x20\n      dup3\n      add\n      gt\n      iszero\n      tag_132\n      jumpi\n      0x00\n      dup1\n      revert\n    tag_132:\n      dup1\n      calldataload\n      swap1\n      0x20\n      add\n      swap2\n      dup5\n      0x01\n      dup4\n      mul\n      dup5\n      add\n      gt\n      0x0100000000\n      dup4\n      gt\n      or\n      iszero\n      tag_133\n      jumpi\n      0x00\n      dup1\n      revert\n    tag_133:\n      swap1\n      swap2\n      swap3\n      swap4\n      swap2\n      swap3\n      swap4\n      swap1\n      pop\n      pop\n      pop\n      tag_134\n      jump\t// in\n    tag_126:\n      stop\n        /* \"contracts/ERC1410/ERC1410Standard.sol\":19311:19804  function operatorIssueByPartition(bytes32 _partition, address _tokenHolder, uint256 _value, bytes calldata _data, bytes calldata _operatorData) external override  {\r... */\n    tag_23:\n      tag_135\n      0x04\n      dup1\n      calldatasize\n      sub\n      0xa0\n      dup2\n      lt\n      iszero\n      tag_136\n      jumpi\n      0x00\n      dup1\n      revert\n    tag_136:\n      dup2\n      add\n      swap1\n      dup1\n      dup1\n      calldataload\n      swap1\n      0x20\n      add\n      swap1\n      swap3\n      swap2\n      swap1\n      dup1\n      calldataload\n      0xffffffffffffffffffffffffffffffffffffffff\n      and\n      swap1\n      0x20\n      add\n      swap1\n      swap3\n      swap2\n      swap1\n      dup1\n      calldataload\n      swap1\n      0x20\n      add\n      swap1\n      swap3\n      swap2\n      swap1\n      dup1\n      calldataload\n      swap1\n      0x20\n      add\n      swap1\n      0x0100000000\n      dup2\n      gt\n      iszero\n      tag_137\n      jumpi\n      0x00\n      dup1\n      revert\n    tag_137:\n      dup3\n      add\n      dup4\n      0x20\n      dup3\n      add\n      gt\n      iszero\n      tag_138\n      jumpi\n      0x00\n      dup1\n      revert\n    tag_138:\n      dup1\n      calldataload\n      swap1\n      0x20\n      add\n      swap2\n      dup5\n      0x01\n      dup4\n      mul\n      dup5\n      add\n      gt\n      0x0100000000\n      dup4\n      gt\n      or\n      iszero\n      tag_139\n      jumpi\n      0x00\n      dup1\n      revert\n    tag_139:\n      swap1\n      swap2\n      swap3\n      swap4\n      swap2\n      swap3\n      swap4\n      swap1\n      dup1\n      calldataload\n      swap1\n      0x20\n      add\n      swap1\n      0x0100000000\n      dup2\n      gt\n      iszero\n      tag_140\n      jumpi\n      0x00\n      dup1\n      revert\n    tag_140:\n      dup3\n      add\n      dup4\n      0x20\n      dup3\n      add\n      gt\n      iszero\n      tag_141\n      jumpi\n      0x00\n      dup1\n      revert\n    tag_141:\n      dup1\n      calldataload\n      swap1\n      0x20\n      add\n      swap2\n      dup5\n      0x01\n      dup4\n      mul\n      dup5\n      add\n      gt\n      0x0100000000\n      dup4\n      gt\n      or\n      iszero\n      tag_142\n      jumpi\n      0x00\n      dup1\n      revert\n    tag_142:\n      swap1\n      swap2\n      swap3\n      swap4\n      swap2\n      swap3\n      swap4\n      swap1\n      pop\n      pop\n      pop\n      tag_143\n      jump\t// in\n    tag_135:\n      stop\n        /* \"contracts/ERC1410/ERC1410Standard.sol\":12583:12740  function isOperator(address _operator, address _tokenHolder) public override view returns (bool) {\r... */\n    tag_24:\n      tag_144\n      0x04\n      dup1\n      calldatasize\n      sub\n      0x40\n      dup2\n      lt\n      iszero\n      tag_145\n      jumpi\n      0x00\n      dup1\n      revert\n    tag_145:\n      dup2\n      add\n      swap1\n      dup1\n      dup1\n      calldataload\n      0xffffffffffffffffffffffffffffffffffffffff\n      and\n      swap1\n      0x20\n      add\n      swap1\n      swap3\n      swap2\n      swap1\n      dup1\n      calldataload\n      0xffffffffffffffffffffffffffffffffffffffff\n      and\n      swap1\n      0x20\n      add\n      swap1\n      swap3\n      swap2\n      swap1\n      pop\n      pop\n      pop\n      tag_146\n      jump\t// in\n    tag_144:\n      mload(0x40)\n      dup1\n      dup3\n      iszero\n      iszero\n      dup2\n      mstore\n      0x20\n      add\n      swap2\n      pop\n      pop\n      mload(0x40)\n      dup1\n      swap2\n      sub\n      swap1\n      return\n        /* \"contracts/ERC1410/ERC1410Standard.sol\":18551:18848  function issue( address _tokenHolder, uint256 _value, bytes calldata _data) external override onlyOwner {\r... */\n    tag_25:\n      tag_147\n      0x04\n      dup1\n      calldatasize\n      sub\n      0x60\n      dup2\n      lt\n      iszero\n      tag_148\n      jumpi\n      0x00\n      dup1\n      revert\n    tag_148:\n      dup2\n      add\n      swap1\n      dup1\n      dup1\n      calldataload\n      0xffffffffffffffffffffffffffffffffffffffff\n      and\n      swap1\n      0x20\n      add\n      swap1\n      swap3\n      swap2\n      swap1\n      dup1\n      calldataload\n      swap1\n      0x20\n      add\n      swap1\n      swap3\n      swap2\n      swap1\n      dup1\n      calldataload\n      swap1\n      0x20\n      add\n      swap1\n      0x0100000000\n      dup2\n      gt\n      iszero\n      tag_149\n      jumpi\n      0x00\n      dup1\n      revert\n    tag_149:\n      dup3\n      add\n      dup4\n      0x20\n      dup3\n      add\n      gt\n      iszero\n      tag_150\n      jumpi\n      0x00\n      dup1\n      revert\n    tag_150:\n      dup1\n      calldataload\n      swap1\n      0x20\n      add\n      swap2\n      dup5\n      0x01\n      dup4\n      mul\n      dup5\n      add\n      gt\n      0x0100000000\n      dup4\n      gt\n      or\n      iszero\n      tag_151\n      jumpi\n      0x00\n      dup1\n      revert\n    tag_151:\n      swap1\n      swap2\n      swap3\n      swap4\n      swap2\n      swap3\n      swap4\n      swap1\n      pop\n      pop\n      pop\n      tag_152\n      jump\t// in\n    tag_147:\n      stop\n        /* \"contracts/ERC1410/ERC1410Standard.sol\":5212:6185  function transfer(address _to, uint256 _value, bytes calldata _data) external override returns (bytes32) {\r... */\n    tag_26:\n      tag_153\n      0x04\n      dup1\n      calldatasize\n      sub\n      0x60\n      dup2\n      lt\n      iszero\n      tag_154\n      jumpi\n      0x00\n      dup1\n      revert\n    tag_154:\n      dup2\n      add\n      swap1\n      dup1\n      dup1\n      calldataload\n      0xffffffffffffffffffffffffffffffffffffffff\n      and\n      swap1\n      0x20\n      add\n      swap1\n      swap3\n      swap2\n      swap1\n      dup1\n      calldataload\n      swap1\n      0x20\n      add\n      swap1\n      swap3\n      swap2\n      swap1\n      dup1\n      calldataload\n      swap1\n      0x20\n      add\n      swap1\n      0x0100000000\n      dup2\n      gt\n      iszero\n      tag_155\n      jumpi\n      0x00\n      dup1\n      revert\n    tag_155:\n      dup3\n      add\n      dup4\n      0x20\n      dup3\n      add\n      gt\n      iszero\n      tag_156\n      jumpi\n      0x00\n      dup1\n      revert\n    tag_156:\n      dup1\n      calldataload\n      swap1\n      0x20\n      add\n      swap2\n      dup5\n      0x01\n      dup4\n      mul\n      dup5\n      add\n      gt\n      0x0100000000\n      dup4\n      gt\n      or\n      iszero\n      tag_157\n      jumpi\n      0x00\n      dup1\n      revert\n    tag_157:\n      swap1\n      swap2\n      swap3\n      swap4\n      swap2\n      swap3\n      swap4\n      swap1\n      pop\n      pop\n      pop\n      tag_158\n      jump\t// in\n    tag_153:\n      mload(0x40)\n      dup1\n      dup3\n      dup2\n      mstore\n      0x20\n      add\n      swap2\n      pop\n      pop\n      mload(0x40)\n      dup1\n      swap2\n      sub\n      swap1\n      return\n        /* \"contracts/ERC1410/ERC1410Standard.sol\":632:746  bytes32 public constant UNCONFIRMED_PARTITION = 0x7465737800000000000000000000000000000000000000000000000000000000 */\n    tag_27:\n      tag_159\n      tag_160\n      jump\t// in\n    tag_159:\n      mload(0x40)\n      dup1\n      dup3\n      dup2\n      mstore\n      0x20\n      add\n      swap2\n      pop\n      pop\n      mload(0x40)\n      dup1\n      swap2\n      sub\n      swap1\n      return\n        /* \"contracts/ERC1410/ERC1410Standard.sol\":22329:22861  function operatorRedeem( address _tokenHolder, uint256 _value, bytes calldata _data, bytes calldata _operatorData) external override {\r... */\n    tag_28:\n      tag_161\n      0x04\n      dup1\n      calldatasize\n      sub\n      0x80\n      dup2\n      lt\n      iszero\n      tag_162\n      jumpi\n      0x00\n      dup1\n      revert\n    tag_162:\n      dup2\n      add\n      swap1\n      dup1\n      dup1\n      calldataload\n      0xffffffffffffffffffffffffffffffffffffffff\n      and\n      swap1\n      0x20\n      add\n      swap1\n      swap3\n      swap2\n      swap1\n      dup1\n      calldataload\n      swap1\n      0x20\n      add\n      swap1\n      swap3\n      swap2\n      swap1\n      dup1\n      calldataload\n      swap1\n      0x20\n      add\n      swap1\n      0x0100000000\n      dup2\n      gt\n      iszero\n      tag_163\n      jumpi\n      0x00\n      dup1\n      revert\n    tag_163:\n      dup3\n      add\n      dup4\n      0x20\n      dup3\n      add\n      gt\n      iszero\n      tag_164\n      jumpi\n      0x00\n      dup1\n      revert\n    tag_164:\n      dup1\n      calldataload\n      swap1\n      0x20\n      add\n      swap2\n      dup5\n      0x01\n      dup4\n      mul\n      dup5\n      add\n      gt\n      0x0100000000\n      dup4\n      gt\n      or\n      iszero\n      tag_165\n      jumpi\n      0x00\n      dup1\n      revert\n    tag_165:\n      swap1\n      swap2\n      swap3\n      swap4\n      swap2\n      swap3\n      swap4\n      swap1\n      dup1\n      calldataload\n      swap1\n      0x20\n      add\n      swap1\n      0x0100000000\n      dup2\n      gt\n      iszero\n      tag_166\n      jumpi\n      0x00\n      dup1\n      revert\n    tag_166:\n      dup3\n      add\n      dup4\n      0x20\n      dup3\n      add\n      gt\n      iszero\n      tag_167\n      jumpi\n      0x00\n      dup1\n      revert\n    tag_167:\n      dup1\n      calldataload\n      swap1\n      0x20\n      add\n      swap2\n      dup5\n      0x01\n      dup4\n      mul\n      dup5\n      add\n      gt\n      0x0100000000\n      dup4\n      gt\n      or\n      iszero\n      tag_168\n      jumpi\n      0x00\n      dup1\n      revert\n    tag_168:\n      swap1\n      swap2\n      swap3\n      swap4\n      swap2\n      swap3\n      swap4\n      swap1\n      pop\n      pop\n      pop\n      tag_169\n      jump\t// in\n    tag_161:\n      stop\n        /* \"contracts/ERC1410/ERC1410Standard.sol\":20992:21229  function redeem( uint256 _value, bytes calldata _data) external override {\r... */\n    tag_29:\n      tag_170\n      0x04\n      dup1\n      calldatasize\n      sub\n      0x40\n      dup2\n      lt\n      iszero\n      tag_171\n      jumpi\n      0x00\n      dup1\n      revert\n    tag_171:\n      dup2\n      add\n      swap1\n      dup1\n      dup1\n      calldataload\n      swap1\n      0x20\n      add\n      swap1\n      swap3\n      swap2\n      swap1\n      dup1\n      calldataload\n      swap1\n      0x20\n      add\n      swap1\n      0x0100000000\n      dup2\n      gt\n      iszero\n      tag_172\n      jumpi\n      0x00\n      dup1\n      revert\n    tag_172:\n      dup3\n      add\n      dup4\n      0x20\n      dup3\n      add\n      gt\n      iszero\n      tag_173\n      jumpi\n      0x00\n      dup1\n      revert\n    tag_173:\n      dup1\n      calldataload\n      swap1\n      0x20\n      add\n      swap2\n      dup5\n      0x01\n      dup4\n      mul\n      dup5\n      add\n      gt\n      0x0100000000\n      dup4\n      gt\n      or\n      iszero\n      tag_174\n      jumpi\n      0x00\n      dup1\n      revert\n    tag_174:\n      swap1\n      swap2\n      swap3\n      swap4\n      swap2\n      swap3\n      swap4\n      swap1\n      pop\n      pop\n      pop\n      tag_175\n      jump\t// in\n    tag_170:\n      stop\n        /* \"contracts/ERC1410/ERC1410Standard.sol\":11209:11528  function _validPartitionForReceiver(bytes32 _partition, address _to) public view returns(bool) {\r... */\n    tag_30:\n      tag_176\n      0x04\n      dup1\n      calldatasize\n      sub\n      0x40\n      dup2\n      lt\n      iszero\n      tag_177\n      jumpi\n      0x00\n      dup1\n      revert\n    tag_177:\n      dup2\n      add\n      swap1\n      dup1\n      dup1\n      calldataload\n      swap1\n      0x20\n      add\n      swap1\n      swap3\n      swap2\n      swap1\n      dup1\n      calldataload\n      0xffffffffffffffffffffffffffffffffffffffff\n      and\n      swap1\n      0x20\n      add\n      swap1\n      swap3\n      swap2\n      swap1\n      pop\n      pop\n      pop\n      tag_178\n      jump\t// in\n    tag_176:\n      mload(0x40)\n      dup1\n      dup3\n      iszero\n      iszero\n      dup2\n      mstore\n      0x20\n      add\n      swap2\n      pop\n      pop\n      mload(0x40)\n      dup1\n      swap2\n      sub\n      swap1\n      return\n        /* \"openzeppelin-solidity/contracts/access/Ownable.sol\":2011:2251  function transferOwnership(address newOwner) public virtual onlyOwner {... */\n    tag_31:\n      tag_179\n      0x04\n      dup1\n      calldatasize\n      sub\n      0x20\n      dup2\n      lt\n      iszero\n      tag_180\n      jumpi\n      0x00\n      dup1\n      revert\n    tag_180:\n      dup2\n      add\n      swap1\n      dup1\n      dup1\n      calldataload\n      0xffffffffffffffffffffffffffffffffffffffff\n      and\n      swap1\n      0x20\n      add\n      swap1\n      swap3\n      swap2\n      swap1\n      pop\n      pop\n      pop\n      tag_181\n      jump\t// in\n    tag_179:\n      stop\n        /* \"contracts/ERC1410/ERC1410Standard.sol\":3827:4782  function transferByPartition(bytes32 _partition, address _to, uint256 _value, bytes calldata _data) external override returns (bytes32) {\r... */\n    tag_32:\n      tag_182\n      0x04\n      dup1\n      calldatasize\n      sub\n      0x80\n      dup2\n      lt\n      iszero\n      tag_183\n      jumpi\n      0x00\n      dup1\n      revert\n    tag_183:\n      dup2\n      add\n      swap1\n      dup1\n      dup1\n      calldataload\n      swap1\n      0x20\n      add\n      swap1\n      swap3\n      swap2\n      swap1\n      dup1\n      calldataload\n      0xffffffffffffffffffffffffffffffffffffffff\n      and\n      swap1\n      0x20\n      add\n      swap1\n      swap3\n      swap2\n      swap1\n      dup1\n      calldataload\n      swap1\n      0x20\n      add\n      swap1\n      swap3\n      swap2\n      swap1\n      dup1\n      calldataload\n      swap1\n      0x20\n      add\n      swap1\n      0x0100000000\n      dup2\n      gt\n      iszero\n      tag_184\n      jumpi\n      0x00\n      dup1\n      revert\n    tag_184:\n      dup3\n      add\n      dup4\n      0x20\n      dup3\n      add\n      gt\n      iszero\n      tag_185\n      jumpi\n      0x00\n      dup1\n      revert\n    tag_185:\n      dup1\n      calldataload\n      swap1\n      0x20\n      add\n      swap2\n      dup5\n      0x01\n      dup4\n      mul\n      dup5\n      add\n      gt\n      0x0100000000\n      dup4\n      gt\n      or\n      iszero\n      tag_186\n      jumpi\n      0x00\n      dup1\n      revert\n    tag_186:\n      swap1\n      swap2\n      swap3\n      swap4\n      swap2\n      swap3\n      swap4\n      swap1\n      pop\n      pop\n      pop\n      tag_187\n      jump\t// in\n    tag_182:\n      mload(0x40)\n      dup1\n      dup3\n      dup2\n      mstore\n      0x20\n      add\n      swap2\n      pop\n      pop\n      mload(0x40)\n      dup1\n      swap2\n      sub\n      swap1\n      return\n        /* \"contracts/ERC1410/ERC1410Standard.sol\":13912:14086  function revokeOperator(address _operator) external override {\r... */\n    tag_33:\n      tag_188\n      0x04\n      dup1\n      calldatasize\n      sub\n      0x20\n      dup2\n      lt\n      iszero\n      tag_189\n      jumpi\n      0x00\n      dup1\n      revert\n    tag_189:\n      dup2\n      add\n      swap1\n      dup1\n      dup1\n      calldataload\n      0xffffffffffffffffffffffffffffffffffffffff\n      and\n      swap1\n      0x20\n      add\n      swap1\n      swap3\n      swap2\n      swap1\n      pop\n      pop\n      pop\n      tag_190\n      jump\t// in\n    tag_188:\n      stop\n        /* \"contracts/ERC1410/ERC1410Standard.sol\":515:625  bytes32 public constant TRANSIT_PARTITION = 0x7465737600000000000000000000000000000000000000000000000000000000 */\n    tag_42:\n        /* \"contracts/ERC1410/ERC1410Standard.sol\":559:625  0x7465737600000000000000000000000000000000000000000000000000000000 */\n      0x7465737600000000000000000000000000000000000000000000000000000000\n        /* \"contracts/ERC1410/ERC1410Standard.sol\":515:625  bytes32 public constant TRANSIT_PARTITION = 0x7465737600000000000000000000000000000000000000000000000000000000 */\n      0x00\n      shl\n      dup2\n      jump\t// out\n        /* \"contracts/ERC1410/ERC1410Standard.sol\":396:508  bytes32 public constant HELD_FREE_PARTITION = 0x7465737400000000000000000000000000000000000000000000000000000000 */\n    tag_44:\n        /* \"contracts/ERC1410/ERC1410Standard.sol\":442:508  0x7465737400000000000000000000000000000000000000000000000000000000 */\n      0x7465737400000000000000000000000000000000000000000000000000000000\n        /* \"contracts/ERC1410/ERC1410Standard.sol\":396:508  bytes32 public constant HELD_FREE_PARTITION = 0x7465737400000000000000000000000000000000000000000000000000000000 */\n      0x00\n      shl\n      dup2\n      jump\t// out\n        /* \"contracts/ERC1410/ERC1410Standard.sol\":14312:14566  function authorizeOperatorByPartition(bytes32 _partition, address _operator) external override {\r... */\n    tag_47:\n        /* \"contracts/ERC1410/ERC1410Standard.sol\":14474:14478  true */\n      0x01\n        /* \"contracts/ERC1410/ERC1410Standard.sol\":14418:14436  partitionApprovals */\n      0x05\n        /* \"contracts/ERC1410/ERC1410Standard.sol\":14418:14448  partitionApprovals[msg.sender] */\n      0x00\n        /* \"contracts/ERC1410/ERC1410Standard.sol\":14437:14447  msg.sender */\n      caller\n        /* \"contracts/ERC1410/ERC1410Standard.sol\":14418:14448  partitionApprovals[msg.sender] */\n      0xffffffffffffffffffffffffffffffffffffffff\n      and\n      0xffffffffffffffffffffffffffffffffffffffff\n      and\n      dup2\n      mstore\n      0x20\n      add\n      swap1\n      dup2\n      mstore\n      0x20\n      add\n      0x00\n      keccak256\n        /* \"contracts/ERC1410/ERC1410Standard.sol\":14418:14460  partitionApprovals[msg.sender][_partition] */\n      0x00\n        /* \"contracts/ERC1410/ERC1410Standard.sol\":14449:14459  _partition */\n      dup5\n        /* \"contracts/ERC1410/ERC1410Standard.sol\":14418:14460  partitionApprovals[msg.sender][_partition] */\n      dup2\n      mstore\n      0x20\n      add\n      swap1\n      dup2\n      mstore\n      0x20\n      add\n      0x00\n      keccak256\n        /* \"contracts/ERC1410/ERC1410Standard.sol\":14418:14471  partitionApprovals[msg.sender][_partition][_operator] */\n      0x00\n        /* \"contracts/ERC1410/ERC1410Standard.sol\":14461:14470  _operator */\n      dup4\n        /* \"contracts/ERC1410/ERC1410Standard.sol\":14418:14471  partitionApprovals[msg.sender][_partition][_operator] */\n      0xffffffffffffffffffffffffffffffffffffffff\n      and\n      0xffffffffffffffffffffffffffffffffffffffff\n      and\n      dup2\n      mstore\n      0x20\n      add\n      swap1\n      dup2\n      mstore\n      0x20\n      add\n      0x00\n      keccak256\n      0x00\n        /* \"contracts/ERC1410/ERC1410Standard.sol\":14418:14478  partitionApprovals[msg.sender][_partition][_operator] = true */\n      0x0100\n      exp\n      dup2\n      sload\n      dup2\n      0xff\n      mul\n      not\n      and\n      swap1\n      dup4\n      iszero\n      iszero\n      mul\n      or\n      swap1\n      sstore\n      pop\n        /* \"contracts/ERC1410/ERC1410Standard.sol\":14547:14557  msg.sender */\n      caller\n        /* \"contracts/ERC1410/ERC1410Standard.sol\":14494:14558  AuthorizedOperatorByPartition(_partition, _operator, msg.sender) */\n      0xffffffffffffffffffffffffffffffffffffffff\n      and\n        /* \"contracts/ERC1410/ERC1410Standard.sol\":14536:14545  _operator */\n      dup2\n        /* \"contracts/ERC1410/ERC1410Standard.sol\":14494:14558  AuthorizedOperatorByPartition(_partition, _operator, msg.sender) */\n      0xffffffffffffffffffffffffffffffffffffffff\n      and\n        /* \"contracts/ERC1410/ERC1410Standard.sol\":14524:14534  _partition */\n      dup4\n        /* \"contracts/ERC1410/ERC1410Standard.sol\":14494:14558  AuthorizedOperatorByPartition(_partition, _operator, msg.sender) */\n      0x3646a897c70797ecc134b0adc32f471b07bf1d6f451133b0384badab531e3fd6\n      mload(0x40)\n      mload(0x40)\n      dup1\n      swap2\n      sub\n      swap1\n      log4\n        /* \"contracts/ERC1410/ERC1410Standard.sol\":14312:14566  function authorizeOperatorByPartition(bytes32 _partition, address _operator) external override {\r... */\n      pop\n      pop\n      jump\t// out\n        /* \"contracts/ERC1410/ERC1410Standard.sol\":23446:24093  function operatorRedeemByPartition(bytes32 _partition, address _tokenHolder, uint256 _value, bytes calldata _data, bytes calldata _operatorData) external override {\r... */\n    tag_56:\n        /* \"contracts/ERC1410/ERC1410Standard.sol\":23786:23787  0 */\n      0x00\n        /* \"contracts/ERC1410/ERC1410Standard.sol\":23762:23788  _tokenHolder != address(0) */\n      0xffffffffffffffffffffffffffffffffffffffff\n      and\n        /* \"contracts/ERC1410/ERC1410Standard.sol\":23762:23774  _tokenHolder */\n      dup7\n        /* \"contracts/ERC1410/ERC1410Standard.sol\":23762:23788  _tokenHolder != address(0) */\n      0xffffffffffffffffffffffffffffffffffffffff\n      and\n      eq\n      iszero\n        /* \"contracts/ERC1410/ERC1410Standard.sol\":23754:23813  require(_tokenHolder != address(0), \"Invalid from address\") */\n      tag_193\n      jumpi\n      mload(0x40)\n      0x08c379a000000000000000000000000000000000000000000000000000000000\n      dup2\n      mstore\n      0x04\n      add\n      dup1\n      dup1\n      0x20\n      add\n      dup3\n      dup2\n      sub\n      dup3\n      mstore\n      0x14\n      dup2\n      mstore\n      0x20\n      add\n      dup1\n      0x496e76616c69642066726f6d2061646472657373000000000000000000000000\n      dup2\n      mstore\n      pop\n      0x20\n      add\n      swap2\n      pop\n      pop\n      mload(0x40)\n      dup1\n      swap2\n      sub\n      swap1\n      revert\n    tag_193:\n        /* \"contracts/ERC1410/ERC1410Standard.sol\":23846:23882  isOperator(msg.sender, _tokenHolder) */\n      tag_194\n        /* \"contracts/ERC1410/ERC1410Standard.sol\":23857:23867  msg.sender */\n      caller\n        /* \"contracts/ERC1410/ERC1410Standard.sol\":23869:23881  _tokenHolder */\n      dup8\n        /* \"contracts/ERC1410/ERC1410Standard.sol\":23846:23856  isOperator */\n      tag_146\n        /* \"contracts/ERC1410/ERC1410Standard.sol\":23846:23882  isOperator(msg.sender, _tokenHolder) */\n      jump\t// in\n    tag_194:\n        /* \"contracts/ERC1410/ERC1410Standard.sol\":23846:23946  isOperator(msg.sender, _tokenHolder) || isOperatorForPartition(_partition, msg.sender, _tokenHolder) */\n      dup1\n      tag_195\n      jumpi\n      pop\n        /* \"contracts/ERC1410/ERC1410Standard.sol\":23886:23946  isOperatorForPartition(_partition, msg.sender, _tokenHolder) */\n      tag_196\n        /* \"contracts/ERC1410/ERC1410Standard.sol\":23909:23919  _partition */\n      dup8\n        /* \"contracts/ERC1410/ERC1410Standard.sol\":23921:23931  msg.sender */\n      caller\n        /* \"contracts/ERC1410/ERC1410Standard.sol\":23933:23945  _tokenHolder */\n      dup9\n        /* \"contracts/ERC1410/ERC1410Standard.sol\":23886:23908  isOperatorForPartition */\n      tag_88\n        /* \"contracts/ERC1410/ERC1410Standard.sol\":23886:23946  isOperatorForPartition(_partition, msg.sender, _tokenHolder) */\n      jump\t// in\n    tag_196:\n        /* \"contracts/ERC1410/ERC1410Standard.sol\":23846:23946  isOperator(msg.sender, _tokenHolder) || isOperatorForPartition(_partition, msg.sender, _tokenHolder) */\n    tag_195:\n        /* \"contracts/ERC1410/ERC1410Standard.sol\":23824:23988  require(\r... */\n      tag_197\n      jumpi\n      mload(0x40)\n      0x08c379a000000000000000000000000000000000000000000000000000000000\n      dup2\n      mstore\n      0x04\n      add\n      dup1\n      dup1\n      0x20\n      add\n      dup3\n      dup2\n      sub\n      dup3\n      mstore\n      0x0e\n      dup2\n      mstore\n      0x20\n      add\n      dup1\n      0x4e6f7420617574686f7269736564000000000000000000000000000000000000\n      dup2\n      mstore\n      pop\n      0x20\n      add\n      swap2\n      pop\n      pop\n      mload(0x40)\n      dup1\n      swap2\n      sub\n      swap1\n      revert\n    tag_197:\n        /* \"contracts/ERC1410/ERC1410Standard.sol\":23999:24085  _redeemByPartition(_partition, _tokenHolder, msg.sender, _value, _data, _operatorData) */\n      tag_198\n        /* \"contracts/ERC1410/ERC1410Standard.sol\":24018:24028  _partition */\n      dup8\n        /* \"contracts/ERC1410/ERC1410Standard.sol\":24030:24042  _tokenHolder */\n      dup8\n        /* \"contracts/ERC1410/ERC1410Standard.sol\":24044:24054  msg.sender */\n      caller\n        /* \"contracts/ERC1410/ERC1410Standard.sol\":24056:24062  _value */\n      dup9\n        /* \"contracts/ERC1410/ERC1410Standard.sol\":24064:24069  _data */\n      dup9\n      dup9\n        /* \"contracts/ERC1410/ERC1410Standard.sol\":23999:24085  _redeemByPartition(_partition, _tokenHolder, msg.sender, _value, _data, _operatorData) */\n      dup1\n      dup1\n      0x1f\n      add\n      0x20\n      dup1\n      swap2\n      div\n      mul\n      0x20\n      add\n      mload(0x40)\n      swap1\n      dup2\n      add\n      0x40\n      mstore\n      dup1\n      swap4\n      swap3\n      swap2\n      swap1\n      dup2\n      dup2\n      mstore\n      0x20\n      add\n      dup4\n      dup4\n      dup1\n      dup3\n      dup5\n      calldatacopy\n      0x00\n      dup2\n      dup5\n      add\n      mstore\n      not(0x1f)\n      0x1f\n      dup3\n      add\n      and\n      swap1\n      pop\n      dup1\n      dup4\n      add\n      swap3\n      pop\n      pop\n      pop\n      pop\n      pop\n      pop\n      pop\n        /* \"contracts/ERC1410/ERC1410Standard.sol\":24071:24084  _operatorData */\n      dup8\n      dup8\n        /* \"contracts/ERC1410/ERC1410Standard.sol\":23999:24085  _redeemByPartition(_partition, _tokenHolder, msg.sender, _value, _data, _operatorData) */\n      dup1\n      dup1\n      0x1f\n      add\n      0x20\n      dup1\n      swap2\n      div\n      mul\n      0x20\n      add\n      mload(0x40)\n      swap1\n      dup2\n      add\n      0x40\n      mstore\n      dup1\n      swap4\n      swap3\n      swap2\n      swap1\n      dup2\n      dup2\n      mstore\n      0x20\n      add\n      dup4\n      dup4\n      dup1\n      dup3\n      dup5\n      calldatacopy\n      0x00\n      dup2\n      dup5\n      add\n      mstore\n      not(0x1f)\n      0x1f\n      dup3\n      add\n      and\n      swap1\n      pop\n      dup1\n      dup4\n      add\n      swap3\n      pop\n      pop\n      pop\n      pop\n      pop\n      pop\n      pop\n        /* \"contracts/ERC1410/ERC1410Standard.sol\":23999:24017  _redeemByPartition */\n      tag_199\n        /* \"contracts/ERC1410/ERC1410Standard.sol\":23999:24085  _redeemByPartition(_partition, _tokenHolder, msg.sender, _value, _data, _operatorData) */\n      jump\t// in\n    tag_198:\n        /* \"contracts/ERC1410/ERC1410Standard.sol\":23446:24093  function operatorRedeemByPartition(bytes32 _partition, address _tokenHolder, uint256 _value, bytes calldata _data, bytes calldata _operatorData) external override {\r... */\n      pop\n      pop\n      pop\n      pop\n      pop\n      pop\n      pop\n      jump\t// out\n        /* \"contracts/ERC1410/ERC1410Standard.sol\":14833:15082  function revokeOperatorByPartition(bytes32 _partition, address _operator) external override {\r... */\n    tag_59:\n        /* \"contracts/ERC1410/ERC1410Standard.sol\":14992:14997  false */\n      0x00\n        /* \"contracts/ERC1410/ERC1410Standard.sol\":14936:14954  partitionApprovals */\n      0x05\n        /* \"contracts/ERC1410/ERC1410Standard.sol\":14936:14966  partitionApprovals[msg.sender] */\n      0x00\n        /* \"contracts/ERC1410/ERC1410Standard.sol\":14955:14965  msg.sender */\n      caller\n        /* \"contracts/ERC1410/ERC1410Standard.sol\":14936:14966  partitionApprovals[msg.sender] */\n      0xffffffffffffffffffffffffffffffffffffffff\n      and\n      0xffffffffffffffffffffffffffffffffffffffff\n      and\n      dup2\n      mstore\n      0x20\n      add\n      swap1\n      dup2\n      mstore\n      0x20\n      add\n      0x00\n      keccak256\n        /* \"contracts/ERC1410/ERC1410Standard.sol\":14936:14978  partitionApprovals[msg.sender][_partition] */\n      0x00\n        /* \"contracts/ERC1410/ERC1410Standard.sol\":14967:14977  _partition */\n      dup5\n        /* \"contracts/ERC1410/ERC1410Standard.sol\":14936:14978  partitionApprovals[msg.sender][_partition] */\n      dup2\n      mstore\n      0x20\n      add\n      swap1\n      dup2\n      mstore\n      0x20\n      add\n      0x00\n      keccak256\n        /* \"contracts/ERC1410/ERC1410Standard.sol\":14936:14989  partitionApprovals[msg.sender][_partition][_operator] */\n      0x00\n        /* \"contracts/ERC1410/ERC1410Standard.sol\":14979:14988  _operator */\n      dup4\n        /* \"contracts/ERC1410/ERC1410Standard.sol\":14936:14989  partitionApprovals[msg.sender][_partition][_operator] */\n      0xffffffffffffffffffffffffffffffffffffffff\n      and\n      0xffffffffffffffffffffffffffffffffffffffff\n      and\n      dup2\n      mstore\n      0x20\n      add\n      swap1\n      dup2\n      mstore\n      0x20\n      add\n      0x00\n      keccak256\n      0x00\n        /* \"contracts/ERC1410/ERC1410Standard.sol\":14936:14997  partitionApprovals[msg.sender][_partition][_operator] = false */\n      0x0100\n      exp\n      dup2\n      sload\n      dup2\n      0xff\n      mul\n      not\n      and\n      swap1\n      dup4\n      iszero\n      iszero\n      mul\n      or\n      swap1\n      sstore\n      pop\n        /* \"contracts/ERC1410/ERC1410Standard.sol\":15063:15073  msg.sender */\n      caller\n        /* \"contracts/ERC1410/ERC1410Standard.sol\":15013:15074  RevokedOperatorByPartition(_partition, _operator, msg.sender) */\n      0xffffffffffffffffffffffffffffffffffffffff\n      and\n        /* \"contracts/ERC1410/ERC1410Standard.sol\":15052:15061  _operator */\n      dup2\n        /* \"contracts/ERC1410/ERC1410Standard.sol\":15013:15074  RevokedOperatorByPartition(_partition, _operator, msg.sender) */\n      0xffffffffffffffffffffffffffffffffffffffff\n      and\n        /* \"contracts/ERC1410/ERC1410Standard.sol\":15040:15050  _partition */\n      dup4\n        /* \"contracts/ERC1410/ERC1410Standard.sol\":15013:15074  RevokedOperatorByPartition(_partition, _operator, msg.sender) */\n      0x3b287c4f1bab4df949b33bceacef984f544dc5d5479930d00e4ee8c9d8dd96f2\n      mload(0x40)\n      mload(0x40)\n      dup1\n      swap2\n      sub\n      swap1\n      log4\n        /* \"contracts/ERC1410/ERC1410Standard.sol\":14833:15082  function revokeOperatorByPartition(bytes32 _partition, address _operator) external override {\r... */\n      pop\n      pop\n      jump\t// out\n        /* \"contracts/ERC1410/ERC1410Standard.sol\":1744:1852  function totalSupply() public view virtual override returns (uint256) {\r... */\n    tag_61:\n        /* \"contracts/ERC1410/ERC1410Standard.sol\":1805:1812  uint256 */\n      0x00\n        /* \"contracts/ERC1410/ERC1410Standard.sol\":1832:1844  _totalSupply */\n      sload(0x01)\n        /* \"contracts/ERC1410/ERC1410Standard.sol\":1825:1844  return _totalSupply */\n      swap1\n      pop\n        /* \"contracts/ERC1410/ERC1410Standard.sol\":1744:1852  function totalSupply() public view virtual override returns (uint256) {\r... */\n      swap1\n      jump\t// out\n        /* \"contracts/ERC1410/ERC1410Standard.sol\":2417:2732  function balanceOfByPartition(bytes32 _partition, address _tokenHolder) external override view returns (uint256) {\r... */\n    tag_64:\n        /* \"contracts/ERC1410/ERC1410Standard.sol\":2521:2528  uint256 */\n      0x00\n        /* \"contracts/ERC1410/ERC1410Standard.sol\":2545:2586  _validPartition(_partition, _tokenHolder) */\n      tag_203\n        /* \"contracts/ERC1410/ERC1410Standard.sol\":2561:2571  _partition */\n      dup4\n        /* \"contracts/ERC1410/ERC1410Standard.sol\":2573:2585  _tokenHolder */\n      dup4\n        /* \"contracts/ERC1410/ERC1410Standard.sol\":2545:2560  _validPartition */\n      tag_204\n        /* \"contracts/ERC1410/ERC1410Standard.sol\":2545:2586  _validPartition(_partition, _tokenHolder) */\n      jump\t// in\n    tag_203:\n        /* \"contracts/ERC1410/ERC1410Standard.sol\":2541:2724  if (_validPartition(_partition, _tokenHolder))\r... */\n      iszero\n      tag_205\n      jumpi\n        /* \"contracts/ERC1410/ERC1410Standard.sol\":2608:2618  partitions */\n      0x03\n        /* \"contracts/ERC1410/ERC1410Standard.sol\":2608:2632  partitions[_tokenHolder] */\n      0x00\n        /* \"contracts/ERC1410/ERC1410Standard.sol\":2619:2631  _tokenHolder */\n      dup4\n        /* \"contracts/ERC1410/ERC1410Standard.sol\":2608:2632  partitions[_tokenHolder] */\n      0xffffffffffffffffffffffffffffffffffffffff\n      and\n      0xffffffffffffffffffffffffffffffffffffffff\n      and\n      dup2\n      mstore\n      0x20\n      add\n      swap1\n      dup2\n      mstore\n      0x20\n      add\n      0x00\n      keccak256\n        /* \"contracts/ERC1410/ERC1410Standard.sol\":2678:2679  1 */\n      0x01\n        /* \"contracts/ERC1410/ERC1410Standard.sol\":2633:2649  partitionToIndex */\n      0x04\n        /* \"contracts/ERC1410/ERC1410Standard.sol\":2633:2663  partitionToIndex[_tokenHolder] */\n      0x00\n        /* \"contracts/ERC1410/ERC1410Standard.sol\":2650:2662  _tokenHolder */\n      dup6\n        /* \"contracts/ERC1410/ERC1410Standard.sol\":2633:2663  partitionToIndex[_tokenHolder] */\n      0xffffffffffffffffffffffffffffffffffffffff\n      and\n      0xffffffffffffffffffffffffffffffffffffffff\n      and\n      dup2\n      mstore\n      0x20\n      add\n      swap1\n      dup2\n      mstore\n      0x20\n      add\n      0x00\n      keccak256\n        /* \"contracts/ERC1410/ERC1410Standard.sol\":2633:2675  partitionToIndex[_tokenHolder][_partition] */\n      0x00\n        /* \"contracts/ERC1410/ERC1410Standard.sol\":2664:2674  _partition */\n      dup7\n        /* \"contracts/ERC1410/ERC1410Standard.sol\":2633:2675  partitionToIndex[_tokenHolder][_partition] */\n      dup2\n      mstore\n      0x20\n      add\n      swap1\n      dup2\n      mstore\n      0x20\n      add\n      0x00\n      keccak256\n      sload\n        /* \"contracts/ERC1410/ERC1410Standard.sol\":2633:2679  partitionToIndex[_tokenHolder][_partition] - 1 */\n      sub\n        /* \"contracts/ERC1410/ERC1410Standard.sol\":2608:2680  partitions[_tokenHolder][partitionToIndex[_tokenHolder][_partition] - 1] */\n      dup2\n      sload\n      dup2\n      lt\n      tag_206\n      jumpi\n      invalid\n    tag_206:\n      swap1\n      0x00\n      mstore\n      keccak256(0x00, 0x20)\n      swap1\n      0x02\n      mul\n      add\n        /* \"contracts/ERC1410/ERC1410Standard.sol\":2608:2687  partitions[_tokenHolder][partitionToIndex[_tokenHolder][_partition] - 1].amount */\n      0x00\n      add\n      sload\n        /* \"contracts/ERC1410/ERC1410Standard.sol\":2601:2687  return partitions[_tokenHolder][partitionToIndex[_tokenHolder][_partition] - 1].amount */\n      swap1\n      pop\n      jump(tag_202)\n        /* \"contracts/ERC1410/ERC1410Standard.sol\":2541:2724  if (_validPartition(_partition, _tokenHolder))\r... */\n    tag_205:\n        /* \"contracts/ERC1410/ERC1410Standard.sol\":2723:2724  0 */\n      0x00\n        /* \"contracts/ERC1410/ERC1410Standard.sol\":2716:2724  return 0 */\n      swap1\n      pop\n        /* \"contracts/ERC1410/ERC1410Standard.sol\":2417:2732  function balanceOfByPartition(bytes32 _partition, address _tokenHolder) external override view returns (uint256) {\r... */\n    tag_202:\n      swap3\n      swap2\n      pop\n      pop\n      jump\t// out\n        /* \"contracts/ERC1410/ERC1410Standard.sol\":16932:17540  function operatorTransfer( address _from, address _to, uint256 _value, bytes calldata _data, bytes calldata _operatorData) external override returns (bytes32) {\r... */\n    tag_73:\n        /* \"contracts/ERC1410/ERC1410Standard.sol\":17082:17089  bytes32 */\n      0x00\n        /* \"contracts/ERC1410/ERC1410Standard.sol\":17102:17120  bytes32 _partition */\n      dup1\n        /* \"contracts/ERC1410/ERC1410Standard.sol\":442:508  0x7465737400000000000000000000000000000000000000000000000000000000 */\n      0x7465737400000000000000000000000000000000000000000000000000000000\n        /* \"contracts/ERC1410/ERC1410Standard.sol\":17121:17140  HELD_FREE_PARTITION */\n      0x00\n      shl\n        /* \"contracts/ERC1410/ERC1410Standard.sol\":17102:17140  bytes32 _partition=HELD_FREE_PARTITION */\n      swap1\n      pop\n        /* \"contracts/ERC1410/ERC1410Standard.sol\":17307:17336  isOperator(msg.sender, _from) */\n      tag_210\n        /* \"contracts/ERC1410/ERC1410Standard.sol\":17318:17328  msg.sender */\n      caller\n        /* \"contracts/ERC1410/ERC1410Standard.sol\":17330:17335  _from */\n      dup11\n        /* \"contracts/ERC1410/ERC1410Standard.sol\":17307:17317  isOperator */\n      tag_146\n        /* \"contracts/ERC1410/ERC1410Standard.sol\":17307:17336  isOperator(msg.sender, _from) */\n      jump\t// in\n    tag_210:\n        /* \"contracts/ERC1410/ERC1410Standard.sol\":17307:17393  isOperator(msg.sender, _from) || isOperatorForPartition(_partition, msg.sender, _from) */\n      dup1\n      tag_211\n      jumpi\n      pop\n        /* \"contracts/ERC1410/ERC1410Standard.sol\":17340:17393  isOperatorForPartition(_partition, msg.sender, _from) */\n      tag_212\n        /* \"contracts/ERC1410/ERC1410Standard.sol\":17363:17373  _partition */\n      dup2\n        /* \"contracts/ERC1410/ERC1410Standard.sol\":17375:17385  msg.sender */\n      caller\n        /* \"contracts/ERC1410/ERC1410Standard.sol\":17387:17392  _from */\n      dup12\n        /* \"contracts/ERC1410/ERC1410Standard.sol\":17340:17362  isOperatorForPartition */\n      tag_88\n        /* \"contracts/ERC1410/ERC1410Standard.sol\":17340:17393  isOperatorForPartition(_partition, msg.sender, _from) */\n      jump\t// in\n    tag_212:\n        /* \"contracts/ERC1410/ERC1410Standard.sol\":17307:17393  isOperator(msg.sender, _from) || isOperatorForPartition(_partition, msg.sender, _from) */\n    tag_211:\n        /* \"contracts/ERC1410/ERC1410Standard.sol\":17285:17435  require(\r... */\n      tag_213\n      jumpi\n      mload(0x40)\n      0x08c379a000000000000000000000000000000000000000000000000000000000\n      dup2\n      mstore\n      0x04\n      add\n      dup1\n      dup1\n      0x20\n      add\n      dup3\n      dup2\n      sub\n      dup3\n      mstore\n      0x0e\n      dup2\n      mstore\n      0x20\n      add\n      dup1\n      0x4e6f7420617574686f7269736564000000000000000000000000000000000000\n      dup2\n      mstore\n      pop\n      0x20\n      add\n      swap2\n      pop\n      pop\n      mload(0x40)\n      dup1\n      swap2\n      sub\n      swap1\n      revert\n    tag_213:\n        /* \"contracts/ERC1410/ERC1410Standard.sol\":17446:17532  _transferByPartition(_from, _to, _value, _partition, _data, msg.sender, _operatorData) */\n      tag_214\n        /* \"contracts/ERC1410/ERC1410Standard.sol\":17467:17472  _from */\n      dup10\n        /* \"contracts/ERC1410/ERC1410Standard.sol\":17474:17477  _to */\n      dup10\n        /* \"contracts/ERC1410/ERC1410Standard.sol\":17479:17485  _value */\n      dup10\n        /* \"contracts/ERC1410/ERC1410Standard.sol\":17487:17497  _partition */\n      dup5\n        /* \"contracts/ERC1410/ERC1410Standard.sol\":17499:17504  _data */\n      dup11\n      dup11\n        /* \"contracts/ERC1410/ERC1410Standard.sol\":17446:17532  _transferByPartition(_from, _to, _value, _partition, _data, msg.sender, _operatorData) */\n      dup1\n      dup1\n      0x1f\n      add\n      0x20\n      dup1\n      swap2\n      div\n      mul\n      0x20\n      add\n      mload(0x40)\n      swap1\n      dup2\n      add\n      0x40\n      mstore\n      dup1\n      swap4\n      swap3\n      swap2\n      swap1\n      dup2\n      dup2\n      mstore\n      0x20\n      add\n      dup4\n      dup4\n      dup1\n      dup3\n      dup5\n      calldatacopy\n      0x00\n      dup2\n      dup5\n      add\n      mstore\n      not(0x1f)\n      0x1f\n      dup3\n      add\n      and\n      swap1\n      pop\n      dup1\n      dup4\n      add\n      swap3\n      pop\n      pop\n      pop\n      pop\n      pop\n      pop\n      pop\n        /* \"contracts/ERC1410/ERC1410Standard.sol\":17506:17516  msg.sender */\n      caller\n        /* \"contracts/ERC1410/ERC1410Standard.sol\":17518:17531  _operatorData */\n      dup11\n      dup11\n        /* \"contracts/ERC1410/ERC1410Standard.sol\":17446:17532  _transferByPartition(_from, _to, _value, _partition, _data, msg.sender, _operatorData) */\n      dup1\n      dup1\n      0x1f\n      add\n      0x20\n      dup1\n      swap2\n      div\n      mul\n      0x20\n      add\n      mload(0x40)\n      swap1\n      dup2\n      add\n      0x40\n      mstore\n      dup1\n      swap4\n      swap3\n      swap2\n      swap1\n      dup2\n      dup2\n      mstore\n      0x20\n      add\n      dup4\n      dup4\n      dup1\n      dup3\n      dup5\n      calldatacopy\n      0x00\n      dup2\n      dup5\n      add\n      mstore\n      not(0x1f)\n      0x1f\n      dup3\n      add\n      and\n      swap1\n      pop\n      dup1\n      dup4\n      add\n      swap3\n      pop\n      pop\n      pop\n      pop\n      pop\n      pop\n      pop\n        /* \"contracts/ERC1410/ERC1410Standard.sol\":17446:17466  _transferByPartition */\n      tag_215\n        /* \"contracts/ERC1410/ERC1410Standard.sol\":17446:17532  _transferByPartition(_from, _to, _value, _partition, _data, msg.sender, _operatorData) */\n      jump\t// in\n    tag_214:\n        /* \"contracts/ERC1410/ERC1410Standard.sol\":16932:17540  function operatorTransfer( address _from, address _to, uint256 _value, bytes calldata _data, bytes calldata _operatorData) external override returns (bytes32) {\r... */\n      pop\n      swap8\n      swap7\n      pop\n      pop\n      pop\n      pop\n      pop\n      pop\n      pop\n      jump\t// out\n        /* \"contracts/ERC1410/ERC1410Standard.sol\":21562:21820  function redeemByPartition(bytes32 _partition, uint256 _value, bytes calldata _data) external override {\r... */\n    tag_79:\n        /* \"contracts/ERC1410/ERC1410Standard.sol\":21739:21812  _redeemByPartition(_partition, msg.sender, address(0), _value, _data, \"\") */\n      tag_217\n        /* \"contracts/ERC1410/ERC1410Standard.sol\":21758:21768  _partition */\n      dup5\n        /* \"contracts/ERC1410/ERC1410Standard.sol\":21770:21780  msg.sender */\n      caller\n        /* \"contracts/ERC1410/ERC1410Standard.sol\":21790:21791  0 */\n      0x00\n        /* \"contracts/ERC1410/ERC1410Standard.sol\":21794:21800  _value */\n      dup7\n        /* \"contracts/ERC1410/ERC1410Standard.sol\":21802:21807  _data */\n      dup7\n      dup7\n        /* \"contracts/ERC1410/ERC1410Standard.sol\":21739:21812  _redeemByPartition(_partition, msg.sender, address(0), _value, _data, \"\") */\n      dup1\n      dup1\n      0x1f\n      add\n      0x20\n      dup1\n      swap2\n      div\n      mul\n      0x20\n      add\n      mload(0x40)\n      swap1\n      dup2\n      add\n      0x40\n      mstore\n      dup1\n      swap4\n      swap3\n      swap2\n      swap1\n      dup2\n      dup2\n      mstore\n      0x20\n      add\n      dup4\n      dup4\n      dup1\n      dup3\n      dup5\n      calldatacopy\n      0x00\n      dup2\n      dup5\n      add\n      mstore\n      not(0x1f)\n      0x1f\n      dup3\n      add\n      and\n      swap1\n      pop\n      dup1\n      dup4\n      add\n      swap3\n      pop\n      pop\n      pop\n      pop\n      pop\n      pop\n      pop\n      mload(0x40)\n      dup1\n      0x20\n      add\n      0x40\n      mstore\n      dup1\n      0x00\n      dup2\n      mstore\n      pop\n        /* \"contracts/ERC1410/ERC1410Standard.sol\":21739:21757  _redeemByPartition */\n      tag_199\n        /* \"contracts/ERC1410/ERC1410Standard.sol\":21739:21812  _redeemByPartition(_partition, msg.sender, address(0), _value, _data, \"\") */\n      jump\t// in\n    tag_217:\n        /* \"contracts/ERC1410/ERC1410Standard.sol\":21562:21820  function redeemByPartition(bytes32 _partition, uint256 _value, bytes calldata _data) external override {\r... */\n      pop\n      pop\n      pop\n      pop\n      jump\t// out\n        /* \"contracts/ERC1410/ERC1410Standard.sol\":17944:18222  function issueByPartition(bytes32 _partition, address _tokenHolder, uint256 _value, bytes calldata _data) external override onlyOwner {\r... */\n    tag_85:\n        /* \"openzeppelin-solidity/contracts/access/Ownable.sol\":1308:1320  _msgSender() */\n      tag_219\n        /* \"openzeppelin-solidity/contracts/access/Ownable.sol\":1308:1318  _msgSender */\n      tag_220\n        /* \"openzeppelin-solidity/contracts/access/Ownable.sol\":1308:1320  _msgSender() */\n      jump\t// in\n    tag_219:\n        /* \"openzeppelin-solidity/contracts/access/Ownable.sol\":1297:1320  owner() == _msgSender() */\n      0xffffffffffffffffffffffffffffffffffffffff\n      and\n        /* \"openzeppelin-solidity/contracts/access/Ownable.sol\":1297:1304  owner() */\n      tag_221\n        /* \"openzeppelin-solidity/contracts/access/Ownable.sol\":1297:1302  owner */\n      tag_110\n        /* \"openzeppelin-solidity/contracts/access/Ownable.sol\":1297:1304  owner() */\n      jump\t// in\n    tag_221:\n        /* \"openzeppelin-solidity/contracts/access/Ownable.sol\":1297:1320  owner() == _msgSender() */\n      0xffffffffffffffffffffffffffffffffffffffff\n      and\n      eq\n        /* \"openzeppelin-solidity/contracts/access/Ownable.sol\":1289:1357  require(owner() == _msgSender(), \"Ownable: caller is not the owner\") */\n      tag_222\n      jumpi\n      mload(0x40)\n      0x08c379a000000000000000000000000000000000000000000000000000000000\n      dup2\n      mstore\n      0x04\n      add\n      dup1\n      dup1\n      0x20\n      add\n      dup3\n      dup2\n      sub\n      dup3\n      mstore\n      0x20\n      dup2\n      mstore\n      0x20\n      add\n      dup1\n      0x4f776e61626c653a2063616c6c6572206973206e6f7420746865206f776e6572\n      dup2\n      mstore\n      pop\n      0x20\n      add\n      swap2\n      pop\n      pop\n      mload(0x40)\n      dup1\n      swap2\n      sub\n      swap1\n      revert\n    tag_222:\n        /* \"contracts/ERC1410/ERC1410Standard.sol\":18152:18214  _issueByPartition(_partition, _tokenHolder, _value, _data, \"\") */\n      tag_224\n        /* \"contracts/ERC1410/ERC1410Standard.sol\":18170:18180  _partition */\n      dup6\n        /* \"contracts/ERC1410/ERC1410Standard.sol\":18182:18194  _tokenHolder */\n      dup6\n        /* \"contracts/ERC1410/ERC1410Standard.sol\":18196:18202  _value */\n      dup6\n        /* \"contracts/ERC1410/ERC1410Standard.sol\":18204:18209  _data */\n      dup6\n      dup6\n        /* \"contracts/ERC1410/ERC1410Standard.sol\":18152:18214  _issueByPartition(_partition, _tokenHolder, _value, _data, \"\") */\n      dup1\n      dup1\n      0x1f\n      add\n      0x20\n      dup1\n      swap2\n      div\n      mul\n      0x20\n      add\n      mload(0x40)\n      swap1\n      dup2\n      add\n      0x40\n      mstore\n      dup1\n      swap4\n      swap3\n      swap2\n      swap1\n      dup2\n      dup2\n      mstore\n      0x20\n      add\n      dup4\n      dup4\n      dup1\n      dup3\n      dup5\n      calldatacopy\n      0x00\n      dup2\n      dup5\n      add\n      mstore\n      not(0x1f)\n      0x1f\n      dup3\n      add\n      and\n      swap1\n      pop\n      dup1\n      dup4\n      add\n      swap3\n      pop\n      pop\n      pop\n      pop\n      pop\n      pop\n      pop\n      mload(0x40)\n      dup1\n      0x20\n      add\n      0x40\n      mstore\n      dup1\n      0x00\n      dup2\n      mstore\n      pop\n        /* \"contracts/ERC1410/ERC1410Standard.sol\":18152:18169  _issueByPartition */\n      tag_225\n        /* \"contracts/ERC1410/ERC1410Standard.sol\":18152:18214  _issueByPartition(_partition, _tokenHolder, _value, _data, \"\") */\n      jump\t// in\n    tag_224:\n        /* \"contracts/ERC1410/ERC1410Standard.sol\":17944:18222  function issueByPartition(bytes32 _partition, address _tokenHolder, uint256 _value, bytes calldata _data) external override onlyOwner {\r... */\n      pop\n      pop\n      pop\n      pop\n      pop\n      jump\t// out\n        /* \"contracts/ERC1410/ERC1410Standard.sol\":13108:13318  function isOperatorForPartition(bytes32 _partition, address _operator, address _tokenHolder) public override view returns (bool) {\r... */\n    tag_88:\n        /* \"contracts/ERC1410/ERC1410Standard.sol\":13231:13235  bool */\n      0x00\n        /* \"contracts/ERC1410/ERC1410Standard.sol\":13255:13273  partitionApprovals */\n      0x05\n        /* \"contracts/ERC1410/ERC1410Standard.sol\":13255:13287  partitionApprovals[_tokenHolder] */\n      0x00\n        /* \"contracts/ERC1410/ERC1410Standard.sol\":13274:13286  _tokenHolder */\n      dup4\n        /* \"contracts/ERC1410/ERC1410Standard.sol\":13255:13287  partitionApprovals[_tokenHolder] */\n      0xffffffffffffffffffffffffffffffffffffffff\n      and\n      0xffffffffffffffffffffffffffffffffffffffff\n      and\n      dup2\n      mstore\n      0x20\n      add\n      swap1\n      dup2\n      mstore\n      0x20\n      add\n      0x00\n      keccak256\n        /* \"contracts/ERC1410/ERC1410Standard.sol\":13255:13299  partitionApprovals[_tokenHolder][_partition] */\n      0x00\n        /* \"contracts/ERC1410/ERC1410Standard.sol\":13288:13298  _partition */\n      dup6\n        /* \"contracts/ERC1410/ERC1410Standard.sol\":13255:13299  partitionApprovals[_tokenHolder][_partition] */\n      dup2\n      mstore\n      0x20\n      add\n      swap1\n      dup2\n      mstore\n      0x20\n      add\n      0x00\n      keccak256\n        /* \"contracts/ERC1410/ERC1410Standard.sol\":13255:13310  partitionApprovals[_tokenHolder][_partition][_operator] */\n      0x00\n        /* \"contracts/ERC1410/ERC1410Standard.sol\":13300:13309  _operator */\n      dup5\n        /* \"contracts/ERC1410/ERC1410Standard.sol\":13255:13310  partitionApprovals[_tokenHolder][_partition][_operator] */\n      0xffffffffffffffffffffffffffffffffffffffff\n      and\n      0xffffffffffffffffffffffffffffffffffffffff\n      and\n      dup2\n      mstore\n      0x20\n      add\n      swap1\n      dup2\n      mstore\n      0x20\n      add\n      0x00\n      keccak256\n      0x00\n      swap1\n      sload\n      swap1\n      0x0100\n      exp\n      swap1\n      div\n      0xff\n      and\n        /* \"contracts/ERC1410/ERC1410Standard.sol\":13248:13310  return partitionApprovals[_tokenHolder][_partition][_operator] */\n      swap1\n      pop\n        /* \"contracts/ERC1410/ERC1410Standard.sol\":13108:13318  function isOperatorForPartition(bytes32 _partition, address _operator, address _tokenHolder) public override view returns (bool) {\r... */\n      swap4\n      swap3\n      pop\n      pop\n      pop\n      jump\t// out\n        /* \"contracts/ERC1410/ERC1410Standard.sol\":1915:2041  function balanceOf(address account) public view virtual override returns (uint256) {\r... */\n    tag_91:\n        /* \"contracts/ERC1410/ERC1410Standard.sol\":1989:1996  uint256 */\n      0x00\n        /* \"contracts/ERC1410/ERC1410Standard.sol\":2016:2024  balances */\n      0x02\n        /* \"contracts/ERC1410/ERC1410Standard.sol\":2016:2033  balances[account] */\n      0x00\n        /* \"contracts/ERC1410/ERC1410Standard.sol\":2025:2032  account */\n      dup4\n        /* \"contracts/ERC1410/ERC1410Standard.sol\":2016:2033  balances[account] */\n      0xffffffffffffffffffffffffffffffffffffffff\n      and\n      0xffffffffffffffffffffffffffffffffffffffff\n      and\n      dup2\n      mstore\n      0x20\n      add\n      swap1\n      dup2\n      mstore\n      0x20\n      add\n      0x00\n      keccak256\n      sload\n        /* \"contracts/ERC1410/ERC1410Standard.sol\":2009:2033  return balances[account] */\n      swap1\n      pop\n        /* \"contracts/ERC1410/ERC1410Standard.sol\":1915:2041  function balanceOf(address account) public view virtual override returns (uint256) {\r... */\n      swap2\n      swap1\n      pop\n      jump\t// out\n        /* \"openzeppelin-solidity/contracts/access/Ownable.sol\":1717:1862  function renounceOwnership() public virtual onlyOwner {... */\n    tag_93:\n        /* \"openzeppelin-solidity/contracts/access/Ownable.sol\":1308:1320  _msgSender() */\n      tag_229\n        /* \"openzeppelin-solidity/contracts/access/Ownable.sol\":1308:1318  _msgSender */\n      tag_220\n        /* \"openzeppelin-solidity/contracts/access/Ownable.sol\":1308:1320  _msgSender() */\n      jump\t// in\n    tag_229:\n        /* \"openzeppelin-solidity/contracts/access/Ownable.sol\":1297:1320  owner() == _msgSender() */\n      0xffffffffffffffffffffffffffffffffffffffff\n      and\n        /* \"openzeppelin-solidity/contracts/access/Ownable.sol\":1297:1304  owner() */\n      tag_230\n        /* \"openzeppelin-solidity/contracts/access/Ownable.sol\":1297:1302  owner */\n      tag_110\n        /* \"openzeppelin-solidity/contracts/access/Ownable.sol\":1297:1304  owner() */\n      jump\t// in\n    tag_230:\n        /* \"openzeppelin-solidity/contracts/access/Ownable.sol\":1297:1320  owner() == _msgSender() */\n      0xffffffffffffffffffffffffffffffffffffffff\n      and\n      eq\n        /* \"openzeppelin-solidity/contracts/access/Ownable.sol\":1289:1357  require(owner() == _msgSender(), \"Ownable: caller is not the owner\") */\n      tag_231\n      jumpi\n      mload(0x40)\n      0x08c379a000000000000000000000000000000000000000000000000000000000\n      dup2\n      mstore\n      0x04\n      add\n      dup1\n      dup1\n      0x20\n      add\n      dup3\n      dup2\n      sub\n      dup3\n      mstore\n      0x20\n      dup2\n      mstore\n      0x20\n      add\n      dup1\n      0x4f776e61626c653a2063616c6c6572206973206e6f7420746865206f776e6572\n      dup2\n      mstore\n      pop\n      0x20\n      add\n      swap2\n      pop\n      pop\n      mload(0x40)\n      dup1\n      swap2\n      sub\n      swap1\n      revert\n    tag_231:\n        /* \"openzeppelin-solidity/contracts/access/Ownable.sol\":1823:1824  0 */\n      0x00\n        /* \"openzeppelin-solidity/contracts/access/Ownable.sol\":1786:1826  OwnershipTransferred(_owner, address(0)) */\n      0xffffffffffffffffffffffffffffffffffffffff\n      and\n        /* \"openzeppelin-solidity/contracts/access/Ownable.sol\":1807:1813  _owner */\n      0x00\n      dup1\n      sload\n      swap1\n      0x0100\n      exp\n      swap1\n      div\n      0xffffffffffffffffffffffffffffffffffffffff\n      and\n        /* \"openzeppelin-solidity/contracts/access/Ownable.sol\":1786:1826  OwnershipTransferred(_owner, address(0)) */\n      0xffffffffffffffffffffffffffffffffffffffff\n      and\n      0x8be0079c531659141344cd1fd0a4f28419497f9722a3daafe3b4186f6b6457e0\n      mload(0x40)\n      mload(0x40)\n      dup1\n      swap2\n      sub\n      swap1\n      log3\n        /* \"openzeppelin-solidity/contracts/access/Ownable.sol\":1853:1854  0 */\n      0x00\n        /* \"openzeppelin-solidity/contracts/access/Ownable.sol\":1836:1842  _owner */\n      dup1\n      0x00\n        /* \"openzeppelin-solidity/contracts/access/Ownable.sol\":1836:1855  _owner = address(0) */\n      0x0100\n      exp\n      dup2\n      sload\n      dup2\n      0xffffffffffffffffffffffffffffffffffffffff\n      mul\n      not\n      and\n      swap1\n      dup4\n      0xffffffffffffffffffffffffffffffffffffffff\n      and\n      mul\n      or\n      swap1\n      sstore\n      pop\n        /* \"openzeppelin-solidity/contracts/access/Ownable.sol\":1717:1862  function renounceOwnership() public virtual onlyOwner {... */\n      jump\t// out\n        /* \"contracts/ERC1410/ERC1410Standard.sol\":2944:3326  function partitionsOf(address _tokenHolder) external override view returns (bytes32[] memory) {\r... */\n    tag_96:\n        /* \"contracts/ERC1410/ERC1410Standard.sol\":3020:3036  bytes32[] memory */\n      0x60\n        /* \"contracts/ERC1410/ERC1410Standard.sol\":3049:3080  bytes32[] memory partitionsList */\n      dup1\n        /* \"contracts/ERC1410/ERC1410Standard.sol\":3097:3107  partitions */\n      0x03\n        /* \"contracts/ERC1410/ERC1410Standard.sol\":3097:3121  partitions[_tokenHolder] */\n      0x00\n        /* \"contracts/ERC1410/ERC1410Standard.sol\":3108:3120  _tokenHolder */\n      dup5\n        /* \"contracts/ERC1410/ERC1410Standard.sol\":3097:3121  partitions[_tokenHolder] */\n      0xffffffffffffffffffffffffffffffffffffffff\n      and\n      0xffffffffffffffffffffffffffffffffffffffff\n      and\n      dup2\n      mstore\n      0x20\n      add\n      swap1\n      dup2\n      mstore\n      0x20\n      add\n      0x00\n      keccak256\n        /* \"contracts/ERC1410/ERC1410Standard.sol\":3097:3128  partitions[_tokenHolder].length */\n      dup1\n      sload\n      swap1\n      pop\n        /* \"contracts/ERC1410/ERC1410Standard.sol\":3083:3129  new bytes32[](partitions[_tokenHolder].length) */\n      0xffffffffffffffff\n      dup2\n      gt\n      dup1\n      iszero\n      tag_234\n      jumpi\n      0x00\n      dup1\n      revert\n    tag_234:\n      pop\n      mload(0x40)\n      swap1\n      dup1\n      dup3\n      mstore\n      dup1\n      0x20\n      mul\n      0x20\n      add\n      dup3\n      add\n      0x40\n      mstore\n      dup1\n      iszero\n      tag_235\n      jumpi\n      dup2\n      0x20\n      add\n      0x20\n      dup3\n      mul\n      dup1\n      calldatasize\n      dup4\n      calldatacopy\n      dup1\n      dup3\n      add\n      swap2\n      pop\n      pop\n      swap1\n      pop\n    tag_235:\n      pop\n        /* \"contracts/ERC1410/ERC1410Standard.sol\":3049:3129  bytes32[] memory partitionsList = new bytes32[](partitions[_tokenHolder].length) */\n      swap1\n      pop\n        /* \"contracts/ERC1410/ERC1410Standard.sol\":3145:3154  uint256 i */\n      0x00\n        /* \"contracts/ERC1410/ERC1410Standard.sol\":3140:3286  for (uint256 i = 0; i < partitions[_tokenHolder].length; i++) {\r... */\n    tag_236:\n        /* \"contracts/ERC1410/ERC1410Standard.sol\":3164:3174  partitions */\n      0x03\n        /* \"contracts/ERC1410/ERC1410Standard.sol\":3164:3188  partitions[_tokenHolder] */\n      0x00\n        /* \"contracts/ERC1410/ERC1410Standard.sol\":3175:3187  _tokenHolder */\n      dup6\n        /* \"contracts/ERC1410/ERC1410Standard.sol\":3164:3188  partitions[_tokenHolder] */\n      0xffffffffffffffffffffffffffffffffffffffff\n      and\n      0xffffffffffffffffffffffffffffffffffffffff\n      and\n      dup2\n      mstore\n      0x20\n      add\n      swap1\n      dup2\n      mstore\n      0x20\n      add\n      0x00\n      keccak256\n        /* \"contracts/ERC1410/ERC1410Standard.sol\":3164:3195  partitions[_tokenHolder].length */\n      dup1\n      sload\n      swap1\n      pop\n        /* \"contracts/ERC1410/ERC1410Standard.sol\":3160:3161  i */\n      dup2\n        /* \"contracts/ERC1410/ERC1410Standard.sol\":3160:3195  i < partitions[_tokenHolder].length */\n      lt\n        /* \"contracts/ERC1410/ERC1410Standard.sol\":3140:3286  for (uint256 i = 0; i < partitions[_tokenHolder].length; i++) {\r... */\n      iszero\n      tag_237\n      jumpi\n        /* \"contracts/ERC1410/ERC1410Standard.sol\":3237:3247  partitions */\n      0x03\n        /* \"contracts/ERC1410/ERC1410Standard.sol\":3237:3261  partitions[_tokenHolder] */\n      0x00\n        /* \"contracts/ERC1410/ERC1410Standard.sol\":3248:3260  _tokenHolder */\n      dup6\n        /* \"contracts/ERC1410/ERC1410Standard.sol\":3237:3261  partitions[_tokenHolder] */\n      0xffffffffffffffffffffffffffffffffffffffff\n      and\n      0xffffffffffffffffffffffffffffffffffffffff\n      and\n      dup2\n      mstore\n      0x20\n      add\n      swap1\n      dup2\n      mstore\n      0x20\n      add\n      0x00\n      keccak256\n        /* \"contracts/ERC1410/ERC1410Standard.sol\":3262:3263  i */\n      dup2\n        /* \"contracts/ERC1410/ERC1410Standard.sol\":3237:3264  partitions[_tokenHolder][i] */\n      dup2\n      sload\n      dup2\n      lt\n      tag_239\n      jumpi\n      invalid\n    tag_239:\n      swap1\n      0x00\n      mstore\n      keccak256(0x00, 0x20)\n      swap1\n      0x02\n      mul\n      add\n        /* \"contracts/ERC1410/ERC1410Standard.sol\":3237:3274  partitions[_tokenHolder][i].partition */\n      0x01\n      add\n      sload\n        /* \"contracts/ERC1410/ERC1410Standard.sol\":3217:3231  partitionsList */\n      dup3\n        /* \"contracts/ERC1410/ERC1410Standard.sol\":3232:3233  i */\n      dup3\n        /* \"contracts/ERC1410/ERC1410Standard.sol\":3217:3234  partitionsList[i] */\n      dup2\n      mload\n      dup2\n      lt\n      tag_241\n      jumpi\n      invalid\n    tag_241:\n      0x20\n      mul\n      0x20\n      add\n      add\n        /* \"contracts/ERC1410/ERC1410Standard.sol\":3217:3274  partitionsList[i] = partitions[_tokenHolder][i].partition */\n      dup2\n      dup2\n      mstore\n      pop\n      pop\n        /* \"contracts/ERC1410/ERC1410Standard.sol\":3197:3200  i++ */\n      dup1\n      dup1\n      0x01\n      add\n      swap2\n      pop\n      pop\n        /* \"contracts/ERC1410/ERC1410Standard.sol\":3140:3286  for (uint256 i = 0; i < partitions[_tokenHolder].length; i++) {\r... */\n      jump(tag_236)\n    tag_237:\n      pop\n        /* \"contracts/ERC1410/ERC1410Standard.sol\":3304:3318  partitionsList */\n      dup1\n        /* \"contracts/ERC1410/ERC1410Standard.sol\":3297:3318  return partitionsList */\n      swap2\n      pop\n      pop\n        /* \"contracts/ERC1410/ERC1410Standard.sol\":2944:3326  function partitionsOf(address _tokenHolder) external override view returns (bytes32[] memory) {\r... */\n      swap2\n      swap1\n      pop\n      jump\t// out\n        /* \"contracts/ERC1410/ERC1410Standard.sol\":15749:16338  function operatorTransferByPartition(bytes32 _partition, address _from, address _to, uint256 _value, bytes calldata _data, bytes calldata _operatorData) external override returns (bytes32) {\r... */\n    tag_108:\n        /* \"contracts/ERC1410/ERC1410Standard.sol\":15929:15936  bytes32 */\n      0x00\n        /* \"contracts/ERC1410/ERC1410Standard.sol\":16105:16134  isOperator(msg.sender, _from) */\n      tag_243\n        /* \"contracts/ERC1410/ERC1410Standard.sol\":16116:16126  msg.sender */\n      caller\n        /* \"contracts/ERC1410/ERC1410Standard.sol\":16128:16133  _from */\n      dup10\n        /* \"contracts/ERC1410/ERC1410Standard.sol\":16105:16115  isOperator */\n      tag_146\n        /* \"contracts/ERC1410/ERC1410Standard.sol\":16105:16134  isOperator(msg.sender, _from) */\n      jump\t// in\n    tag_243:\n        /* \"contracts/ERC1410/ERC1410Standard.sol\":16105:16191  isOperator(msg.sender, _from) || isOperatorForPartition(_partition, msg.sender, _from) */\n      dup1\n      tag_244\n      jumpi\n      pop\n        /* \"contracts/ERC1410/ERC1410Standard.sol\":16138:16191  isOperatorForPartition(_partition, msg.sender, _from) */\n      tag_245\n        /* \"contracts/ERC1410/ERC1410Standard.sol\":16161:16171  _partition */\n      dup10\n        /* \"contracts/ERC1410/ERC1410Standard.sol\":16173:16183  msg.sender */\n      caller\n        /* \"contracts/ERC1410/ERC1410Standard.sol\":16185:16190  _from */\n      dup11\n        /* \"contracts/ERC1410/ERC1410Standard.sol\":16138:16160  isOperatorForPartition */\n      tag_88\n        /* \"contracts/ERC1410/ERC1410Standard.sol\":16138:16191  isOperatorForPartition(_partition, msg.sender, _from) */\n      jump\t// in\n    tag_245:\n        /* \"contracts/ERC1410/ERC1410Standard.sol\":16105:16191  isOperator(msg.sender, _from) || isOperatorForPartition(_partition, msg.sender, _from) */\n    tag_244:\n        /* \"contracts/ERC1410/ERC1410Standard.sol\":16083:16233  require(\r... */\n      tag_246\n      jumpi\n      mload(0x40)\n      0x08c379a000000000000000000000000000000000000000000000000000000000\n      dup2\n      mstore\n      0x04\n      add\n      dup1\n      dup1\n      0x20\n      add\n      dup3\n      dup2\n      sub\n      dup3\n      mstore\n      0x0e\n      dup2\n      mstore\n      0x20\n      add\n      dup1\n      0x4e6f7420617574686f7269736564000000000000000000000000000000000000\n      dup2\n      mstore\n      pop\n      0x20\n      add\n      swap2\n      pop\n      pop\n      mload(0x40)\n      dup1\n      swap2\n      sub\n      swap1\n      revert\n    tag_246:\n        /* \"contracts/ERC1410/ERC1410Standard.sol\":16244:16330  _transferByPartition(_from, _to, _value, _partition, _data, msg.sender, _operatorData) */\n      tag_247\n        /* \"contracts/ERC1410/ERC1410Standard.sol\":16265:16270  _from */\n      dup9\n        /* \"contracts/ERC1410/ERC1410Standard.sol\":16272:16275  _to */\n      dup9\n        /* \"contracts/ERC1410/ERC1410Standard.sol\":16277:16283  _value */\n      dup9\n        /* \"contracts/ERC1410/ERC1410Standard.sol\":16285:16295  _partition */\n      dup13\n        /* \"contracts/ERC1410/ERC1410Standard.sol\":16297:16302  _data */\n      dup10\n      dup10\n        /* \"contracts/ERC1410/ERC1410Standard.sol\":16244:16330  _transferByPartition(_from, _to, _value, _partition, _data, msg.sender, _operatorData) */\n      dup1\n      dup1\n      0x1f\n      add\n      0x20\n      dup1\n      swap2\n      div\n      mul\n      0x20\n      add\n      mload(0x40)\n      swap1\n      dup2\n      add\n      0x40\n      mstore\n      dup1\n      swap4\n      swap3\n      swap2\n      swap1\n      dup2\n      dup2\n      mstore\n      0x20\n      add\n      dup4\n      dup4\n      dup1\n      dup3\n      dup5\n      calldatacopy\n      0x00\n      dup2\n      dup5\n      add\n      mstore\n      not(0x1f)\n      0x1f\n      dup3\n      add\n      and\n      swap1\n      pop\n      dup1\n      dup4\n      add\n      swap3\n      pop\n      pop\n      pop\n      pop\n      pop\n      pop\n      pop\n        /* \"contracts/ERC1410/ERC1410Standard.sol\":16304:16314  msg.sender */\n      caller\n        /* \"contracts/ERC1410/ERC1410Standard.sol\":16316:16329  _operatorData */\n      dup10\n      dup10\n        /* \"contracts/ERC1410/ERC1410Standard.sol\":16244:16330  _transferByPartition(_from, _to, _value, _partition, _data, msg.sender, _operatorData) */\n      dup1\n      dup1\n      0x1f\n      add\n      0x20\n      dup1\n      swap2\n      div\n      mul\n      0x20\n      add\n      mload(0x40)\n      swap1\n      dup2\n      add\n      0x40\n      mstore\n      dup1\n      swap4\n      swap3\n      swap2\n      swap1\n      dup2\n      dup2\n      mstore\n      0x20\n      add\n      dup4\n      dup4\n      dup1\n      dup3\n      dup5\n      calldatacopy\n      0x00\n      dup2\n      dup5\n      add\n      mstore\n      not(0x1f)\n      0x1f\n      dup3\n      add\n      and\n      swap1\n      pop\n      dup1\n      dup4\n      add\n      swap3\n      pop\n      pop\n      pop\n      pop\n      pop\n      pop\n      pop\n        /* \"contracts/ERC1410/ERC1410Standard.sol\":16244:16264  _transferByPartition */\n      tag_215\n        /* \"contracts/ERC1410/ERC1410Standard.sol\":16244:16330  _transferByPartition(_from, _to, _value, _partition, _data, msg.sender, _operatorData) */\n      jump\t// in\n    tag_247:\n        /* \"contracts/ERC1410/ERC1410Standard.sol\":15749:16338  function operatorTransferByPartition(bytes32 _partition, address _from, address _to, uint256 _value, bytes calldata _data, bytes calldata _operatorData) external override returns (bytes32) {\r... */\n      swap9\n      swap8\n      pop\n      pop\n      pop\n      pop\n      pop\n      pop\n      pop\n      pop\n      jump\t// out\n        /* \"openzeppelin-solidity/contracts/access/Ownable.sol\":1085:1170  function owner() public view virtual returns (address) {... */\n    tag_110:\n        /* \"openzeppelin-solidity/contracts/access/Ownable.sol\":1131:1138  address */\n      0x00\n        /* \"openzeppelin-solidity/contracts/access/Ownable.sol\":1157:1163  _owner */\n      dup1\n      0x00\n      swap1\n      sload\n      swap1\n      0x0100\n      exp\n      swap1\n      div\n      0xffffffffffffffffffffffffffffffffffffffff\n      and\n        /* \"openzeppelin-solidity/contracts/access/Ownable.sol\":1150:1163  return _owner */\n      swap1\n      pop\n        /* \"openzeppelin-solidity/contracts/access/Ownable.sol\":1085:1170  function owner() public view virtual returns (address) {... */\n      swap1\n      jump\t// out\n        /* \"contracts/ERC1410/ERC1410Standard.sol\":13553:13732  function authorizeOperator(address _operator) external override {\r... */\n    tag_113:\n        /* \"contracts/ERC1410/ERC1410Standard.sol\":13663:13667  true */\n      0x01\n        /* \"contracts/ERC1410/ERC1410Standard.sol\":13628:13637  approvals */\n      0x06\n        /* \"contracts/ERC1410/ERC1410Standard.sol\":13628:13649  approvals[msg.sender] */\n      0x00\n        /* \"contracts/ERC1410/ERC1410Standard.sol\":13638:13648  msg.sender */\n      caller\n        /* \"contracts/ERC1410/ERC1410Standard.sol\":13628:13649  approvals[msg.sender] */\n      0xffffffffffffffffffffffffffffffffffffffff\n      and\n      0xffffffffffffffffffffffffffffffffffffffff\n      and\n      dup2\n      mstore\n      0x20\n      add\n      swap1\n      dup2\n      mstore\n      0x20\n      add\n      0x00\n      keccak256\n        /* \"contracts/ERC1410/ERC1410Standard.sol\":13628:13660  approvals[msg.sender][_operator] */\n      0x00\n        /* \"contracts/ERC1410/ERC1410Standard.sol\":13650:13659  _operator */\n      dup4\n        /* \"contracts/ERC1410/ERC1410Standard.sol\":13628:13660  approvals[msg.sender][_operator] */\n      0xffffffffffffffffffffffffffffffffffffffff\n      and\n      0xffffffffffffffffffffffffffffffffffffffff\n      and\n      dup2\n      mstore\n      0x20\n      add\n      swap1\n      dup2\n      mstore\n      0x20\n      add\n      0x00\n      keccak256\n      0x00\n        /* \"contracts/ERC1410/ERC1410Standard.sol\":13628:13667  approvals[msg.sender][_operator] = true */\n      0x0100\n      exp\n      dup2\n      sload\n      dup2\n      0xff\n      mul\n      not\n      and\n      swap1\n      dup4\n      iszero\n      iszero\n      mul\n      or\n      swap1\n      sstore\n      pop\n        /* \"contracts/ERC1410/ERC1410Standard.sol\":13713:13723  msg.sender */\n      caller\n        /* \"contracts/ERC1410/ERC1410Standard.sol\":13683:13724  AuthorizedOperator(_operator, msg.sender) */\n      0xffffffffffffffffffffffffffffffffffffffff\n      and\n        /* \"contracts/ERC1410/ERC1410Standard.sol\":13702:13711  _operator */\n      dup2\n        /* \"contracts/ERC1410/ERC1410Standard.sol\":13683:13724  AuthorizedOperator(_operator, msg.sender) */\n      0xffffffffffffffffffffffffffffffffffffffff\n      and\n      0xf4caeb2d6ca8932a215a353d0703c326ec2d81fc68170f320eb2ab49e9df61f9\n      mload(0x40)\n      mload(0x40)\n      dup1\n      swap2\n      sub\n      swap1\n      log3\n        /* \"contracts/ERC1410/ERC1410Standard.sol\":13553:13732  function authorizeOperator(address _operator) external override {\r... */\n      pop\n      jump\t// out\n        /* \"contracts/ERC1410/ERC1410Standard.sol\":6980:7929  function canTransferByPartition(address _from, address _to, bytes32 _partition, uint256 _value, bytes calldata _data) external override view returns (bytes1, bytes32, bytes32) {\r... */\n    tag_119:\n        /* \"contracts/ERC1410/ERC1410Standard.sol\":7130:7136  bytes1 */\n      0x00\n        /* \"contracts/ERC1410/ERC1410Standard.sol\":7138:7145  bytes32 */\n      dup1\n        /* \"contracts/ERC1410/ERC1410Standard.sol\":7147:7154  bytes32 */\n      0x00\n        /* \"contracts/ERC1410/ERC1410Standard.sol\":7235:7269  _validPartition(_partition, _from) */\n      tag_251\n        /* \"contracts/ERC1410/ERC1410Standard.sol\":7251:7261  _partition */\n      dup8\n        /* \"contracts/ERC1410/ERC1410Standard.sol\":7263:7268  _from */\n      dup11\n        /* \"contracts/ERC1410/ERC1410Standard.sol\":7235:7250  _validPartition */\n      tag_204\n        /* \"contracts/ERC1410/ERC1410Standard.sol\":7235:7269  _validPartition(_partition, _from) */\n      jump\t// in\n    tag_251:\n        /* \"contracts/ERC1410/ERC1410Standard.sol\":7230:7747  if (!_validPartition(_partition, _from))\r... */\n      tag_252\n      jumpi\n        /* \"contracts/ERC1410/ERC1410Standard.sol\":7292:7296  0x50 */\n      0x50\n        /* \"contracts/ERC1410/ERC1410Standard.sol\":7322:7333  bytes32(\"\") */\n      0x00\n        /* \"contracts/ERC1410/ERC1410Standard.sol\":7284:7334  return (0x50, \"Partition not exists\", bytes32(\"\")) */\n      dup2\n      0xf8\n      shl\n      swap2\n      pop\n      0x506172746974696f6e206e6f7420657869737473000000000000000000000000\n      swap1\n      swap3\n      pop\n      swap3\n      pop\n      swap3\n      pop\n      jump(tag_250)\n        /* \"contracts/ERC1410/ERC1410Standard.sol\":7230:7747  if (!_validPartition(_partition, _from))\r... */\n    tag_252:\n        /* \"contracts/ERC1410/ERC1410Standard.sol\":7418:7424  _value */\n      dup6\n        /* \"contracts/ERC1410/ERC1410Standard.sol\":7354:7364  partitions */\n      0x03\n        /* \"contracts/ERC1410/ERC1410Standard.sol\":7354:7371  partitions[_from] */\n      0x00\n        /* \"contracts/ERC1410/ERC1410Standard.sol\":7365:7370  _from */\n      dup12\n        /* \"contracts/ERC1410/ERC1410Standard.sol\":7354:7371  partitions[_from] */\n      0xffffffffffffffffffffffffffffffffffffffff\n      and\n      0xffffffffffffffffffffffffffffffffffffffff\n      and\n      dup2\n      mstore\n      0x20\n      add\n      swap1\n      dup2\n      mstore\n      0x20\n      add\n      0x00\n      keccak256\n        /* \"contracts/ERC1410/ERC1410Standard.sol\":7372:7388  partitionToIndex */\n      0x04\n        /* \"contracts/ERC1410/ERC1410Standard.sol\":7372:7395  partitionToIndex[_from] */\n      0x00\n        /* \"contracts/ERC1410/ERC1410Standard.sol\":7389:7394  _from */\n      dup13\n        /* \"contracts/ERC1410/ERC1410Standard.sol\":7372:7395  partitionToIndex[_from] */\n      0xffffffffffffffffffffffffffffffffffffffff\n      and\n      0xffffffffffffffffffffffffffffffffffffffff\n      and\n      dup2\n      mstore\n      0x20\n      add\n      swap1\n      dup2\n      mstore\n      0x20\n      add\n      0x00\n      keccak256\n        /* \"contracts/ERC1410/ERC1410Standard.sol\":7372:7407  partitionToIndex[_from][_partition] */\n      0x00\n        /* \"contracts/ERC1410/ERC1410Standard.sol\":7396:7406  _partition */\n      dup11\n        /* \"contracts/ERC1410/ERC1410Standard.sol\":7372:7407  partitionToIndex[_from][_partition] */\n      dup2\n      mstore\n      0x20\n      add\n      swap1\n      dup2\n      mstore\n      0x20\n      add\n      0x00\n      keccak256\n      sload\n        /* \"contracts/ERC1410/ERC1410Standard.sol\":7354:7408  partitions[_from][partitionToIndex[_from][_partition]] */\n      dup2\n      sload\n      dup2\n      lt\n      tag_254\n      jumpi\n      invalid\n    tag_254:\n      swap1\n      0x00\n      mstore\n      keccak256(0x00, 0x20)\n      swap1\n      0x02\n      mul\n      add\n        /* \"contracts/ERC1410/ERC1410Standard.sol\":7354:7415  partitions[_from][partitionToIndex[_from][_partition]].amount */\n      0x00\n      add\n      sload\n        /* \"contracts/ERC1410/ERC1410Standard.sol\":7354:7424  partitions[_from][partitionToIndex[_from][_partition]].amount < _value */\n      lt\n        /* \"contracts/ERC1410/ERC1410Standard.sol\":7350:7747  if (partitions[_from][partitionToIndex[_from][_partition]].amount < _value)\r... */\n      iszero\n      tag_256\n      jumpi\n        /* \"contracts/ERC1410/ERC1410Standard.sol\":7447:7451  0x52 */\n      0x52\n        /* \"contracts/ERC1410/ERC1410Standard.sol\":7476:7487  bytes32(\"\") */\n      0x00\n        /* \"contracts/ERC1410/ERC1410Standard.sol\":7439:7488  return (0x52, \"Insufficent balance\", bytes32(\"\")) */\n      dup2\n      0xf8\n      shl\n      swap2\n      pop\n      0x496e737566666963656e742062616c616e636500000000000000000000000000\n      swap1\n      swap3\n      pop\n      swap3\n      pop\n      swap3\n      pop\n      jump(tag_250)\n        /* \"contracts/ERC1410/ERC1410Standard.sol\":7350:7747  if (partitions[_from][partitionToIndex[_from][_partition]].amount < _value)\r... */\n    tag_256:\n        /* \"contracts/ERC1410/ERC1410Standard.sol\":7523:7524  0 */\n      0x00\n        /* \"contracts/ERC1410/ERC1410Standard.sol\":7508:7525  _to == address(0) */\n      0xffffffffffffffffffffffffffffffffffffffff\n      and\n        /* \"contracts/ERC1410/ERC1410Standard.sol\":7508:7511  _to */\n      dup9\n        /* \"contracts/ERC1410/ERC1410Standard.sol\":7508:7525  _to == address(0) */\n      0xffffffffffffffffffffffffffffffffffffffff\n      and\n      eq\n        /* \"contracts/ERC1410/ERC1410Standard.sol\":7504:7747  if (_to == address(0))\r... */\n      iszero\n      tag_258\n      jumpi\n        /* \"contracts/ERC1410/ERC1410Standard.sol\":7548:7552  0x57 */\n      0x57\n        /* \"contracts/ERC1410/ERC1410Standard.sol\":7574:7585  bytes32(\"\") */\n      0x00\n        /* \"contracts/ERC1410/ERC1410Standard.sol\":7540:7586  return (0x57, \"Invalid receiver\", bytes32(\"\")) */\n      dup2\n      0xf8\n      shl\n      swap2\n      pop\n      0x496e76616c696420726563656976657200000000000000000000000000000000\n      swap1\n      swap3\n      pop\n      swap3\n      pop\n      swap3\n      pop\n      jump(tag_250)\n        /* \"contracts/ERC1410/ERC1410Standard.sol\":7504:7747  if (_to == address(0))\r... */\n    tag_258:\n        /* \"contracts/ERC1410/ERC1410Standard.sol\":7607:7649  KindMath.checkSub(balances[_from], _value) */\n      tag_260\n        /* \"contracts/ERC1410/ERC1410Standard.sol\":7625:7633  balances */\n      0x02\n        /* \"contracts/ERC1410/ERC1410Standard.sol\":7625:7640  balances[_from] */\n      0x00\n        /* \"contracts/ERC1410/ERC1410Standard.sol\":7634:7639  _from */\n      dup12\n        /* \"contracts/ERC1410/ERC1410Standard.sol\":7625:7640  balances[_from] */\n      0xffffffffffffffffffffffffffffffffffffffff\n      and\n      0xffffffffffffffffffffffffffffffffffffffff\n      and\n      dup2\n      mstore\n      0x20\n      add\n      swap1\n      dup2\n      mstore\n      0x20\n      add\n      0x00\n      keccak256\n      sload\n        /* \"contracts/ERC1410/ERC1410Standard.sol\":7642:7648  _value */\n      dup8\n        /* \"contracts/ERC1410/ERC1410Standard.sol\":7607:7624  KindMath.checkSub */\n      tag_261\n        /* \"contracts/ERC1410/ERC1410Standard.sol\":7607:7649  KindMath.checkSub(balances[_from], _value) */\n      jump\t// in\n    tag_260:\n        /* \"contracts/ERC1410/ERC1410Standard.sol\":7606:7649  !KindMath.checkSub(balances[_from], _value) */\n      iszero\n        /* \"contracts/ERC1410/ERC1410Standard.sol\":7606:7694  !KindMath.checkSub(balances[_from], _value) || !KindMath.checkAdd(balances[_to], _value) */\n      dup1\n      tag_262\n      jumpi\n      pop\n        /* \"contracts/ERC1410/ERC1410Standard.sol\":7654:7694  KindMath.checkAdd(balances[_to], _value) */\n      tag_263\n        /* \"contracts/ERC1410/ERC1410Standard.sol\":7672:7680  balances */\n      0x02\n        /* \"contracts/ERC1410/ERC1410Standard.sol\":7672:7685  balances[_to] */\n      0x00\n        /* \"contracts/ERC1410/ERC1410Standard.sol\":7681:7684  _to */\n      dup11\n        /* \"contracts/ERC1410/ERC1410Standard.sol\":7672:7685  balances[_to] */\n      0xffffffffffffffffffffffffffffffffffffffff\n      and\n      0xffffffffffffffffffffffffffffffffffffffff\n      and\n      dup2\n      mstore\n      0x20\n      add\n      swap1\n      dup2\n      mstore\n      0x20\n      add\n      0x00\n      keccak256\n      sload\n        /* \"contracts/ERC1410/ERC1410Standard.sol\":7687:7693  _value */\n      dup8\n        /* \"contracts/ERC1410/ERC1410Standard.sol\":7654:7671  KindMath.checkAdd */\n      tag_264\n        /* \"contracts/ERC1410/ERC1410Standard.sol\":7654:7694  KindMath.checkAdd(balances[_to], _value) */\n      jump\t// in\n    tag_263:\n        /* \"contracts/ERC1410/ERC1410Standard.sol\":7653:7694  !KindMath.checkAdd(balances[_to], _value) */\n      iszero\n        /* \"contracts/ERC1410/ERC1410Standard.sol\":7606:7694  !KindMath.checkSub(balances[_from], _value) || !KindMath.checkAdd(balances[_to], _value) */\n    tag_262:\n        /* \"contracts/ERC1410/ERC1410Standard.sol\":7602:7747  if (!KindMath.checkSub(balances[_from], _value) || !KindMath.checkAdd(balances[_to], _value))\r... */\n      iszero\n      tag_265\n      jumpi\n        /* \"contracts/ERC1410/ERC1410Standard.sol\":7717:7721  0x50 */\n      0x50\n        /* \"contracts/ERC1410/ERC1410Standard.sol\":7735:7746  bytes32(\"\") */\n      0x00\n        /* \"contracts/ERC1410/ERC1410Standard.sol\":7709:7747  return (0x50, \"Overflow\", bytes32(\"\")) */\n      dup2\n      0xf8\n      shl\n      swap2\n      pop\n      0x4f766572666c6f77000000000000000000000000000000000000000000000000\n      swap1\n      swap3\n      pop\n      swap3\n      pop\n      swap3\n      pop\n      jump(tag_250)\n        /* \"contracts/ERC1410/ERC1410Standard.sol\":7602:7747  if (!KindMath.checkSub(balances[_from], _value) || !KindMath.checkAdd(balances[_to], _value))\r... */\n    tag_265:\n        /* \"contracts/ERC1410/ERC1410Standard.sol\":7893:7897  0x51 */\n      0x51\n        /* \"contracts/ERC1410/ERC1410Standard.sol\":7910:7920  _partition */\n      dup8\n        /* \"contracts/ERC1410/ERC1410Standard.sol\":7885:7921  return (0x51, \"Success\", _partition) */\n      dup2\n      0xf8\n      shl\n      swap2\n      pop\n      0x5375636365737300000000000000000000000000000000000000000000000000\n      swap1\n      swap3\n      pop\n      swap3\n      pop\n      swap3\n      pop\n        /* \"contracts/ERC1410/ERC1410Standard.sol\":6980:7929  function canTransferByPartition(address _from, address _to, bytes32 _partition, uint256 _value, bytes calldata _data) external override view returns (bytes1, bytes32, bytes32) {\r... */\n    tag_250:\n      swap7\n      pop\n      swap7\n      pop\n      swap7\n      swap4\n      pop\n      pop\n      pop\n      pop\n      jump\t// out\n        /* \"contracts/ERC1410/ERC1410Standard.sol\":8655:9623  function canTransfer(address _from, address _to,  uint256 _value, bytes calldata _data) external override view returns (bytes1, bytes32, bytes32) {\r... */\n    tag_125:\n        /* \"contracts/ERC1410/ERC1410Standard.sol\":8775:8781  bytes1 */\n      0x00\n        /* \"contracts/ERC1410/ERC1410Standard.sol\":8783:8790  bytes32 */\n      dup1\n        /* \"contracts/ERC1410/ERC1410Standard.sol\":8792:8799  bytes32 */\n      0x00\n        /* \"contracts/ERC1410/ERC1410Standard.sol\":8812:8830  bytes32 _partition */\n      dup1\n        /* \"contracts/ERC1410/ERC1410Standard.sol\":442:508  0x7465737400000000000000000000000000000000000000000000000000000000 */\n      0x7465737400000000000000000000000000000000000000000000000000000000\n        /* \"contracts/ERC1410/ERC1410Standard.sol\":8831:8850  HELD_FREE_PARTITION */\n      0x00\n      shl\n        /* \"contracts/ERC1410/ERC1410Standard.sol\":8812:8850  bytes32 _partition=HELD_FREE_PARTITION */\n      swap1\n      pop\n        /* \"contracts/ERC1410/ERC1410Standard.sol\":8929:8963  _validPartition(_partition, _from) */\n      tag_267\n        /* \"contracts/ERC1410/ERC1410Standard.sol\":8945:8955  _partition */\n      dup2\n        /* \"contracts/ERC1410/ERC1410Standard.sol\":8957:8962  _from */\n      dup11\n        /* \"contracts/ERC1410/ERC1410Standard.sol\":8929:8944  _validPartition */\n      tag_204\n        /* \"contracts/ERC1410/ERC1410Standard.sol\":8929:8963  _validPartition(_partition, _from) */\n      jump\t// in\n    tag_267:\n        /* \"contracts/ERC1410/ERC1410Standard.sol\":8924:9441  if (!_validPartition(_partition, _from))\r... */\n      tag_268\n      jumpi\n        /* \"contracts/ERC1410/ERC1410Standard.sol\":8986:8990  0x50 */\n      0x50\n        /* \"contracts/ERC1410/ERC1410Standard.sol\":9016:9027  bytes32(\"\") */\n      0x00\n        /* \"contracts/ERC1410/ERC1410Standard.sol\":8978:9028  return (0x50, \"Partition not exists\", bytes32(\"\")) */\n      dup2\n      0xf8\n      shl\n      swap2\n      pop\n      0x506172746974696f6e206e6f7420657869737473000000000000000000000000\n      swap1\n      swap4\n      pop\n      swap4\n      pop\n      swap4\n      pop\n      pop\n      jump(tag_266)\n        /* \"contracts/ERC1410/ERC1410Standard.sol\":8924:9441  if (!_validPartition(_partition, _from))\r... */\n    tag_268:\n        /* \"contracts/ERC1410/ERC1410Standard.sol\":9112:9118  _value */\n      dup7\n        /* \"contracts/ERC1410/ERC1410Standard.sol\":9048:9058  partitions */\n      0x03\n        /* \"contracts/ERC1410/ERC1410Standard.sol\":9048:9065  partitions[_from] */\n      0x00\n        /* \"contracts/ERC1410/ERC1410Standard.sol\":9059:9064  _from */\n      dup12\n        /* \"contracts/ERC1410/ERC1410Standard.sol\":9048:9065  partitions[_from] */\n      0xffffffffffffffffffffffffffffffffffffffff\n      and\n      0xffffffffffffffffffffffffffffffffffffffff\n      and\n      dup2\n      mstore\n      0x20\n      add\n      swap1\n      dup2\n      mstore\n      0x20\n      add\n      0x00\n      keccak256\n        /* \"contracts/ERC1410/ERC1410Standard.sol\":9066:9082  partitionToIndex */\n      0x04\n        /* \"contracts/ERC1410/ERC1410Standard.sol\":9066:9089  partitionToIndex[_from] */\n      0x00\n        /* \"contracts/ERC1410/ERC1410Standard.sol\":9083:9088  _from */\n      dup13\n        /* \"contracts/ERC1410/ERC1410Standard.sol\":9066:9089  partitionToIndex[_from] */\n      0xffffffffffffffffffffffffffffffffffffffff\n      and\n      0xffffffffffffffffffffffffffffffffffffffff\n      and\n      dup2\n      mstore\n      0x20\n      add\n      swap1\n      dup2\n      mstore\n      0x20\n      add\n      0x00\n      keccak256\n        /* \"contracts/ERC1410/ERC1410Standard.sol\":9066:9101  partitionToIndex[_from][_partition] */\n      0x00\n        /* \"contracts/ERC1410/ERC1410Standard.sol\":9090:9100  _partition */\n      dup5\n        /* \"contracts/ERC1410/ERC1410Standard.sol\":9066:9101  partitionToIndex[_from][_partition] */\n      dup2\n      mstore\n      0x20\n      add\n      swap1\n      dup2\n      mstore\n      0x20\n      add\n      0x00\n      keccak256\n      sload\n        /* \"contracts/ERC1410/ERC1410Standard.sol\":9048:9102  partitions[_from][partitionToIndex[_from][_partition]] */\n      dup2\n      sload\n      dup2\n      lt\n      tag_270\n      jumpi\n      invalid\n    tag_270:\n      swap1\n      0x00\n      mstore\n      keccak256(0x00, 0x20)\n      swap1\n      0x02\n      mul\n      add\n        /* \"contracts/ERC1410/ERC1410Standard.sol\":9048:9109  partitions[_from][partitionToIndex[_from][_partition]].amount */\n      0x00\n      add\n      sload\n        /* \"contracts/ERC1410/ERC1410Standard.sol\":9048:9118  partitions[_from][partitionToIndex[_from][_partition]].amount < _value */\n      lt\n        /* \"contracts/ERC1410/ERC1410Standard.sol\":9044:9441  if (partitions[_from][partitionToIndex[_from][_partition]].amount < _value)\r... */\n      iszero\n      tag_272\n      jumpi\n        /* \"contracts/ERC1410/ERC1410Standard.sol\":9141:9145  0x52 */\n      0x52\n        /* \"contracts/ERC1410/ERC1410Standard.sol\":9170:9181  bytes32(\"\") */\n      0x00\n        /* \"contracts/ERC1410/ERC1410Standard.sol\":9133:9182  return (0x52, \"Insufficent balance\", bytes32(\"\")) */\n      dup2\n      0xf8\n      shl\n      swap2\n      pop\n      0x496e737566666963656e742062616c616e636500000000000000000000000000\n      swap1\n      swap4\n      pop\n      swap4\n      pop\n      swap4\n      pop\n      pop\n      jump(tag_266)\n        /* \"contracts/ERC1410/ERC1410Standard.sol\":9044:9441  if (partitions[_from][partitionToIndex[_from][_partition]].amount < _value)\r... */\n    tag_272:\n        /* \"contracts/ERC1410/ERC1410Standard.sol\":9217:9218  0 */\n      0x00\n        /* \"contracts/ERC1410/ERC1410Standard.sol\":9202:9219  _to == address(0) */\n      0xffffffffffffffffffffffffffffffffffffffff\n      and\n        /* \"contracts/ERC1410/ERC1410Standard.sol\":9202:9205  _to */\n      dup9\n        /* \"contracts/ERC1410/ERC1410Standard.sol\":9202:9219  _to == address(0) */\n      0xffffffffffffffffffffffffffffffffffffffff\n      and\n      eq\n        /* \"contracts/ERC1410/ERC1410Standard.sol\":9198:9441  if (_to == address(0))\r... */\n      iszero\n      tag_274\n      jumpi\n        /* \"contracts/ERC1410/ERC1410Standard.sol\":9242:9246  0x57 */\n      0x57\n        /* \"contracts/ERC1410/ERC1410Standard.sol\":9268:9279  bytes32(\"\") */\n      0x00\n        /* \"contracts/ERC1410/ERC1410Standard.sol\":9234:9280  return (0x57, \"Invalid receiver\", bytes32(\"\")) */\n      dup2\n      0xf8\n      shl\n      swap2\n      pop\n      0x496e76616c696420726563656976657200000000000000000000000000000000\n      swap1\n      swap4\n      pop\n      swap4\n      pop\n      swap4\n      pop\n      pop\n      jump(tag_266)\n        /* \"contracts/ERC1410/ERC1410Standard.sol\":9198:9441  if (_to == address(0))\r... */\n    tag_274:\n        /* \"contracts/ERC1410/ERC1410Standard.sol\":9301:9343  KindMath.checkSub(balances[_from], _value) */\n      tag_276\n        /* \"contracts/ERC1410/ERC1410Standard.sol\":9319:9327  balances */\n      0x02\n        /* \"contracts/ERC1410/ERC1410Standard.sol\":9319:9334  balances[_from] */\n      0x00\n        /* \"contracts/ERC1410/ERC1410Standard.sol\":9328:9333  _from */\n      dup12\n        /* \"contracts/ERC1410/ERC1410Standard.sol\":9319:9334  balances[_from] */\n      0xffffffffffffffffffffffffffffffffffffffff\n      and\n      0xffffffffffffffffffffffffffffffffffffffff\n      and\n      dup2\n      mstore\n      0x20\n      add\n      swap1\n      dup2\n      mstore\n      0x20\n      add\n      0x00\n      keccak256\n      sload\n        /* \"contracts/ERC1410/ERC1410Standard.sol\":9336:9342  _value */\n      dup9\n        /* \"contracts/ERC1410/ERC1410Standard.sol\":9301:9318  KindMath.checkSub */\n      tag_261\n        /* \"contracts/ERC1410/ERC1410Standard.sol\":9301:9343  KindMath.checkSub(balances[_from], _value) */\n      jump\t// in\n    tag_276:\n        /* \"contracts/ERC1410/ERC1410Standard.sol\":9300:9343  !KindMath.checkSub(balances[_from], _value) */\n      iszero\n        /* \"contracts/ERC1410/ERC1410Standard.sol\":9300:9388  !KindMath.checkSub(balances[_from], _value) || !KindMath.checkAdd(balances[_to], _value) */\n      dup1\n      tag_277\n      jumpi\n      pop\n        /* \"contracts/ERC1410/ERC1410Standard.sol\":9348:9388  KindMath.checkAdd(balances[_to], _value) */\n      tag_278\n        /* \"contracts/ERC1410/ERC1410Standard.sol\":9366:9374  balances */\n      0x02\n        /* \"contracts/ERC1410/ERC1410Standard.sol\":9366:9379  balances[_to] */\n      0x00\n        /* \"contracts/ERC1410/ERC1410Standard.sol\":9375:9378  _to */\n      dup11\n        /* \"contracts/ERC1410/ERC1410Standard.sol\":9366:9379  balances[_to] */\n      0xffffffffffffffffffffffffffffffffffffffff\n      and\n      0xffffffffffffffffffffffffffffffffffffffff\n      and\n      dup2\n      mstore\n      0x20\n      add\n      swap1\n      dup2\n      mstore\n      0x20\n      add\n      0x00\n      keccak256\n      sload\n        /* \"contracts/ERC1410/ERC1410Standard.sol\":9381:9387  _value */\n      dup9\n        /* \"contracts/ERC1410/ERC1410Standard.sol\":9348:9365  KindMath.checkAdd */\n      tag_264\n        /* \"contracts/ERC1410/ERC1410Standard.sol\":9348:9388  KindMath.checkAdd(balances[_to], _value) */\n      jump\t// in\n    tag_278:\n        /* \"contracts/ERC1410/ERC1410Standard.sol\":9347:9388  !KindMath.checkAdd(balances[_to], _value) */\n      iszero\n        /* \"contracts/ERC1410/ERC1410Standard.sol\":9300:9388  !KindMath.checkSub(balances[_from], _value) || !KindMath.checkAdd(balances[_to], _value) */\n    tag_277:\n        /* \"contracts/ERC1410/ERC1410Standard.sol\":9296:9441  if (!KindMath.checkSub(balances[_from], _value) || !KindMath.checkAdd(balances[_to], _value))\r... */\n      iszero\n      tag_279\n      jumpi\n        /* \"contracts/ERC1410/ERC1410Standard.sol\":9411:9415  0x50 */\n      0x50\n        /* \"contracts/ERC1410/ERC1410Standard.sol\":9429:9440  bytes32(\"\") */\n      0x00\n        /* \"contracts/ERC1410/ERC1410Standard.sol\":9403:9441  return (0x50, \"Overflow\", bytes32(\"\")) */\n      dup2\n      0xf8\n      shl\n      swap2\n      pop\n      0x4f766572666c6f77000000000000000000000000000000000000000000000000\n      swap1\n      swap4\n      pop\n      swap4\n      pop\n      swap4\n      pop\n      pop\n      jump(tag_266)\n        /* \"contracts/ERC1410/ERC1410Standard.sol\":9296:9441  if (!KindMath.checkSub(balances[_from], _value) || !KindMath.checkAdd(balances[_to], _value))\r... */\n    tag_279:\n        /* \"contracts/ERC1410/ERC1410Standard.sol\":9587:9591  0x51 */\n      0x51\n        /* \"contracts/ERC1410/ERC1410Standard.sol\":9604:9614  _partition */\n      dup2\n        /* \"contracts/ERC1410/ERC1410Standard.sol\":9579:9615  return (0x51, \"Success\", _partition) */\n      dup2\n      0xf8\n      shl\n      swap2\n      pop\n      0x5375636365737300000000000000000000000000000000000000000000000000\n      swap1\n      swap4\n      pop\n      swap4\n      pop\n      swap4\n      pop\n      pop\n        /* \"contracts/ERC1410/ERC1410Standard.sol\":8655:9623  function canTransfer(address _from, address _to,  uint256 _value, bytes calldata _data) external override view returns (bytes1, bytes32, bytes32) {\r... */\n    tag_266:\n      swap6\n      pop\n      swap6\n      pop\n      swap6\n      swap3\n      pop\n      pop\n      pop\n      jump\t// out\n        /* \"contracts/ERC1410/ERC1410Standard.sol\":18856:19305  function operatorIssue( address _tokenHolder, uint256 _value, bytes calldata _data, bytes calldata _operatorData) external override  {\r... */\n    tag_134:\n        /* \"contracts/ERC1410/ERC1410Standard.sol\":19000:19018  bytes32 _partition */\n      0x00\n        /* \"contracts/ERC1410/ERC1410Standard.sol\":442:508  0x7465737400000000000000000000000000000000000000000000000000000000 */\n      0x7465737400000000000000000000000000000000000000000000000000000000\n        /* \"contracts/ERC1410/ERC1410Standard.sol\":19019:19038  HELD_FREE_PARTITION */\n      0x00\n      shl\n        /* \"contracts/ERC1410/ERC1410Standard.sol\":19000:19038  bytes32 _partition=HELD_FREE_PARTITION */\n      swap1\n      pop\n        /* \"contracts/ERC1410/ERC1410Standard.sol\":19071:19107  isOperator(msg.sender, _tokenHolder) */\n      tag_281\n        /* \"contracts/ERC1410/ERC1410Standard.sol\":19082:19092  msg.sender */\n      caller\n        /* \"contracts/ERC1410/ERC1410Standard.sol\":19094:19106  _tokenHolder */\n      dup9\n        /* \"contracts/ERC1410/ERC1410Standard.sol\":19071:19081  isOperator */\n      tag_146\n        /* \"contracts/ERC1410/ERC1410Standard.sol\":19071:19107  isOperator(msg.sender, _tokenHolder) */\n      jump\t// in\n    tag_281:\n        /* \"contracts/ERC1410/ERC1410Standard.sol\":19071:19171  isOperator(msg.sender, _tokenHolder) || isOperatorForPartition(_partition, msg.sender, _tokenHolder) */\n      dup1\n      tag_282\n      jumpi\n      pop\n        /* \"contracts/ERC1410/ERC1410Standard.sol\":19111:19171  isOperatorForPartition(_partition, msg.sender, _tokenHolder) */\n      tag_283\n        /* \"contracts/ERC1410/ERC1410Standard.sol\":19134:19144  _partition */\n      dup2\n        /* \"contracts/ERC1410/ERC1410Standard.sol\":19146:19156  msg.sender */\n      caller\n        /* \"contracts/ERC1410/ERC1410Standard.sol\":19158:19170  _tokenHolder */\n      dup10\n        /* \"contracts/ERC1410/ERC1410Standard.sol\":19111:19133  isOperatorForPartition */\n      tag_88\n        /* \"contracts/ERC1410/ERC1410Standard.sol\":19111:19171  isOperatorForPartition(_partition, msg.sender, _tokenHolder) */\n      jump\t// in\n    tag_283:\n        /* \"contracts/ERC1410/ERC1410Standard.sol\":19071:19171  isOperator(msg.sender, _tokenHolder) || isOperatorForPartition(_partition, msg.sender, _tokenHolder) */\n    tag_282:\n        /* \"contracts/ERC1410/ERC1410Standard.sol\":19049:19213  require(\r... */\n      tag_284\n      jumpi\n      mload(0x40)\n      0x08c379a000000000000000000000000000000000000000000000000000000000\n      dup2\n      mstore\n      0x04\n      add\n      dup1\n      dup1\n      0x20\n      add\n      dup3\n      dup2\n      sub\n      dup3\n      mstore\n      0x0e\n      dup2\n      mstore\n      0x20\n      add\n      dup1\n      0x4e6f7420617574686f7269736564000000000000000000000000000000000000\n      dup2\n      mstore\n      pop\n      0x20\n      add\n      swap2\n      pop\n      pop\n      mload(0x40)\n      dup1\n      swap2\n      sub\n      swap1\n      revert\n    tag_284:\n        /* \"contracts/ERC1410/ERC1410Standard.sol\":19224:19297  _issueByPartition(_partition, _tokenHolder, _value, _data, _operatorData) */\n      tag_285\n        /* \"contracts/ERC1410/ERC1410Standard.sol\":19242:19252  _partition */\n      dup2\n        /* \"contracts/ERC1410/ERC1410Standard.sol\":19254:19266  _tokenHolder */\n      dup9\n        /* \"contracts/ERC1410/ERC1410Standard.sol\":19268:19274  _value */\n      dup9\n        /* \"contracts/ERC1410/ERC1410Standard.sol\":19276:19281  _data */\n      dup9\n      dup9\n        /* \"contracts/ERC1410/ERC1410Standard.sol\":19224:19297  _issueByPartition(_partition, _tokenHolder, _value, _data, _operatorData) */\n      dup1\n      dup1\n      0x1f\n      add\n      0x20\n      dup1\n      swap2\n      div\n      mul\n      0x20\n      add\n      mload(0x40)\n      swap1\n      dup2\n      add\n      0x40\n      mstore\n      dup1\n      swap4\n      swap3\n      swap2\n      swap1\n      dup2\n      dup2\n      mstore\n      0x20\n      add\n      dup4\n      dup4\n      dup1\n      dup3\n      dup5\n      calldatacopy\n      0x00\n      dup2\n      dup5\n      add\n      mstore\n      not(0x1f)\n      0x1f\n      dup3\n      add\n      and\n      swap1\n      pop\n      dup1\n      dup4\n      add\n      swap3\n      pop\n      pop\n      pop\n      pop\n      pop\n      pop\n      pop\n        /* \"contracts/ERC1410/ERC1410Standard.sol\":19283:19296  _operatorData */\n      dup8\n      dup8\n        /* \"contracts/ERC1410/ERC1410Standard.sol\":19224:19297  _issueByPartition(_partition, _tokenHolder, _value, _data, _operatorData) */\n      dup1\n      dup1\n      0x1f\n      add\n      0x20\n      dup1\n      swap2\n      div\n      mul\n      0x20\n      add\n      mload(0x40)\n      swap1\n      dup2\n      add\n      0x40\n      mstore\n      dup1\n      swap4\n      swap3\n      swap2\n      swap1\n      dup2\n      dup2\n      mstore\n      0x20\n      add\n      dup4\n      dup4\n      dup1\n      dup3\n      dup5\n      calldatacopy\n      0x00\n      dup2\n      dup5\n      add\n      mstore\n      not(0x1f)\n      0x1f\n      dup3\n      add\n      and\n      swap1\n      pop\n      dup1\n      dup4\n      add\n      swap3\n      pop\n      pop\n      pop\n      pop\n      pop\n      pop\n      pop\n        /* \"contracts/ERC1410/ERC1410Standard.sol\":19224:19241  _issueByPartition */\n      tag_225\n        /* \"contracts/ERC1410/ERC1410Standard.sol\":19224:19297  _issueByPartition(_partition, _tokenHolder, _value, _data, _operatorData) */\n      jump\t// in\n    tag_285:\n        /* \"contracts/ERC1410/ERC1410Standard.sol\":18856:19305  function operatorIssue( address _tokenHolder, uint256 _value, bytes calldata _data, bytes calldata _operatorData) external override  {\r... */\n      pop\n      pop\n      pop\n      pop\n      pop\n      pop\n      pop\n      jump\t// out\n        /* \"contracts/ERC1410/ERC1410Standard.sol\":19311:19804  function operatorIssueByPartition(bytes32 _partition, address _tokenHolder, uint256 _value, bytes calldata _data, bytes calldata _operatorData) external override  {\r... */\n    tag_143:\n        /* \"contracts/ERC1410/ERC1410Standard.sol\":19507:19543  isOperator(msg.sender, _tokenHolder) */\n      tag_287\n        /* \"contracts/ERC1410/ERC1410Standard.sol\":19518:19528  msg.sender */\n      caller\n        /* \"contracts/ERC1410/ERC1410Standard.sol\":19530:19542  _tokenHolder */\n      dup8\n        /* \"contracts/ERC1410/ERC1410Standard.sol\":19507:19517  isOperator */\n      tag_146\n        /* \"contracts/ERC1410/ERC1410Standard.sol\":19507:19543  isOperator(msg.sender, _tokenHolder) */\n      jump\t// in\n    tag_287:\n        /* \"contracts/ERC1410/ERC1410Standard.sol\":19507:19607  isOperator(msg.sender, _tokenHolder) || isOperatorForPartition(_partition, msg.sender, _tokenHolder) */\n      dup1\n      tag_288\n      jumpi\n      pop\n        /* \"contracts/ERC1410/ERC1410Standard.sol\":19547:19607  isOperatorForPartition(_partition, msg.sender, _tokenHolder) */\n      tag_289\n        /* \"contracts/ERC1410/ERC1410Standard.sol\":19570:19580  _partition */\n      dup8\n        /* \"contracts/ERC1410/ERC1410Standard.sol\":19582:19592  msg.sender */\n      caller\n        /* \"contracts/ERC1410/ERC1410Standard.sol\":19594:19606  _tokenHolder */\n      dup9\n        /* \"contracts/ERC1410/ERC1410Standard.sol\":19547:19569  isOperatorForPartition */\n      tag_88\n        /* \"contracts/ERC1410/ERC1410Standard.sol\":19547:19607  isOperatorForPartition(_partition, msg.sender, _tokenHolder) */\n      jump\t// in\n    tag_289:\n        /* \"contracts/ERC1410/ERC1410Standard.sol\":19507:19607  isOperator(msg.sender, _tokenHolder) || isOperatorForPartition(_partition, msg.sender, _tokenHolder) */\n    tag_288:\n        /* \"contracts/ERC1410/ERC1410Standard.sol\":19485:19649  require(\r... */\n      tag_290\n      jumpi\n      mload(0x40)\n      0x08c379a000000000000000000000000000000000000000000000000000000000\n      dup2\n      mstore\n      0x04\n      add\n      dup1\n      dup1\n      0x20\n      add\n      dup3\n      dup2\n      sub\n      dup3\n      mstore\n      0x0e\n      dup2\n      mstore\n      0x20\n      add\n      dup1\n      0x4e6f7420617574686f7269736564000000000000000000000000000000000000\n      dup2\n      mstore\n      pop\n      0x20\n      add\n      swap2\n      pop\n      pop\n      mload(0x40)\n      dup1\n      swap2\n      sub\n      swap1\n      revert\n    tag_290:\n        /* \"contracts/ERC1410/ERC1410Standard.sol\":19723:19796  _issueByPartition(_partition, _tokenHolder, _value, _data, _operatorData) */\n      tag_291\n        /* \"contracts/ERC1410/ERC1410Standard.sol\":19741:19751  _partition */\n      dup8\n        /* \"contracts/ERC1410/ERC1410Standard.sol\":19753:19765  _tokenHolder */\n      dup8\n        /* \"contracts/ERC1410/ERC1410Standard.sol\":19767:19773  _value */\n      dup8\n        /* \"contracts/ERC1410/ERC1410Standard.sol\":19775:19780  _data */\n      dup8\n      dup8\n        /* \"contracts/ERC1410/ERC1410Standard.sol\":19723:19796  _issueByPartition(_partition, _tokenHolder, _value, _data, _operatorData) */\n      dup1\n      dup1\n      0x1f\n      add\n      0x20\n      dup1\n      swap2\n      div\n      mul\n      0x20\n      add\n      mload(0x40)\n      swap1\n      dup2\n      add\n      0x40\n      mstore\n      dup1\n      swap4\n      swap3\n      swap2\n      swap1\n      dup2\n      dup2\n      mstore\n      0x20\n      add\n      dup4\n      dup4\n      dup1\n      dup3\n      dup5\n      calldatacopy\n      0x00\n      dup2\n      dup5\n      add\n      mstore\n      not(0x1f)\n      0x1f\n      dup3\n      add\n      and\n      swap1\n      pop\n      dup1\n      dup4\n      add\n      swap3\n      pop\n      pop\n      pop\n      pop\n      pop\n      pop\n      pop\n        /* \"contracts/ERC1410/ERC1410Standard.sol\":19782:19795  _operatorData */\n      dup7\n      dup7\n        /* \"contracts/ERC1410/ERC1410Standard.sol\":19723:19796  _issueByPartition(_partition, _tokenHolder, _value, _data, _operatorData) */\n      dup1\n      dup1\n      0x1f\n      add\n      0x20\n      dup1\n      swap2\n      div\n      mul\n      0x20\n      add\n      mload(0x40)\n      swap1\n      dup2\n      add\n      0x40\n      mstore\n      dup1\n      swap4\n      swap3\n      swap2\n      swap1\n      dup2\n      dup2\n      mstore\n      0x20\n      add\n      dup4\n      dup4\n      dup1\n      dup3\n      dup5\n      calldatacopy\n      0x00\n      dup2\n      dup5\n      add\n      mstore\n      not(0x1f)\n      0x1f\n      dup3\n      add\n      and\n      swap1\n      pop\n      dup1\n      dup4\n      add\n      swap3\n      pop\n      pop\n      pop\n      pop\n      pop\n      pop\n      pop\n        /* \"contracts/ERC1410/ERC1410Standard.sol\":19723:19740  _issueByPartition */\n      tag_225\n        /* \"contracts/ERC1410/ERC1410Standard.sol\":19723:19796  _issueByPartition(_partition, _tokenHolder, _value, _data, _operatorData) */\n      jump\t// in\n    tag_291:\n        /* \"contracts/ERC1410/ERC1410Standard.sol\":19311:19804  function operatorIssueByPartition(bytes32 _partition, address _tokenHolder, uint256 _value, bytes calldata _data, bytes calldata _operatorData) external override  {\r... */\n      pop\n      pop\n      pop\n      pop\n      pop\n      pop\n      pop\n      jump\t// out\n        /* \"contracts/ERC1410/ERC1410Standard.sol\":12583:12740  function isOperator(address _operator, address _tokenHolder) public override view returns (bool) {\r... */\n    tag_146:\n        /* \"contracts/ERC1410/ERC1410Standard.sol\":12674:12678  bool */\n      0x00\n        /* \"contracts/ERC1410/ERC1410Standard.sol\":12698:12707  approvals */\n      0x06\n        /* \"contracts/ERC1410/ERC1410Standard.sol\":12698:12721  approvals[_tokenHolder] */\n      0x00\n        /* \"contracts/ERC1410/ERC1410Standard.sol\":12708:12720  _tokenHolder */\n      dup4\n        /* \"contracts/ERC1410/ERC1410Standard.sol\":12698:12721  approvals[_tokenHolder] */\n      0xffffffffffffffffffffffffffffffffffffffff\n      and\n      0xffffffffffffffffffffffffffffffffffffffff\n      and\n      dup2\n      mstore\n      0x20\n      add\n      swap1\n      dup2\n      mstore\n      0x20\n      add\n      0x00\n      keccak256\n        /* \"contracts/ERC1410/ERC1410Standard.sol\":12698:12732  approvals[_tokenHolder][_operator] */\n      0x00\n        /* \"contracts/ERC1410/ERC1410Standard.sol\":12722:12731  _operator */\n      dup5\n        /* \"contracts/ERC1410/ERC1410Standard.sol\":12698:12732  approvals[_tokenHolder][_operator] */\n      0xffffffffffffffffffffffffffffffffffffffff\n      and\n      0xffffffffffffffffffffffffffffffffffffffff\n      and\n      dup2\n      mstore\n      0x20\n      add\n      swap1\n      dup2\n      mstore\n      0x20\n      add\n      0x00\n      keccak256\n      0x00\n      swap1\n      sload\n      swap1\n      0x0100\n      exp\n      swap1\n      div\n      0xff\n      and\n        /* \"contracts/ERC1410/ERC1410Standard.sol\":12691:12732  return approvals[_tokenHolder][_operator] */\n      swap1\n      pop\n        /* \"contracts/ERC1410/ERC1410Standard.sol\":12583:12740  function isOperator(address _operator, address _tokenHolder) public override view returns (bool) {\r... */\n      swap3\n      swap2\n      pop\n      pop\n      jump\t// out\n        /* \"contracts/ERC1410/ERC1410Standard.sol\":18551:18848  function issue( address _tokenHolder, uint256 _value, bytes calldata _data) external override onlyOwner {\r... */\n    tag_152:\n        /* \"openzeppelin-solidity/contracts/access/Ownable.sol\":1308:1320  _msgSender() */\n      tag_294\n        /* \"openzeppelin-solidity/contracts/access/Ownable.sol\":1308:1318  _msgSender */\n      tag_220\n        /* \"openzeppelin-solidity/contracts/access/Ownable.sol\":1308:1320  _msgSender() */\n      jump\t// in\n    tag_294:\n        /* \"openzeppelin-solidity/contracts/access/Ownable.sol\":1297:1320  owner() == _msgSender() */\n      0xffffffffffffffffffffffffffffffffffffffff\n      and\n        /* \"openzeppelin-solidity/contracts/access/Ownable.sol\":1297:1304  owner() */\n      tag_295\n        /* \"openzeppelin-solidity/contracts/access/Ownable.sol\":1297:1302  owner */\n      tag_110\n        /* \"openzeppelin-solidity/contracts/access/Ownable.sol\":1297:1304  owner() */\n      jump\t// in\n    tag_295:\n        /* \"openzeppelin-solidity/contracts/access/Ownable.sol\":1297:1320  owner() == _msgSender() */\n      0xffffffffffffffffffffffffffffffffffffffff\n      and\n      eq\n        /* \"openzeppelin-solidity/contracts/access/Ownable.sol\":1289:1357  require(owner() == _msgSender(), \"Ownable: caller is not the owner\") */\n      tag_296\n      jumpi\n      mload(0x40)\n      0x08c379a000000000000000000000000000000000000000000000000000000000\n      dup2\n      mstore\n      0x04\n      add\n      dup1\n      dup1\n      0x20\n      add\n      dup3\n      dup2\n      sub\n      dup3\n      mstore\n      0x20\n      dup2\n      mstore\n      0x20\n      add\n      dup1\n      0x4f776e61626c653a2063616c6c6572206973206e6f7420746865206f776e6572\n      dup2\n      mstore\n      pop\n      0x20\n      add\n      swap2\n      pop\n      pop\n      mload(0x40)\n      dup1\n      swap2\n      sub\n      swap1\n      revert\n    tag_296:\n        /* \"contracts/ERC1410/ERC1410Standard.sol\":18729:18747  bytes32 _partition */\n      0x00\n        /* \"contracts/ERC1410/ERC1410Standard.sol\":442:508  0x7465737400000000000000000000000000000000000000000000000000000000 */\n      0x7465737400000000000000000000000000000000000000000000000000000000\n        /* \"contracts/ERC1410/ERC1410Standard.sol\":18748:18767  HELD_FREE_PARTITION */\n      0x00\n      shl\n        /* \"contracts/ERC1410/ERC1410Standard.sol\":18729:18767  bytes32 _partition=HELD_FREE_PARTITION */\n      swap1\n      pop\n        /* \"contracts/ERC1410/ERC1410Standard.sol\":18778:18840  _issueByPartition(_partition, _tokenHolder, _value, _data, \"\") */\n      tag_298\n        /* \"contracts/ERC1410/ERC1410Standard.sol\":18796:18806  _partition */\n      dup2\n        /* \"contracts/ERC1410/ERC1410Standard.sol\":18808:18820  _tokenHolder */\n      dup7\n        /* \"contracts/ERC1410/ERC1410Standard.sol\":18822:18828  _value */\n      dup7\n        /* \"contracts/ERC1410/ERC1410Standard.sol\":18830:18835  _data */\n      dup7\n      dup7\n        /* \"contracts/ERC1410/ERC1410Standard.sol\":18778:18840  _issueByPartition(_partition, _tokenHolder, _value, _data, \"\") */\n      dup1\n      dup1\n      0x1f\n      add\n      0x20\n      dup1\n      swap2\n      div\n      mul\n      0x20\n      add\n      mload(0x40)\n      swap1\n      dup2\n      add\n      0x40\n      mstore\n      dup1\n      swap4\n      swap3\n      swap2\n      swap1\n      dup2\n      dup2\n      mstore\n      0x20\n      add\n      dup4\n      dup4\n      dup1\n      dup3\n      dup5\n      calldatacopy\n      0x00\n      dup2\n      dup5\n      add\n      mstore\n      not(0x1f)\n      0x1f\n      dup3\n      add\n      and\n      swap1\n      pop\n      dup1\n      dup4\n      add\n      swap3\n      pop\n      pop\n      pop\n      pop\n      pop\n      pop\n      pop\n      mload(0x40)\n      dup1\n      0x20\n      add\n      0x40\n      mstore\n      dup1\n      0x00\n      dup2\n      mstore\n      pop\n        /* \"contracts/ERC1410/ERC1410Standard.sol\":18778:18795  _issueByPartition */\n      tag_225\n        /* \"contracts/ERC1410/ERC1410Standard.sol\":18778:18840  _issueByPartition(_partition, _tokenHolder, _value, _data, \"\") */\n      jump\t// in\n    tag_298:\n        /* \"openzeppelin-solidity/contracts/access/Ownable.sol\":1367:1368  _ */\n      pop\n        /* \"contracts/ERC1410/ERC1410Standard.sol\":18551:18848  function issue( address _tokenHolder, uint256 _value, bytes calldata _data) external override onlyOwner {\r... */\n      pop\n      pop\n      pop\n      pop\n      jump\t// out\n        /* \"contracts/ERC1410/ERC1410Standard.sol\":5212:6185  function transfer(address _to, uint256 _value, bytes calldata _data) external override returns (bytes32) {\r... */\n    tag_158:\n        /* \"contracts/ERC1410/ERC1410Standard.sol\":5308:5315  bytes32 */\n      0x00\n        /* \"contracts/ERC1410/ERC1410Standard.sol\":6048:6066  bytes32 _partition */\n      dup1\n        /* \"contracts/ERC1410/ERC1410Standard.sol\":442:508  0x7465737400000000000000000000000000000000000000000000000000000000 */\n      0x7465737400000000000000000000000000000000000000000000000000000000\n        /* \"contracts/ERC1410/ERC1410Standard.sol\":6067:6086  HELD_FREE_PARTITION */\n      0x00\n      shl\n        /* \"contracts/ERC1410/ERC1410Standard.sol\":6048:6086  bytes32 _partition=HELD_FREE_PARTITION */\n      swap1\n      pop\n        /* \"contracts/ERC1410/ERC1410Standard.sol\":6097:6177  _transferByPartition(msg.sender, _to, _value, _partition, _data, address(0), \"\") */\n      tag_300\n        /* \"contracts/ERC1410/ERC1410Standard.sol\":6118:6128  msg.sender */\n      caller\n        /* \"contracts/ERC1410/ERC1410Standard.sol\":6130:6133  _to */\n      dup8\n        /* \"contracts/ERC1410/ERC1410Standard.sol\":6135:6141  _value */\n      dup8\n        /* \"contracts/ERC1410/ERC1410Standard.sol\":6143:6153  _partition */\n      dup5\n        /* \"contracts/ERC1410/ERC1410Standard.sol\":6155:6160  _data */\n      dup9\n      dup9\n        /* \"contracts/ERC1410/ERC1410Standard.sol\":6097:6177  _transferByPartition(msg.sender, _to, _value, _partition, _data, address(0), \"\") */\n      dup1\n      dup1\n      0x1f\n      add\n      0x20\n      dup1\n      swap2\n      div\n      mul\n      0x20\n      add\n      mload(0x40)\n      swap1\n      dup2\n      add\n      0x40\n      mstore\n      dup1\n      swap4\n      swap3\n      swap2\n      swap1\n      dup2\n      dup2\n      mstore\n      0x20\n      add\n      dup4\n      dup4\n      dup1\n      dup3\n      dup5\n      calldatacopy\n      0x00\n      dup2\n      dup5\n      add\n      mstore\n      not(0x1f)\n      0x1f\n      dup3\n      add\n      and\n      swap1\n      pop\n      dup1\n      dup4\n      add\n      swap3\n      pop\n      pop\n      pop\n      pop\n      pop\n      pop\n      pop\n        /* \"contracts/ERC1410/ERC1410Standard.sol\":6170:6171  0 */\n      0x00\n        /* \"contracts/ERC1410/ERC1410Standard.sol\":6097:6177  _transferByPartition(msg.sender, _to, _value, _partition, _data, address(0), \"\") */\n      mload(0x40)\n      dup1\n      0x20\n      add\n      0x40\n      mstore\n      dup1\n      0x00\n      dup2\n      mstore\n      pop\n        /* \"contracts/ERC1410/ERC1410Standard.sol\":6097:6117  _transferByPartition */\n      tag_215\n        /* \"contracts/ERC1410/ERC1410Standard.sol\":6097:6177  _transferByPartition(msg.sender, _to, _value, _partition, _data, address(0), \"\") */\n      jump\t// in\n    tag_300:\n        /* \"contracts/ERC1410/ERC1410Standard.sol\":5212:6185  function transfer(address _to, uint256 _value, bytes calldata _data) external override returns (bytes32) {\r... */\n      pop\n      swap5\n      swap4\n      pop\n      pop\n      pop\n      pop\n      jump\t// out\n        /* \"contracts/ERC1410/ERC1410Standard.sol\":632:746  bytes32 public constant UNCONFIRMED_PARTITION = 0x7465737800000000000000000000000000000000000000000000000000000000 */\n    tag_160:\n        /* \"contracts/ERC1410/ERC1410Standard.sol\":680:746  0x7465737800000000000000000000000000000000000000000000000000000000 */\n      0x7465737800000000000000000000000000000000000000000000000000000000\n        /* \"contracts/ERC1410/ERC1410Standard.sol\":632:746  bytes32 public constant UNCONFIRMED_PARTITION = 0x7465737800000000000000000000000000000000000000000000000000000000 */\n      0x00\n      shl\n      dup2\n      jump\t// out\n        /* \"contracts/ERC1410/ERC1410Standard.sol\":22329:22861  function operatorRedeem( address _tokenHolder, uint256 _value, bytes calldata _data, bytes calldata _operatorData) external override {\r... */\n    tag_169:\n        /* \"contracts/ERC1410/ERC1410Standard.sol\":22473:22491  bytes32 _partition */\n      0x00\n        /* \"contracts/ERC1410/ERC1410Standard.sol\":442:508  0x7465737400000000000000000000000000000000000000000000000000000000 */\n      0x7465737400000000000000000000000000000000000000000000000000000000\n        /* \"contracts/ERC1410/ERC1410Standard.sol\":22492:22511  HELD_FREE_PARTITION */\n      0x00\n      shl\n        /* \"contracts/ERC1410/ERC1410Standard.sol\":22473:22511  bytes32 _partition=HELD_FREE_PARTITION */\n      swap1\n      pop\n        /* \"contracts/ERC1410/ERC1410Standard.sol\":22554:22555  0 */\n      0x00\n        /* \"contracts/ERC1410/ERC1410Standard.sol\":22530:22556  _tokenHolder != address(0) */\n      0xffffffffffffffffffffffffffffffffffffffff\n      and\n        /* \"contracts/ERC1410/ERC1410Standard.sol\":22530:22542  _tokenHolder */\n      dup8\n        /* \"contracts/ERC1410/ERC1410Standard.sol\":22530:22556  _tokenHolder != address(0) */\n      0xffffffffffffffffffffffffffffffffffffffff\n      and\n      eq\n      iszero\n        /* \"contracts/ERC1410/ERC1410Standard.sol\":22522:22581  require(_tokenHolder != address(0), \"Invalid from address\") */\n      tag_302\n      jumpi\n      mload(0x40)\n      0x08c379a000000000000000000000000000000000000000000000000000000000\n      dup2\n      mstore\n      0x04\n      add\n      dup1\n      dup1\n      0x20\n      add\n      dup3\n      dup2\n      sub\n      dup3\n      mstore\n      0x14\n      dup2\n      mstore\n      0x20\n      add\n      dup1\n      0x496e76616c69642066726f6d2061646472657373000000000000000000000000\n      dup2\n      mstore\n      pop\n      0x20\n      add\n      swap2\n      pop\n      pop\n      mload(0x40)\n      dup1\n      swap2\n      sub\n      swap1\n      revert\n    tag_302:\n        /* \"contracts/ERC1410/ERC1410Standard.sol\":22614:22650  isOperator(msg.sender, _tokenHolder) */\n      tag_303\n        /* \"contracts/ERC1410/ERC1410Standard.sol\":22625:22635  msg.sender */\n      caller\n        /* \"contracts/ERC1410/ERC1410Standard.sol\":22637:22649  _tokenHolder */\n      dup9\n        /* \"contracts/ERC1410/ERC1410Standard.sol\":22614:22624  isOperator */\n      tag_146\n        /* \"contracts/ERC1410/ERC1410Standard.sol\":22614:22650  isOperator(msg.sender, _tokenHolder) */\n      jump\t// in\n    tag_303:\n        /* \"contracts/ERC1410/ERC1410Standard.sol\":22614:22714  isOperator(msg.sender, _tokenHolder) || isOperatorForPartition(_partition, msg.sender, _tokenHolder) */\n      dup1\n      tag_304\n      jumpi\n      pop\n        /* \"contracts/ERC1410/ERC1410Standard.sol\":22654:22714  isOperatorForPartition(_partition, msg.sender, _tokenHolder) */\n      tag_305\n        /* \"contracts/ERC1410/ERC1410Standard.sol\":22677:22687  _partition */\n      dup2\n        /* \"contracts/ERC1410/ERC1410Standard.sol\":22689:22699  msg.sender */\n      caller\n        /* \"contracts/ERC1410/ERC1410Standard.sol\":22701:22713  _tokenHolder */\n      dup10\n        /* \"contracts/ERC1410/ERC1410Standard.sol\":22654:22676  isOperatorForPartition */\n      tag_88\n        /* \"contracts/ERC1410/ERC1410Standard.sol\":22654:22714  isOperatorForPartition(_partition, msg.sender, _tokenHolder) */\n      jump\t// in\n    tag_305:\n        /* \"contracts/ERC1410/ERC1410Standard.sol\":22614:22714  isOperator(msg.sender, _tokenHolder) || isOperatorForPartition(_partition, msg.sender, _tokenHolder) */\n    tag_304:\n        /* \"contracts/ERC1410/ERC1410Standard.sol\":22592:22756  require(\r... */\n      tag_306\n      jumpi\n      mload(0x40)\n      0x08c379a000000000000000000000000000000000000000000000000000000000\n      dup2\n      mstore\n      0x04\n      add\n      dup1\n      dup1\n      0x20\n      add\n      dup3\n      dup2\n      sub\n      dup3\n      mstore\n      0x0e\n      dup2\n      mstore\n      0x20\n      add\n      dup1\n      0x4e6f7420617574686f7269736564000000000000000000000000000000000000\n      dup2\n      mstore\n      pop\n      0x20\n      add\n      swap2\n      pop\n      pop\n      mload(0x40)\n      dup1\n      swap2\n      sub\n      swap1\n      revert\n    tag_306:\n        /* \"contracts/ERC1410/ERC1410Standard.sol\":22767:22853  _redeemByPartition(_partition, _tokenHolder, msg.sender, _value, _data, _operatorData) */\n      tag_307\n        /* \"contracts/ERC1410/ERC1410Standard.sol\":22786:22796  _partition */\n      dup2\n        /* \"contracts/ERC1410/ERC1410Standard.sol\":22798:22810  _tokenHolder */\n      dup9\n        /* \"contracts/ERC1410/ERC1410Standard.sol\":22812:22822  msg.sender */\n      caller\n        /* \"contracts/ERC1410/ERC1410Standard.sol\":22824:22830  _value */\n      dup10\n        /* \"contracts/ERC1410/ERC1410Standard.sol\":22832:22837  _data */\n      dup10\n      dup10\n        /* \"contracts/ERC1410/ERC1410Standard.sol\":22767:22853  _redeemByPartition(_partition, _tokenHolder, msg.sender, _value, _data, _operatorData) */\n      dup1\n      dup1\n      0x1f\n      add\n      0x20\n      dup1\n      swap2\n      div\n      mul\n      0x20\n      add\n      mload(0x40)\n      swap1\n      dup2\n      add\n      0x40\n      mstore\n      dup1\n      swap4\n      swap3\n      swap2\n      swap1\n      dup2\n      dup2\n      mstore\n      0x20\n      add\n      dup4\n      dup4\n      dup1\n      dup3\n      dup5\n      calldatacopy\n      0x00\n      dup2\n      dup5\n      add\n      mstore\n      not(0x1f)\n      0x1f\n      dup3\n      add\n      and\n      swap1\n      pop\n      dup1\n      dup4\n      add\n      swap3\n      pop\n      pop\n      pop\n      pop\n      pop\n      pop\n      pop\n        /* \"contracts/ERC1410/ERC1410Standard.sol\":22839:22852  _operatorData */\n      dup9\n      dup9\n        /* \"contracts/ERC1410/ERC1410Standard.sol\":22767:22853  _redeemByPartition(_partition, _tokenHolder, msg.sender, _value, _data, _operatorData) */\n      dup1\n      dup1\n      0x1f\n      add\n      0x20\n      dup1\n      swap2\n      div\n      mul\n      0x20\n      add\n      mload(0x40)\n      swap1\n      dup2\n      add\n      0x40\n      mstore\n      dup1\n      swap4\n      swap3\n      swap2\n      swap1\n      dup2\n      dup2\n      mstore\n      0x20\n      add\n      dup4\n      dup4\n      dup1\n      dup3\n      dup5\n      calldatacopy\n      0x00\n      dup2\n      dup5\n      add\n      mstore\n      not(0x1f)\n      0x1f\n      dup3\n      add\n      and\n      swap1\n      pop\n      dup1\n      dup4\n      add\n      swap3\n      pop\n      pop\n      pop\n      pop\n      pop\n      pop\n      pop\n        /* \"contracts/ERC1410/ERC1410Standard.sol\":22767:22785  _redeemByPartition */\n      tag_199\n        /* \"contracts/ERC1410/ERC1410Standard.sol\":22767:22853  _redeemByPartition(_partition, _tokenHolder, msg.sender, _value, _data, _operatorData) */\n      jump\t// in\n    tag_307:\n        /* \"contracts/ERC1410/ERC1410Standard.sol\":22329:22861  function operatorRedeem( address _tokenHolder, uint256 _value, bytes calldata _data, bytes calldata _operatorData) external override {\r... */\n      pop\n      pop\n      pop\n      pop\n      pop\n      pop\n      pop\n      jump\t// out\n        /* \"contracts/ERC1410/ERC1410Standard.sol\":20992:21229  function redeem( uint256 _value, bytes calldata _data) external override {\r... */\n    tag_175:\n        /* \"contracts/ERC1410/ERC1410Standard.sol\":21139:21221  _redeemByPartition(HELD_FREE_PARTITION, msg.sender, address(0), _value, _data, \"\") */\n      tag_309\n        /* \"contracts/ERC1410/ERC1410Standard.sol\":442:508  0x7465737400000000000000000000000000000000000000000000000000000000 */\n      0x7465737400000000000000000000000000000000000000000000000000000000\n        /* \"contracts/ERC1410/ERC1410Standard.sol\":21158:21177  HELD_FREE_PARTITION */\n      0x00\n      shl\n        /* \"contracts/ERC1410/ERC1410Standard.sol\":21179:21189  msg.sender */\n      caller\n        /* \"contracts/ERC1410/ERC1410Standard.sol\":21199:21200  0 */\n      0x00\n        /* \"contracts/ERC1410/ERC1410Standard.sol\":21203:21209  _value */\n      dup7\n        /* \"contracts/ERC1410/ERC1410Standard.sol\":21211:21216  _data */\n      dup7\n      dup7\n        /* \"contracts/ERC1410/ERC1410Standard.sol\":21139:21221  _redeemByPartition(HELD_FREE_PARTITION, msg.sender, address(0), _value, _data, \"\") */\n      dup1\n      dup1\n      0x1f\n      add\n      0x20\n      dup1\n      swap2\n      div\n      mul\n      0x20\n      add\n      mload(0x40)\n      swap1\n      dup2\n      add\n      0x40\n      mstore\n      dup1\n      swap4\n      swap3\n      swap2\n      swap1\n      dup2\n      dup2\n      mstore\n      0x20\n      add\n      dup4\n      dup4\n      dup1\n      dup3\n      dup5\n      calldatacopy\n      0x00\n      dup2\n      dup5\n      add\n      mstore\n      not(0x1f)\n      0x1f\n      dup3\n      add\n      and\n      swap1\n      pop\n      dup1\n      dup4\n      add\n      swap3\n      pop\n      pop\n      pop\n      pop\n      pop\n      pop\n      pop\n      mload(0x40)\n      dup1\n      0x20\n      add\n      0x40\n      mstore\n      dup1\n      0x00\n      dup2\n      mstore\n      pop\n        /* \"contracts/ERC1410/ERC1410Standard.sol\":21139:21157  _redeemByPartition */\n      tag_199\n        /* \"contracts/ERC1410/ERC1410Standard.sol\":21139:21221  _redeemByPartition(HELD_FREE_PARTITION, msg.sender, address(0), _value, _data, \"\") */\n      jump\t// in\n    tag_309:\n        /* \"contracts/ERC1410/ERC1410Standard.sol\":20992:21229  function redeem( uint256 _value, bytes calldata _data) external override {\r... */\n      pop\n      pop\n      pop\n      jump\t// out\n        /* \"contracts/ERC1410/ERC1410Standard.sol\":11209:11528  function _validPartitionForReceiver(bytes32 _partition, address _to) public view returns(bool) {\r... */\n    tag_178:\n        /* \"contracts/ERC1410/ERC1410Standard.sol\":11298:11302  bool */\n      0x00\n        /* \"contracts/ERC1410/ERC1410Standard.sol\":11320:11329  uint256 i */\n      dup1\n        /* \"contracts/ERC1410/ERC1410Standard.sol\":11332:11333  0 */\n      0x00\n        /* \"contracts/ERC1410/ERC1410Standard.sol\":11320:11333  uint256 i = 0 */\n      swap1\n      pop\n        /* \"contracts/ERC1410/ERC1410Standard.sol\":11315:11488  for (uint256 i = 0; i < partitions[_to].length; i++) {\r... */\n    tag_311:\n        /* \"contracts/ERC1410/ERC1410Standard.sol\":11339:11349  partitions */\n      0x03\n        /* \"contracts/ERC1410/ERC1410Standard.sol\":11339:11354  partitions[_to] */\n      0x00\n        /* \"contracts/ERC1410/ERC1410Standard.sol\":11350:11353  _to */\n      dup5\n        /* \"contracts/ERC1410/ERC1410Standard.sol\":11339:11354  partitions[_to] */\n      0xffffffffffffffffffffffffffffffffffffffff\n      and\n      0xffffffffffffffffffffffffffffffffffffffff\n      and\n      dup2\n      mstore\n      0x20\n      add\n      swap1\n      dup2\n      mstore\n      0x20\n      add\n      0x00\n      keccak256\n        /* \"contracts/ERC1410/ERC1410Standard.sol\":11339:11361  partitions[_to].length */\n      dup1\n      sload\n      swap1\n      pop\n        /* \"contracts/ERC1410/ERC1410Standard.sol\":11335:11336  i */\n      dup2\n        /* \"contracts/ERC1410/ERC1410Standard.sol\":11335:11361  i < partitions[_to].length */\n      lt\n        /* \"contracts/ERC1410/ERC1410Standard.sol\":11315:11488  for (uint256 i = 0; i < partitions[_to].length; i++) {\r... */\n      iszero\n      tag_312\n      jumpi\n        /* \"contracts/ERC1410/ERC1410Standard.sol\":11419:11429  _partition */\n      dup4\n        /* \"contracts/ERC1410/ERC1410Standard.sol\":11387:11397  partitions */\n      0x03\n        /* \"contracts/ERC1410/ERC1410Standard.sol\":11387:11402  partitions[_to] */\n      0x00\n        /* \"contracts/ERC1410/ERC1410Standard.sol\":11398:11401  _to */\n      dup6\n        /* \"contracts/ERC1410/ERC1410Standard.sol\":11387:11402  partitions[_to] */\n      0xffffffffffffffffffffffffffffffffffffffff\n      and\n      0xffffffffffffffffffffffffffffffffffffffff\n      and\n      dup2\n      mstore\n      0x20\n      add\n      swap1\n      dup2\n      mstore\n      0x20\n      add\n      0x00\n      keccak256\n        /* \"contracts/ERC1410/ERC1410Standard.sol\":11403:11404  i */\n      dup3\n        /* \"contracts/ERC1410/ERC1410Standard.sol\":11387:11405  partitions[_to][i] */\n      dup2\n      sload\n      dup2\n      lt\n      tag_314\n      jumpi\n      invalid\n    tag_314:\n      swap1\n      0x00\n      mstore\n      keccak256(0x00, 0x20)\n      swap1\n      0x02\n      mul\n      add\n        /* \"contracts/ERC1410/ERC1410Standard.sol\":11387:11415  partitions[_to][i].partition */\n      0x01\n      add\n      sload\n        /* \"contracts/ERC1410/ERC1410Standard.sol\":11387:11429  partitions[_to][i].partition == _partition */\n      eq\n        /* \"contracts/ERC1410/ERC1410Standard.sol\":11383:11477  if (partitions[_to][i].partition == _partition) {\r... */\n      iszero\n      tag_316\n      jumpi\n        /* \"contracts/ERC1410/ERC1410Standard.sol\":11457:11461  true */\n      0x01\n        /* \"contracts/ERC1410/ERC1410Standard.sol\":11450:11461  return true */\n      swap2\n      pop\n      pop\n      jump(tag_310)\n        /* \"contracts/ERC1410/ERC1410Standard.sol\":11383:11477  if (partitions[_to][i].partition == _partition) {\r... */\n    tag_316:\n        /* \"contracts/ERC1410/ERC1410Standard.sol\":11363:11366  i++ */\n      dup1\n      dup1\n      0x01\n      add\n      swap2\n      pop\n      pop\n        /* \"contracts/ERC1410/ERC1410Standard.sol\":11315:11488  for (uint256 i = 0; i < partitions[_to].length; i++) {\r... */\n      jump(tag_311)\n    tag_312:\n      pop\n        /* \"contracts/ERC1410/ERC1410Standard.sol\":11515:11520  false */\n      0x00\n        /* \"contracts/ERC1410/ERC1410Standard.sol\":11508:11520  return false */\n      swap1\n      pop\n        /* \"contracts/ERC1410/ERC1410Standard.sol\":11209:11528  function _validPartitionForReceiver(bytes32 _partition, address _to) public view returns(bool) {\r... */\n    tag_310:\n      swap3\n      swap2\n      pop\n      pop\n      jump\t// out\n        /* \"openzeppelin-solidity/contracts/access/Ownable.sol\":2011:2251  function transferOwnership(address newOwner) public virtual onlyOwner {... */\n    tag_181:\n        /* \"openzeppelin-solidity/contracts/access/Ownable.sol\":1308:1320  _msgSender() */\n      tag_318\n        /* \"openzeppelin-solidity/contracts/access/Ownable.sol\":1308:1318  _msgSender */\n      tag_220\n        /* \"openzeppelin-solidity/contracts/access/Ownable.sol\":1308:1320  _msgSender() */\n      jump\t// in\n    tag_318:\n        /* \"openzeppelin-solidity/contracts/access/Ownable.sol\":1297:1320  owner() == _msgSender() */\n      0xffffffffffffffffffffffffffffffffffffffff\n      and\n        /* \"openzeppelin-solidity/contracts/access/Ownable.sol\":1297:1304  owner() */\n      tag_319\n        /* \"openzeppelin-solidity/contracts/access/Ownable.sol\":1297:1302  owner */\n      tag_110\n        /* \"openzeppelin-solidity/contracts/access/Ownable.sol\":1297:1304  owner() */\n      jump\t// in\n    tag_319:\n        /* \"openzeppelin-solidity/contracts/access/Ownable.sol\":1297:1320  owner() == _msgSender() */\n      0xffffffffffffffffffffffffffffffffffffffff\n      and\n      eq\n        /* \"openzeppelin-solidity/contracts/access/Ownable.sol\":1289:1357  require(owner() == _msgSender(), \"Ownable: caller is not the owner\") */\n      tag_320\n      jumpi\n      mload(0x40)\n      0x08c379a000000000000000000000000000000000000000000000000000000000\n      dup2\n      mstore\n      0x04\n      add\n      dup1\n      dup1\n      0x20\n      add\n      dup3\n      dup2\n      sub\n      dup3\n      mstore\n      0x20\n      dup2\n      mstore\n      0x20\n      add\n      dup1\n      0x4f776e61626c653a2063616c6c6572206973206e6f7420746865206f776e6572\n      dup2\n      mstore\n      pop\n      0x20\n      add\n      swap2\n      pop\n      pop\n      mload(0x40)\n      dup1\n      swap2\n      sub\n      swap1\n      revert\n    tag_320:\n        /* \"openzeppelin-solidity/contracts/access/Ownable.sol\":2119:2120  0 */\n      0x00\n        /* \"openzeppelin-solidity/contracts/access/Ownable.sol\":2099:2121  newOwner != address(0) */\n      0xffffffffffffffffffffffffffffffffffffffff\n      and\n        /* \"openzeppelin-solidity/contracts/access/Ownable.sol\":2099:2107  newOwner */\n      dup2\n        /* \"openzeppelin-solidity/contracts/access/Ownable.sol\":2099:2121  newOwner != address(0) */\n      0xffffffffffffffffffffffffffffffffffffffff\n      and\n      eq\n      iszero\n        /* \"openzeppelin-solidity/contracts/access/Ownable.sol\":2091:2164  require(newOwner != address(0), \"Ownable: new owner is the zero address\") */\n      tag_322\n      jumpi\n      mload(0x40)\n      0x08c379a000000000000000000000000000000000000000000000000000000000\n      dup2\n      mstore\n      0x04\n      add\n      dup1\n      dup1\n      0x20\n      add\n      dup3\n      dup2\n      sub\n      dup3\n      mstore\n      0x26\n      dup2\n      mstore\n      0x20\n      add\n      dup1\n      data_245f15ff17f551913a7a18385165551503906a406f905ac1c2437281a7cd0cfe\n      0x26\n      swap2\n      codecopy\n      0x40\n      add\n      swap2\n      pop\n      pop\n      mload(0x40)\n      dup1\n      swap2\n      sub\n      swap1\n      revert\n    tag_322:\n        /* \"openzeppelin-solidity/contracts/access/Ownable.sol\":2208:2216  newOwner */\n      dup1\n        /* \"openzeppelin-solidity/contracts/access/Ownable.sol\":2179:2217  OwnershipTransferred(_owner, newOwner) */\n      0xffffffffffffffffffffffffffffffffffffffff\n      and\n        /* \"openzeppelin-solidity/contracts/access/Ownable.sol\":2200:2206  _owner */\n      0x00\n      dup1\n      sload\n      swap1\n      0x0100\n      exp\n      swap1\n      div\n      0xffffffffffffffffffffffffffffffffffffffff\n      and\n        /* \"openzeppelin-solidity/contracts/access/Ownable.sol\":2179:2217  OwnershipTransferred(_owner, newOwner) */\n      0xffffffffffffffffffffffffffffffffffffffff\n      and\n      0x8be0079c531659141344cd1fd0a4f28419497f9722a3daafe3b4186f6b6457e0\n      mload(0x40)\n      mload(0x40)\n      dup1\n      swap2\n      sub\n      swap1\n      log3\n        /* \"openzeppelin-solidity/contracts/access/Ownable.sol\":2236:2244  newOwner */\n      dup1\n        /* \"openzeppelin-solidity/contracts/access/Ownable.sol\":2227:2233  _owner */\n      0x00\n      dup1\n        /* \"openzeppelin-solidity/contracts/access/Ownable.sol\":2227:2244  _owner = newOwner */\n      0x0100\n      exp\n      dup2\n      sload\n      dup2\n      0xffffffffffffffffffffffffffffffffffffffff\n      mul\n      not\n      and\n      swap1\n      dup4\n      0xffffffffffffffffffffffffffffffffffffffff\n      and\n      mul\n      or\n      swap1\n      sstore\n      pop\n        /* \"openzeppelin-solidity/contracts/access/Ownable.sol\":2011:2251  function transferOwnership(address newOwner) public virtual onlyOwner {... */\n      pop\n      jump\t// out\n        /* \"contracts/ERC1410/ERC1410Standard.sol\":3827:4782  function transferByPartition(bytes32 _partition, address _to, uint256 _value, bytes calldata _data) external override returns (bytes32) {\r... */\n    tag_187:\n        /* \"contracts/ERC1410/ERC1410Standard.sol\":3954:3961  bytes32 */\n      0x00\n        /* \"contracts/ERC1410/ERC1410Standard.sol\":4694:4774  _transferByPartition(msg.sender, _to, _value, _partition, _data, address(0), \"\") */\n      tag_324\n        /* \"contracts/ERC1410/ERC1410Standard.sol\":4715:4725  msg.sender */\n      caller\n        /* \"contracts/ERC1410/ERC1410Standard.sol\":4727:4730  _to */\n      dup7\n        /* \"contracts/ERC1410/ERC1410Standard.sol\":4732:4738  _value */\n      dup7\n        /* \"contracts/ERC1410/ERC1410Standard.sol\":4740:4750  _partition */\n      dup10\n        /* \"contracts/ERC1410/ERC1410Standard.sol\":4752:4757  _data */\n      dup8\n      dup8\n        /* \"contracts/ERC1410/ERC1410Standard.sol\":4694:4774  _transferByPartition(msg.sender, _to, _value, _partition, _data, address(0), \"\") */\n      dup1\n      dup1\n      0x1f\n      add\n      0x20\n      dup1\n      swap2\n      div\n      mul\n      0x20\n      add\n      mload(0x40)\n      swap1\n      dup2\n      add\n      0x40\n      mstore\n      dup1\n      swap4\n      swap3\n      swap2\n      swap1\n      dup2\n      dup2\n      mstore\n      0x20\n      add\n      dup4\n      dup4\n      dup1\n      dup3\n      dup5\n      calldatacopy\n      0x00\n      dup2\n      dup5\n      add\n      mstore\n      not(0x1f)\n      0x1f\n      dup3\n      add\n      and\n      swap1\n      pop\n      dup1\n      dup4\n      add\n      swap3\n      pop\n      pop\n      pop\n      pop\n      pop\n      pop\n      pop\n        /* \"contracts/ERC1410/ERC1410Standard.sol\":4767:4768  0 */\n      0x00\n        /* \"contracts/ERC1410/ERC1410Standard.sol\":4694:4774  _transferByPartition(msg.sender, _to, _value, _partition, _data, address(0), \"\") */\n      mload(0x40)\n      dup1\n      0x20\n      add\n      0x40\n      mstore\n      dup1\n      0x00\n      dup2\n      mstore\n      pop\n        /* \"contracts/ERC1410/ERC1410Standard.sol\":4694:4714  _transferByPartition */\n      tag_215\n        /* \"contracts/ERC1410/ERC1410Standard.sol\":4694:4774  _transferByPartition(msg.sender, _to, _value, _partition, _data, address(0), \"\") */\n      jump\t// in\n    tag_324:\n        /* \"contracts/ERC1410/ERC1410Standard.sol\":3827:4782  function transferByPartition(bytes32 _partition, address _to, uint256 _value, bytes calldata _data) external override returns (bytes32) {\r... */\n      swap6\n      swap5\n      pop\n      pop\n      pop\n      pop\n      pop\n      jump\t// out\n        /* \"contracts/ERC1410/ERC1410Standard.sol\":13912:14086  function revokeOperator(address _operator) external override {\r... */\n    tag_190:\n        /* \"contracts/ERC1410/ERC1410Standard.sol\":14019:14024  false */\n      0x00\n        /* \"contracts/ERC1410/ERC1410Standard.sol\":13984:13993  approvals */\n      0x06\n        /* \"contracts/ERC1410/ERC1410Standard.sol\":13984:14005  approvals[msg.sender] */\n      0x00\n        /* \"contracts/ERC1410/ERC1410Standard.sol\":13994:14004  msg.sender */\n      caller\n        /* \"contracts/ERC1410/ERC1410Standard.sol\":13984:14005  approvals[msg.sender] */\n      0xffffffffffffffffffffffffffffffffffffffff\n      and\n      0xffffffffffffffffffffffffffffffffffffffff\n      and\n      dup2\n      mstore\n      0x20\n      add\n      swap1\n      dup2\n      mstore\n      0x20\n      add\n      0x00\n      keccak256\n        /* \"contracts/ERC1410/ERC1410Standard.sol\":13984:14016  approvals[msg.sender][_operator] */\n      0x00\n        /* \"contracts/ERC1410/ERC1410Standard.sol\":14006:14015  _operator */\n      dup4\n        /* \"contracts/ERC1410/ERC1410Standard.sol\":13984:14016  approvals[msg.sender][_operator] */\n      0xffffffffffffffffffffffffffffffffffffffff\n      and\n      0xffffffffffffffffffffffffffffffffffffffff\n      and\n      dup2\n      mstore\n      0x20\n      add\n      swap1\n      dup2\n      mstore\n      0x20\n      add\n      0x00\n      keccak256\n      0x00\n        /* \"contracts/ERC1410/ERC1410Standard.sol\":13984:14024  approvals[msg.sender][_operator] = false */\n      0x0100\n      exp\n      dup2\n      sload\n      dup2\n      0xff\n      mul\n      not\n      and\n      swap1\n      dup4\n      iszero\n      iszero\n      mul\n      or\n      swap1\n      sstore\n      pop\n        /* \"contracts/ERC1410/ERC1410Standard.sol\":14067:14077  msg.sender */\n      caller\n        /* \"contracts/ERC1410/ERC1410Standard.sol\":14040:14078  RevokedOperator(_operator, msg.sender) */\n      0xffffffffffffffffffffffffffffffffffffffff\n      and\n        /* \"contracts/ERC1410/ERC1410Standard.sol\":14056:14065  _operator */\n      dup2\n        /* \"contracts/ERC1410/ERC1410Standard.sol\":14040:14078  RevokedOperator(_operator, msg.sender) */\n      0xffffffffffffffffffffffffffffffffffffffff\n      and\n      0x50546e66e5f44d728365dc3908c63bc5cfeeab470722c1677e3073a6ac294aa1\n      mload(0x40)\n      mload(0x40)\n      dup1\n      swap2\n      sub\n      swap1\n      log3\n        /* \"contracts/ERC1410/ERC1410Standard.sol\":13912:14086  function revokeOperator(address _operator) external override {\r... */\n      pop\n      jump\t// out\n        /* \"contracts/ERC1410/ERC1410Standard.sol\":24101:25043  function _redeemByPartition(bytes32 _partition, address _from, address _operator, uint256 _value, bytes memory _data, bytes memory _operatorData) internal {\r... */\n    tag_199:\n        /* \"contracts/ERC1410/ERC1410Standard.sol\":24330:24365  _validateParams(_partition, _value) */\n      tag_327\n        /* \"contracts/ERC1410/ERC1410Standard.sol\":24346:24356  _partition */\n      dup7\n        /* \"contracts/ERC1410/ERC1410Standard.sol\":24358:24364  _value */\n      dup5\n        /* \"contracts/ERC1410/ERC1410Standard.sol\":24330:24345  _validateParams */\n      tag_328\n        /* \"contracts/ERC1410/ERC1410Standard.sol\":24330:24365  _validateParams(_partition, _value) */\n      jump\t// in\n    tag_327:\n        /* \"contracts/ERC1410/ERC1410Standard.sol\":24384:24418  _validPartition(_partition, _from) */\n      tag_329\n        /* \"contracts/ERC1410/ERC1410Standard.sol\":24400:24410  _partition */\n      dup7\n        /* \"contracts/ERC1410/ERC1410Standard.sol\":24412:24417  _from */\n      dup7\n        /* \"contracts/ERC1410/ERC1410Standard.sol\":24384:24399  _validPartition */\n      tag_204\n        /* \"contracts/ERC1410/ERC1410Standard.sol\":24384:24418  _validPartition(_partition, _from) */\n      jump\t// in\n    tag_329:\n        /* \"contracts/ERC1410/ERC1410Standard.sol\":24376:24440  require(_validPartition(_partition, _from), \"Invalid partition\") */\n      tag_330\n      jumpi\n      mload(0x40)\n      0x08c379a000000000000000000000000000000000000000000000000000000000\n      dup2\n      mstore\n      0x04\n      add\n      dup1\n      dup1\n      0x20\n      add\n      dup3\n      dup2\n      sub\n      dup3\n      mstore\n      0x11\n      dup2\n      mstore\n      0x20\n      add\n      dup1\n      0x496e76616c696420706172746974696f6e000000000000000000000000000000\n      dup2\n      mstore\n      pop\n      0x20\n      add\n      swap2\n      pop\n      pop\n      mload(0x40)\n      dup1\n      swap2\n      sub\n      swap1\n      revert\n    tag_330:\n        /* \"contracts/ERC1410/ERC1410Standard.sol\":24451:24464  uint256 index */\n      0x00\n        /* \"contracts/ERC1410/ERC1410Standard.sol\":24505:24506  1 */\n      0x01\n        /* \"contracts/ERC1410/ERC1410Standard.sol\":24467:24483  partitionToIndex */\n      0x04\n        /* \"contracts/ERC1410/ERC1410Standard.sol\":24467:24490  partitionToIndex[_from] */\n      0x00\n        /* \"contracts/ERC1410/ERC1410Standard.sol\":24484:24489  _from */\n      dup9\n        /* \"contracts/ERC1410/ERC1410Standard.sol\":24467:24490  partitionToIndex[_from] */\n      0xffffffffffffffffffffffffffffffffffffffff\n      and\n      0xffffffffffffffffffffffffffffffffffffffff\n      and\n      dup2\n      mstore\n      0x20\n      add\n      swap1\n      dup2\n      mstore\n      0x20\n      add\n      0x00\n      keccak256\n        /* \"contracts/ERC1410/ERC1410Standard.sol\":24467:24502  partitionToIndex[_from][_partition] */\n      0x00\n        /* \"contracts/ERC1410/ERC1410Standard.sol\":24491:24501  _partition */\n      dup10\n        /* \"contracts/ERC1410/ERC1410Standard.sol\":24467:24502  partitionToIndex[_from][_partition] */\n      dup2\n      mstore\n      0x20\n      add\n      swap1\n      dup2\n      mstore\n      0x20\n      add\n      0x00\n      keccak256\n      sload\n        /* \"contracts/ERC1410/ERC1410Standard.sol\":24467:24506  partitionToIndex[_from][_partition] - 1 */\n      sub\n        /* \"contracts/ERC1410/ERC1410Standard.sol\":24451:24506  uint256 index = partitionToIndex[_from][_partition] - 1 */\n      swap1\n      pop\n        /* \"contracts/ERC1410/ERC1410Standard.sol\":24560:24566  _value */\n      dup4\n        /* \"contracts/ERC1410/ERC1410Standard.sol\":24525:24535  partitions */\n      0x03\n        /* \"contracts/ERC1410/ERC1410Standard.sol\":24525:24542  partitions[_from] */\n      0x00\n        /* \"contracts/ERC1410/ERC1410Standard.sol\":24536:24541  _from */\n      dup9\n        /* \"contracts/ERC1410/ERC1410Standard.sol\":24525:24542  partitions[_from] */\n      0xffffffffffffffffffffffffffffffffffffffff\n      and\n      0xffffffffffffffffffffffffffffffffffffffff\n      and\n      dup2\n      mstore\n      0x20\n      add\n      swap1\n      dup2\n      mstore\n      0x20\n      add\n      0x00\n      keccak256\n        /* \"contracts/ERC1410/ERC1410Standard.sol\":24543:24548  index */\n      dup3\n        /* \"contracts/ERC1410/ERC1410Standard.sol\":24525:24549  partitions[_from][index] */\n      dup2\n      sload\n      dup2\n      lt\n      tag_331\n      jumpi\n      invalid\n    tag_331:\n      swap1\n      0x00\n      mstore\n      keccak256(0x00, 0x20)\n      swap1\n      0x02\n      mul\n      add\n        /* \"contracts/ERC1410/ERC1410Standard.sol\":24525:24556  partitions[_from][index].amount */\n      0x00\n      add\n      sload\n        /* \"contracts/ERC1410/ERC1410Standard.sol\":24525:24566  partitions[_from][index].amount >= _value */\n      lt\n      iszero\n        /* \"contracts/ERC1410/ERC1410Standard.sol\":24517:24589  require(partitions[_from][index].amount >= _value, \"Insufficient value\") */\n      tag_333\n      jumpi\n      mload(0x40)\n      0x08c379a000000000000000000000000000000000000000000000000000000000\n      dup2\n      mstore\n      0x04\n      add\n      dup1\n      dup1\n      0x20\n      add\n      dup3\n      dup2\n      sub\n      dup3\n      mstore\n      0x12\n      dup2\n      mstore\n      0x20\n      add\n      dup1\n      0x496e73756666696369656e742076616c75650000000000000000000000000000\n      dup2\n      mstore\n      pop\n      0x20\n      add\n      swap2\n      pop\n      pop\n      mload(0x40)\n      dup1\n      swap2\n      sub\n      swap1\n      revert\n    tag_333:\n        /* \"contracts/ERC1410/ERC1410Standard.sol\":24639:24645  _value */\n      dup4\n        /* \"contracts/ERC1410/ERC1410Standard.sol\":24604:24614  partitions */\n      0x03\n        /* \"contracts/ERC1410/ERC1410Standard.sol\":24604:24621  partitions[_from] */\n      0x00\n        /* \"contracts/ERC1410/ERC1410Standard.sol\":24615:24620  _from */\n      dup9\n        /* \"contracts/ERC1410/ERC1410Standard.sol\":24604:24621  partitions[_from] */\n      0xffffffffffffffffffffffffffffffffffffffff\n      and\n      0xffffffffffffffffffffffffffffffffffffffff\n      and\n      dup2\n      mstore\n      0x20\n      add\n      swap1\n      dup2\n      mstore\n      0x20\n      add\n      0x00\n      keccak256\n        /* \"contracts/ERC1410/ERC1410Standard.sol\":24622:24627  index */\n      dup3\n        /* \"contracts/ERC1410/ERC1410Standard.sol\":24604:24628  partitions[_from][index] */\n      dup2\n      sload\n      dup2\n      lt\n      tag_334\n      jumpi\n      invalid\n    tag_334:\n      swap1\n      0x00\n      mstore\n      keccak256(0x00, 0x20)\n      swap1\n      0x02\n      mul\n      add\n        /* \"contracts/ERC1410/ERC1410Standard.sol\":24604:24635  partitions[_from][index].amount */\n      0x00\n      add\n      sload\n        /* \"contracts/ERC1410/ERC1410Standard.sol\":24604:24645  partitions[_from][index].amount == _value */\n      eq\n        /* \"contracts/ERC1410/ERC1410Standard.sol\":24600:24835  if (partitions[_from][index].amount == _value) {\r... */\n      iszero\n      tag_336\n      jumpi\n        /* \"contracts/ERC1410/ERC1410Standard.sol\":24662:24713  _deletePartitionForHolder(_from, _partition, index) */\n      tag_337\n        /* \"contracts/ERC1410/ERC1410Standard.sol\":24688:24693  _from */\n      dup7\n        /* \"contracts/ERC1410/ERC1410Standard.sol\":24695:24705  _partition */\n      dup9\n        /* \"contracts/ERC1410/ERC1410Standard.sol\":24707:24712  index */\n      dup4\n        /* \"contracts/ERC1410/ERC1410Standard.sol\":24662:24687  _deletePartitionForHolder */\n      tag_338\n        /* \"contracts/ERC1410/ERC1410Standard.sol\":24662:24713  _deletePartitionForHolder(_from, _partition, index) */\n      jump\t// in\n    tag_337:\n        /* \"contracts/ERC1410/ERC1410Standard.sol\":24600:24835  if (partitions[_from][index].amount == _value) {\r... */\n      jump(tag_339)\n    tag_336:\n        /* \"contracts/ERC1410/ERC1410Standard.sol\":24780:24823  partitions[_from][index].amount.sub(_value) */\n      tag_340\n        /* \"contracts/ERC1410/ERC1410Standard.sol\":24816:24822  _value */\n      dup5\n        /* \"contracts/ERC1410/ERC1410Standard.sol\":24780:24790  partitions */\n      0x03\n        /* \"contracts/ERC1410/ERC1410Standard.sol\":24780:24797  partitions[_from] */\n      0x00\n        /* \"contracts/ERC1410/ERC1410Standard.sol\":24791:24796  _from */\n      dup10\n        /* \"contracts/ERC1410/ERC1410Standard.sol\":24780:24797  partitions[_from] */\n      0xffffffffffffffffffffffffffffffffffffffff\n      and\n      0xffffffffffffffffffffffffffffffffffffffff\n      and\n      dup2\n      mstore\n      0x20\n      add\n      swap1\n      dup2\n      mstore\n      0x20\n      add\n      0x00\n      keccak256\n        /* \"contracts/ERC1410/ERC1410Standard.sol\":24798:24803  index */\n      dup4\n        /* \"contracts/ERC1410/ERC1410Standard.sol\":24780:24804  partitions[_from][index] */\n      dup2\n      sload\n      dup2\n      lt\n      tag_341\n      jumpi\n      invalid\n    tag_341:\n      swap1\n      0x00\n      mstore\n      keccak256(0x00, 0x20)\n      swap1\n      0x02\n      mul\n      add\n        /* \"contracts/ERC1410/ERC1410Standard.sol\":24780:24811  partitions[_from][index].amount */\n      0x00\n      add\n      sload\n        /* \"contracts/ERC1410/ERC1410Standard.sol\":24780:24815  partitions[_from][index].amount.sub */\n      tag_343\n      swap1\n        /* \"contracts/ERC1410/ERC1410Standard.sol\":24780:24823  partitions[_from][index].amount.sub(_value) */\n      swap2\n      swap1\n      0xffffffff\n      and\n      jump\t// in\n    tag_340:\n        /* \"contracts/ERC1410/ERC1410Standard.sol\":24746:24756  partitions */\n      0x03\n        /* \"contracts/ERC1410/ERC1410Standard.sol\":24746:24763  partitions[_from] */\n      0x00\n        /* \"contracts/ERC1410/ERC1410Standard.sol\":24757:24762  _from */\n      dup9\n        /* \"contracts/ERC1410/ERC1410Standard.sol\":24746:24763  partitions[_from] */\n      0xffffffffffffffffffffffffffffffffffffffff\n      and\n      0xffffffffffffffffffffffffffffffffffffffff\n      and\n      dup2\n      mstore\n      0x20\n      add\n      swap1\n      dup2\n      mstore\n      0x20\n      add\n      0x00\n      keccak256\n        /* \"contracts/ERC1410/ERC1410Standard.sol\":24764:24769  index */\n      dup3\n        /* \"contracts/ERC1410/ERC1410Standard.sol\":24746:24770  partitions[_from][index] */\n      dup2\n      sload\n      dup2\n      lt\n      tag_344\n      jumpi\n      invalid\n    tag_344:\n      swap1\n      0x00\n      mstore\n      keccak256(0x00, 0x20)\n      swap1\n      0x02\n      mul\n      add\n        /* \"contracts/ERC1410/ERC1410Standard.sol\":24746:24777  partitions[_from][index].amount */\n      0x00\n      add\n        /* \"contracts/ERC1410/ERC1410Standard.sol\":24746:24823  partitions[_from][index].amount = partitions[_from][index].amount.sub(_value) */\n      dup2\n      swap1\n      sstore\n      pop\n        /* \"contracts/ERC1410/ERC1410Standard.sol\":24600:24835  if (partitions[_from][index].amount == _value) {\r... */\n    tag_339:\n        /* \"contracts/ERC1410/ERC1410Standard.sol\":24863:24890  balances[_from].sub(_value) */\n      tag_346\n        /* \"contracts/ERC1410/ERC1410Standard.sol\":24883:24889  _value */\n      dup5\n        /* \"contracts/ERC1410/ERC1410Standard.sol\":24863:24871  balances */\n      0x02\n        /* \"contracts/ERC1410/ERC1410Standard.sol\":24863:24878  balances[_from] */\n      0x00\n        /* \"contracts/ERC1410/ERC1410Standard.sol\":24872:24877  _from */\n      dup10\n        /* \"contracts/ERC1410/ERC1410Standard.sol\":24863:24878  balances[_from] */\n      0xffffffffffffffffffffffffffffffffffffffff\n      and\n      0xffffffffffffffffffffffffffffffffffffffff\n      and\n      dup2\n      mstore\n      0x20\n      add\n      swap1\n      dup2\n      mstore\n      0x20\n      add\n      0x00\n      keccak256\n      sload\n        /* \"contracts/ERC1410/ERC1410Standard.sol\":24863:24882  balances[_from].sub */\n      tag_343\n      swap1\n        /* \"contracts/ERC1410/ERC1410Standard.sol\":24863:24890  balances[_from].sub(_value) */\n      swap2\n      swap1\n      0xffffffff\n      and\n      jump\t// in\n    tag_346:\n        /* \"contracts/ERC1410/ERC1410Standard.sol\":24845:24853  balances */\n      0x02\n        /* \"contracts/ERC1410/ERC1410Standard.sol\":24845:24860  balances[_from] */\n      0x00\n        /* \"contracts/ERC1410/ERC1410Standard.sol\":24854:24859  _from */\n      dup9\n        /* \"contracts/ERC1410/ERC1410Standard.sol\":24845:24860  balances[_from] */\n      0xffffffffffffffffffffffffffffffffffffffff\n      and\n      0xffffffffffffffffffffffffffffffffffffffff\n      and\n      dup2\n      mstore\n      0x20\n      add\n      swap1\n      dup2\n      mstore\n      0x20\n      add\n      0x00\n      keccak256\n        /* \"contracts/ERC1410/ERC1410Standard.sol\":24845:24890  balances[_from] = balances[_from].sub(_value) */\n      dup2\n      swap1\n      sstore\n      pop\n        /* \"contracts/ERC1410/ERC1410Standard.sol\":24916:24940  _totalSupply.sub(_value) */\n      tag_347\n        /* \"contracts/ERC1410/ERC1410Standard.sol\":24933:24939  _value */\n      dup5\n        /* \"contracts/ERC1410/ERC1410Standard.sol\":24916:24928  _totalSupply */\n      sload(0x01)\n        /* \"contracts/ERC1410/ERC1410Standard.sol\":24916:24932  _totalSupply.sub */\n      tag_343\n      swap1\n        /* \"contracts/ERC1410/ERC1410Standard.sol\":24916:24940  _totalSupply.sub(_value) */\n      swap2\n      swap1\n      0xffffffff\n      and\n      jump\t// in\n    tag_347:\n        /* \"contracts/ERC1410/ERC1410Standard.sol\":24901:24913  _totalSupply */\n      0x01\n        /* \"contracts/ERC1410/ERC1410Standard.sol\":24901:24940  _totalSupply = _totalSupply.sub(_value) */\n      dup2\n      swap1\n      sstore\n      pop\n        /* \"contracts/ERC1410/ERC1410Standard.sol\":24999:25004  _from */\n      dup6\n        /* \"contracts/ERC1410/ERC1410Standard.sol\":24956:25035  RedeemedByPartition(_partition, _operator, _from, _value, _data, _operatorData) */\n      0xffffffffffffffffffffffffffffffffffffffff\n      and\n        /* \"contracts/ERC1410/ERC1410Standard.sol\":24988:24997  _operator */\n      dup6\n        /* \"contracts/ERC1410/ERC1410Standard.sol\":24956:25035  RedeemedByPartition(_partition, _operator, _from, _value, _data, _operatorData) */\n      0xffffffffffffffffffffffffffffffffffffffff\n      and\n        /* \"contracts/ERC1410/ERC1410Standard.sol\":24976:24986  _partition */\n      dup9\n        /* \"contracts/ERC1410/ERC1410Standard.sol\":24956:25035  RedeemedByPartition(_partition, _operator, _from, _value, _data, _operatorData) */\n      0xa4f62471c9bdf88115b97203943c74c59b655913ee5ee592706d84ef53fb6be2\n        /* \"contracts/ERC1410/ERC1410Standard.sol\":25006:25012  _value */\n      dup8\n        /* \"contracts/ERC1410/ERC1410Standard.sol\":25014:25019  _data */\n      dup8\n        /* \"contracts/ERC1410/ERC1410Standard.sol\":25021:25034  _operatorData */\n      dup8\n        /* \"contracts/ERC1410/ERC1410Standard.sol\":24956:25035  RedeemedByPartition(_partition, _operator, _from, _value, _data, _operatorData) */\n      mload(0x40)\n      dup1\n      dup5\n      dup2\n      mstore\n      0x20\n      add\n      dup1\n      0x20\n      add\n      dup1\n      0x20\n      add\n      dup4\n      dup2\n      sub\n      dup4\n      mstore\n      dup6\n      dup2\n      dup2\n      mload\n      dup2\n      mstore\n      0x20\n      add\n      swap2\n      pop\n      dup1\n      mload\n      swap1\n      0x20\n      add\n      swap1\n      dup1\n      dup4\n      dup4\n      0x00\n    tag_348:\n      dup4\n      dup2\n      lt\n      iszero\n      tag_350\n      jumpi\n      dup1\n      dup3\n      add\n      mload\n      dup2\n      dup5\n      add\n      mstore\n      0x20\n      dup2\n      add\n      swap1\n      pop\n      jump(tag_348)\n    tag_350:\n      pop\n      pop\n      pop\n      pop\n      swap1\n      pop\n      swap1\n      dup2\n      add\n      swap1\n      0x1f\n      and\n      dup1\n      iszero\n      tag_351\n      jumpi\n      dup1\n      dup3\n      sub\n      dup1\n      mload\n      0x01\n      dup4\n      0x20\n      sub\n      0x0100\n      exp\n      sub\n      not\n      and\n      dup2\n      mstore\n      0x20\n      add\n      swap2\n      pop\n    tag_351:\n      pop\n      dup4\n      dup2\n      sub\n      dup3\n      mstore\n      dup5\n      dup2\n      dup2\n      mload\n      dup2\n      mstore\n      0x20\n      add\n      swap2\n      pop\n      dup1\n      mload\n      swap1\n      0x20\n      add\n      swap1\n      dup1\n      dup4\n      dup4\n      0x00\n    tag_352:\n      dup4\n      dup2\n      lt\n      iszero\n      tag_354\n      jumpi\n      dup1\n      dup3\n      add\n      mload\n      dup2\n      dup5\n      add\n      mstore\n      0x20\n      dup2\n      add\n      swap1\n      pop\n      jump(tag_352)\n    tag_354:\n      pop\n      pop\n      pop\n      pop\n      swap1\n      pop\n      swap1\n      dup2\n      add\n      swap1\n      0x1f\n      and\n      dup1\n      iszero\n      tag_355\n      jumpi\n      dup1\n      dup3\n      sub\n      dup1\n      mload\n      0x01\n      dup4\n      0x20\n      sub\n      0x0100\n      exp\n      sub\n      not\n      and\n      dup2\n      mstore\n      0x20\n      add\n      swap2\n      pop\n    tag_355:\n      pop\n      swap6\n      pop\n      pop\n      pop\n      pop\n      pop\n      pop\n      mload(0x40)\n      dup1\n      swap2\n      sub\n      swap1\n      log4\n        /* \"contracts/ERC1410/ERC1410Standard.sol\":24101:25043  function _redeemByPartition(bytes32 _partition, address _from, address _operator, uint256 _value, bytes memory _data, bytes memory _operatorData) internal {\r... */\n      pop\n      pop\n      pop\n      pop\n      pop\n      pop\n      pop\n      jump\t// out\n        /* \"contracts/ERC1410/ERC1410Standard.sol\":10905:11197  function _validPartition(bytes32 _partition, address _holder) internal view returns(bool) {\r... */\n    tag_204:\n        /* \"contracts/ERC1410/ERC1410Standard.sol\":10989:10993  bool */\n      0x00\n        /* \"contracts/ERC1410/ERC1410Standard.sol\":11039:11055  partitionToIndex */\n      0x04\n        /* \"contracts/ERC1410/ERC1410Standard.sol\":11039:11064  partitionToIndex[_holder] */\n      0x00\n        /* \"contracts/ERC1410/ERC1410Standard.sol\":11056:11063  _holder */\n      dup4\n        /* \"contracts/ERC1410/ERC1410Standard.sol\":11039:11064  partitionToIndex[_holder] */\n      0xffffffffffffffffffffffffffffffffffffffff\n      and\n      0xffffffffffffffffffffffffffffffffffffffff\n      and\n      dup2\n      mstore\n      0x20\n      add\n      swap1\n      dup2\n      mstore\n      0x20\n      add\n      0x00\n      keccak256\n        /* \"contracts/ERC1410/ERC1410Standard.sol\":11039:11076  partitionToIndex[_holder][_partition] */\n      0x00\n        /* \"contracts/ERC1410/ERC1410Standard.sol\":11065:11075  _partition */\n      dup5\n        /* \"contracts/ERC1410/ERC1410Standard.sol\":11039:11076  partitionToIndex[_holder][_partition] */\n      dup2\n      mstore\n      0x20\n      add\n      swap1\n      dup2\n      mstore\n      0x20\n      add\n      0x00\n      keccak256\n      sload\n        /* \"contracts/ERC1410/ERC1410Standard.sol\":11010:11020  partitions */\n      0x03\n        /* \"contracts/ERC1410/ERC1410Standard.sol\":11010:11029  partitions[_holder] */\n      0x00\n        /* \"contracts/ERC1410/ERC1410Standard.sol\":11021:11028  _holder */\n      dup5\n        /* \"contracts/ERC1410/ERC1410Standard.sol\":11010:11029  partitions[_holder] */\n      0xffffffffffffffffffffffffffffffffffffffff\n      and\n      0xffffffffffffffffffffffffffffffffffffffff\n      and\n      dup2\n      mstore\n      0x20\n      add\n      swap1\n      dup2\n      mstore\n      0x20\n      add\n      0x00\n      keccak256\n        /* \"contracts/ERC1410/ERC1410Standard.sol\":11010:11036  partitions[_holder].length */\n      dup1\n      sload\n      swap1\n      pop\n        /* \"contracts/ERC1410/ERC1410Standard.sol\":11010:11076  partitions[_holder].length < partitionToIndex[_holder][_partition] */\n      lt\n        /* \"contracts/ERC1410/ERC1410Standard.sol\":11010:11122  partitions[_holder].length < partitionToIndex[_holder][_partition] || partitionToIndex[_holder][_partition] == 0 */\n      dup1\n      tag_357\n      jumpi\n      pop\n        /* \"contracts/ERC1410/ERC1410Standard.sol\":11121:11122  0 */\n      0x00\n        /* \"contracts/ERC1410/ERC1410Standard.sol\":11080:11096  partitionToIndex */\n      0x04\n        /* \"contracts/ERC1410/ERC1410Standard.sol\":11080:11105  partitionToIndex[_holder] */\n      0x00\n        /* \"contracts/ERC1410/ERC1410Standard.sol\":11097:11104  _holder */\n      dup5\n        /* \"contracts/ERC1410/ERC1410Standard.sol\":11080:11105  partitionToIndex[_holder] */\n      0xffffffffffffffffffffffffffffffffffffffff\n      and\n      0xffffffffffffffffffffffffffffffffffffffff\n      and\n      dup2\n      mstore\n      0x20\n      add\n      swap1\n      dup2\n      mstore\n      0x20\n      add\n      0x00\n      keccak256\n        /* \"contracts/ERC1410/ERC1410Standard.sol\":11080:11117  partitionToIndex[_holder][_partition] */\n      0x00\n        /* \"contracts/ERC1410/ERC1410Standard.sol\":11106:11116  _partition */\n      dup6\n        /* \"contracts/ERC1410/ERC1410Standard.sol\":11080:11117  partitionToIndex[_holder][_partition] */\n      dup2\n      mstore\n      0x20\n      add\n      swap1\n      dup2\n      mstore\n      0x20\n      add\n      0x00\n      keccak256\n      sload\n        /* \"contracts/ERC1410/ERC1410Standard.sol\":11080:11122  partitionToIndex[_holder][_partition] == 0 */\n      eq\n        /* \"contracts/ERC1410/ERC1410Standard.sol\":11010:11122  partitions[_holder].length < partitionToIndex[_holder][_partition] || partitionToIndex[_holder][_partition] == 0 */\n    tag_357:\n        /* \"contracts/ERC1410/ERC1410Standard.sol\":11006:11189  if (partitions[_holder].length < partitionToIndex[_holder][_partition] || partitionToIndex[_holder][_partition] == 0)\r... */\n      iszero\n      tag_358\n      jumpi\n        /* \"contracts/ERC1410/ERC1410Standard.sol\":11144:11149  false */\n      0x00\n        /* \"contracts/ERC1410/ERC1410Standard.sol\":11137:11149  return false */\n      swap1\n      pop\n      jump(tag_356)\n        /* \"contracts/ERC1410/ERC1410Standard.sol\":11006:11189  if (partitions[_holder].length < partitionToIndex[_holder][_partition] || partitionToIndex[_holder][_partition] == 0)\r... */\n    tag_358:\n        /* \"contracts/ERC1410/ERC1410Standard.sol\":11185:11189  true */\n      0x01\n        /* \"contracts/ERC1410/ERC1410Standard.sol\":11178:11189  return true */\n      swap1\n      pop\n        /* \"contracts/ERC1410/ERC1410Standard.sol\":10905:11197  function _validPartition(bytes32 _partition, address _holder) internal view returns(bool) {\r... */\n    tag_356:\n      swap3\n      swap2\n      pop\n      pop\n      jump\t// out\n        /* \"contracts/ERC1410/ERC1410Standard.sol\":9629:10897  function _transferByPartition(address _from, address _to, uint256 _value, bytes32 _partition, bytes memory _data, address _operator, bytes memory _operatorData) internal {\r... */\n    tag_215:\n        /* \"contracts/ERC1410/ERC1410Standard.sol\":9818:9852  _validPartition(_partition, _from) */\n      tag_361\n        /* \"contracts/ERC1410/ERC1410Standard.sol\":9834:9844  _partition */\n      dup5\n        /* \"contracts/ERC1410/ERC1410Standard.sol\":9846:9851  _from */\n      dup9\n        /* \"contracts/ERC1410/ERC1410Standard.sol\":9818:9833  _validPartition */\n      tag_204\n        /* \"contracts/ERC1410/ERC1410Standard.sol\":9818:9852  _validPartition(_partition, _from) */\n      jump\t// in\n    tag_361:\n        /* \"contracts/ERC1410/ERC1410Standard.sol\":9810:9874  require(_validPartition(_partition, _from), \"Invalid partition\") */\n      tag_362\n      jumpi\n      mload(0x40)\n      0x08c379a000000000000000000000000000000000000000000000000000000000\n      dup2\n      mstore\n      0x04\n      add\n      dup1\n      dup1\n      0x20\n      add\n      dup3\n      dup2\n      sub\n      dup3\n      mstore\n      0x11\n      dup2\n      mstore\n      0x20\n      add\n      dup1\n      0x496e76616c696420706172746974696f6e000000000000000000000000000000\n      dup2\n      mstore\n      pop\n      0x20\n      add\n      swap2\n      pop\n      pop\n      mload(0x40)\n      dup1\n      swap2\n      sub\n      swap1\n      revert\n    tag_362:\n        /* \"contracts/ERC1410/ERC1410Standard.sol\":9963:9969  _value */\n      dup5\n        /* \"contracts/ERC1410/ERC1410Standard.sol\":9894:9904  partitions */\n      0x03\n        /* \"contracts/ERC1410/ERC1410Standard.sol\":9894:9911  partitions[_from] */\n      0x00\n        /* \"contracts/ERC1410/ERC1410Standard.sol\":9905:9910  _from */\n      dup10\n        /* \"contracts/ERC1410/ERC1410Standard.sol\":9894:9911  partitions[_from] */\n      0xffffffffffffffffffffffffffffffffffffffff\n      and\n      0xffffffffffffffffffffffffffffffffffffffff\n      and\n      dup2\n      mstore\n      0x20\n      add\n      swap1\n      dup2\n      mstore\n      0x20\n      add\n      0x00\n      keccak256\n        /* \"contracts/ERC1410/ERC1410Standard.sol\":9950:9951  1 */\n      0x01\n        /* \"contracts/ERC1410/ERC1410Standard.sol\":9912:9928  partitionToIndex */\n      0x04\n        /* \"contracts/ERC1410/ERC1410Standard.sol\":9912:9935  partitionToIndex[_from] */\n      0x00\n        /* \"contracts/ERC1410/ERC1410Standard.sol\":9929:9934  _from */\n      dup12\n        /* \"contracts/ERC1410/ERC1410Standard.sol\":9912:9935  partitionToIndex[_from] */\n      0xffffffffffffffffffffffffffffffffffffffff\n      and\n      0xffffffffffffffffffffffffffffffffffffffff\n      and\n      dup2\n      mstore\n      0x20\n      add\n      swap1\n      dup2\n      mstore\n      0x20\n      add\n      0x00\n      keccak256\n        /* \"contracts/ERC1410/ERC1410Standard.sol\":9912:9947  partitionToIndex[_from][_partition] */\n      0x00\n        /* \"contracts/ERC1410/ERC1410Standard.sol\":9936:9946  _partition */\n      dup9\n        /* \"contracts/ERC1410/ERC1410Standard.sol\":9912:9947  partitionToIndex[_from][_partition] */\n      dup2\n      mstore\n      0x20\n      add\n      swap1\n      dup2\n      mstore\n      0x20\n      add\n      0x00\n      keccak256\n      sload\n        /* \"contracts/ERC1410/ERC1410Standard.sol\":9912:9951  partitionToIndex[_from][_partition] - 1 */\n      sub\n        /* \"contracts/ERC1410/ERC1410Standard.sol\":9894:9952  partitions[_from][partitionToIndex[_from][_partition] - 1] */\n      dup2\n      sload\n      dup2\n      lt\n      tag_363\n      jumpi\n      invalid\n    tag_363:\n      swap1\n      0x00\n      mstore\n      keccak256(0x00, 0x20)\n      swap1\n      0x02\n      mul\n      add\n        /* \"contracts/ERC1410/ERC1410Standard.sol\":9894:9959  partitions[_from][partitionToIndex[_from][_partition] - 1].amount */\n      0x00\n      add\n      sload\n        /* \"contracts/ERC1410/ERC1410Standard.sol\":9894:9969  partitions[_from][partitionToIndex[_from][_partition] - 1].amount >= _value */\n      lt\n      iszero\n        /* \"contracts/ERC1410/ERC1410Standard.sol\":9886:9994  require(partitions[_from][partitionToIndex[_from][_partition] - 1].amount >= _value, \"Insufficient balance\") */\n      tag_365\n      jumpi\n      mload(0x40)\n      0x08c379a000000000000000000000000000000000000000000000000000000000\n      dup2\n      mstore\n      0x04\n      add\n      dup1\n      dup1\n      0x20\n      add\n      dup3\n      dup2\n      sub\n      dup3\n      mstore\n      0x14\n      dup2\n      mstore\n      0x20\n      add\n      dup1\n      0x496e73756666696369656e742062616c616e6365000000000000000000000000\n      dup2\n      mstore\n      pop\n      0x20\n      add\n      swap2\n      pop\n      pop\n      mload(0x40)\n      dup1\n      swap2\n      sub\n      swap1\n      revert\n    tag_365:\n        /* \"contracts/ERC1410/ERC1410Standard.sol\":10028:10029  0 */\n      0x00\n        /* \"contracts/ERC1410/ERC1410Standard.sol\":10013:10030  _to != address(0) */\n      0xffffffffffffffffffffffffffffffffffffffff\n      and\n        /* \"contracts/ERC1410/ERC1410Standard.sol\":10013:10016  _to */\n      dup7\n        /* \"contracts/ERC1410/ERC1410Standard.sol\":10013:10030  _to != address(0) */\n      0xffffffffffffffffffffffffffffffffffffffff\n      and\n      eq\n      iszero\n        /* \"contracts/ERC1410/ERC1410Standard.sol\":10005:10057  require(_to != address(0), \"0x address not allowed\") */\n      tag_366\n      jumpi\n      mload(0x40)\n      0x08c379a000000000000000000000000000000000000000000000000000000000\n      dup2\n      mstore\n      0x04\n      add\n      dup1\n      dup1\n      0x20\n      add\n      dup3\n      dup2\n      sub\n      dup3\n      mstore\n      0x16\n      dup2\n      mstore\n      0x20\n      add\n      dup1\n      0x30782061646472657373206e6f7420616c6c6f77656400000000000000000000\n      dup2\n      mstore\n      pop\n      0x20\n      add\n      swap2\n      pop\n      pop\n      mload(0x40)\n      dup1\n      swap2\n      sub\n      swap1\n      revert\n    tag_366:\n        /* \"contracts/ERC1410/ERC1410Standard.sol\":10068:10086  uint256 _fromIndex */\n      0x00\n        /* \"contracts/ERC1410/ERC1410Standard.sol\":10127:10128  1 */\n      0x01\n        /* \"contracts/ERC1410/ERC1410Standard.sol\":10089:10105  partitionToIndex */\n      0x04\n        /* \"contracts/ERC1410/ERC1410Standard.sol\":10089:10112  partitionToIndex[_from] */\n      0x00\n        /* \"contracts/ERC1410/ERC1410Standard.sol\":10106:10111  _from */\n      dup11\n        /* \"contracts/ERC1410/ERC1410Standard.sol\":10089:10112  partitionToIndex[_from] */\n      0xffffffffffffffffffffffffffffffffffffffff\n      and\n      0xffffffffffffffffffffffffffffffffffffffff\n      and\n      dup2\n      mstore\n      0x20\n      add\n      swap1\n      dup2\n      mstore\n      0x20\n      add\n      0x00\n      keccak256\n        /* \"contracts/ERC1410/ERC1410Standard.sol\":10089:10124  partitionToIndex[_from][_partition] */\n      0x00\n        /* \"contracts/ERC1410/ERC1410Standard.sol\":10113:10123  _partition */\n      dup8\n        /* \"contracts/ERC1410/ERC1410Standard.sol\":10089:10124  partitionToIndex[_from][_partition] */\n      dup2\n      mstore\n      0x20\n      add\n      swap1\n      dup2\n      mstore\n      0x20\n      add\n      0x00\n      keccak256\n      sload\n        /* \"contracts/ERC1410/ERC1410Standard.sol\":10089:10128  partitionToIndex[_from][_partition] - 1 */\n      sub\n        /* \"contracts/ERC1410/ERC1410Standard.sol\":10068:10128  uint256 _fromIndex = partitionToIndex[_from][_partition] - 1 */\n      swap1\n      pop\n        /* \"contracts/ERC1410/ERC1410Standard.sol\":10155:10198  _validPartitionForReceiver(_partition, _to) */\n      tag_367\n        /* \"contracts/ERC1410/ERC1410Standard.sol\":10182:10192  _partition */\n      dup6\n        /* \"contracts/ERC1410/ERC1410Standard.sol\":10194:10197  _to */\n      dup9\n        /* \"contracts/ERC1410/ERC1410Standard.sol\":10155:10181  _validPartitionForReceiver */\n      tag_178\n        /* \"contracts/ERC1410/ERC1410Standard.sol\":10155:10198  _validPartitionForReceiver(_partition, _to) */\n      jump\t// in\n    tag_367:\n        /* \"contracts/ERC1410/ERC1410Standard.sol\":10149:10346  if (! _validPartitionForReceiver(_partition, _to)) {\r... */\n      tag_368\n      jumpi\n        /* \"contracts/ERC1410/ERC1410Standard.sol\":10215:10225  partitions */\n      0x03\n        /* \"contracts/ERC1410/ERC1410Standard.sol\":10215:10230  partitions[_to] */\n      0x00\n        /* \"contracts/ERC1410/ERC1410Standard.sol\":10226:10229  _to */\n      dup9\n        /* \"contracts/ERC1410/ERC1410Standard.sol\":10215:10230  partitions[_to] */\n      0xffffffffffffffffffffffffffffffffffffffff\n      and\n      0xffffffffffffffffffffffffffffffffffffffff\n      and\n      dup2\n      mstore\n      0x20\n      add\n      swap1\n      dup2\n      mstore\n      0x20\n      add\n      0x00\n      keccak256\n        /* \"contracts/ERC1410/ERC1410Standard.sol\":10236:10260  Partition(0, _partition) */\n      mload(0x40)\n      dup1\n      0x40\n      add\n      0x40\n      mstore\n      dup1\n        /* \"contracts/ERC1410/ERC1410Standard.sol\":10246:10247  0 */\n      0x00\n        /* \"contracts/ERC1410/ERC1410Standard.sol\":10236:10260  Partition(0, _partition) */\n      dup2\n      mstore\n      0x20\n      add\n        /* \"contracts/ERC1410/ERC1410Standard.sol\":10249:10259  _partition */\n      dup8\n        /* \"contracts/ERC1410/ERC1410Standard.sol\":10236:10260  Partition(0, _partition) */\n      dup2\n      mstore\n      pop\n        /* \"contracts/ERC1410/ERC1410Standard.sol\":10215:10261  partitions[_to].push(Partition(0, _partition)) */\n      swap1\n      dup1\n      0x01\n      dup2\n      sload\n      add\n      dup1\n      dup3\n      sstore\n      dup1\n      swap2\n      pop\n      pop\n      0x01\n      swap1\n      sub\n      swap1\n      0x00\n      mstore\n      keccak256(0x00, 0x20)\n      swap1\n      0x02\n      mul\n      add\n      0x00\n      swap1\n      swap2\n      swap1\n      swap2\n      swap1\n      swap2\n      pop\n      0x00\n      dup3\n      add\n      mload\n      dup2\n      0x00\n      add\n      sstore\n      0x20\n      dup3\n      add\n      mload\n      dup2\n      0x01\n      add\n      sstore\n      pop\n      pop\n        /* \"contracts/ERC1410/ERC1410Standard.sol\":10312:10322  partitions */\n      0x03\n        /* \"contracts/ERC1410/ERC1410Standard.sol\":10312:10327  partitions[_to] */\n      0x00\n        /* \"contracts/ERC1410/ERC1410Standard.sol\":10323:10326  _to */\n      dup9\n        /* \"contracts/ERC1410/ERC1410Standard.sol\":10312:10327  partitions[_to] */\n      0xffffffffffffffffffffffffffffffffffffffff\n      and\n      0xffffffffffffffffffffffffffffffffffffffff\n      and\n      dup2\n      mstore\n      0x20\n      add\n      swap1\n      dup2\n      mstore\n      0x20\n      add\n      0x00\n      keccak256\n        /* \"contracts/ERC1410/ERC1410Standard.sol\":10312:10334  partitions[_to].length */\n      dup1\n      sload\n      swap1\n      pop\n        /* \"contracts/ERC1410/ERC1410Standard.sol\":10276:10292  partitionToIndex */\n      0x04\n        /* \"contracts/ERC1410/ERC1410Standard.sol\":10276:10297  partitionToIndex[_to] */\n      0x00\n        /* \"contracts/ERC1410/ERC1410Standard.sol\":10293:10296  _to */\n      dup10\n        /* \"contracts/ERC1410/ERC1410Standard.sol\":10276:10297  partitionToIndex[_to] */\n      0xffffffffffffffffffffffffffffffffffffffff\n      and\n      0xffffffffffffffffffffffffffffffffffffffff\n      and\n      dup2\n      mstore\n      0x20\n      add\n      swap1\n      dup2\n      mstore\n      0x20\n      add\n      0x00\n      keccak256\n        /* \"contracts/ERC1410/ERC1410Standard.sol\":10276:10309  partitionToIndex[_to][_partition] */\n      0x00\n        /* \"contracts/ERC1410/ERC1410Standard.sol\":10298:10308  _partition */\n      dup8\n        /* \"contracts/ERC1410/ERC1410Standard.sol\":10276:10309  partitionToIndex[_to][_partition] */\n      dup2\n      mstore\n      0x20\n      add\n      swap1\n      dup2\n      mstore\n      0x20\n      add\n      0x00\n      keccak256\n        /* \"contracts/ERC1410/ERC1410Standard.sol\":10276:10334  partitionToIndex[_to][_partition] = partitions[_to].length */\n      dup2\n      swap1\n      sstore\n      pop\n        /* \"contracts/ERC1410/ERC1410Standard.sol\":10149:10346  if (! _validPartitionForReceiver(_partition, _to)) {\r... */\n    tag_368:\n        /* \"contracts/ERC1410/ERC1410Standard.sol\":10356:10372  uint256 _toIndex */\n      0x00\n        /* \"contracts/ERC1410/ERC1410Standard.sol\":10411:10412  1 */\n      0x01\n        /* \"contracts/ERC1410/ERC1410Standard.sol\":10375:10391  partitionToIndex */\n      0x04\n        /* \"contracts/ERC1410/ERC1410Standard.sol\":10375:10396  partitionToIndex[_to] */\n      0x00\n        /* \"contracts/ERC1410/ERC1410Standard.sol\":10392:10395  _to */\n      dup11\n        /* \"contracts/ERC1410/ERC1410Standard.sol\":10375:10396  partitionToIndex[_to] */\n      0xffffffffffffffffffffffffffffffffffffffff\n      and\n      0xffffffffffffffffffffffffffffffffffffffff\n      and\n      dup2\n      mstore\n      0x20\n      add\n      swap1\n      dup2\n      mstore\n      0x20\n      add\n      0x00\n      keccak256\n        /* \"contracts/ERC1410/ERC1410Standard.sol\":10375:10408  partitionToIndex[_to][_partition] */\n      0x00\n        /* \"contracts/ERC1410/ERC1410Standard.sol\":10397:10407  _partition */\n      dup9\n        /* \"contracts/ERC1410/ERC1410Standard.sol\":10375:10408  partitionToIndex[_to][_partition] */\n      dup2\n      mstore\n      0x20\n      add\n      swap1\n      dup2\n      mstore\n      0x20\n      add\n      0x00\n      keccak256\n      sload\n        /* \"contracts/ERC1410/ERC1410Standard.sol\":10375:10412  partitionToIndex[_to][_partition] - 1 */\n      sub\n        /* \"contracts/ERC1410/ERC1410Standard.sol\":10356:10412  uint256 _toIndex = partitionToIndex[_to][_partition] - 1 */\n      swap1\n      pop\n        /* \"contracts/ERC1410/ERC1410Standard.sol\":10510:10558  partitions[_from][_fromIndex].amount.sub(_value) */\n      tag_370\n        /* \"contracts/ERC1410/ERC1410Standard.sol\":10551:10557  _value */\n      dup8\n        /* \"contracts/ERC1410/ERC1410Standard.sol\":10510:10520  partitions */\n      0x03\n        /* \"contracts/ERC1410/ERC1410Standard.sol\":10510:10527  partitions[_from] */\n      0x00\n        /* \"contracts/ERC1410/ERC1410Standard.sol\":10521:10526  _from */\n      dup13\n        /* \"contracts/ERC1410/ERC1410Standard.sol\":10510:10527  partitions[_from] */\n      0xffffffffffffffffffffffffffffffffffffffff\n      and\n      0xffffffffffffffffffffffffffffffffffffffff\n      and\n      dup2\n      mstore\n      0x20\n      add\n      swap1\n      dup2\n      mstore\n      0x20\n      add\n      0x00\n      keccak256\n        /* \"contracts/ERC1410/ERC1410Standard.sol\":10528:10538  _fromIndex */\n      dup5\n        /* \"contracts/ERC1410/ERC1410Standard.sol\":10510:10539  partitions[_from][_fromIndex] */\n      dup2\n      sload\n      dup2\n      lt\n      tag_371\n      jumpi\n      invalid\n    tag_371:\n      swap1\n      0x00\n      mstore\n      keccak256(0x00, 0x20)\n      swap1\n      0x02\n      mul\n      add\n        /* \"contracts/ERC1410/ERC1410Standard.sol\":10510:10546  partitions[_from][_fromIndex].amount */\n      0x00\n      add\n      sload\n        /* \"contracts/ERC1410/ERC1410Standard.sol\":10510:10550  partitions[_from][_fromIndex].amount.sub */\n      tag_343\n      swap1\n        /* \"contracts/ERC1410/ERC1410Standard.sol\":10510:10558  partitions[_from][_fromIndex].amount.sub(_value) */\n      swap2\n      swap1\n      0xffffffff\n      and\n      jump\t// in\n    tag_370:\n        /* \"contracts/ERC1410/ERC1410Standard.sol\":10471:10481  partitions */\n      0x03\n        /* \"contracts/ERC1410/ERC1410Standard.sol\":10471:10488  partitions[_from] */\n      0x00\n        /* \"contracts/ERC1410/ERC1410Standard.sol\":10482:10487  _from */\n      dup12\n        /* \"contracts/ERC1410/ERC1410Standard.sol\":10471:10488  partitions[_from] */\n      0xffffffffffffffffffffffffffffffffffffffff\n      and\n      0xffffffffffffffffffffffffffffffffffffffff\n      and\n      dup2\n      mstore\n      0x20\n      add\n      swap1\n      dup2\n      mstore\n      0x20\n      add\n      0x00\n      keccak256\n        /* \"contracts/ERC1410/ERC1410Standard.sol\":10489:10499  _fromIndex */\n      dup4\n        /* \"contracts/ERC1410/ERC1410Standard.sol\":10471:10500  partitions[_from][_fromIndex] */\n      dup2\n      sload\n      dup2\n      lt\n      tag_373\n      jumpi\n      invalid\n    tag_373:\n      swap1\n      0x00\n      mstore\n      keccak256(0x00, 0x20)\n      swap1\n      0x02\n      mul\n      add\n        /* \"contracts/ERC1410/ERC1410Standard.sol\":10471:10507  partitions[_from][_fromIndex].amount */\n      0x00\n      add\n        /* \"contracts/ERC1410/ERC1410Standard.sol\":10471:10558  partitions[_from][_fromIndex].amount = partitions[_from][_fromIndex].amount.sub(_value) */\n      dup2\n      swap1\n      sstore\n      pop\n        /* \"contracts/ERC1410/ERC1410Standard.sol\":10587:10614  balances[_from].sub(_value) */\n      tag_375\n        /* \"contracts/ERC1410/ERC1410Standard.sol\":10607:10613  _value */\n      dup8\n        /* \"contracts/ERC1410/ERC1410Standard.sol\":10587:10595  balances */\n      0x02\n        /* \"contracts/ERC1410/ERC1410Standard.sol\":10587:10602  balances[_from] */\n      0x00\n        /* \"contracts/ERC1410/ERC1410Standard.sol\":10596:10601  _from */\n      dup13\n        /* \"contracts/ERC1410/ERC1410Standard.sol\":10587:10602  balances[_from] */\n      0xffffffffffffffffffffffffffffffffffffffff\n      and\n      0xffffffffffffffffffffffffffffffffffffffff\n      and\n      dup2\n      mstore\n      0x20\n      add\n      swap1\n      dup2\n      mstore\n      0x20\n      add\n      0x00\n      keccak256\n      sload\n        /* \"contracts/ERC1410/ERC1410Standard.sol\":10587:10606  balances[_from].sub */\n      tag_343\n      swap1\n        /* \"contracts/ERC1410/ERC1410Standard.sol\":10587:10614  balances[_from].sub(_value) */\n      swap2\n      swap1\n      0xffffffff\n      and\n      jump\t// in\n    tag_375:\n        /* \"contracts/ERC1410/ERC1410Standard.sol\":10569:10577  balances */\n      0x02\n        /* \"contracts/ERC1410/ERC1410Standard.sol\":10569:10584  balances[_from] */\n      0x00\n        /* \"contracts/ERC1410/ERC1410Standard.sol\":10578:10583  _from */\n      dup12\n        /* \"contracts/ERC1410/ERC1410Standard.sol\":10569:10584  balances[_from] */\n      0xffffffffffffffffffffffffffffffffffffffff\n      and\n      0xffffffffffffffffffffffffffffffffffffffff\n      and\n      dup2\n      mstore\n      0x20\n      add\n      swap1\n      dup2\n      mstore\n      0x20\n      add\n      0x00\n      keccak256\n        /* \"contracts/ERC1410/ERC1410Standard.sol\":10569:10614  balances[_from] = balances[_from].sub(_value) */\n      dup2\n      swap1\n      sstore\n      pop\n        /* \"contracts/ERC1410/ERC1410Standard.sol\":10660:10704  partitions[_to][_toIndex].amount.add(_value) */\n      tag_376\n        /* \"contracts/ERC1410/ERC1410Standard.sol\":10697:10703  _value */\n      dup8\n        /* \"contracts/ERC1410/ERC1410Standard.sol\":10660:10670  partitions */\n      0x03\n        /* \"contracts/ERC1410/ERC1410Standard.sol\":10660:10675  partitions[_to] */\n      0x00\n        /* \"contracts/ERC1410/ERC1410Standard.sol\":10671:10674  _to */\n      dup12\n        /* \"contracts/ERC1410/ERC1410Standard.sol\":10660:10675  partitions[_to] */\n      0xffffffffffffffffffffffffffffffffffffffff\n      and\n      0xffffffffffffffffffffffffffffffffffffffff\n      and\n      dup2\n      mstore\n      0x20\n      add\n      swap1\n      dup2\n      mstore\n      0x20\n      add\n      0x00\n      keccak256\n        /* \"contracts/ERC1410/ERC1410Standard.sol\":10676:10684  _toIndex */\n      dup4\n        /* \"contracts/ERC1410/ERC1410Standard.sol\":10660:10685  partitions[_to][_toIndex] */\n      dup2\n      sload\n      dup2\n      lt\n      tag_377\n      jumpi\n      invalid\n    tag_377:\n      swap1\n      0x00\n      mstore\n      keccak256(0x00, 0x20)\n      swap1\n      0x02\n      mul\n      add\n        /* \"contracts/ERC1410/ERC1410Standard.sol\":10660:10692  partitions[_to][_toIndex].amount */\n      0x00\n      add\n      sload\n        /* \"contracts/ERC1410/ERC1410Standard.sol\":10660:10696  partitions[_to][_toIndex].amount.add */\n      tag_379\n      swap1\n        /* \"contracts/ERC1410/ERC1410Standard.sol\":10660:10704  partitions[_to][_toIndex].amount.add(_value) */\n      swap2\n      swap1\n      0xffffffff\n      and\n      jump\t// in\n    tag_376:\n        /* \"contracts/ERC1410/ERC1410Standard.sol\":10625:10635  partitions */\n      0x03\n        /* \"contracts/ERC1410/ERC1410Standard.sol\":10625:10640  partitions[_to] */\n      0x00\n        /* \"contracts/ERC1410/ERC1410Standard.sol\":10636:10639  _to */\n      dup11\n        /* \"contracts/ERC1410/ERC1410Standard.sol\":10625:10640  partitions[_to] */\n      0xffffffffffffffffffffffffffffffffffffffff\n      and\n      0xffffffffffffffffffffffffffffffffffffffff\n      and\n      dup2\n      mstore\n      0x20\n      add\n      swap1\n      dup2\n      mstore\n      0x20\n      add\n      0x00\n      keccak256\n        /* \"contracts/ERC1410/ERC1410Standard.sol\":10641:10649  _toIndex */\n      dup3\n        /* \"contracts/ERC1410/ERC1410Standard.sol\":10625:10650  partitions[_to][_toIndex] */\n      dup2\n      sload\n      dup2\n      lt\n      tag_380\n      jumpi\n      invalid\n    tag_380:\n      swap1\n      0x00\n      mstore\n      keccak256(0x00, 0x20)\n      swap1\n      0x02\n      mul\n      add\n        /* \"contracts/ERC1410/ERC1410Standard.sol\":10625:10657  partitions[_to][_toIndex].amount */\n      0x00\n      add\n        /* \"contracts/ERC1410/ERC1410Standard.sol\":10625:10704  partitions[_to][_toIndex].amount = partitions[_to][_toIndex].amount.add(_value) */\n      dup2\n      swap1\n      sstore\n      pop\n        /* \"contracts/ERC1410/ERC1410Standard.sol\":10731:10756  balances[_to].add(_value) */\n      tag_382\n        /* \"contracts/ERC1410/ERC1410Standard.sol\":10749:10755  _value */\n      dup8\n        /* \"contracts/ERC1410/ERC1410Standard.sol\":10731:10739  balances */\n      0x02\n        /* \"contracts/ERC1410/ERC1410Standard.sol\":10731:10744  balances[_to] */\n      0x00\n        /* \"contracts/ERC1410/ERC1410Standard.sol\":10740:10743  _to */\n      dup12\n        /* \"contracts/ERC1410/ERC1410Standard.sol\":10731:10744  balances[_to] */\n      0xffffffffffffffffffffffffffffffffffffffff\n      and\n      0xffffffffffffffffffffffffffffffffffffffff\n      and\n      dup2\n      mstore\n      0x20\n      add\n      swap1\n      dup2\n      mstore\n      0x20\n      add\n      0x00\n      keccak256\n      sload\n        /* \"contracts/ERC1410/ERC1410Standard.sol\":10731:10748  balances[_to].add */\n      tag_379\n      swap1\n        /* \"contracts/ERC1410/ERC1410Standard.sol\":10731:10756  balances[_to].add(_value) */\n      swap2\n      swap1\n      0xffffffff\n      and\n      jump\t// in\n    tag_382:\n        /* \"contracts/ERC1410/ERC1410Standard.sol\":10715:10723  balances */\n      0x02\n        /* \"contracts/ERC1410/ERC1410Standard.sol\":10715:10728  balances[_to] */\n      0x00\n        /* \"contracts/ERC1410/ERC1410Standard.sol\":10724:10727  _to */\n      dup11\n        /* \"contracts/ERC1410/ERC1410Standard.sol\":10715:10728  balances[_to] */\n      0xffffffffffffffffffffffffffffffffffffffff\n      and\n      0xffffffffffffffffffffffffffffffffffffffff\n      and\n      dup2\n      mstore\n      0x20\n      add\n      swap1\n      dup2\n      mstore\n      0x20\n      add\n      0x00\n      keccak256\n        /* \"contracts/ERC1410/ERC1410Standard.sol\":10715:10756  balances[_to] = balances[_to].add(_value) */\n      dup2\n      swap1\n      sstore\n      pop\n        /* \"contracts/ERC1410/ERC1410Standard.sol\":10855:10858  _to */\n      dup8\n        /* \"contracts/ERC1410/ERC1410Standard.sol\":10805:10889  TransferByPartition(_partition, _operator, _from, _to, _value, _data, _operatorData) */\n      0xffffffffffffffffffffffffffffffffffffffff\n      and\n        /* \"contracts/ERC1410/ERC1410Standard.sol\":10848:10853  _from */\n      dup10\n        /* \"contracts/ERC1410/ERC1410Standard.sol\":10805:10889  TransferByPartition(_partition, _operator, _from, _to, _value, _data, _operatorData) */\n      0xffffffffffffffffffffffffffffffffffffffff\n      and\n        /* \"contracts/ERC1410/ERC1410Standard.sol\":10825:10835  _partition */\n      dup8\n        /* \"contracts/ERC1410/ERC1410Standard.sol\":10805:10889  TransferByPartition(_partition, _operator, _from, _to, _value, _data, _operatorData) */\n      0xff4e9a26af4eb73b8bacfaa4abd4fea03d9448e7b912dc5ff4019048875aa2d4\n        /* \"contracts/ERC1410/ERC1410Standard.sol\":10837:10846  _operator */\n      dup8\n        /* \"contracts/ERC1410/ERC1410Standard.sol\":10860:10866  _value */\n      dup12\n        /* \"contracts/ERC1410/ERC1410Standard.sol\":10868:10873  _data */\n      dup11\n        /* \"contracts/ERC1410/ERC1410Standard.sol\":10875:10888  _operatorData */\n      dup10\n        /* \"contracts/ERC1410/ERC1410Standard.sol\":10805:10889  TransferByPartition(_partition, _operator, _from, _to, _value, _data, _operatorData) */\n      mload(0x40)\n      dup1\n      dup6\n      0xffffffffffffffffffffffffffffffffffffffff\n      and\n      dup2\n      mstore\n      0x20\n      add\n      dup5\n      dup2\n      mstore\n      0x20\n      add\n      dup1\n      0x20\n      add\n      dup1\n      0x20\n      add\n      dup4\n      dup2\n      sub\n      dup4\n      mstore\n      dup6\n      dup2\n      dup2\n      mload\n      dup2\n      mstore\n      0x20\n      add\n      swap2\n      pop\n      dup1\n      mload\n      swap1\n      0x20\n      add\n      swap1\n      dup1\n      dup4\n      dup4\n      0x00\n    tag_383:\n      dup4\n      dup2\n      lt\n      iszero\n      tag_385\n      jumpi\n      dup1\n      dup3\n      add\n      mload\n      dup2\n      dup5\n      add\n      mstore\n      0x20\n      dup2\n      add\n      swap1\n      pop\n      jump(tag_383)\n    tag_385:\n      pop\n      pop\n      pop\n      pop\n      swap1\n      pop\n      swap1\n      dup2\n      add\n      swap1\n      0x1f\n      and\n      dup1\n      iszero\n      tag_386\n      jumpi\n      dup1\n      dup3\n      sub\n      dup1\n      mload\n      0x01\n      dup4\n      0x20\n      sub\n      0x0100\n      exp\n      sub\n      not\n      and\n      dup2\n      mstore\n      0x20\n      add\n      swap2\n      pop\n    tag_386:\n      pop\n      dup4\n      dup2\n      sub\n      dup3\n      mstore\n      dup5\n      dup2\n      dup2\n      mload\n      dup2\n      mstore\n      0x20\n      add\n      swap2\n      pop\n      dup1\n      mload\n      swap1\n      0x20\n      add\n      swap1\n      dup1\n      dup4\n      dup4\n      0x00\n    tag_387:\n      dup4\n      dup2\n      lt\n      iszero\n      tag_389\n      jumpi\n      dup1\n      dup3\n      add\n      mload\n      dup2\n      dup5\n      add\n      mstore\n      0x20\n      dup2\n      add\n      swap1\n      pop\n      jump(tag_387)\n    tag_389:\n      pop\n      pop\n      pop\n      pop\n      swap1\n      pop\n      swap1\n      dup2\n      add\n      swap1\n      0x1f\n      and\n      dup1\n      iszero\n      tag_390\n      jumpi\n      dup1\n      dup3\n      sub\n      dup1\n      mload\n      0x01\n      dup4\n      0x20\n      sub\n      0x0100\n      exp\n      sub\n      not\n      and\n      dup2\n      mstore\n      0x20\n      add\n      swap2\n      pop\n    tag_390:\n      pop\n      swap7\n      pop\n      pop\n      pop\n      pop\n      pop\n      pop\n      pop\n      mload(0x40)\n      dup1\n      swap2\n      sub\n      swap1\n      log4\n        /* \"contracts/ERC1410/ERC1410Standard.sol\":9629:10897  function _transferByPartition(address _from, address _to, uint256 _value, bytes32 _partition, bytes memory _data, address _operator, bytes memory _operatorData) internal {\r... */\n      pop\n      pop\n      pop\n      pop\n      pop\n      pop\n      pop\n      pop\n      pop\n      jump\t// out\n        /* \"openzeppelin-solidity/contracts/utils/Context.sol\":598:702  function _msgSender() internal view virtual returns (address payable) {... */\n    tag_220:\n        /* \"openzeppelin-solidity/contracts/utils/Context.sol\":651:666  address payable */\n      0x00\n        /* \"openzeppelin-solidity/contracts/utils/Context.sol\":685:695  msg.sender */\n      caller\n        /* \"openzeppelin-solidity/contracts/utils/Context.sol\":678:695  return msg.sender */\n      swap1\n      pop\n        /* \"openzeppelin-solidity/contracts/utils/Context.sol\":598:702  function _msgSender() internal view virtual returns (address payable) {... */\n      swap1\n      jump\t// out\n        /* \"contracts/ERC1410/ERC1410Standard.sol\":19810:20736  function _issueByPartition(bytes32 _partition, address _tokenHolder, uint256 _value, bytes memory _data, bytes memory _operatorData) internal {\r... */\n    tag_225:\n        /* \"contracts/ERC1410/ERC1410Standard.sol\":20022:20057  _validateParams(_partition, _value) */\n      tag_393\n        /* \"contracts/ERC1410/ERC1410Standard.sol\":20038:20048  _partition */\n      dup6\n        /* \"contracts/ERC1410/ERC1410Standard.sol\":20050:20056  _value */\n      dup5\n        /* \"contracts/ERC1410/ERC1410Standard.sol\":20022:20037  _validateParams */\n      tag_328\n        /* \"contracts/ERC1410/ERC1410Standard.sol\":20022:20057  _validateParams(_partition, _value) */\n      jump\t// in\n    tag_393:\n        /* \"contracts/ERC1410/ERC1410Standard.sol\":20100:20101  0 */\n      0x00\n        /* \"contracts/ERC1410/ERC1410Standard.sol\":20076:20102  _tokenHolder != address(0) */\n      0xffffffffffffffffffffffffffffffffffffffff\n      and\n        /* \"contracts/ERC1410/ERC1410Standard.sol\":20076:20088  _tokenHolder */\n      dup5\n        /* \"contracts/ERC1410/ERC1410Standard.sol\":20076:20102  _tokenHolder != address(0) */\n      0xffffffffffffffffffffffffffffffffffffffff\n      and\n      eq\n      iszero\n        /* \"contracts/ERC1410/ERC1410Standard.sol\":20068:20129  require(_tokenHolder != address(0), \"Invalid token receiver\") */\n      tag_394\n      jumpi\n      mload(0x40)\n      0x08c379a000000000000000000000000000000000000000000000000000000000\n      dup2\n      mstore\n      0x04\n      add\n      dup1\n      dup1\n      0x20\n      add\n      dup3\n      dup2\n      sub\n      dup3\n      mstore\n      0x16\n      dup2\n      mstore\n      0x20\n      add\n      dup1\n      0x496e76616c696420746f6b656e20726563656976657200000000000000000000\n      dup2\n      mstore\n      pop\n      0x20\n      add\n      swap2\n      pop\n      pop\n      mload(0x40)\n      dup1\n      swap2\n      sub\n      swap1\n      revert\n    tag_394:\n        /* \"contracts/ERC1410/ERC1410Standard.sol\":20140:20153  uint256 index */\n      0x00\n        /* \"contracts/ERC1410/ERC1410Standard.sol\":20156:20172  partitionToIndex */\n      0x04\n        /* \"contracts/ERC1410/ERC1410Standard.sol\":20156:20186  partitionToIndex[_tokenHolder] */\n      0x00\n        /* \"contracts/ERC1410/ERC1410Standard.sol\":20173:20185  _tokenHolder */\n      dup7\n        /* \"contracts/ERC1410/ERC1410Standard.sol\":20156:20186  partitionToIndex[_tokenHolder] */\n      0xffffffffffffffffffffffffffffffffffffffff\n      and\n      0xffffffffffffffffffffffffffffffffffffffff\n      and\n      dup2\n      mstore\n      0x20\n      add\n      swap1\n      dup2\n      mstore\n      0x20\n      add\n      0x00\n      keccak256\n        /* \"contracts/ERC1410/ERC1410Standard.sol\":20156:20198  partitionToIndex[_tokenHolder][_partition] */\n      0x00\n        /* \"contracts/ERC1410/ERC1410Standard.sol\":20187:20197  _partition */\n      dup8\n        /* \"contracts/ERC1410/ERC1410Standard.sol\":20156:20198  partitionToIndex[_tokenHolder][_partition] */\n      dup2\n      mstore\n      0x20\n      add\n      swap1\n      dup2\n      mstore\n      0x20\n      add\n      0x00\n      keccak256\n      sload\n        /* \"contracts/ERC1410/ERC1410Standard.sol\":20140:20198  uint256 index = partitionToIndex[_tokenHolder][_partition] */\n      swap1\n      pop\n        /* \"contracts/ERC1410/ERC1410Standard.sol\":20222:20223  0 */\n      0x00\n        /* \"contracts/ERC1410/ERC1410Standard.sol\":20213:20218  index */\n      dup2\n        /* \"contracts/ERC1410/ERC1410Standard.sol\":20213:20223  index == 0 */\n      eq\n        /* \"contracts/ERC1410/ERC1410Standard.sol\":20209:20535  if (index == 0) {\r... */\n      iszero\n      tag_395\n      jumpi\n        /* \"contracts/ERC1410/ERC1410Standard.sol\":20240:20250  partitions */\n      0x03\n        /* \"contracts/ERC1410/ERC1410Standard.sol\":20240:20264  partitions[_tokenHolder] */\n      0x00\n        /* \"contracts/ERC1410/ERC1410Standard.sol\":20251:20263  _tokenHolder */\n      dup7\n        /* \"contracts/ERC1410/ERC1410Standard.sol\":20240:20264  partitions[_tokenHolder] */\n      0xffffffffffffffffffffffffffffffffffffffff\n      and\n      0xffffffffffffffffffffffffffffffffffffffff\n      and\n      dup2\n      mstore\n      0x20\n      add\n      swap1\n      dup2\n      mstore\n      0x20\n      add\n      0x00\n      keccak256\n        /* \"contracts/ERC1410/ERC1410Standard.sol\":20270:20299  Partition(_value, _partition) */\n      mload(0x40)\n      dup1\n      0x40\n      add\n      0x40\n      mstore\n      dup1\n        /* \"contracts/ERC1410/ERC1410Standard.sol\":20280:20286  _value */\n      dup7\n        /* \"contracts/ERC1410/ERC1410Standard.sol\":20270:20299  Partition(_value, _partition) */\n      dup2\n      mstore\n      0x20\n      add\n        /* \"contracts/ERC1410/ERC1410Standard.sol\":20288:20298  _partition */\n      dup9\n        /* \"contracts/ERC1410/ERC1410Standard.sol\":20270:20299  Partition(_value, _partition) */\n      dup2\n      mstore\n      pop\n        /* \"contracts/ERC1410/ERC1410Standard.sol\":20240:20300  partitions[_tokenHolder].push(Partition(_value, _partition)) */\n      swap1\n      dup1\n      0x01\n      dup2\n      sload\n      add\n      dup1\n      dup3\n      sstore\n      dup1\n      swap2\n      pop\n      pop\n      0x01\n      swap1\n      sub\n      swap1\n      0x00\n      mstore\n      keccak256(0x00, 0x20)\n      swap1\n      0x02\n      mul\n      add\n      0x00\n      swap1\n      swap2\n      swap1\n      swap2\n      swap1\n      swap2\n      pop\n      0x00\n      dup3\n      add\n      mload\n      dup2\n      0x00\n      add\n      sstore\n      0x20\n      dup3\n      add\n      mload\n      dup2\n      0x01\n      add\n      sstore\n      pop\n      pop\n        /* \"contracts/ERC1410/ERC1410Standard.sol\":20360:20370  partitions */\n      0x03\n        /* \"contracts/ERC1410/ERC1410Standard.sol\":20360:20384  partitions[_tokenHolder] */\n      0x00\n        /* \"contracts/ERC1410/ERC1410Standard.sol\":20371:20383  _tokenHolder */\n      dup7\n        /* \"contracts/ERC1410/ERC1410Standard.sol\":20360:20384  partitions[_tokenHolder] */\n      0xffffffffffffffffffffffffffffffffffffffff\n      and\n      0xffffffffffffffffffffffffffffffffffffffff\n      and\n      dup2\n      mstore\n      0x20\n      add\n      swap1\n      dup2\n      mstore\n      0x20\n      add\n      0x00\n      keccak256\n        /* \"contracts/ERC1410/ERC1410Standard.sol\":20360:20391  partitions[_tokenHolder].length */\n      dup1\n      sload\n      swap1\n      pop\n        /* \"contracts/ERC1410/ERC1410Standard.sol\":20315:20331  partitionToIndex */\n      0x04\n        /* \"contracts/ERC1410/ERC1410Standard.sol\":20315:20345  partitionToIndex[_tokenHolder] */\n      0x00\n        /* \"contracts/ERC1410/ERC1410Standard.sol\":20332:20344  _tokenHolder */\n      dup8\n        /* \"contracts/ERC1410/ERC1410Standard.sol\":20315:20345  partitionToIndex[_tokenHolder] */\n      0xffffffffffffffffffffffffffffffffffffffff\n      and\n      0xffffffffffffffffffffffffffffffffffffffff\n      and\n      dup2\n      mstore\n      0x20\n      add\n      swap1\n      dup2\n      mstore\n      0x20\n      add\n      0x00\n      keccak256\n        /* \"contracts/ERC1410/ERC1410Standard.sol\":20315:20357  partitionToIndex[_tokenHolder][_partition] */\n      0x00\n        /* \"contracts/ERC1410/ERC1410Standard.sol\":20346:20356  _partition */\n      dup9\n        /* \"contracts/ERC1410/ERC1410Standard.sol\":20315:20357  partitionToIndex[_tokenHolder][_partition] */\n      dup2\n      mstore\n      0x20\n      add\n      swap1\n      dup2\n      mstore\n      0x20\n      add\n      0x00\n      keccak256\n        /* \"contracts/ERC1410/ERC1410Standard.sol\":20315:20391  partitionToIndex[_tokenHolder][_partition] = partitions[_tokenHolder].length */\n      dup2\n      swap1\n      sstore\n      pop\n        /* \"contracts/ERC1410/ERC1410Standard.sol\":20209:20535  if (index == 0) {\r... */\n      jump(tag_397)\n    tag_395:\n        /* \"contracts/ERC1410/ERC1410Standard.sol\":20469:20523  partitions[_tokenHolder][index - 1].amount.add(_value) */\n      tag_398\n        /* \"contracts/ERC1410/ERC1410Standard.sol\":20516:20522  _value */\n      dup5\n        /* \"contracts/ERC1410/ERC1410Standard.sol\":20469:20479  partitions */\n      0x03\n        /* \"contracts/ERC1410/ERC1410Standard.sol\":20469:20493  partitions[_tokenHolder] */\n      0x00\n        /* \"contracts/ERC1410/ERC1410Standard.sol\":20480:20492  _tokenHolder */\n      dup9\n        /* \"contracts/ERC1410/ERC1410Standard.sol\":20469:20493  partitions[_tokenHolder] */\n      0xffffffffffffffffffffffffffffffffffffffff\n      and\n      0xffffffffffffffffffffffffffffffffffffffff\n      and\n      dup2\n      mstore\n      0x20\n      add\n      swap1\n      dup2\n      mstore\n      0x20\n      add\n      0x00\n      keccak256\n        /* \"contracts/ERC1410/ERC1410Standard.sol\":20502:20503  1 */\n      0x01\n        /* \"contracts/ERC1410/ERC1410Standard.sol\":20494:20499  index */\n      dup5\n        /* \"contracts/ERC1410/ERC1410Standard.sol\":20494:20503  index - 1 */\n      sub\n        /* \"contracts/ERC1410/ERC1410Standard.sol\":20469:20504  partitions[_tokenHolder][index - 1] */\n      dup2\n      sload\n      dup2\n      lt\n      tag_399\n      jumpi\n      invalid\n    tag_399:\n      swap1\n      0x00\n      mstore\n      keccak256(0x00, 0x20)\n      swap1\n      0x02\n      mul\n      add\n        /* \"contracts/ERC1410/ERC1410Standard.sol\":20469:20511  partitions[_tokenHolder][index - 1].amount */\n      0x00\n      add\n      sload\n        /* \"contracts/ERC1410/ERC1410Standard.sol\":20469:20515  partitions[_tokenHolder][index - 1].amount.add */\n      tag_379\n      swap1\n        /* \"contracts/ERC1410/ERC1410Standard.sol\":20469:20523  partitions[_tokenHolder][index - 1].amount.add(_value) */\n      swap2\n      swap1\n      0xffffffff\n      and\n      jump\t// in\n    tag_398:\n        /* \"contracts/ERC1410/ERC1410Standard.sol\":20424:20434  partitions */\n      0x03\n        /* \"contracts/ERC1410/ERC1410Standard.sol\":20424:20448  partitions[_tokenHolder] */\n      0x00\n        /* \"contracts/ERC1410/ERC1410Standard.sol\":20435:20447  _tokenHolder */\n      dup8\n        /* \"contracts/ERC1410/ERC1410Standard.sol\":20424:20448  partitions[_tokenHolder] */\n      0xffffffffffffffffffffffffffffffffffffffff\n      and\n      0xffffffffffffffffffffffffffffffffffffffff\n      and\n      dup2\n      mstore\n      0x20\n      add\n      swap1\n      dup2\n      mstore\n      0x20\n      add\n      0x00\n      keccak256\n        /* \"contracts/ERC1410/ERC1410Standard.sol\":20457:20458  1 */\n      0x01\n        /* \"contracts/ERC1410/ERC1410Standard.sol\":20449:20454  index */\n      dup4\n        /* \"contracts/ERC1410/ERC1410Standard.sol\":20449:20458  index - 1 */\n      sub\n        /* \"contracts/ERC1410/ERC1410Standard.sol\":20424:20459  partitions[_tokenHolder][index - 1] */\n      dup2\n      sload\n      dup2\n      lt\n      tag_401\n      jumpi\n      invalid\n    tag_401:\n      swap1\n      0x00\n      mstore\n      keccak256(0x00, 0x20)\n      swap1\n      0x02\n      mul\n      add\n        /* \"contracts/ERC1410/ERC1410Standard.sol\":20424:20466  partitions[_tokenHolder][index - 1].amount */\n      0x00\n      add\n        /* \"contracts/ERC1410/ERC1410Standard.sol\":20424:20523  partitions[_tokenHolder][index - 1].amount = partitions[_tokenHolder][index - 1].amount.add(_value) */\n      dup2\n      swap1\n      sstore\n      pop\n        /* \"contracts/ERC1410/ERC1410Standard.sol\":20209:20535  if (index == 0) {\r... */\n    tag_397:\n        /* \"contracts/ERC1410/ERC1410Standard.sol\":20560:20584  _totalSupply.add(_value) */\n      tag_403\n        /* \"contracts/ERC1410/ERC1410Standard.sol\":20577:20583  _value */\n      dup5\n        /* \"contracts/ERC1410/ERC1410Standard.sol\":20560:20572  _totalSupply */\n      sload(0x01)\n        /* \"contracts/ERC1410/ERC1410Standard.sol\":20560:20576  _totalSupply.add */\n      tag_379\n      swap1\n        /* \"contracts/ERC1410/ERC1410Standard.sol\":20560:20584  _totalSupply.add(_value) */\n      swap2\n      swap1\n      0xffffffff\n      and\n      jump\t// in\n    tag_403:\n        /* \"contracts/ERC1410/ERC1410Standard.sol\":20545:20557  _totalSupply */\n      0x01\n        /* \"contracts/ERC1410/ERC1410Standard.sol\":20545:20584  _totalSupply = _totalSupply.add(_value) */\n      dup2\n      swap1\n      sstore\n      pop\n        /* \"contracts/ERC1410/ERC1410Standard.sol\":20620:20654  balances[_tokenHolder].add(_value) */\n      tag_404\n        /* \"contracts/ERC1410/ERC1410Standard.sol\":20647:20653  _value */\n      dup5\n        /* \"contracts/ERC1410/ERC1410Standard.sol\":20620:20628  balances */\n      0x02\n        /* \"contracts/ERC1410/ERC1410Standard.sol\":20620:20642  balances[_tokenHolder] */\n      0x00\n        /* \"contracts/ERC1410/ERC1410Standard.sol\":20629:20641  _tokenHolder */\n      dup9\n        /* \"contracts/ERC1410/ERC1410Standard.sol\":20620:20642  balances[_tokenHolder] */\n      0xffffffffffffffffffffffffffffffffffffffff\n      and\n      0xffffffffffffffffffffffffffffffffffffffff\n      and\n      dup2\n      mstore\n      0x20\n      add\n      swap1\n      dup2\n      mstore\n      0x20\n      add\n      0x00\n      keccak256\n      sload\n        /* \"contracts/ERC1410/ERC1410Standard.sol\":20620:20646  balances[_tokenHolder].add */\n      tag_379\n      swap1\n        /* \"contracts/ERC1410/ERC1410Standard.sol\":20620:20654  balances[_tokenHolder].add(_value) */\n      swap2\n      swap1\n      0xffffffff\n      and\n      jump\t// in\n    tag_404:\n        /* \"contracts/ERC1410/ERC1410Standard.sol\":20595:20603  balances */\n      0x02\n        /* \"contracts/ERC1410/ERC1410Standard.sol\":20595:20617  balances[_tokenHolder] */\n      0x00\n        /* \"contracts/ERC1410/ERC1410Standard.sol\":20604:20616  _tokenHolder */\n      dup8\n        /* \"contracts/ERC1410/ERC1410Standard.sol\":20595:20617  balances[_tokenHolder] */\n      0xffffffffffffffffffffffffffffffffffffffff\n      and\n      0xffffffffffffffffffffffffffffffffffffffff\n      and\n      dup2\n      mstore\n      0x20\n      add\n      swap1\n      dup2\n      mstore\n      0x20\n      add\n      0x00\n      keccak256\n        /* \"contracts/ERC1410/ERC1410Standard.sol\":20595:20654  balances[_tokenHolder] = balances[_tokenHolder].add(_value) */\n      dup2\n      swap1\n      sstore\n      pop\n        /* \"contracts/ERC1410/ERC1410Standard.sol\":20700:20712  _tokenHolder */\n      dup5\n        /* \"contracts/ERC1410/ERC1410Standard.sol\":20670:20728  IssuedByPartition(_partition, _tokenHolder, _value, _data) */\n      0xffffffffffffffffffffffffffffffffffffffff\n      and\n        /* \"contracts/ERC1410/ERC1410Standard.sol\":20688:20698  _partition */\n      dup7\n        /* \"contracts/ERC1410/ERC1410Standard.sol\":20670:20728  IssuedByPartition(_partition, _tokenHolder, _value, _data) */\n      0x6032e2468b0f94dfa63c61d6c8a84842a99c049263eae408a52b945020b6578d\n        /* \"contracts/ERC1410/ERC1410Standard.sol\":20714:20720  _value */\n      dup7\n        /* \"contracts/ERC1410/ERC1410Standard.sol\":20722:20727  _data */\n      dup7\n        /* \"contracts/ERC1410/ERC1410Standard.sol\":20670:20728  IssuedByPartition(_partition, _tokenHolder, _value, _data) */\n      mload(0x40)\n      dup1\n      dup4\n      dup2\n      mstore\n      0x20\n      add\n      dup1\n      0x20\n      add\n      dup3\n      dup2\n      sub\n      dup3\n      mstore\n      dup4\n      dup2\n      dup2\n      mload\n      dup2\n      mstore\n      0x20\n      add\n      swap2\n      pop\n      dup1\n      mload\n      swap1\n      0x20\n      add\n      swap1\n      dup1\n      dup4\n      dup4\n      0x00\n    tag_405:\n      dup4\n      dup2\n      lt\n      iszero\n      tag_407\n      jumpi\n      dup1\n      dup3\n      add\n      mload\n      dup2\n      dup5\n      add\n      mstore\n      0x20\n      dup2\n      add\n      swap1\n      pop\n      jump(tag_405)\n    tag_407:\n      pop\n      pop\n      pop\n      pop\n      swap1\n      pop\n      swap1\n      dup2\n      add\n      swap1\n      0x1f\n      and\n      dup1\n      iszero\n      tag_408\n      jumpi\n      dup1\n      dup3\n      sub\n      dup1\n      mload\n      0x01\n      dup4\n      0x20\n      sub\n      0x0100\n      exp\n      sub\n      not\n      and\n      dup2\n      mstore\n      0x20\n      add\n      swap2\n      pop\n    tag_408:\n      pop\n      swap4\n      pop\n      pop\n      pop\n      pop\n      mload(0x40)\n      dup1\n      swap2\n      sub\n      swap1\n      log3\n        /* \"contracts/ERC1410/ERC1410Standard.sol\":19810:20736  function _issueByPartition(bytes32 _partition, address _tokenHolder, uint256 _value, bytes memory _data, bytes memory _operatorData) internal {\r... */\n      pop\n      pop\n      pop\n      pop\n      pop\n      pop\n      jump\t// out\n        /* \"contracts/math/KindMath.sol\":986:1151  function checkSub(uint256 a, uint256 b) internal pure returns (bool) {\r... */\n    tag_261:\n        /* \"contracts/math/KindMath.sol\":1049:1053  bool */\n      0x00\n        /* \"contracts/math/KindMath.sol\":1075:1076  a */\n      dup3\n        /* \"contracts/math/KindMath.sol\":1070:1071  b */\n      dup3\n        /* \"contracts/math/KindMath.sol\":1070:1076  b <= a */\n      gt\n        /* \"contracts/math/KindMath.sol\":1066:1143  if (b <= a)\r... */\n      tag_410\n      jumpi\n        /* \"contracts/math/KindMath.sol\":1098:1102  true */\n      0x01\n        /* \"contracts/math/KindMath.sol\":1091:1102  return true */\n      swap1\n      pop\n      jump(tag_409)\n        /* \"contracts/math/KindMath.sol\":1066:1143  if (b <= a)\r... */\n    tag_410:\n        /* \"contracts/math/KindMath.sol\":1138:1143  false */\n      0x00\n        /* \"contracts/math/KindMath.sol\":1131:1143  return false */\n      swap1\n      pop\n        /* \"contracts/math/KindMath.sol\":986:1151  function checkSub(uint256 a, uint256 b) internal pure returns (bool) {\r... */\n    tag_409:\n      swap3\n      swap2\n      pop\n      pop\n      jump\t// out\n        /* \"contracts/math/KindMath.sol\":1232:1424  function checkAdd(uint256 a, uint256 b) internal pure returns (bool) {\r... */\n    tag_264:\n        /* \"contracts/math/KindMath.sol\":1295:1299  bool */\n      0x00\n        /* \"contracts/math/KindMath.sol\":1312:1321  uint256 c */\n      dup1\n        /* \"contracts/math/KindMath.sol\":1328:1329  b */\n      dup3\n        /* \"contracts/math/KindMath.sol\":1324:1325  a */\n      dup5\n        /* \"contracts/math/KindMath.sol\":1324:1329  a + b */\n      add\n        /* \"contracts/math/KindMath.sol\":1312:1329  uint256 c = a + b */\n      swap1\n      pop\n        /* \"contracts/math/KindMath.sol\":1348:1349  a */\n      dup4\n        /* \"contracts/math/KindMath.sol\":1344:1345  c */\n      dup2\n        /* \"contracts/math/KindMath.sol\":1344:1349  c < a */\n      lt\n        /* \"contracts/math/KindMath.sol\":1340:1416  if (c < a)\r... */\n      iszero\n      tag_413\n      jumpi\n        /* \"contracts/math/KindMath.sol\":1371:1376  false */\n      0x00\n        /* \"contracts/math/KindMath.sol\":1364:1376  return false */\n      swap2\n      pop\n      pop\n      jump(tag_412)\n        /* \"contracts/math/KindMath.sol\":1340:1416  if (c < a)\r... */\n    tag_413:\n        /* \"contracts/math/KindMath.sol\":1412:1416  true */\n      0x01\n        /* \"contracts/math/KindMath.sol\":1405:1416  return true */\n      swap2\n      pop\n      pop\n        /* \"contracts/math/KindMath.sol\":1232:1424  function checkAdd(uint256 a, uint256 b) internal pure returns (bool) {\r... */\n    tag_412:\n      swap3\n      swap2\n      pop\n      pop\n      jump\t// out\n        /* \"contracts/ERC1410/ERC1410Standard.sol\":25515:25946  function _validateParams(bytes32 _partition, uint256 _value) internal pure {\r... */\n    tag_328:\n        /* \"contracts/ERC1410/ERC1410Standard.sol\":25627:25628  0 */\n      0x00\n        /* \"contracts/ERC1410/ERC1410Standard.sol\":25609:25615  _value */\n      dup2\n        /* \"contracts/ERC1410/ERC1410Standard.sol\":25609:25629  _value != uint256(0) */\n      eq\n      iszero\n        /* \"contracts/ERC1410/ERC1410Standard.sol\":25601:25656  require(_value != uint256(0), \"Zero value not allowed\") */\n      tag_416\n      jumpi\n      mload(0x40)\n      0x08c379a000000000000000000000000000000000000000000000000000000000\n      dup2\n      mstore\n      0x04\n      add\n      dup1\n      dup1\n      0x20\n      add\n      dup3\n      dup2\n      sub\n      dup3\n      mstore\n      0x16\n      dup2\n      mstore\n      0x20\n      add\n      dup1\n      0x5a65726f2076616c7565206e6f7420616c6c6f77656400000000000000000000\n      dup2\n      mstore\n      pop\n      0x20\n      add\n      swap2\n      pop\n      pop\n      mload(0x40)\n      dup1\n      swap2\n      sub\n      swap1\n      revert\n    tag_416:\n        /* \"contracts/ERC1410/ERC1410Standard.sol\":25697:25698  0 */\n      0x00\n        /* \"contracts/ERC1410/ERC1410Standard.sol\":25689:25699  bytes32(0) */\n      dup1\n      shl\n        /* \"contracts/ERC1410/ERC1410Standard.sol\":25675:25685  _partition */\n      dup3\n        /* \"contracts/ERC1410/ERC1410Standard.sol\":25675:25699  _partition != bytes32(0) */\n      eq\n      iszero\n        /* \"contracts/ERC1410/ERC1410Standard.sol\":25667:25721  require(_partition != bytes32(0), \"Invalid partition\") */\n      tag_417\n      jumpi\n      mload(0x40)\n      0x08c379a000000000000000000000000000000000000000000000000000000000\n      dup2\n      mstore\n      0x04\n      add\n      dup1\n      dup1\n      0x20\n      add\n      dup3\n      dup2\n      sub\n      dup3\n      mstore\n      0x11\n      dup2\n      mstore\n      0x20\n      add\n      dup1\n      0x496e76616c696420706172746974696f6e000000000000000000000000000000\n      dup2\n      mstore\n      pop\n      0x20\n      add\n      swap2\n      pop\n      pop\n      mload(0x40)\n      dup1\n      swap2\n      sub\n      swap1\n      revert\n    tag_417:\n        /* \"contracts/ERC1410/ERC1410Standard.sol\":442:508  0x7465737400000000000000000000000000000000000000000000000000000000 */\n      0x7465737400000000000000000000000000000000000000000000000000000000\n        /* \"contracts/ERC1410/ERC1410Standard.sol\":25754:25773  HELD_FREE_PARTITION */\n      0x00\n      shl\n        /* \"contracts/ERC1410/ERC1410Standard.sol\":25740:25750  _partition */\n      dup3\n        /* \"contracts/ERC1410/ERC1410Standard.sol\":25740:25773  _partition == HELD_FREE_PARTITION */\n      eq\n        /* \"contracts/ERC1410/ERC1410Standard.sol\":25740:25808  _partition == HELD_FREE_PARTITION || _partition == TRANSIT_PARTITION */\n      dup1\n      tag_418\n      jumpi\n      pop\n        /* \"contracts/ERC1410/ERC1410Standard.sol\":559:625  0x7465737600000000000000000000000000000000000000000000000000000000 */\n      0x7465737600000000000000000000000000000000000000000000000000000000\n        /* \"contracts/ERC1410/ERC1410Standard.sol\":25791:25808  TRANSIT_PARTITION */\n      0x00\n      shl\n        /* \"contracts/ERC1410/ERC1410Standard.sol\":25777:25787  _partition */\n      dup3\n        /* \"contracts/ERC1410/ERC1410Standard.sol\":25777:25808  _partition == TRANSIT_PARTITION */\n      eq\n        /* \"contracts/ERC1410/ERC1410Standard.sol\":25740:25808  _partition == HELD_FREE_PARTITION || _partition == TRANSIT_PARTITION */\n    tag_418:\n        /* \"contracts/ERC1410/ERC1410Standard.sol\":25740:25847  _partition == HELD_FREE_PARTITION || _partition == TRANSIT_PARTITION || _partition == UNCONFIRMED_PARTITION */\n      dup1\n      tag_419\n      jumpi\n      pop\n        /* \"contracts/ERC1410/ERC1410Standard.sol\":680:746  0x7465737800000000000000000000000000000000000000000000000000000000 */\n      0x7465737800000000000000000000000000000000000000000000000000000000\n        /* \"contracts/ERC1410/ERC1410Standard.sol\":25826:25847  UNCONFIRMED_PARTITION */\n      0x00\n      shl\n        /* \"contracts/ERC1410/ERC1410Standard.sol\":25812:25822  _partition */\n      dup3\n        /* \"contracts/ERC1410/ERC1410Standard.sol\":25812:25847  _partition == UNCONFIRMED_PARTITION */\n      eq\n        /* \"contracts/ERC1410/ERC1410Standard.sol\":25740:25847  _partition == HELD_FREE_PARTITION || _partition == TRANSIT_PARTITION || _partition == UNCONFIRMED_PARTITION */\n    tag_419:\n        /* \"contracts/ERC1410/ERC1410Standard.sol\":25732:25938  require(_partition == HELD_FREE_PARTITION || _partition == TRANSIT_PARTITION || _partition == UNCONFIRMED_PARTITION, \"Partition should be HELD_FREE_PARTITION or TRANSIT_PARTITION or UNCONFIRMED_PARTITION \") */\n      tag_420\n      jumpi\n      mload(0x40)\n      0x08c379a000000000000000000000000000000000000000000000000000000000\n      dup2\n      mstore\n      0x04\n      add\n      dup1\n      dup1\n      0x20\n      add\n      dup3\n      dup2\n      sub\n      dup3\n      mstore\n      0x56\n      dup2\n      mstore\n      0x20\n      add\n      dup1\n      data_86dad8cf4db38f1d66896d8fc7630a7eb736d97bdbed9415a623aff2c5dfc19b\n      0x56\n      swap2\n      codecopy\n      0x60\n      add\n      swap2\n      pop\n      pop\n      mload(0x40)\n      dup1\n      swap2\n      sub\n      swap1\n      revert\n    tag_420:\n        /* \"contracts/ERC1410/ERC1410Standard.sol\":25515:25946  function _validateParams(bytes32 _partition, uint256 _value) internal pure {\r... */\n      pop\n      pop\n      jump\t// out\n        /* \"contracts/ERC1410/ERC1410Standard.sol\":25051:25507  function _deletePartitionForHolder(address _holder, bytes32 _partition, uint256 index) internal {\r... */\n    tag_338:\n        /* \"contracts/ERC1410/ERC1410Standard.sol\":25199:25200  1 */\n      0x01\n        /* \"contracts/ERC1410/ERC1410Standard.sol\":25171:25181  partitions */\n      0x03\n        /* \"contracts/ERC1410/ERC1410Standard.sol\":25171:25190  partitions[_holder] */\n      0x00\n        /* \"contracts/ERC1410/ERC1410Standard.sol\":25182:25189  _holder */\n      dup6\n        /* \"contracts/ERC1410/ERC1410Standard.sol\":25171:25190  partitions[_holder] */\n      0xffffffffffffffffffffffffffffffffffffffff\n      and\n      0xffffffffffffffffffffffffffffffffffffffff\n      and\n      dup2\n      mstore\n      0x20\n      add\n      swap1\n      dup2\n      mstore\n      0x20\n      add\n      0x00\n      keccak256\n        /* \"contracts/ERC1410/ERC1410Standard.sol\":25171:25197  partitions[_holder].length */\n      dup1\n      sload\n      swap1\n      pop\n        /* \"contracts/ERC1410/ERC1410Standard.sol\":25171:25200  partitions[_holder].length -1 */\n      sub\n        /* \"contracts/ERC1410/ERC1410Standard.sol\":25162:25167  index */\n      dup2\n        /* \"contracts/ERC1410/ERC1410Standard.sol\":25162:25200  index != partitions[_holder].length -1 */\n      eq\n        /* \"contracts/ERC1410/ERC1410Standard.sol\":25158:25398  if (index != partitions[_holder].length -1) {\r... */\n      tag_422\n      jumpi\n        /* \"contracts/ERC1410/ERC1410Standard.sol\":25246:25256  partitions */\n      0x03\n        /* \"contracts/ERC1410/ERC1410Standard.sol\":25246:25265  partitions[_holder] */\n      0x00\n        /* \"contracts/ERC1410/ERC1410Standard.sol\":25257:25264  _holder */\n      dup5\n        /* \"contracts/ERC1410/ERC1410Standard.sol\":25246:25265  partitions[_holder] */\n      0xffffffffffffffffffffffffffffffffffffffff\n      and\n      0xffffffffffffffffffffffffffffffffffffffff\n      and\n      dup2\n      mstore\n      0x20\n      add\n      swap1\n      dup2\n      mstore\n      0x20\n      add\n      0x00\n      keccak256\n        /* \"contracts/ERC1410/ERC1410Standard.sol\":25294:25295  1 */\n      0x01\n        /* \"contracts/ERC1410/ERC1410Standard.sol\":25266:25276  partitions */\n      0x03\n        /* \"contracts/ERC1410/ERC1410Standard.sol\":25266:25285  partitions[_holder] */\n      0x00\n        /* \"contracts/ERC1410/ERC1410Standard.sol\":25277:25284  _holder */\n      dup7\n        /* \"contracts/ERC1410/ERC1410Standard.sol\":25266:25285  partitions[_holder] */\n      0xffffffffffffffffffffffffffffffffffffffff\n      and\n      0xffffffffffffffffffffffffffffffffffffffff\n      and\n      dup2\n      mstore\n      0x20\n      add\n      swap1\n      dup2\n      mstore\n      0x20\n      add\n      0x00\n      keccak256\n        /* \"contracts/ERC1410/ERC1410Standard.sol\":25266:25292  partitions[_holder].length */\n      dup1\n      sload\n      swap1\n      pop\n        /* \"contracts/ERC1410/ERC1410Standard.sol\":25266:25295  partitions[_holder].length -1 */\n      sub\n        /* \"contracts/ERC1410/ERC1410Standard.sol\":25246:25296  partitions[_holder][partitions[_holder].length -1] */\n      dup2\n      sload\n      dup2\n      lt\n      tag_423\n      jumpi\n      invalid\n    tag_423:\n      swap1\n      0x00\n      mstore\n      keccak256(0x00, 0x20)\n      swap1\n      0x02\n      mul\n      add\n        /* \"contracts/ERC1410/ERC1410Standard.sol\":25217:25227  partitions */\n      0x03\n        /* \"contracts/ERC1410/ERC1410Standard.sol\":25217:25236  partitions[_holder] */\n      0x00\n        /* \"contracts/ERC1410/ERC1410Standard.sol\":25228:25235  _holder */\n      dup6\n        /* \"contracts/ERC1410/ERC1410Standard.sol\":25217:25236  partitions[_holder] */\n      0xffffffffffffffffffffffffffffffffffffffff\n      and\n      0xffffffffffffffffffffffffffffffffffffffff\n      and\n      dup2\n      mstore\n      0x20\n      add\n      swap1\n      dup2\n      mstore\n      0x20\n      add\n      0x00\n      keccak256\n        /* \"contracts/ERC1410/ERC1410Standard.sol\":25237:25242  index */\n      dup3\n        /* \"contracts/ERC1410/ERC1410Standard.sol\":25217:25243  partitions[_holder][index] */\n      dup2\n      sload\n      dup2\n      lt\n      tag_425\n      jumpi\n      invalid\n    tag_425:\n      swap1\n      0x00\n      mstore\n      keccak256(0x00, 0x20)\n      swap1\n      0x02\n      mul\n      add\n        /* \"contracts/ERC1410/ERC1410Standard.sol\":25217:25296  partitions[_holder][index] = partitions[_holder][partitions[_holder].length -1] */\n      0x00\n      dup3\n      add\n      sload\n      dup2\n      0x00\n      add\n      sstore\n      0x01\n      dup3\n      add\n      sload\n      dup2\n      0x01\n      add\n      sstore\n      swap1\n      pop\n      pop\n        /* \"contracts/ERC1410/ERC1410Standard.sol\":25385:25386  1 */\n      0x01\n        /* \"contracts/ERC1410/ERC1410Standard.sol\":25377:25382  index */\n      dup2\n        /* \"contracts/ERC1410/ERC1410Standard.sol\":25377:25386  index + 1 */\n      add\n        /* \"contracts/ERC1410/ERC1410Standard.sol\":25311:25327  partitionToIndex */\n      0x04\n        /* \"contracts/ERC1410/ERC1410Standard.sol\":25311:25336  partitionToIndex[_holder] */\n      0x00\n        /* \"contracts/ERC1410/ERC1410Standard.sol\":25328:25335  _holder */\n      dup6\n        /* \"contracts/ERC1410/ERC1410Standard.sol\":25311:25336  partitionToIndex[_holder] */\n      0xffffffffffffffffffffffffffffffffffffffff\n      and\n      0xffffffffffffffffffffffffffffffffffffffff\n      and\n      dup2\n      mstore\n      0x20\n      add\n      swap1\n      dup2\n      mstore\n      0x20\n      add\n      0x00\n      keccak256\n        /* \"contracts/ERC1410/ERC1410Standard.sol\":25311:25374  partitionToIndex[_holder][partitions[_holder][index].partition] */\n      0x00\n        /* \"contracts/ERC1410/ERC1410Standard.sol\":25337:25347  partitions */\n      0x03\n        /* \"contracts/ERC1410/ERC1410Standard.sol\":25337:25356  partitions[_holder] */\n      0x00\n        /* \"contracts/ERC1410/ERC1410Standard.sol\":25348:25355  _holder */\n      dup8\n        /* \"contracts/ERC1410/ERC1410Standard.sol\":25337:25356  partitions[_holder] */\n      0xffffffffffffffffffffffffffffffffffffffff\n      and\n      0xffffffffffffffffffffffffffffffffffffffff\n      and\n      dup2\n      mstore\n      0x20\n      add\n      swap1\n      dup2\n      mstore\n      0x20\n      add\n      0x00\n      keccak256\n        /* \"contracts/ERC1410/ERC1410Standard.sol\":25357:25362  index */\n      dup5\n        /* \"contracts/ERC1410/ERC1410Standard.sol\":25337:25363  partitions[_holder][index] */\n      dup2\n      sload\n      dup2\n      lt\n      tag_427\n      jumpi\n      invalid\n    tag_427:\n      swap1\n      0x00\n      mstore\n      keccak256(0x00, 0x20)\n      swap1\n      0x02\n      mul\n      add\n        /* \"contracts/ERC1410/ERC1410Standard.sol\":25337:25373  partitions[_holder][index].partition */\n      0x01\n      add\n      sload\n        /* \"contracts/ERC1410/ERC1410Standard.sol\":25311:25374  partitionToIndex[_holder][partitions[_holder][index].partition] */\n      dup2\n      mstore\n      0x20\n      add\n      swap1\n      dup2\n      mstore\n      0x20\n      add\n      0x00\n      keccak256\n        /* \"contracts/ERC1410/ERC1410Standard.sol\":25311:25386  partitionToIndex[_holder][partitions[_holder][index].partition] = index + 1 */\n      dup2\n      swap1\n      sstore\n      pop\n        /* \"contracts/ERC1410/ERC1410Standard.sol\":25158:25398  if (index != partitions[_holder].length -1) {\r... */\n    tag_422:\n        /* \"contracts/ERC1410/ERC1410Standard.sol\":25415:25431  partitionToIndex */\n      0x04\n        /* \"contracts/ERC1410/ERC1410Standard.sol\":25415:25440  partitionToIndex[_holder] */\n      0x00\n        /* \"contracts/ERC1410/ERC1410Standard.sol\":25432:25439  _holder */\n      dup5\n        /* \"contracts/ERC1410/ERC1410Standard.sol\":25415:25440  partitionToIndex[_holder] */\n      0xffffffffffffffffffffffffffffffffffffffff\n      and\n      0xffffffffffffffffffffffffffffffffffffffff\n      and\n      dup2\n      mstore\n      0x20\n      add\n      swap1\n      dup2\n      mstore\n      0x20\n      add\n      0x00\n      keccak256\n        /* \"contracts/ERC1410/ERC1410Standard.sol\":25415:25452  partitionToIndex[_holder][_partition] */\n      0x00\n        /* \"contracts/ERC1410/ERC1410Standard.sol\":25441:25451  _partition */\n      dup4\n        /* \"contracts/ERC1410/ERC1410Standard.sol\":25415:25452  partitionToIndex[_holder][_partition] */\n      dup2\n      mstore\n      0x20\n      add\n      swap1\n      dup2\n      mstore\n      0x20\n      add\n      0x00\n      keccak256\n        /* \"contracts/ERC1410/ERC1410Standard.sol\":25408:25452  delete partitionToIndex[_holder][_partition] */\n      0x00\n      swap1\n      sstore\n        /* \"contracts/ERC1410/ERC1410Standard.sol\":25051:25507  function _deletePartitionForHolder(address _holder, bytes32 _partition, uint256 index) internal {\r... */\n      pop\n      pop\n      pop\n      jump\t// out\n        /* \"openzeppelin-solidity/contracts/math/SafeMath.sol\":3136:3291  function sub(uint256 a, uint256 b) internal pure returns (uint256) {... */\n    tag_343:\n        /* \"openzeppelin-solidity/contracts/math/SafeMath.sol\":3194:3201  uint256 */\n      0x00\n        /* \"openzeppelin-solidity/contracts/math/SafeMath.sol\":3226:3227  a */\n      dup3\n        /* \"openzeppelin-solidity/contracts/math/SafeMath.sol\":3221:3222  b */\n      dup3\n        /* \"openzeppelin-solidity/contracts/math/SafeMath.sol\":3221:3227  b <= a */\n      gt\n      iszero\n        /* \"openzeppelin-solidity/contracts/math/SafeMath.sol\":3213:3262  require(b <= a, \"SafeMath: subtraction overflow\") */\n      tag_430\n      jumpi\n      mload(0x40)\n      0x08c379a000000000000000000000000000000000000000000000000000000000\n      dup2\n      mstore\n      0x04\n      add\n      dup1\n      dup1\n      0x20\n      add\n      dup3\n      dup2\n      sub\n      dup3\n      mstore\n      0x1e\n      dup2\n      mstore\n      0x20\n      add\n      dup1\n      0x536166654d6174683a207375627472616374696f6e206f766572666c6f770000\n      dup2\n      mstore\n      pop\n      0x20\n      add\n      swap2\n      pop\n      pop\n      mload(0x40)\n      dup1\n      swap2\n      sub\n      swap1\n      revert\n    tag_430:\n        /* \"openzeppelin-solidity/contracts/math/SafeMath.sol\":3283:3284  b */\n      dup2\n        /* \"openzeppelin-solidity/contracts/math/SafeMath.sol\":3279:3280  a */\n      dup4\n        /* \"openzeppelin-solidity/contracts/math/SafeMath.sol\":3279:3284  a - b */\n      sub\n        /* \"openzeppelin-solidity/contracts/math/SafeMath.sol\":3272:3284  return a - b */\n      swap1\n      pop\n        /* \"openzeppelin-solidity/contracts/math/SafeMath.sol\":3136:3291  function sub(uint256 a, uint256 b) internal pure returns (uint256) {... */\n      swap3\n      swap2\n      pop\n      pop\n      jump\t// out\n        /* \"openzeppelin-solidity/contracts/math/SafeMath.sol\":2690:2865  function add(uint256 a, uint256 b) internal pure returns (uint256) {... */\n    tag_379:\n        /* \"openzeppelin-solidity/contracts/math/SafeMath.sol\":2748:2755  uint256 */\n      0x00\n        /* \"openzeppelin-solidity/contracts/math/SafeMath.sol\":2767:2776  uint256 c */\n      dup1\n        /* \"openzeppelin-solidity/contracts/math/SafeMath.sol\":2783:2784  b */\n      dup3\n        /* \"openzeppelin-solidity/contracts/math/SafeMath.sol\":2779:2780  a */\n      dup5\n        /* \"openzeppelin-solidity/contracts/math/SafeMath.sol\":2779:2784  a + b */\n      add\n        /* \"openzeppelin-solidity/contracts/math/SafeMath.sol\":2767:2784  uint256 c = a + b */\n      swap1\n      pop\n        /* \"openzeppelin-solidity/contracts/math/SafeMath.sol\":2807:2808  a */\n      dup4\n        /* \"openzeppelin-solidity/contracts/math/SafeMath.sol\":2802:2803  c */\n      dup2\n        /* \"openzeppelin-solidity/contracts/math/SafeMath.sol\":2802:2808  c >= a */\n      lt\n      iszero\n        /* \"openzeppelin-solidity/contracts/math/SafeMath.sol\":2794:2840  require(c >= a, \"SafeMath: addition overflow\") */\n      tag_432\n      jumpi\n      mload(0x40)\n      0x08c379a000000000000000000000000000000000000000000000000000000000\n      dup2\n      mstore\n      0x04\n      add\n      dup1\n      dup1\n      0x20\n      add\n      dup3\n      dup2\n      sub\n      dup3\n      mstore\n      0x1b\n      dup2\n      mstore\n      0x20\n      add\n      dup1\n      0x536166654d6174683a206164646974696f6e206f766572666c6f770000000000\n      dup2\n      mstore\n      pop\n      0x20\n      add\n      swap2\n      pop\n      pop\n      mload(0x40)\n      dup1\n      swap2\n      sub\n      swap1\n      revert\n    tag_432:\n        /* \"openzeppelin-solidity/contracts/math/SafeMath.sol\":2857:2858  c */\n      dup1\n        /* \"openzeppelin-solidity/contracts/math/SafeMath.sol\":2850:2858  return c */\n      swap2\n      pop\n      pop\n        /* \"openzeppelin-solidity/contracts/math/SafeMath.sol\":2690:2865  function add(uint256 a, uint256 b) internal pure returns (uint256) {... */\n      swap3\n      swap2\n      pop\n      pop\n      jump\t// out\n    stop\n    data_245f15ff17f551913a7a18385165551503906a406f905ac1c2437281a7cd0cfe 4f776e61626c653a206e6577206f776e657220697320746865207a65726f2061646472657373\n    data_86dad8cf4db38f1d66896d8fc7630a7eb736d97bdbed9415a623aff2c5dfc19b 506172746974696f6e2073686f756c642062652048454c445f465245455f504152544954494f4e206f72205452414e5349545f504152544954494f4e206f7220554e434f4e4649524d45445f504152544954494f4e20\n\n    auxdata: 0xa2646970667358221220121a8bf5e3dc0028aacceab4975787a52094af2e1c1b563d5c8ebeaf87faff9164736f6c634300060c0033\n}\n",
				"bytecode": {
					"linkReferences": {},
					"object": "60806040523480156200001157600080fd5b50600062000024620000c860201b60201c565b9050806000806101000a81548173ffffffffffffffffffffffffffffffffffffffff021916908373ffffffffffffffffffffffffffffffffffffffff1602179055508073ffffffffffffffffffffffffffffffffffffffff16600073ffffffffffffffffffffffffffffffffffffffff167f8be0079c531659141344cd1fd0a4f28419497f9722a3daafe3b4186f6b6457e060405160405180910390a350620000d0565b600033905090565b614b4480620000e06000396000f3fe608060405234801561001057600080fd5b50600436106101e55760003560e01c80638da5cb5b1161010f578063be45fd62116100a2578063f2e3564711610071578063f2e3564714611156578063f2fde38b146111ba578063f3d490db146111fe578063fad8b32a146112bf576101e5565b8063be45fd6214610f06578063c01f3d6514610fbd578063d7d5b92814610fdb578063e77c646d146110d3576101e5565b8063a82a4a62116100de578063a82a4a6214610bef578063ac78162714610ce7578063b6363cf214610de9578063bb3acde914610e63576101e5565b80638da5cb5b1461095f578063959b8c3f146109935780639945e70e146109d75780639d6232fa14610ae8576101e5565b80634ad12aa41161018757806370a082311161015657806370a082311461072e578063715018a614610786578063740ab8f4146107905780638c0dee9c14610829576101e5565b80634ad12aa41461044457806362eb00681461057057806367c84919146105fd5780636d77cad6146106aa576101e5565b806313d557bc116101c357806313d557bc14610274578063168ecec51461037657806318160ddd146103c457806330e82803146103e2576101e5565b8063054426ce146101ea5780630d361c0a14610208578063103ef9e114610226575b600080fd5b6101f2611303565b6040518082815260200191505060405180910390f35b61021061132a565b6040518082815260200191505060405180910390f35b6102726004803603604081101561023c57600080fd5b8101908080359060200190929190803573ffffffffffffffffffffffffffffffffffffffff169060200190929190505050611351565b005b610374600480360360a081101561028a57600080fd5b8101908080359060200190929190803573ffffffffffffffffffffffffffffffffffffffff16906020019092919080359060200190929190803590602001906401000000008111156102db57600080fd5b8201836020820111156102ed57600080fd5b8035906020019184600183028401116401000000008311171561030f57600080fd5b90919293919293908035906020019064010000000081111561033057600080fd5b82018360208201111561034257600080fd5b8035906020019184600183028401116401000000008311171561036457600080fd5b9091929391929390505050611456565b005b6103c26004803603604081101561038c57600080fd5b8101908080359060200190929190803573ffffffffffffffffffffffffffffffffffffffff169060200190929190505050611626565b005b6103cc61172b565b6040518082815260200191505060405180910390f35b61042e600480360360408110156103f857600080fd5b8101908080359060200190929190803573ffffffffffffffffffffffffffffffffffffffff169060200190929190505050611735565b6040518082815260200191505060405180910390f35b61055a600480360360a081101561045a57600080fd5b81019080803573ffffffffffffffffffffffffffffffffffffffff169060200190929190803573ffffffffffffffffffffffffffffffffffffffff16906020019092919080359060200190929190803590602001906401000000008111156104c157600080fd5b8201836020820111156104d357600080fd5b803590602001918460018302840111640100000000831117156104f557600080fd5b90919293919293908035906020019064010000000081111561051657600080fd5b82018360208201111561052857600080fd5b8035906020019184600183028401116401000000008311171561054a57600080fd5b9091929391929390505050611807565b6040518082815260200191505060405180910390f35b6105fb6004803603606081101561058657600080fd5b810190808035906020019092919080359060200190929190803590602001906401000000008111156105b757600080fd5b8201836020820111156105c957600080fd5b803590602001918460018302840111640100000000831117156105eb57600080fd5b9091929391929390505050611961565b005b6106a86004803603608081101561061357600080fd5b8101908080359060200190929190803573ffffffffffffffffffffffffffffffffffffffff169060200190929190803590602001909291908035906020019064010000000081111561066457600080fd5b82018360208201111561067657600080fd5b8035906020019184600183028401116401000000008311171561069857600080fd5b90919293919293905050506119c9565b005b610716600480360360608110156106c057600080fd5b8101908080359060200190929190803573ffffffffffffffffffffffffffffffffffffffff169060200190929190803573ffffffffffffffffffffffffffffffffffffffff169060200190929190505050611adf565b60405180821515815260200191505060405180910390f35b6107706004803603602081101561074457600080fd5b81019080803573ffffffffffffffffffffffffffffffffffffffff169060200190929190505050611b85565b6040518082815260200191505060405180910390f35b61078e611bce565b005b6107d2600480360360208110156107a657600080fd5b81019080803573ffffffffffffffffffffffffffffffffffffffff169060200190929190505050611d3b565b6040518080602001828103825283818151815260200191508051906020019060200280838360005b838110156108155780820151818401526020810190506107fa565b505050509050019250505060405180910390f35b610949600480360360c081101561083f57600080fd5b8101908080359060200190929190803573ffffffffffffffffffffffffffffffffffffffff169060200190929190803573ffffffffffffffffffffffffffffffffffffffff16906020019092919080359060200190929190803590602001906401000000008111156108b057600080fd5b8201836020820111156108c257600080fd5b803590602001918460018302840111640100000000831117156108e457600080fd5b90919293919293908035906020019064010000000081111561090557600080fd5b82018360208201111561091757600080fd5b8035906020019184600183028401116401000000008311171561093957600080fd5b9091929391929390505050611ea1565b6040518082815260200191505060405180910390f35b610967611fd4565b604051808273ffffffffffffffffffffffffffffffffffffffff16815260200191505060405180910390f35b6109d5600480360360208110156109a957600080fd5b81019080803573ffffffffffffffffffffffffffffffffffffffff169060200190929190505050611ffd565b005b610aa2600480360360a08110156109ed57600080fd5b81019080803573ffffffffffffffffffffffffffffffffffffffff169060200190929190803573ffffffffffffffffffffffffffffffffffffffff169060200190929190803590602001909291908035906020019092919080359060200190640100000000811115610a5e57600080fd5b820183602082011115610a7057600080fd5b80359060200191846001830284011164010000000083111715610a9257600080fd5b90919293919293905050506120ef565b60405180847effffffffffffffffffffffffffffffffffffffffffffffffffffffffffffff19168152602001838152602001828152602001935050505060405180910390f35b610ba960048036036080811015610afe57600080fd5b81019080803573ffffffffffffffffffffffffffffffffffffffff169060200190929190803573ffffffffffffffffffffffffffffffffffffffff1690602001909291908035906020019092919080359060200190640100000000811115610b6557600080fd5b820183602082011115610b7757600080fd5b80359060200191846001830284011164010000000083111715610b9957600080fd5b90919293919293905050506123a4565b60405180847effffffffffffffffffffffffffffffffffffffffffffffffffffffffffffff19168152602001838152602001828152602001935050505060405180910390f35b610ce560048036036080811015610c0557600080fd5b81019080803573ffffffffffffffffffffffffffffffffffffffff1690602001909291908035906020019092919080359060200190640100000000811115610c4c57600080fd5b820183602082011115610c5e57600080fd5b80359060200191846001830284011164010000000083111715610c8057600080fd5b909192939192939080359060200190640100000000811115610ca157600080fd5b820183602082011115610cb357600080fd5b80359060200191846001830284011164010000000083111715610cd557600080fd5b9091929391929390505050612684565b005b610de7600480360360a0811015610cfd57600080fd5b8101908080359060200190929190803573ffffffffffffffffffffffffffffffffffffffff1690602001909291908035906020019092919080359060200190640100000000811115610d4e57600080fd5b820183602082011115610d6057600080fd5b80359060200191846001830284011164010000000083111715610d8257600080fd5b909192939192939080359060200190640100000000811115610da357600080fd5b820183602082011115610db557600080fd5b80359060200191846001830284011164010000000083111715610dd757600080fd5b90919293919293905050506127d8565b005b610e4b60048036036040811015610dff57600080fd5b81019080803573ffffffffffffffffffffffffffffffffffffffff169060200190929190803573ffffffffffffffffffffffffffffffffffffffff169060200190929190505050612904565b60405180821515815260200191505060405180910390f35b610f0460048036036060811015610e7957600080fd5b81019080803573ffffffffffffffffffffffffffffffffffffffff1690602001909291908035906020019092919080359060200190640100000000811115610ec057600080fd5b820183602082011115610ed257600080fd5b80359060200191846001830284011164010000000083111715610ef457600080fd5b9091929391929390505050612998565b005b610fa760048036036060811015610f1c57600080fd5b81019080803573ffffffffffffffffffffffffffffffffffffffff1690602001909291908035906020019092919080359060200190640100000000811115610f6357600080fd5b820183602082011115610f7557600080fd5b80359060200191846001830284011164010000000083111715610f9757600080fd5b9091929391929390505050612ad6565b6040518082815260200191505060405180910390f35b610fc5612b6b565b6040518082815260200191505060405180910390f35b6110d160048036036080811015610ff157600080fd5b81019080803573ffffffffffffffffffffffffffffffffffffffff169060200190929190803590602001909291908035906020019064010000000081111561103857600080fd5b82018360208201111561104a57600080fd5b8035906020019184600183028401116401000000008311171561106c57600080fd5b90919293919293908035906020019064010000000081111561108d57600080fd5b82018360208201111561109f57600080fd5b803590602001918460018302840111640100000000831117156110c157600080fd5b9091929391929390505050612b92565b005b611154600480360360408110156110e957600080fd5b81019080803590602001909291908035906020019064010000000081111561111057600080fd5b82018360208201111561112257600080fd5b8035906020019184600183028401116401000000008311171561114457600080fd5b9091929391929390505050612d8a565b005b6111a26004803603604081101561116c57600080fd5b8101908080359060200190929190803573ffffffffffffffffffffffffffffffffffffffff169060200190929190505050612e14565b60405180821515815260200191505060405180910390f35b6111fc600480360360208110156111d057600080fd5b81019080803573ffffffffffffffffffffffffffffffffffffffff169060200190929190505050612eec565b005b6112a96004803603608081101561121457600080fd5b8101908080359060200190929190803573ffffffffffffffffffffffffffffffffffffffff169060200190929190803590602001909291908035906020019064010000000081111561126557600080fd5b82018360208201111561127757600080fd5b8035906020019184600183028401116401000000008311171561129957600080fd5b90919293919293905050506130de565b6040518082815260200191505060405180910390f35b611301600480360360208110156112d557600080fd5b81019080803573ffffffffffffffffffffffffffffffffffffffff16906020019092919050505061314c565b005b7f746573760000000000000000000000000000000000000000000000000000000060001b81565b7f746573740000000000000000000000000000000000000000000000000000000060001b81565b6001600560003373ffffffffffffffffffffffffffffffffffffffff1673ffffffffffffffffffffffffffffffffffffffff168152602001908152602001600020600084815260200190815260200160002060008373ffffffffffffffffffffffffffffffffffffffff1673ffffffffffffffffffffffffffffffffffffffff16815260200190815260200160002060006101000a81548160ff0219169083151502179055503373ffffffffffffffffffffffffffffffffffffffff168173ffffffffffffffffffffffffffffffffffffffff16837f3646a897c70797ecc134b0adc32f471b07bf1d6f451133b0384badab531e3fd660405160405180910390a45050565b600073ffffffffffffffffffffffffffffffffffffffff168673ffffffffffffffffffffffffffffffffffffffff1614156114f9576040517f08c379a00000000000000000000000000000000000000000000000000000000081526004018080602001828103825260148152602001807f496e76616c69642066726f6d206164647265737300000000000000000000000081525060200191505060405180910390fd5b6115033387612904565b806115155750611514873388611adf565b5b611587576040517f08c379a000000000000000000000000000000000000000000000000000000000815260040180806020018281038252600e8152602001807f4e6f7420617574686f726973656400000000000000000000000000000000000081525060200191505060405180910390fd5b61161d8787338888888080601f016020809104026020016040519081016040528093929190818152602001838380828437600081840152601f19601f8201169050808301925050505050505087878080601f016020809104026020016040519081016040528093929190818152602001838380828437600081840152601f19601f8201169050808301925050505050505061323e565b50505050505050565b6000600560003373ffffffffffffffffffffffffffffffffffffffff1673ffffffffffffffffffffffffffffffffffffffff168152602001908152602001600020600084815260200190815260200160002060008373ffffffffffffffffffffffffffffffffffffffff1673ffffffffffffffffffffffffffffffffffffffff16815260200190815260200160002060006101000a81548160ff0219169083151502179055503373ffffffffffffffffffffffffffffffffffffffff168173ffffffffffffffffffffffffffffffffffffffff16837f3b287c4f1bab4df949b33bceacef984f544dc5d5479930d00e4ee8c9d8dd96f260405160405180910390a45050565b6000600154905090565b60006117418383613727565b156117fc57600360008373ffffffffffffffffffffffffffffffffffffffff1673ffffffffffffffffffffffffffffffffffffffff1681526020019081526020016000206001600460008573ffffffffffffffffffffffffffffffffffffffff1673ffffffffffffffffffffffffffffffffffffffff16815260200190815260200160002060008681526020019081526020016000205403815481106117e357fe5b9060005260206000209060020201600001549050611801565b600090505b92915050565b6000807f746573740000000000000000000000000000000000000000000000000000000060001b905061183a338a612904565b8061184c575061184b81338b611adf565b5b6118be576040517f08c379a000000000000000000000000000000000000000000000000000000000815260040180806020018281038252600e8152602001807f4e6f7420617574686f726973656400000000000000000000000000000000000081525060200191505060405180910390fd5b611955898989848a8a8080601f016020809104026020016040519081016040528093929190818152602001838380828437600081840152601f19601f82011690508083019250505050505050338a8a8080601f016020809104026020016040519081016040528093929190818152602001838380828437600081840152601f19601f82011690508083019250505050505050613832565b50979650505050505050565b6119c3843360008686868080601f016020809104026020016040519081016040528093929190818152602001838380828437600081840152601f19601f820116905080830192505050505050506040518060200160405280600081525061323e565b50505050565b6119d161408c565b73ffffffffffffffffffffffffffffffffffffffff166119ef611fd4565b73ffffffffffffffffffffffffffffffffffffffff1614611a78576040517f08c379a00000000000000000000000000000000000000000000000000000000081526004018080602001828103825260208152602001807f4f776e61626c653a2063616c6c6572206973206e6f7420746865206f776e657281525060200191505060405180910390fd5b611ad885858585858080601f016020809104026020016040519081016040528093929190818152602001838380828437600081840152601f19601f8201169050808301925050505050505060405180602001604052806000815250614094565b5050505050565b6000600560008373ffffffffffffffffffffffffffffffffffffffff1673ffffffffffffffffffffffffffffffffffffffff168152602001908152602001600020600085815260200190815260200160002060008473ffffffffffffffffffffffffffffffffffffffff1673ffffffffffffffffffffffffffffffffffffffff16815260200190815260200160002060009054906101000a900460ff1690509392505050565b6000600260008373ffffffffffffffffffffffffffffffffffffffff1673ffffffffffffffffffffffffffffffffffffffff168152602001908152602001600020549050919050565b611bd661408c565b73ffffffffffffffffffffffffffffffffffffffff16611bf4611fd4565b73ffffffffffffffffffffffffffffffffffffffff1614611c7d576040517f08c379a00000000000000000000000000000000000000000000000000000000081526004018080602001828103825260208152602001807f4f776e61626c653a2063616c6c6572206973206e6f7420746865206f776e657281525060200191505060405180910390fd5b600073ffffffffffffffffffffffffffffffffffffffff1660008054906101000a900473ffffffffffffffffffffffffffffffffffffffff1673ffffffffffffffffffffffffffffffffffffffff167f8be0079c531659141344cd1fd0a4f28419497f9722a3daafe3b4186f6b6457e060405160405180910390a360008060006101000a81548173ffffffffffffffffffffffffffffffffffffffff021916908373ffffffffffffffffffffffffffffffffffffffff160217905550565b606080600360008473ffffffffffffffffffffffffffffffffffffffff1673ffffffffffffffffffffffffffffffffffffffff1681526020019081526020016000208054905067ffffffffffffffff81118015611d9757600080fd5b50604051908082528060200260200182016040528015611dc65781602001602082028036833780820191505090505b50905060005b600360008573ffffffffffffffffffffffffffffffffffffffff1673ffffffffffffffffffffffffffffffffffffffff16815260200190815260200160002080549050811015611e9757600360008573ffffffffffffffffffffffffffffffffffffffff1673ffffffffffffffffffffffffffffffffffffffff1681526020019081526020016000208181548110611e6057fe5b906000526020600020906002020160010154828281518110611e7e57fe5b6020026020010181815250508080600101915050611dcc565b5080915050919050565b6000611ead3389612904565b80611ebf5750611ebe89338a611adf565b5b611f31576040517f08c379a000000000000000000000000000000000000000000000000000000000815260040180806020018281038252600e8152602001807f4e6f7420617574686f726973656400000000000000000000000000000000000081525060200191505060405180910390fd5b611fc88888888c89898080601f016020809104026020016040519081016040528093929190818152602001838380828437600081840152601f19601f820116905080830192505050505050503389898080601f016020809104026020016040519081016040528093929190818152602001838380828437600081840152601f19601f82011690508083019250505050505050613832565b98975050505050505050565b60008060009054906101000a900473ffffffffffffffffffffffffffffffffffffffff16905090565b6001600660003373ffffffffffffffffffffffffffffffffffffffff1673ffffffffffffffffffffffffffffffffffffffff16815260200190815260200160002060008373ffffffffffffffffffffffffffffffffffffffff1673ffffffffffffffffffffffffffffffffffffffff16815260200190815260200160002060006101000a81548160ff0219169083151502179055503373ffffffffffffffffffffffffffffffffffffffff168173ffffffffffffffffffffffffffffffffffffffff167ff4caeb2d6ca8932a215a353d0703c326ec2d81fc68170f320eb2ab49e9df61f960405160405180910390a350565b60008060006120fe878a613727565b61213957605060008160f81b91507f506172746974696f6e206e6f742065786973747300000000000000000000000090925092509250612398565b85600360008b73ffffffffffffffffffffffffffffffffffffffff1673ffffffffffffffffffffffffffffffffffffffff168152602001908152602001600020600460008c73ffffffffffffffffffffffffffffffffffffffff1673ffffffffffffffffffffffffffffffffffffffff16815260200190815260200160002060008a815260200190815260200160002054815481106121d457fe5b906000526020600020906002020160000154101561222357605260008160f81b91507f496e737566666963656e742062616c616e63650000000000000000000000000090925092509250612398565b600073ffffffffffffffffffffffffffffffffffffffff168873ffffffffffffffffffffffffffffffffffffffff16141561228f57605760008160f81b91507f496e76616c69642072656365697665720000000000000000000000000000000090925092509250612398565b6122d8600260008b73ffffffffffffffffffffffffffffffffffffffff1673ffffffffffffffffffffffffffffffffffffffff1681526020019081526020016000205487614516565b158061232a5750612328600260008a73ffffffffffffffffffffffffffffffffffffffff1673ffffffffffffffffffffffffffffffffffffffff1681526020019081526020016000205487614533565b155b1561236657605060008160f81b91507f4f766572666c6f7700000000000000000000000000000000000000000000000090925092509250612398565b6051878160f81b91507f5375636365737300000000000000000000000000000000000000000000000000909250925092505b96509650969350505050565b6000806000807f746573740000000000000000000000000000000000000000000000000000000060001b90506123da818a613727565b61241657605060008160f81b91507f506172746974696f6e206e6f74206578697374730000000000000000000000009093509350935050612679565b86600360008b73ffffffffffffffffffffffffffffffffffffffff1673ffffffffffffffffffffffffffffffffffffffff168152602001908152602001600020600460008c73ffffffffffffffffffffffffffffffffffffffff1673ffffffffffffffffffffffffffffffffffffffff168152602001908152602001600020600084815260200190815260200160002054815481106124b157fe5b906000526020600020906002020160000154101561250157605260008160f81b91507f496e737566666963656e742062616c616e6365000000000000000000000000009093509350935050612679565b600073ffffffffffffffffffffffffffffffffffffffff168873ffffffffffffffffffffffffffffffffffffffff16141561256e57605760008160f81b91507f496e76616c6964207265636569766572000000000000000000000000000000009093509350935050612679565b6125b7600260008b73ffffffffffffffffffffffffffffffffffffffff1673ffffffffffffffffffffffffffffffffffffffff1681526020019081526020016000205488614516565b15806126095750612607600260008a73ffffffffffffffffffffffffffffffffffffffff1673ffffffffffffffffffffffffffffffffffffffff1681526020019081526020016000205488614533565b155b1561264657605060008160f81b91507f4f766572666c6f770000000000000000000000000000000000000000000000009093509350935050612679565b6051818160f81b91507f537563636573730000000000000000000000000000000000000000000000000090935093509350505b955095509592505050565b60007f746573740000000000000000000000000000000000000000000000000000000060001b90506126b63388612904565b806126c857506126c7813389611adf565b5b61273a576040517f08c379a000000000000000000000000000000000000000000000000000000000815260040180806020018281038252600e8152602001807f4e6f7420617574686f726973656400000000000000000000000000000000000081525060200191505060405180910390fd5b6127cf81888888888080601f016020809104026020016040519081016040528093929190818152602001838380828437600081840152601f19601f8201169050808301925050505050505087878080601f016020809104026020016040519081016040528093929190818152602001838380828437600081840152601f19601f82011690508083019250505050505050614094565b50505050505050565b6127e23387612904565b806127f457506127f3873388611adf565b5b612866576040517f08c379a000000000000000000000000000000000000000000000000000000000815260040180806020018281038252600e8152602001807f4e6f7420617574686f726973656400000000000000000000000000000000000081525060200191505060405180910390fd5b6128fb87878787878080601f016020809104026020016040519081016040528093929190818152602001838380828437600081840152601f19601f8201169050808301925050505050505086868080601f016020809104026020016040519081016040528093929190818152602001838380828437600081840152601f19601f82011690508083019250505050505050614094565b50505050505050565b6000600660008373ffffffffffffffffffffffffffffffffffffffff1673ffffffffffffffffffffffffffffffffffffffff16815260200190815260200160002060008473ffffffffffffffffffffffffffffffffffffffff1673ffffffffffffffffffffffffffffffffffffffff16815260200190815260200160002060009054906101000a900460ff16905092915050565b6129a061408c565b73ffffffffffffffffffffffffffffffffffffffff166129be611fd4565b73ffffffffffffffffffffffffffffffffffffffff1614612a47576040517f08c379a00000000000000000000000000000000000000000000000000000000081526004018080602001828103825260208152602001807f4f776e61626c653a2063616c6c6572206973206e6f7420746865206f776e657281525060200191505060405180910390fd5b60007f746573740000000000000000000000000000000000000000000000000000000060001b9050612acf81868686868080601f016020809104026020016040519081016040528093929190818152602001838380828437600081840152601f19601f8201169050808301925050505050505060405180602001604052806000815250614094565b5050505050565b6000807f746573740000000000000000000000000000000000000000000000000000000060001b9050612b623387878488888080601f016020809104026020016040519081016040528093929190818152602001838380828437600081840152601f19601f82011690508083019250505050505050600060405180602001604052806000815250613832565b50949350505050565b7f746573780000000000000000000000000000000000000000000000000000000060001b81565b60007f746573740000000000000000000000000000000000000000000000000000000060001b9050600073ffffffffffffffffffffffffffffffffffffffff168773ffffffffffffffffffffffffffffffffffffffff161415612c5d576040517f08c379a00000000000000000000000000000000000000000000000000000000081526004018080602001828103825260148152602001807f496e76616c69642066726f6d206164647265737300000000000000000000000081525060200191505060405180910390fd5b612c673388612904565b80612c795750612c78813389611adf565b5b612ceb576040517f08c379a000000000000000000000000000000000000000000000000000000000815260040180806020018281038252600e8152602001807f4e6f7420617574686f726973656400000000000000000000000000000000000081525060200191505060405180910390fd5b612d818188338989898080601f016020809104026020016040519081016040528093929190818152602001838380828437600081840152601f19601f8201169050808301925050505050505088888080601f016020809104026020016040519081016040528093929190818152602001838380828437600081840152601f19601f8201169050808301925050505050505061323e565b50505050505050565b612e0f7f746573740000000000000000000000000000000000000000000000000000000060001b3360008686868080601f016020809104026020016040519081016040528093929190818152602001838380828437600081840152601f19601f820116905080830192505050505050506040518060200160405280600081525061323e565b505050565b600080600090505b600360008473ffffffffffffffffffffffffffffffffffffffff1673ffffffffffffffffffffffffffffffffffffffff16815260200190815260200160002080549050811015612ee05783600360008573ffffffffffffffffffffffffffffffffffffffff1673ffffffffffffffffffffffffffffffffffffffff1681526020019081526020016000208281548110612eb157fe5b9060005260206000209060020201600101541415612ed3576001915050612ee6565b8080600101915050612e1c565b50600090505b92915050565b612ef461408c565b73ffffffffffffffffffffffffffffffffffffffff16612f12611fd4565b73ffffffffffffffffffffffffffffffffffffffff1614612f9b576040517f08c379a00000000000000000000000000000000000000000000000000000000081526004018080602001828103825260208152602001807f4f776e61626c653a2063616c6c6572206973206e6f7420746865206f776e657281525060200191505060405180910390fd5b600073ffffffffffffffffffffffffffffffffffffffff168173ffffffffffffffffffffffffffffffffffffffff161415613021576040517f08c379a0000000000000000000000000000000000000000000000000000000008152600401808060200182810382526026815260200180614a936026913960400191505060405180910390fd5b8073ffffffffffffffffffffffffffffffffffffffff1660008054906101000a900473ffffffffffffffffffffffffffffffffffffffff1673ffffffffffffffffffffffffffffffffffffffff167f8be0079c531659141344cd1fd0a4f28419497f9722a3daafe3b4186f6b6457e060405160405180910390a3806000806101000a81548173ffffffffffffffffffffffffffffffffffffffff021916908373ffffffffffffffffffffffffffffffffffffffff16021790555050565b60006131433386868987878080601f016020809104026020016040519081016040528093929190818152602001838380828437600081840152601f19601f82011690508083019250505050505050600060405180602001604052806000815250613832565b95945050505050565b6000600660003373ffffffffffffffffffffffffffffffffffffffff1673ffffffffffffffffffffffffffffffffffffffff16815260200190815260200160002060008373ffffffffffffffffffffffffffffffffffffffff1673ffffffffffffffffffffffffffffffffffffffff16815260200190815260200160002060006101000a81548160ff0219169083151502179055503373ffffffffffffffffffffffffffffffffffffffff168173ffffffffffffffffffffffffffffffffffffffff167f50546e66e5f44d728365dc3908c63bc5cfeeab470722c1677e3073a6ac294aa160405160405180910390a350565b6132488684614559565b6132528686613727565b6132c4576040517f08c379a00000000000000000000000000000000000000000000000000000000081526004018080602001828103825260118152602001807f496e76616c696420706172746974696f6e00000000000000000000000000000081525060200191505060405180910390fd5b60006001600460008873ffffffffffffffffffffffffffffffffffffffff1673ffffffffffffffffffffffffffffffffffffffff16815260200190815260200160002060008981526020019081526020016000205403905083600360008873ffffffffffffffffffffffffffffffffffffffff1673ffffffffffffffffffffffffffffffffffffffff168152602001908152602001600020828154811061336757fe5b90600052602060002090600202016000015410156133ed576040517f08c379a00000000000000000000000000000000000000000000000000000000081526004018080602001828103825260128152602001807f496e73756666696369656e742076616c7565000000000000000000000000000081525060200191505060405180910390fd5b83600360008873ffffffffffffffffffffffffffffffffffffffff1673ffffffffffffffffffffffffffffffffffffffff168152602001908152602001600020828154811061343857fe5b90600052602060002090600202016000015414156134605761345b868883614722565b61352e565b6134ce84600360008973ffffffffffffffffffffffffffffffffffffffff1673ffffffffffffffffffffffffffffffffffffffff16815260200190815260200160002083815481106134ae57fe5b90600052602060002090600202016000015461498790919063ffffffff16565b600360008873ffffffffffffffffffffffffffffffffffffffff1673ffffffffffffffffffffffffffffffffffffffff168152602001908152602001600020828154811061351857fe5b9060005260206000209060020201600001819055505b61358084600260008973ffffffffffffffffffffffffffffffffffffffff1673ffffffffffffffffffffffffffffffffffffffff1681526020019081526020016000205461498790919063ffffffff16565b600260008873ffffffffffffffffffffffffffffffffffffffff1673ffffffffffffffffffffffffffffffffffffffff168152602001908152602001600020819055506135d88460015461498790919063ffffffff16565b6001819055508573ffffffffffffffffffffffffffffffffffffffff168573ffffffffffffffffffffffffffffffffffffffff16887fa4f62471c9bdf88115b97203943c74c59b655913ee5ee592706d84ef53fb6be2878787604051808481526020018060200180602001838103835285818151815260200191508051906020019080838360005b8381101561367b578082015181840152602081019050613660565b50505050905090810190601f1680156136a85780820380516001836020036101000a031916815260200191505b50838103825284818151815260200191508051906020019080838360005b838110156136e15780820151818401526020810190506136c6565b50505050905090810190601f16801561370e5780820380516001836020036101000a031916815260200191505b509550505050505060405180910390a450505050505050565b6000600460008373ffffffffffffffffffffffffffffffffffffffff1673ffffffffffffffffffffffffffffffffffffffff168152602001908152602001600020600084815260200190815260200160002054600360008473ffffffffffffffffffffffffffffffffffffffff1673ffffffffffffffffffffffffffffffffffffffff16815260200190815260200160002080549050108061381957506000600460008473ffffffffffffffffffffffffffffffffffffffff1673ffffffffffffffffffffffffffffffffffffffff168152602001908152602001600020600085815260200190815260200160002054145b15613827576000905061382c565b600190505b92915050565b61383c8488613727565b6138ae576040517f08c379a00000000000000000000000000000000000000000000000000000000081526004018080602001828103825260118152602001807f496e76616c696420706172746974696f6e00000000000000000000000000000081525060200191505060405180910390fd5b84600360008973ffffffffffffffffffffffffffffffffffffffff1673ffffffffffffffffffffffffffffffffffffffff1681526020019081526020016000206001600460008b73ffffffffffffffffffffffffffffffffffffffff1673ffffffffffffffffffffffffffffffffffffffff168152602001908152602001600020600088815260200190815260200160002054038154811061394c57fe5b90600052602060002090600202016000015410156139d2576040517f08c379a00000000000000000000000000000000000000000000000000000000081526004018080602001828103825260148152602001807f496e73756666696369656e742062616c616e636500000000000000000000000081525060200191505060405180910390fd5b600073ffffffffffffffffffffffffffffffffffffffff168673ffffffffffffffffffffffffffffffffffffffff161415613a75576040517f08c379a00000000000000000000000000000000000000000000000000000000081526004018080602001828103825260168152602001807f30782061646472657373206e6f7420616c6c6f7765640000000000000000000081525060200191505060405180910390fd5b60006001600460008a73ffffffffffffffffffffffffffffffffffffffff1673ffffffffffffffffffffffffffffffffffffffff168152602001908152602001600020600087815260200190815260200160002054039050613ad78588612e14565b613c0757600360008873ffffffffffffffffffffffffffffffffffffffff1673ffffffffffffffffffffffffffffffffffffffff16815260200190815260200160002060405180604001604052806000815260200187815250908060018154018082558091505060019003906000526020600020906002020160009091909190915060008201518160000155602082015181600101555050600360008873ffffffffffffffffffffffffffffffffffffffff1673ffffffffffffffffffffffffffffffffffffffff16815260200190815260200160002080549050600460008973ffffffffffffffffffffffffffffffffffffffff1673ffffffffffffffffffffffffffffffffffffffff1681526020019081526020016000206000878152602001908152602001600020819055505b60006001600460008a73ffffffffffffffffffffffffffffffffffffffff1673ffffffffffffffffffffffffffffffffffffffff168152602001908152602001600020600088815260200190815260200160002054039050613ccd87600360008c73ffffffffffffffffffffffffffffffffffffffff1673ffffffffffffffffffffffffffffffffffffffff1681526020019081526020016000208481548110613cad57fe5b90600052602060002090600202016000015461498790919063ffffffff16565b600360008b73ffffffffffffffffffffffffffffffffffffffff1673ffffffffffffffffffffffffffffffffffffffff1681526020019081526020016000208381548110613d1757fe5b906000526020600020906002020160000181905550613d7e87600260008c73ffffffffffffffffffffffffffffffffffffffff1673ffffffffffffffffffffffffffffffffffffffff1681526020019081526020016000205461498790919063ffffffff16565b600260008b73ffffffffffffffffffffffffffffffffffffffff1673ffffffffffffffffffffffffffffffffffffffff16815260200190815260200160002081905550613e2f87600360008b73ffffffffffffffffffffffffffffffffffffffff1673ffffffffffffffffffffffffffffffffffffffff1681526020019081526020016000208381548110613e0f57fe5b906000526020600020906002020160000154614a0a90919063ffffffff16565b600360008a73ffffffffffffffffffffffffffffffffffffffff1673ffffffffffffffffffffffffffffffffffffffff1681526020019081526020016000208281548110613e7957fe5b906000526020600020906002020160000181905550613ee087600260008b73ffffffffffffffffffffffffffffffffffffffff1673ffffffffffffffffffffffffffffffffffffffff16815260200190815260200160002054614a0a90919063ffffffff16565b600260008a73ffffffffffffffffffffffffffffffffffffffff1673ffffffffffffffffffffffffffffffffffffffff168152602001908152602001600020819055508773ffffffffffffffffffffffffffffffffffffffff168973ffffffffffffffffffffffffffffffffffffffff16877fff4e9a26af4eb73b8bacfaa4abd4fea03d9448e7b912dc5ff4019048875aa2d4878b8a89604051808573ffffffffffffffffffffffffffffffffffffffff1681526020018481526020018060200180602001838103835285818151815260200191508051906020019080838360005b83811015613fdd578082015181840152602081019050613fc2565b50505050905090810190601f16801561400a5780820380516001836020036101000a031916815260200191505b50838103825284818151815260200191508051906020019080838360005b83811015614043578082015181840152602081019050614028565b50505050905090810190601f1680156140705780820380516001836020036101000a031916815260200191505b50965050505050505060405180910390a4505050505050505050565b600033905090565b61409e8584614559565b600073ffffffffffffffffffffffffffffffffffffffff168473ffffffffffffffffffffffffffffffffffffffff161415614141576040517f08c379a00000000000000000000000000000000000000000000000000000000081526004018080602001828103825260168152602001807f496e76616c696420746f6b656e2072656365697665720000000000000000000081525060200191505060405180910390fd5b6000600460008673ffffffffffffffffffffffffffffffffffffffff1673ffffffffffffffffffffffffffffffffffffffff168152602001908152602001600020600087815260200190815260200160002054905060008114156142ce57600360008673ffffffffffffffffffffffffffffffffffffffff1673ffffffffffffffffffffffffffffffffffffffff168152602001908152602001600020604051806040016040528086815260200188815250908060018154018082558091505060019003906000526020600020906002020160009091909190915060008201518160000155602082015181600101555050600360008673ffffffffffffffffffffffffffffffffffffffff1673ffffffffffffffffffffffffffffffffffffffff16815260200190815260200160002080549050600460008773ffffffffffffffffffffffffffffffffffffffff1673ffffffffffffffffffffffffffffffffffffffff1681526020019081526020016000206000888152602001908152602001600020819055506143a2565b61433f84600360008873ffffffffffffffffffffffffffffffffffffffff1673ffffffffffffffffffffffffffffffffffffffff168152602001908152602001600020600184038154811061431f57fe5b906000526020600020906002020160000154614a0a90919063ffffffff16565b600360008773ffffffffffffffffffffffffffffffffffffffff1673ffffffffffffffffffffffffffffffffffffffff168152602001908152602001600020600183038154811061438c57fe5b9060005260206000209060020201600001819055505b6143b784600154614a0a90919063ffffffff16565b60018190555061440f84600260008873ffffffffffffffffffffffffffffffffffffffff1673ffffffffffffffffffffffffffffffffffffffff16815260200190815260200160002054614a0a90919063ffffffff16565b600260008773ffffffffffffffffffffffffffffffffffffffff1673ffffffffffffffffffffffffffffffffffffffff168152602001908152602001600020819055508473ffffffffffffffffffffffffffffffffffffffff16867f6032e2468b0f94dfa63c61d6c8a84842a99c049263eae408a52b945020b6578d86866040518083815260200180602001828103825283818151815260200191508051906020019080838360005b838110156144d35780820151818401526020810190506144b8565b50505050905090810190601f1680156145005780820380516001836020036101000a031916815260200191505b50935050505060405180910390a3505050505050565b6000828211614528576001905061452d565b600090505b92915050565b60008082840190508381101561454d576000915050614553565b60019150505b92915050565b60008114156145d0576040517f08c379a00000000000000000000000000000000000000000000000000000000081526004018080602001828103825260168152602001807f5a65726f2076616c7565206e6f7420616c6c6f7765640000000000000000000081525060200191505060405180910390fd5b6000801b821415614649576040517f08c379a00000000000000000000000000000000000000000000000000000000081526004018080602001828103825260118152602001807f496e76616c696420706172746974696f6e00000000000000000000000000000081525060200191505060405180910390fd5b7f746573740000000000000000000000000000000000000000000000000000000060001b82148061469c57507f746573760000000000000000000000000000000000000000000000000000000060001b82145b806146c957507f746573780000000000000000000000000000000000000000000000000000000060001b82145b61471e576040517f08c379a0000000000000000000000000000000000000000000000000000000008152600401808060200182810382526056815260200180614ab96056913960600191505060405180910390fd5b5050565b6001600360008573ffffffffffffffffffffffffffffffffffffffff1673ffffffffffffffffffffffffffffffffffffffff1681526020019081526020016000208054905003811461492e57600360008473ffffffffffffffffffffffffffffffffffffffff1673ffffffffffffffffffffffffffffffffffffffff1681526020019081526020016000206001600360008673ffffffffffffffffffffffffffffffffffffffff1673ffffffffffffffffffffffffffffffffffffffff1681526020019081526020016000208054905003815481106147fd57fe5b9060005260206000209060020201600360008573ffffffffffffffffffffffffffffffffffffffff1673ffffffffffffffffffffffffffffffffffffffff168152602001908152602001600020828154811061485557fe5b9060005260206000209060020201600082015481600001556001820154816001015590505060018101600460008573ffffffffffffffffffffffffffffffffffffffff1673ffffffffffffffffffffffffffffffffffffffff1681526020019081526020016000206000600360008773ffffffffffffffffffffffffffffffffffffffff1673ffffffffffffffffffffffffffffffffffffffff168152602001908152602001600020848154811061490957fe5b9060005260206000209060020201600101548152602001908152602001600020819055505b600460008473ffffffffffffffffffffffffffffffffffffffff1673ffffffffffffffffffffffffffffffffffffffff168152602001908152602001600020600083815260200190815260200160002060009055505050565b6000828211156149ff576040517f08c379a000000000000000000000000000000000000000000000000000000000815260040180806020018281038252601e8152602001807f536166654d6174683a207375627472616374696f6e206f766572666c6f77000081525060200191505060405180910390fd5b818303905092915050565b600080828401905083811015614a88576040517f08c379a000000000000000000000000000000000000000000000000000000000815260040180806020018281038252601b8152602001807f536166654d6174683a206164646974696f6e206f766572666c6f77000000000081525060200191505060405180910390fd5b809150509291505056fe4f776e61626c653a206e6577206f776e657220697320746865207a65726f2061646472657373506172746974696f6e2073686f756c642062652048454c445f465245455f504152544954494f4e206f72205452414e5349545f504152544954494f4e206f7220554e434f4e4649524d45445f504152544954494f4e20a2646970667358221220121a8bf5e3dc0028aacceab4975787a52094af2e1c1b563d5c8ebeaf87faff9164736f6c634300060c0033",
					"opcodes": "PUSH1 0x80 PUSH1 0x40 MSTORE CALLVALUE DUP1 ISZERO PUSH3 0x11 JUMPI PUSH1 0x0 DUP1 REVERT JUMPDEST POP PUSH1 0x0 PUSH3 0x24 PUSH3 0xC8 PUSH1 0x20 SHL PUSH1 0x20 SHR JUMP JUMPDEST SWAP1 POP DUP1 PUSH1 0x0 DUP1 PUSH2 0x100 EXP DUP2 SLOAD DUP2 PUSH20 0xFFFFFFFFFFFFFFFFFFFFFFFFFFFFFFFFFFFFFFFF MUL NOT AND SWAP1 DUP4 PUSH20 0xFFFFFFFFFFFFFFFFFFFFFFFFFFFFFFFFFFFFFFFF AND MUL OR SWAP1 SSTORE POP DUP1 PUSH20 0xFFFFFFFFFFFFFFFFFFFFFFFFFFFFFFFFFFFFFFFF AND PUSH1 0x0 PUSH20 0xFFFFFFFFFFFFFFFFFFFFFFFFFFFFFFFFFFFFFFFF AND PUSH32 0x8BE0079C531659141344CD1FD0A4F28419497F9722A3DAAFE3B4186F6B6457E0 PUSH1 0x40 MLOAD PUSH1 0x40 MLOAD DUP1 SWAP2 SUB SWAP1 LOG3 POP PUSH3 0xD0 JUMP JUMPDEST PUSH1 0x0 CALLER SWAP1 POP SWAP1 JUMP JUMPDEST PUSH2 0x4B44 DUP1 PUSH3 0xE0 PUSH1 0x0 CODECOPY PUSH1 0x0 RETURN INVALID PUSH1 0x80 PUSH1 0x40 MSTORE CALLVALUE DUP1 ISZERO PUSH2 0x10 JUMPI PUSH1 0x0 DUP1 REVERT JUMPDEST POP PUSH1 0x4 CALLDATASIZE LT PUSH2 0x1E5 JUMPI PUSH1 0x0 CALLDATALOAD PUSH1 0xE0 SHR DUP1 PUSH4 0x8DA5CB5B GT PUSH2 0x10F JUMPI DUP1 PUSH4 0xBE45FD62 GT PUSH2 0xA2 JUMPI DUP1 PUSH4 0xF2E35647 GT PUSH2 0x71 JUMPI DUP1 PUSH4 0xF2E35647 EQ PUSH2 0x1156 JUMPI DUP1 PUSH4 0xF2FDE38B EQ PUSH2 0x11BA JUMPI DUP1 PUSH4 0xF3D490DB EQ PUSH2 0x11FE JUMPI DUP1 PUSH4 0xFAD8B32A EQ PUSH2 0x12BF JUMPI PUSH2 0x1E5 JUMP JUMPDEST DUP1 PUSH4 0xBE45FD62 EQ PUSH2 0xF06 JUMPI DUP1 PUSH4 0xC01F3D65 EQ PUSH2 0xFBD JUMPI DUP1 PUSH4 0xD7D5B928 EQ PUSH2 0xFDB JUMPI DUP1 PUSH4 0xE77C646D EQ PUSH2 0x10D3 JUMPI PUSH2 0x1E5 JUMP JUMPDEST DUP1 PUSH4 0xA82A4A62 GT PUSH2 0xDE JUMPI DUP1 PUSH4 0xA82A4A62 EQ PUSH2 0xBEF JUMPI DUP1 PUSH4 0xAC781627 EQ PUSH2 0xCE7 JUMPI DUP1 PUSH4 0xB6363CF2 EQ PUSH2 0xDE9 JUMPI DUP1 PUSH4 0xBB3ACDE9 EQ PUSH2 0xE63 JUMPI PUSH2 0x1E5 JUMP JUMPDEST DUP1 PUSH4 0x8DA5CB5B EQ PUSH2 0x95F JUMPI DUP1 PUSH4 0x959B8C3F EQ PUSH2 0x993 JUMPI DUP1 PUSH4 0x9945E70E EQ PUSH2 0x9D7 JUMPI DUP1 PUSH4 0x9D6232FA EQ PUSH2 0xAE8 JUMPI PUSH2 0x1E5 JUMP JUMPDEST DUP1 PUSH4 0x4AD12AA4 GT PUSH2 0x187 JUMPI DUP1 PUSH4 0x70A08231 GT PUSH2 0x156 JUMPI DUP1 PUSH4 0x70A08231 EQ PUSH2 0x72E JUMPI DUP1 PUSH4 0x715018A6 EQ PUSH2 0x786 JUMPI DUP1 PUSH4 0x740AB8F4 EQ PUSH2 0x790 JUMPI DUP1 PUSH4 0x8C0DEE9C EQ PUSH2 0x829 JUMPI PUSH2 0x1E5 JUMP JUMPDEST DUP1 PUSH4 0x4AD12AA4 EQ PUSH2 0x444 JUMPI DUP1 PUSH4 0x62EB0068 EQ PUSH2 0x570 JUMPI DUP1 PUSH4 0x67C84919 EQ PUSH2 0x5FD JUMPI DUP1 PUSH4 0x6D77CAD6 EQ PUSH2 0x6AA JUMPI PUSH2 0x1E5 JUMP JUMPDEST DUP1 PUSH4 0x13D557BC GT PUSH2 0x1C3 JUMPI DUP1 PUSH4 0x13D557BC EQ PUSH2 0x274 JUMPI DUP1 PUSH4 0x168ECEC5 EQ PUSH2 0x376 JUMPI DUP1 PUSH4 0x18160DDD EQ PUSH2 0x3C4 JUMPI DUP1 PUSH4 0x30E82803 EQ PUSH2 0x3E2 JUMPI PUSH2 0x1E5 JUMP JUMPDEST DUP1 PUSH4 0x54426CE EQ PUSH2 0x1EA JUMPI DUP1 PUSH4 0xD361C0A EQ PUSH2 0x208 JUMPI DUP1 PUSH4 0x103EF9E1 EQ PUSH2 0x226 JUMPI JUMPDEST PUSH1 0x0 DUP1 REVERT JUMPDEST PUSH2 0x1F2 PUSH2 0x1303 JUMP JUMPDEST PUSH1 0x40 MLOAD DUP1 DUP3 DUP2 MSTORE PUSH1 0x20 ADD SWAP2 POP POP PUSH1 0x40 MLOAD DUP1 SWAP2 SUB SWAP1 RETURN JUMPDEST PUSH2 0x210 PUSH2 0x132A JUMP JUMPDEST PUSH1 0x40 MLOAD DUP1 DUP3 DUP2 MSTORE PUSH1 0x20 ADD SWAP2 POP POP PUSH1 0x40 MLOAD DUP1 SWAP2 SUB SWAP1 RETURN JUMPDEST PUSH2 0x272 PUSH1 0x4 DUP1 CALLDATASIZE SUB PUSH1 0x40 DUP2 LT ISZERO PUSH2 0x23C JUMPI PUSH1 0x0 DUP1 REVERT JUMPDEST DUP2 ADD SWAP1 DUP1 DUP1 CALLDATALOAD SWAP1 PUSH1 0x20 ADD SWAP1 SWAP3 SWAP2 SWAP1 DUP1 CALLDATALOAD PUSH20 0xFFFFFFFFFFFFFFFFFFFFFFFFFFFFFFFFFFFFFFFF AND SWAP1 PUSH1 0x20 ADD SWAP1 SWAP3 SWAP2 SWAP1 POP POP POP PUSH2 0x1351 JUMP JUMPDEST STOP JUMPDEST PUSH2 0x374 PUSH1 0x4 DUP1 CALLDATASIZE SUB PUSH1 0xA0 DUP2 LT ISZERO PUSH2 0x28A JUMPI PUSH1 0x0 DUP1 REVERT JUMPDEST DUP2 ADD SWAP1 DUP1 DUP1 CALLDATALOAD SWAP1 PUSH1 0x20 ADD SWAP1 SWAP3 SWAP2 SWAP1 DUP1 CALLDATALOAD PUSH20 0xFFFFFFFFFFFFFFFFFFFFFFFFFFFFFFFFFFFFFFFF AND SWAP1 PUSH1 0x20 ADD SWAP1 SWAP3 SWAP2 SWAP1 DUP1 CALLDATALOAD SWAP1 PUSH1 0x20 ADD SWAP1 SWAP3 SWAP2 SWAP1 DUP1 CALLDATALOAD SWAP1 PUSH1 0x20 ADD SWAP1 PUSH5 0x100000000 DUP2 GT ISZERO PUSH2 0x2DB JUMPI PUSH1 0x0 DUP1 REVERT JUMPDEST DUP3 ADD DUP4 PUSH1 0x20 DUP3 ADD GT ISZERO PUSH2 0x2ED JUMPI PUSH1 0x0 DUP1 REVERT JUMPDEST DUP1 CALLDATALOAD SWAP1 PUSH1 0x20 ADD SWAP2 DUP5 PUSH1 0x1 DUP4 MUL DUP5 ADD GT PUSH5 0x100000000 DUP4 GT OR ISZERO PUSH2 0x30F JUMPI PUSH1 0x0 DUP1 REVERT JUMPDEST SWAP1 SWAP2 SWAP3 SWAP4 SWAP2 SWAP3 SWAP4 SWAP1 DUP1 CALLDATALOAD SWAP1 PUSH1 0x20 ADD SWAP1 PUSH5 0x100000000 DUP2 GT ISZERO PUSH2 0x330 JUMPI PUSH1 0x0 DUP1 REVERT JUMPDEST DUP3 ADD DUP4 PUSH1 0x20 DUP3 ADD GT ISZERO PUSH2 0x342 JUMPI PUSH1 0x0 DUP1 REVERT JUMPDEST DUP1 CALLDATALOAD SWAP1 PUSH1 0x20 ADD SWAP2 DUP5 PUSH1 0x1 DUP4 MUL DUP5 ADD GT PUSH5 0x100000000 DUP4 GT OR ISZERO PUSH2 0x364 JUMPI PUSH1 0x0 DUP1 REVERT JUMPDEST SWAP1 SWAP2 SWAP3 SWAP4 SWAP2 SWAP3 SWAP4 SWAP1 POP POP POP PUSH2 0x1456 JUMP JUMPDEST STOP JUMPDEST PUSH2 0x3C2 PUSH1 0x4 DUP1 CALLDATASIZE SUB PUSH1 0x40 DUP2 LT ISZERO PUSH2 0x38C JUMPI PUSH1 0x0 DUP1 REVERT JUMPDEST DUP2 ADD SWAP1 DUP1 DUP1 CALLDATALOAD SWAP1 PUSH1 0x20 ADD SWAP1 SWAP3 SWAP2 SWAP1 DUP1 CALLDATALOAD PUSH20 0xFFFFFFFFFFFFFFFFFFFFFFFFFFFFFFFFFFFFFFFF AND SWAP1 PUSH1 0x20 ADD SWAP1 SWAP3 SWAP2 SWAP1 POP POP POP PUSH2 0x1626 JUMP JUMPDEST STOP JUMPDEST PUSH2 0x3CC PUSH2 0x172B JUMP JUMPDEST PUSH1 0x40 MLOAD DUP1 DUP3 DUP2 MSTORE PUSH1 0x20 ADD SWAP2 POP POP PUSH1 0x40 MLOAD DUP1 SWAP2 SUB SWAP1 RETURN JUMPDEST PUSH2 0x42E PUSH1 0x4 DUP1 CALLDATASIZE SUB PUSH1 0x40 DUP2 LT ISZERO PUSH2 0x3F8 JUMPI PUSH1 0x0 DUP1 REVERT JUMPDEST DUP2 ADD SWAP1 DUP1 DUP1 CALLDATALOAD SWAP1 PUSH1 0x20 ADD SWAP1 SWAP3 SWAP2 SWAP1 DUP1 CALLDATALOAD PUSH20 0xFFFFFFFFFFFFFFFFFFFFFFFFFFFFFFFFFFFFFFFF AND SWAP1 PUSH1 0x20 ADD SWAP1 SWAP3 SWAP2 SWAP1 POP POP POP PUSH2 0x1735 JUMP JUMPDEST PUSH1 0x40 MLOAD DUP1 DUP3 DUP2 MSTORE PUSH1 0x20 ADD SWAP2 POP POP PUSH1 0x40 MLOAD DUP1 SWAP2 SUB SWAP1 RETURN JUMPDEST PUSH2 0x55A PUSH1 0x4 DUP1 CALLDATASIZE SUB PUSH1 0xA0 DUP2 LT ISZERO PUSH2 0x45A JUMPI PUSH1 0x0 DUP1 REVERT JUMPDEST DUP2 ADD SWAP1 DUP1 DUP1 CALLDATALOAD PUSH20 0xFFFFFFFFFFFFFFFFFFFFFFFFFFFFFFFFFFFFFFFF AND SWAP1 PUSH1 0x20 ADD SWAP1 SWAP3 SWAP2 SWAP1 DUP1 CALLDATALOAD PUSH20 0xFFFFFFFFFFFFFFFFFFFFFFFFFFFFFFFFFFFFFFFF AND SWAP1 PUSH1 0x20 ADD SWAP1 SWAP3 SWAP2 SWAP1 DUP1 CALLDATALOAD SWAP1 PUSH1 0x20 ADD SWAP1 SWAP3 SWAP2 SWAP1 DUP1 CALLDATALOAD SWAP1 PUSH1 0x20 ADD SWAP1 PUSH5 0x100000000 DUP2 GT ISZERO PUSH2 0x4C1 JUMPI PUSH1 0x0 DUP1 REVERT JUMPDEST DUP3 ADD DUP4 PUSH1 0x20 DUP3 ADD GT ISZERO PUSH2 0x4D3 JUMPI PUSH1 0x0 DUP1 REVERT JUMPDEST DUP1 CALLDATALOAD SWAP1 PUSH1 0x20 ADD SWAP2 DUP5 PUSH1 0x1 DUP4 MUL DUP5 ADD GT PUSH5 0x100000000 DUP4 GT OR ISZERO PUSH2 0x4F5 JUMPI PUSH1 0x0 DUP1 REVERT JUMPDEST SWAP1 SWAP2 SWAP3 SWAP4 SWAP2 SWAP3 SWAP4 SWAP1 DUP1 CALLDATALOAD SWAP1 PUSH1 0x20 ADD SWAP1 PUSH5 0x100000000 DUP2 GT ISZERO PUSH2 0x516 JUMPI PUSH1 0x0 DUP1 REVERT JUMPDEST DUP3 ADD DUP4 PUSH1 0x20 DUP3 ADD GT ISZERO PUSH2 0x528 JUMPI PUSH1 0x0 DUP1 REVERT JUMPDEST DUP1 CALLDATALOAD SWAP1 PUSH1 0x20 ADD SWAP2 DUP5 PUSH1 0x1 DUP4 MUL DUP5 ADD GT PUSH5 0x100000000 DUP4 GT OR ISZERO PUSH2 0x54A JUMPI PUSH1 0x0 DUP1 REVERT JUMPDEST SWAP1 SWAP2 SWAP3 SWAP4 SWAP2 SWAP3 SWAP4 SWAP1 POP POP POP PUSH2 0x1807 JUMP JUMPDEST PUSH1 0x40 MLOAD DUP1 DUP3 DUP2 MSTORE PUSH1 0x20 ADD SWAP2 POP POP PUSH1 0x40 MLOAD DUP1 SWAP2 SUB SWAP1 RETURN JUMPDEST PUSH2 0x5FB PUSH1 0x4 DUP1 CALLDATASIZE SUB PUSH1 0x60 DUP2 LT ISZERO PUSH2 0x586 JUMPI PUSH1 0x0 DUP1 REVERT JUMPDEST DUP2 ADD SWAP1 DUP1 DUP1 CALLDATALOAD SWAP1 PUSH1 0x20 ADD SWAP1 SWAP3 SWAP2 SWAP1 DUP1 CALLDATALOAD SWAP1 PUSH1 0x20 ADD SWAP1 SWAP3 SWAP2 SWAP1 DUP1 CALLDATALOAD SWAP1 PUSH1 0x20 ADD SWAP1 PUSH5 0x100000000 DUP2 GT ISZERO PUSH2 0x5B7 JUMPI PUSH1 0x0 DUP1 REVERT JUMPDEST DUP3 ADD DUP4 PUSH1 0x20 DUP3 ADD GT ISZERO PUSH2 0x5C9 JUMPI PUSH1 0x0 DUP1 REVERT JUMPDEST DUP1 CALLDATALOAD SWAP1 PUSH1 0x20 ADD SWAP2 DUP5 PUSH1 0x1 DUP4 MUL DUP5 ADD GT PUSH5 0x100000000 DUP4 GT OR ISZERO PUSH2 0x5EB JUMPI PUSH1 0x0 DUP1 REVERT JUMPDEST SWAP1 SWAP2 SWAP3 SWAP4 SWAP2 SWAP3 SWAP4 SWAP1 POP POP POP PUSH2 0x1961 JUMP JUMPDEST STOP JUMPDEST PUSH2 0x6A8 PUSH1 0x4 DUP1 CALLDATASIZE SUB PUSH1 0x80 DUP2 LT ISZERO PUSH2 0x613 JUMPI PUSH1 0x0 DUP1 REVERT JUMPDEST DUP2 ADD SWAP1 DUP1 DUP1 CALLDATALOAD SWAP1 PUSH1 0x20 ADD SWAP1 SWAP3 SWAP2 SWAP1 DUP1 CALLDATALOAD PUSH20 0xFFFFFFFFFFFFFFFFFFFFFFFFFFFFFFFFFFFFFFFF AND SWAP1 PUSH1 0x20 ADD SWAP1 SWAP3 SWAP2 SWAP1 DUP1 CALLDATALOAD SWAP1 PUSH1 0x20 ADD SWAP1 SWAP3 SWAP2 SWAP1 DUP1 CALLDATALOAD SWAP1 PUSH1 0x20 ADD SWAP1 PUSH5 0x100000000 DUP2 GT ISZERO PUSH2 0x664 JUMPI PUSH1 0x0 DUP1 REVERT JUMPDEST DUP3 ADD DUP4 PUSH1 0x20 DUP3 ADD GT ISZERO PUSH2 0x676 JUMPI PUSH1 0x0 DUP1 REVERT JUMPDEST DUP1 CALLDATALOAD SWAP1 PUSH1 0x20 ADD SWAP2 DUP5 PUSH1 0x1 DUP4 MUL DUP5 ADD GT PUSH5 0x100000000 DUP4 GT OR ISZERO PUSH2 0x698 JUMPI PUSH1 0x0 DUP1 REVERT JUMPDEST SWAP1 SWAP2 SWAP3 SWAP4 SWAP2 SWAP3 SWAP4 SWAP1 POP POP POP PUSH2 0x19C9 JUMP JUMPDEST STOP JUMPDEST PUSH2 0x716 PUSH1 0x4 DUP1 CALLDATASIZE SUB PUSH1 0x60 DUP2 LT ISZERO PUSH2 0x6C0 JUMPI PUSH1 0x0 DUP1 REVERT JUMPDEST DUP2 ADD SWAP1 DUP1 DUP1 CALLDATALOAD SWAP1 PUSH1 0x20 ADD SWAP1 SWAP3 SWAP2 SWAP1 DUP1 CALLDATALOAD PUSH20 0xFFFFFFFFFFFFFFFFFFFFFFFFFFFFFFFFFFFFFFFF AND SWAP1 PUSH1 0x20 ADD SWAP1 SWAP3 SWAP2 SWAP1 DUP1 CALLDATALOAD PUSH20 0xFFFFFFFFFFFFFFFFFFFFFFFFFFFFFFFFFFFFFFFF AND SWAP1 PUSH1 0x20 ADD SWAP1 SWAP3 SWAP2 SWAP1 POP POP POP PUSH2 0x1ADF JUMP JUMPDEST PUSH1 0x40 MLOAD DUP1 DUP3 ISZERO ISZERO DUP2 MSTORE PUSH1 0x20 ADD SWAP2 POP POP PUSH1 0x40 MLOAD DUP1 SWAP2 SUB SWAP1 RETURN JUMPDEST PUSH2 0x770 PUSH1 0x4 DUP1 CALLDATASIZE SUB PUSH1 0x20 DUP2 LT ISZERO PUSH2 0x744 JUMPI PUSH1 0x0 DUP1 REVERT JUMPDEST DUP2 ADD SWAP1 DUP1 DUP1 CALLDATALOAD PUSH20 0xFFFFFFFFFFFFFFFFFFFFFFFFFFFFFFFFFFFFFFFF AND SWAP1 PUSH1 0x20 ADD SWAP1 SWAP3 SWAP2 SWAP1 POP POP POP PUSH2 0x1B85 JUMP JUMPDEST PUSH1 0x40 MLOAD DUP1 DUP3 DUP2 MSTORE PUSH1 0x20 ADD SWAP2 POP POP PUSH1 0x40 MLOAD DUP1 SWAP2 SUB SWAP1 RETURN JUMPDEST PUSH2 0x78E PUSH2 0x1BCE JUMP JUMPDEST STOP JUMPDEST PUSH2 0x7D2 PUSH1 0x4 DUP1 CALLDATASIZE SUB PUSH1 0x20 DUP2 LT ISZERO PUSH2 0x7A6 JUMPI PUSH1 0x0 DUP1 REVERT JUMPDEST DUP2 ADD SWAP1 DUP1 DUP1 CALLDATALOAD PUSH20 0xFFFFFFFFFFFFFFFFFFFFFFFFFFFFFFFFFFFFFFFF AND SWAP1 PUSH1 0x20 ADD SWAP1 SWAP3 SWAP2 SWAP1 POP POP POP PUSH2 0x1D3B JUMP JUMPDEST PUSH1 0x40 MLOAD DUP1 DUP1 PUSH1 0x20 ADD DUP3 DUP2 SUB DUP3 MSTORE DUP4 DUP2 DUP2 MLOAD DUP2 MSTORE PUSH1 0x20 ADD SWAP2 POP DUP1 MLOAD SWAP1 PUSH1 0x20 ADD SWAP1 PUSH1 0x20 MUL DUP1 DUP4 DUP4 PUSH1 0x0 JUMPDEST DUP4 DUP2 LT ISZERO PUSH2 0x815 JUMPI DUP1 DUP3 ADD MLOAD DUP2 DUP5 ADD MSTORE PUSH1 0x20 DUP2 ADD SWAP1 POP PUSH2 0x7FA JUMP JUMPDEST POP POP POP POP SWAP1 POP ADD SWAP3 POP POP POP PUSH1 0x40 MLOAD DUP1 SWAP2 SUB SWAP1 RETURN JUMPDEST PUSH2 0x949 PUSH1 0x4 DUP1 CALLDATASIZE SUB PUSH1 0xC0 DUP2 LT ISZERO PUSH2 0x83F JUMPI PUSH1 0x0 DUP1 REVERT JUMPDEST DUP2 ADD SWAP1 DUP1 DUP1 CALLDATALOAD SWAP1 PUSH1 0x20 ADD SWAP1 SWAP3 SWAP2 SWAP1 DUP1 CALLDATALOAD PUSH20 0xFFFFFFFFFFFFFFFFFFFFFFFFFFFFFFFFFFFFFFFF AND SWAP1 PUSH1 0x20 ADD SWAP1 SWAP3 SWAP2 SWAP1 DUP1 CALLDATALOAD PUSH20 0xFFFFFFFFFFFFFFFFFFFFFFFFFFFFFFFFFFFFFFFF AND SWAP1 PUSH1 0x20 ADD SWAP1 SWAP3 SWAP2 SWAP1 DUP1 CALLDATALOAD SWAP1 PUSH1 0x20 ADD SWAP1 SWAP3 SWAP2 SWAP1 DUP1 CALLDATALOAD SWAP1 PUSH1 0x20 ADD SWAP1 PUSH5 0x100000000 DUP2 GT ISZERO PUSH2 0x8B0 JUMPI PUSH1 0x0 DUP1 REVERT JUMPDEST DUP3 ADD DUP4 PUSH1 0x20 DUP3 ADD GT ISZERO PUSH2 0x8C2 JUMPI PUSH1 0x0 DUP1 REVERT JUMPDEST DUP1 CALLDATALOAD SWAP1 PUSH1 0x20 ADD SWAP2 DUP5 PUSH1 0x1 DUP4 MUL DUP5 ADD GT PUSH5 0x100000000 DUP4 GT OR ISZERO PUSH2 0x8E4 JUMPI PUSH1 0x0 DUP1 REVERT JUMPDEST SWAP1 SWAP2 SWAP3 SWAP4 SWAP2 SWAP3 SWAP4 SWAP1 DUP1 CALLDATALOAD SWAP1 PUSH1 0x20 ADD SWAP1 PUSH5 0x100000000 DUP2 GT ISZERO PUSH2 0x905 JUMPI PUSH1 0x0 DUP1 REVERT JUMPDEST DUP3 ADD DUP4 PUSH1 0x20 DUP3 ADD GT ISZERO PUSH2 0x917 JUMPI PUSH1 0x0 DUP1 REVERT JUMPDEST DUP1 CALLDATALOAD SWAP1 PUSH1 0x20 ADD SWAP2 DUP5 PUSH1 0x1 DUP4 MUL DUP5 ADD GT PUSH5 0x100000000 DUP4 GT OR ISZERO PUSH2 0x939 JUMPI PUSH1 0x0 DUP1 REVERT JUMPDEST SWAP1 SWAP2 SWAP3 SWAP4 SWAP2 SWAP3 SWAP4 SWAP1 POP POP POP PUSH2 0x1EA1 JUMP JUMPDEST PUSH1 0x40 MLOAD DUP1 DUP3 DUP2 MSTORE PUSH1 0x20 ADD SWAP2 POP POP PUSH1 0x40 MLOAD DUP1 SWAP2 SUB SWAP1 RETURN JUMPDEST PUSH2 0x967 PUSH2 0x1FD4 JUMP JUMPDEST PUSH1 0x40 MLOAD DUP1 DUP3 PUSH20 0xFFFFFFFFFFFFFFFFFFFFFFFFFFFFFFFFFFFFFFFF AND DUP2 MSTORE PUSH1 0x20 ADD SWAP2 POP POP PUSH1 0x40 MLOAD DUP1 SWAP2 SUB SWAP1 RETURN JUMPDEST PUSH2 0x9D5 PUSH1 0x4 DUP1 CALLDATASIZE SUB PUSH1 0x20 DUP2 LT ISZERO PUSH2 0x9A9 JUMPI PUSH1 0x0 DUP1 REVERT JUMPDEST DUP2 ADD SWAP1 DUP1 DUP1 CALLDATALOAD PUSH20 0xFFFFFFFFFFFFFFFFFFFFFFFFFFFFFFFFFFFFFFFF AND SWAP1 PUSH1 0x20 ADD SWAP1 SWAP3 SWAP2 SWAP1 POP POP POP PUSH2 0x1FFD JUMP JUMPDEST STOP JUMPDEST PUSH2 0xAA2 PUSH1 0x4 DUP1 CALLDATASIZE SUB PUSH1 0xA0 DUP2 LT ISZERO PUSH2 0x9ED JUMPI PUSH1 0x0 DUP1 REVERT JUMPDEST DUP2 ADD SWAP1 DUP1 DUP1 CALLDATALOAD PUSH20 0xFFFFFFFFFFFFFFFFFFFFFFFFFFFFFFFFFFFFFFFF AND SWAP1 PUSH1 0x20 ADD SWAP1 SWAP3 SWAP2 SWAP1 DUP1 CALLDATALOAD PUSH20 0xFFFFFFFFFFFFFFFFFFFFFFFFFFFFFFFFFFFFFFFF AND SWAP1 PUSH1 0x20 ADD SWAP1 SWAP3 SWAP2 SWAP1 DUP1 CALLDATALOAD SWAP1 PUSH1 0x20 ADD SWAP1 SWAP3 SWAP2 SWAP1 DUP1 CALLDATALOAD SWAP1 PUSH1 0x20 ADD SWAP1 SWAP3 SWAP2 SWAP1 DUP1 CALLDATALOAD SWAP1 PUSH1 0x20 ADD SWAP1 PUSH5 0x100000000 DUP2 GT ISZERO PUSH2 0xA5E JUMPI PUSH1 0x0 DUP1 REVERT JUMPDEST DUP3 ADD DUP4 PUSH1 0x20 DUP3 ADD GT ISZERO PUSH2 0xA70 JUMPI PUSH1 0x0 DUP1 REVERT JUMPDEST DUP1 CALLDATALOAD SWAP1 PUSH1 0x20 ADD SWAP2 DUP5 PUSH1 0x1 DUP4 MUL DUP5 ADD GT PUSH5 0x100000000 DUP4 GT OR ISZERO PUSH2 0xA92 JUMPI PUSH1 0x0 DUP1 REVERT JUMPDEST SWAP1 SWAP2 SWAP3 SWAP4 SWAP2 SWAP3 SWAP4 SWAP1 POP POP POP PUSH2 0x20EF JUMP JUMPDEST PUSH1 0x40 MLOAD DUP1 DUP5 PUSH31 0xFFFFFFFFFFFFFFFFFFFFFFFFFFFFFFFFFFFFFFFFFFFFFFFFFFFFFFFFFFFFFF NOT AND DUP2 MSTORE PUSH1 0x20 ADD DUP4 DUP2 MSTORE PUSH1 0x20 ADD DUP3 DUP2 MSTORE PUSH1 0x20 ADD SWAP4 POP POP POP POP PUSH1 0x40 MLOAD DUP1 SWAP2 SUB SWAP1 RETURN JUMPDEST PUSH2 0xBA9 PUSH1 0x4 DUP1 CALLDATASIZE SUB PUSH1 0x80 DUP2 LT ISZERO PUSH2 0xAFE JUMPI PUSH1 0x0 DUP1 REVERT JUMPDEST DUP2 ADD SWAP1 DUP1 DUP1 CALLDATALOAD PUSH20 0xFFFFFFFFFFFFFFFFFFFFFFFFFFFFFFFFFFFFFFFF AND SWAP1 PUSH1 0x20 ADD SWAP1 SWAP3 SWAP2 SWAP1 DUP1 CALLDATALOAD PUSH20 0xFFFFFFFFFFFFFFFFFFFFFFFFFFFFFFFFFFFFFFFF AND SWAP1 PUSH1 0x20 ADD SWAP1 SWAP3 SWAP2 SWAP1 DUP1 CALLDATALOAD SWAP1 PUSH1 0x20 ADD SWAP1 SWAP3 SWAP2 SWAP1 DUP1 CALLDATALOAD SWAP1 PUSH1 0x20 ADD SWAP1 PUSH5 0x100000000 DUP2 GT ISZERO PUSH2 0xB65 JUMPI PUSH1 0x0 DUP1 REVERT JUMPDEST DUP3 ADD DUP4 PUSH1 0x20 DUP3 ADD GT ISZERO PUSH2 0xB77 JUMPI PUSH1 0x0 DUP1 REVERT JUMPDEST DUP1 CALLDATALOAD SWAP1 PUSH1 0x20 ADD SWAP2 DUP5 PUSH1 0x1 DUP4 MUL DUP5 ADD GT PUSH5 0x100000000 DUP4 GT OR ISZERO PUSH2 0xB99 JUMPI PUSH1 0x0 DUP1 REVERT JUMPDEST SWAP1 SWAP2 SWAP3 SWAP4 SWAP2 SWAP3 SWAP4 SWAP1 POP POP POP PUSH2 0x23A4 JUMP JUMPDEST PUSH1 0x40 MLOAD DUP1 DUP5 PUSH31 0xFFFFFFFFFFFFFFFFFFFFFFFFFFFFFFFFFFFFFFFFFFFFFFFFFFFFFFFFFFFFFF NOT AND DUP2 MSTORE PUSH1 0x20 ADD DUP4 DUP2 MSTORE PUSH1 0x20 ADD DUP3 DUP2 MSTORE PUSH1 0x20 ADD SWAP4 POP POP POP POP PUSH1 0x40 MLOAD DUP1 SWAP2 SUB SWAP1 RETURN JUMPDEST PUSH2 0xCE5 PUSH1 0x4 DUP1 CALLDATASIZE SUB PUSH1 0x80 DUP2 LT ISZERO PUSH2 0xC05 JUMPI PUSH1 0x0 DUP1 REVERT JUMPDEST DUP2 ADD SWAP1 DUP1 DUP1 CALLDATALOAD PUSH20 0xFFFFFFFFFFFFFFFFFFFFFFFFFFFFFFFFFFFFFFFF AND SWAP1 PUSH1 0x20 ADD SWAP1 SWAP3 SWAP2 SWAP1 DUP1 CALLDATALOAD SWAP1 PUSH1 0x20 ADD SWAP1 SWAP3 SWAP2 SWAP1 DUP1 CALLDATALOAD SWAP1 PUSH1 0x20 ADD SWAP1 PUSH5 0x100000000 DUP2 GT ISZERO PUSH2 0xC4C JUMPI PUSH1 0x0 DUP1 REVERT JUMPDEST DUP3 ADD DUP4 PUSH1 0x20 DUP3 ADD GT ISZERO PUSH2 0xC5E JUMPI PUSH1 0x0 DUP1 REVERT JUMPDEST DUP1 CALLDATALOAD SWAP1 PUSH1 0x20 ADD SWAP2 DUP5 PUSH1 0x1 DUP4 MUL DUP5 ADD GT PUSH5 0x100000000 DUP4 GT OR ISZERO PUSH2 0xC80 JUMPI PUSH1 0x0 DUP1 REVERT JUMPDEST SWAP1 SWAP2 SWAP3 SWAP4 SWAP2 SWAP3 SWAP4 SWAP1 DUP1 CALLDATALOAD SWAP1 PUSH1 0x20 ADD SWAP1 PUSH5 0x100000000 DUP2 GT ISZERO PUSH2 0xCA1 JUMPI PUSH1 0x0 DUP1 REVERT JUMPDEST DUP3 ADD DUP4 PUSH1 0x20 DUP3 ADD GT ISZERO PUSH2 0xCB3 JUMPI PUSH1 0x0 DUP1 REVERT JUMPDEST DUP1 CALLDATALOAD SWAP1 PUSH1 0x20 ADD SWAP2 DUP5 PUSH1 0x1 DUP4 MUL DUP5 ADD GT PUSH5 0x100000000 DUP4 GT OR ISZERO PUSH2 0xCD5 JUMPI PUSH1 0x0 DUP1 REVERT JUMPDEST SWAP1 SWAP2 SWAP3 SWAP4 SWAP2 SWAP3 SWAP4 SWAP1 POP POP POP PUSH2 0x2684 JUMP JUMPDEST STOP JUMPDEST PUSH2 0xDE7 PUSH1 0x4 DUP1 CALLDATASIZE SUB PUSH1 0xA0 DUP2 LT ISZERO PUSH2 0xCFD JUMPI PUSH1 0x0 DUP1 REVERT JUMPDEST DUP2 ADD SWAP1 DUP1 DUP1 CALLDATALOAD SWAP1 PUSH1 0x20 ADD SWAP1 SWAP3 SWAP2 SWAP1 DUP1 CALLDATALOAD PUSH20 0xFFFFFFFFFFFFFFFFFFFFFFFFFFFFFFFFFFFFFFFF AND SWAP1 PUSH1 0x20 ADD SWAP1 SWAP3 SWAP2 SWAP1 DUP1 CALLDATALOAD SWAP1 PUSH1 0x20 ADD SWAP1 SWAP3 SWAP2 SWAP1 DUP1 CALLDATALOAD SWAP1 PUSH1 0x20 ADD SWAP1 PUSH5 0x100000000 DUP2 GT ISZERO PUSH2 0xD4E JUMPI PUSH1 0x0 DUP1 REVERT JUMPDEST DUP3 ADD DUP4 PUSH1 0x20 DUP3 ADD GT ISZERO PUSH2 0xD60 JUMPI PUSH1 0x0 DUP1 REVERT JUMPDEST DUP1 CALLDATALOAD SWAP1 PUSH1 0x20 ADD SWAP2 DUP5 PUSH1 0x1 DUP4 MUL DUP5 ADD GT PUSH5 0x100000000 DUP4 GT OR ISZERO PUSH2 0xD82 JUMPI PUSH1 0x0 DUP1 REVERT JUMPDEST SWAP1 SWAP2 SWAP3 SWAP4 SWAP2 SWAP3 SWAP4 SWAP1 DUP1 CALLDATALOAD SWAP1 PUSH1 0x20 ADD SWAP1 PUSH5 0x100000000 DUP2 GT ISZERO PUSH2 0xDA3 JUMPI PUSH1 0x0 DUP1 REVERT JUMPDEST DUP3 ADD DUP4 PUSH1 0x20 DUP3 ADD GT ISZERO PUSH2 0xDB5 JUMPI PUSH1 0x0 DUP1 REVERT JUMPDEST DUP1 CALLDATALOAD SWAP1 PUSH1 0x20 ADD SWAP2 DUP5 PUSH1 0x1 DUP4 MUL DUP5 ADD GT PUSH5 0x100000000 DUP4 GT OR ISZERO PUSH2 0xDD7 JUMPI PUSH1 0x0 DUP1 REVERT JUMPDEST SWAP1 SWAP2 SWAP3 SWAP4 SWAP2 SWAP3 SWAP4 SWAP1 POP POP POP PUSH2 0x27D8 JUMP JUMPDEST STOP JUMPDEST PUSH2 0xE4B PUSH1 0x4 DUP1 CALLDATASIZE SUB PUSH1 0x40 DUP2 LT ISZERO PUSH2 0xDFF JUMPI PUSH1 0x0 DUP1 REVERT JUMPDEST DUP2 ADD SWAP1 DUP1 DUP1 CALLDATALOAD PUSH20 0xFFFFFFFFFFFFFFFFFFFFFFFFFFFFFFFFFFFFFFFF AND SWAP1 PUSH1 0x20 ADD SWAP1 SWAP3 SWAP2 SWAP1 DUP1 CALLDATALOAD PUSH20 0xFFFFFFFFFFFFFFFFFFFFFFFFFFFFFFFFFFFFFFFF AND SWAP1 PUSH1 0x20 ADD SWAP1 SWAP3 SWAP2 SWAP1 POP POP POP PUSH2 0x2904 JUMP JUMPDEST PUSH1 0x40 MLOAD DUP1 DUP3 ISZERO ISZERO DUP2 MSTORE PUSH1 0x20 ADD SWAP2 POP POP PUSH1 0x40 MLOAD DUP1 SWAP2 SUB SWAP1 RETURN JUMPDEST PUSH2 0xF04 PUSH1 0x4 DUP1 CALLDATASIZE SUB PUSH1 0x60 DUP2 LT ISZERO PUSH2 0xE79 JUMPI PUSH1 0x0 DUP1 REVERT JUMPDEST DUP2 ADD SWAP1 DUP1 DUP1 CALLDATALOAD PUSH20 0xFFFFFFFFFFFFFFFFFFFFFFFFFFFFFFFFFFFFFFFF AND SWAP1 PUSH1 0x20 ADD SWAP1 SWAP3 SWAP2 SWAP1 DUP1 CALLDATALOAD SWAP1 PUSH1 0x20 ADD SWAP1 SWAP3 SWAP2 SWAP1 DUP1 CALLDATALOAD SWAP1 PUSH1 0x20 ADD SWAP1 PUSH5 0x100000000 DUP2 GT ISZERO PUSH2 0xEC0 JUMPI PUSH1 0x0 DUP1 REVERT JUMPDEST DUP3 ADD DUP4 PUSH1 0x20 DUP3 ADD GT ISZERO PUSH2 0xED2 JUMPI PUSH1 0x0 DUP1 REVERT JUMPDEST DUP1 CALLDATALOAD SWAP1 PUSH1 0x20 ADD SWAP2 DUP5 PUSH1 0x1 DUP4 MUL DUP5 ADD GT PUSH5 0x100000000 DUP4 GT OR ISZERO PUSH2 0xEF4 JUMPI PUSH1 0x0 DUP1 REVERT JUMPDEST SWAP1 SWAP2 SWAP3 SWAP4 SWAP2 SWAP3 SWAP4 SWAP1 POP POP POP PUSH2 0x2998 JUMP JUMPDEST STOP JUMPDEST PUSH2 0xFA7 PUSH1 0x4 DUP1 CALLDATASIZE SUB PUSH1 0x60 DUP2 LT ISZERO PUSH2 0xF1C JUMPI PUSH1 0x0 DUP1 REVERT JUMPDEST DUP2 ADD SWAP1 DUP1 DUP1 CALLDATALOAD PUSH20 0xFFFFFFFFFFFFFFFFFFFFFFFFFFFFFFFFFFFFFFFF AND SWAP1 PUSH1 0x20 ADD SWAP1 SWAP3 SWAP2 SWAP1 DUP1 CALLDATALOAD SWAP1 PUSH1 0x20 ADD SWAP1 SWAP3 SWAP2 SWAP1 DUP1 CALLDATALOAD SWAP1 PUSH1 0x20 ADD SWAP1 PUSH5 0x100000000 DUP2 GT ISZERO PUSH2 0xF63 JUMPI PUSH1 0x0 DUP1 REVERT JUMPDEST DUP3 ADD DUP4 PUSH1 0x20 DUP3 ADD GT ISZERO PUSH2 0xF75 JUMPI PUSH1 0x0 DUP1 REVERT JUMPDEST DUP1 CALLDATALOAD SWAP1 PUSH1 0x20 ADD SWAP2 DUP5 PUSH1 0x1 DUP4 MUL DUP5 ADD GT PUSH5 0x100000000 DUP4 GT OR ISZERO PUSH2 0xF97 JUMPI PUSH1 0x0 DUP1 REVERT JUMPDEST SWAP1 SWAP2 SWAP3 SWAP4 SWAP2 SWAP3 SWAP4 SWAP1 POP POP POP PUSH2 0x2AD6 JUMP JUMPDEST PUSH1 0x40 MLOAD DUP1 DUP3 DUP2 MSTORE PUSH1 0x20 ADD SWAP2 POP POP PUSH1 0x40 MLOAD DUP1 SWAP2 SUB SWAP1 RETURN JUMPDEST PUSH2 0xFC5 PUSH2 0x2B6B JUMP JUMPDEST PUSH1 0x40 MLOAD DUP1 DUP3 DUP2 MSTORE PUSH1 0x20 ADD SWAP2 POP POP PUSH1 0x40 MLOAD DUP1 SWAP2 SUB SWAP1 RETURN JUMPDEST PUSH2 0x10D1 PUSH1 0x4 DUP1 CALLDATASIZE SUB PUSH1 0x80 DUP2 LT ISZERO PUSH2 0xFF1 JUMPI PUSH1 0x0 DUP1 REVERT JUMPDEST DUP2 ADD SWAP1 DUP1 DUP1 CALLDATALOAD PUSH20 0xFFFFFFFFFFFFFFFFFFFFFFFFFFFFFFFFFFFFFFFF AND SWAP1 PUSH1 0x20 ADD SWAP1 SWAP3 SWAP2 SWAP1 DUP1 CALLDATALOAD SWAP1 PUSH1 0x20 ADD SWAP1 SWAP3 SWAP2 SWAP1 DUP1 CALLDATALOAD SWAP1 PUSH1 0x20 ADD SWAP1 PUSH5 0x100000000 DUP2 GT ISZERO PUSH2 0x1038 JUMPI PUSH1 0x0 DUP1 REVERT JUMPDEST DUP3 ADD DUP4 PUSH1 0x20 DUP3 ADD GT ISZERO PUSH2 0x104A JUMPI PUSH1 0x0 DUP1 REVERT JUMPDEST DUP1 CALLDATALOAD SWAP1 PUSH1 0x20 ADD SWAP2 DUP5 PUSH1 0x1 DUP4 MUL DUP5 ADD GT PUSH5 0x100000000 DUP4 GT OR ISZERO PUSH2 0x106C JUMPI PUSH1 0x0 DUP1 REVERT JUMPDEST SWAP1 SWAP2 SWAP3 SWAP4 SWAP2 SWAP3 SWAP4 SWAP1 DUP1 CALLDATALOAD SWAP1 PUSH1 0x20 ADD SWAP1 PUSH5 0x100000000 DUP2 GT ISZERO PUSH2 0x108D JUMPI PUSH1 0x0 DUP1 REVERT JUMPDEST DUP3 ADD DUP4 PUSH1 0x20 DUP3 ADD GT ISZERO PUSH2 0x109F JUMPI PUSH1 0x0 DUP1 REVERT JUMPDEST DUP1 CALLDATALOAD SWAP1 PUSH1 0x20 ADD SWAP2 DUP5 PUSH1 0x1 DUP4 MUL DUP5 ADD GT PUSH5 0x100000000 DUP4 GT OR ISZERO PUSH2 0x10C1 JUMPI PUSH1 0x0 DUP1 REVERT JUMPDEST SWAP1 SWAP2 SWAP3 SWAP4 SWAP2 SWAP3 SWAP4 SWAP1 POP POP POP PUSH2 0x2B92 JUMP JUMPDEST STOP JUMPDEST PUSH2 0x1154 PUSH1 0x4 DUP1 CALLDATASIZE SUB PUSH1 0x40 DUP2 LT ISZERO PUSH2 0x10E9 JUMPI PUSH1 0x0 DUP1 REVERT JUMPDEST DUP2 ADD SWAP1 DUP1 DUP1 CALLDATALOAD SWAP1 PUSH1 0x20 ADD SWAP1 SWAP3 SWAP2 SWAP1 DUP1 CALLDATALOAD SWAP1 PUSH1 0x20 ADD SWAP1 PUSH5 0x100000000 DUP2 GT ISZERO PUSH2 0x1110 JUMPI PUSH1 0x0 DUP1 REVERT JUMPDEST DUP3 ADD DUP4 PUSH1 0x20 DUP3 ADD GT ISZERO PUSH2 0x1122 JUMPI PUSH1 0x0 DUP1 REVERT JUMPDEST DUP1 CALLDATALOAD SWAP1 PUSH1 0x20 ADD SWAP2 DUP5 PUSH1 0x1 DUP4 MUL DUP5 ADD GT PUSH5 0x100000000 DUP4 GT OR ISZERO PUSH2 0x1144 JUMPI PUSH1 0x0 DUP1 REVERT JUMPDEST SWAP1 SWAP2 SWAP3 SWAP4 SWAP2 SWAP3 SWAP4 SWAP1 POP POP POP PUSH2 0x2D8A JUMP JUMPDEST STOP JUMPDEST PUSH2 0x11A2 PUSH1 0x4 DUP1 CALLDATASIZE SUB PUSH1 0x40 DUP2 LT ISZERO PUSH2 0x116C JUMPI PUSH1 0x0 DUP1 REVERT JUMPDEST DUP2 ADD SWAP1 DUP1 DUP1 CALLDATALOAD SWAP1 PUSH1 0x20 ADD SWAP1 SWAP3 SWAP2 SWAP1 DUP1 CALLDATALOAD PUSH20 0xFFFFFFFFFFFFFFFFFFFFFFFFFFFFFFFFFFFFFFFF AND SWAP1 PUSH1 0x20 ADD SWAP1 SWAP3 SWAP2 SWAP1 POP POP POP PUSH2 0x2E14 JUMP JUMPDEST PUSH1 0x40 MLOAD DUP1 DUP3 ISZERO ISZERO DUP2 MSTORE PUSH1 0x20 ADD SWAP2 POP POP PUSH1 0x40 MLOAD DUP1 SWAP2 SUB SWAP1 RETURN JUMPDEST PUSH2 0x11FC PUSH1 0x4 DUP1 CALLDATASIZE SUB PUSH1 0x20 DUP2 LT ISZERO PUSH2 0x11D0 JUMPI PUSH1 0x0 DUP1 REVERT JUMPDEST DUP2 ADD SWAP1 DUP1 DUP1 CALLDATALOAD PUSH20 0xFFFFFFFFFFFFFFFFFFFFFFFFFFFFFFFFFFFFFFFF AND SWAP1 PUSH1 0x20 ADD SWAP1 SWAP3 SWAP2 SWAP1 POP POP POP PUSH2 0x2EEC JUMP JUMPDEST STOP JUMPDEST PUSH2 0x12A9 PUSH1 0x4 DUP1 CALLDATASIZE SUB PUSH1 0x80 DUP2 LT ISZERO PUSH2 0x1214 JUMPI PUSH1 0x0 DUP1 REVERT JUMPDEST DUP2 ADD SWAP1 DUP1 DUP1 CALLDATALOAD SWAP1 PUSH1 0x20 ADD SWAP1 SWAP3 SWAP2 SWAP1 DUP1 CALLDATALOAD PUSH20 0xFFFFFFFFFFFFFFFFFFFFFFFFFFFFFFFFFFFFFFFF AND SWAP1 PUSH1 0x20 ADD SWAP1 SWAP3 SWAP2 SWAP1 DUP1 CALLDATALOAD SWAP1 PUSH1 0x20 ADD SWAP1 SWAP3 SWAP2 SWAP1 DUP1 CALLDATALOAD SWAP1 PUSH1 0x20 ADD SWAP1 PUSH5 0x100000000 DUP2 GT ISZERO PUSH2 0x1265 JUMPI PUSH1 0x0 DUP1 REVERT JUMPDEST DUP3 ADD DUP4 PUSH1 0x20 DUP3 ADD GT ISZERO PUSH2 0x1277 JUMPI PUSH1 0x0 DUP1 REVERT JUMPDEST DUP1 CALLDATALOAD SWAP1 PUSH1 0x20 ADD SWAP2 DUP5 PUSH1 0x1 DUP4 MUL DUP5 ADD GT PUSH5 0x100000000 DUP4 GT OR ISZERO PUSH2 0x1299 JUMPI PUSH1 0x0 DUP1 REVERT JUMPDEST SWAP1 SWAP2 SWAP3 SWAP4 SWAP2 SWAP3 SWAP4 SWAP1 POP POP POP PUSH2 0x30DE JUMP JUMPDEST PUSH1 0x40 MLOAD DUP1 DUP3 DUP2 MSTORE PUSH1 0x20 ADD SWAP2 POP POP PUSH1 0x40 MLOAD DUP1 SWAP2 SUB SWAP1 RETURN JUMPDEST PUSH2 0x1301 PUSH1 0x4 DUP1 CALLDATASIZE SUB PUSH1 0x20 DUP2 LT ISZERO PUSH2 0x12D5 JUMPI PUSH1 0x0 DUP1 REVERT JUMPDEST DUP2 ADD SWAP1 DUP1 DUP1 CALLDATALOAD PUSH20 0xFFFFFFFFFFFFFFFFFFFFFFFFFFFFFFFFFFFFFFFF AND SWAP1 PUSH1 0x20 ADD SWAP1 SWAP3 SWAP2 SWAP1 POP POP POP PUSH2 0x314C JUMP JUMPDEST STOP JUMPDEST PUSH32 0x7465737600000000000000000000000000000000000000000000000000000000 PUSH1 0x0 SHL DUP2 JUMP JUMPDEST PUSH32 0x7465737400000000000000000000000000000000000000000000000000000000 PUSH1 0x0 SHL DUP2 JUMP JUMPDEST PUSH1 0x1 PUSH1 0x5 PUSH1 0x0 CALLER PUSH20 0xFFFFFFFFFFFFFFFFFFFFFFFFFFFFFFFFFFFFFFFF AND PUSH20 0xFFFFFFFFFFFFFFFFFFFFFFFFFFFFFFFFFFFFFFFF AND DUP2 MSTORE PUSH1 0x20 ADD SWAP1 DUP2 MSTORE PUSH1 0x20 ADD PUSH1 0x0 KECCAK256 PUSH1 0x0 DUP5 DUP2 MSTORE PUSH1 0x20 ADD SWAP1 DUP2 MSTORE PUSH1 0x20 ADD PUSH1 0x0 KECCAK256 PUSH1 0x0 DUP4 PUSH20 0xFFFFFFFFFFFFFFFFFFFFFFFFFFFFFFFFFFFFFFFF AND PUSH20 0xFFFFFFFFFFFFFFFFFFFFFFFFFFFFFFFFFFFFFFFF AND DUP2 MSTORE PUSH1 0x20 ADD SWAP1 DUP2 MSTORE PUSH1 0x20 ADD PUSH1 0x0 KECCAK256 PUSH1 0x0 PUSH2 0x100 EXP DUP2 SLOAD DUP2 PUSH1 0xFF MUL NOT AND SWAP1 DUP4 ISZERO ISZERO MUL OR SWAP1 SSTORE POP CALLER PUSH20 0xFFFFFFFFFFFFFFFFFFFFFFFFFFFFFFFFFFFFFFFF AND DUP2 PUSH20 0xFFFFFFFFFFFFFFFFFFFFFFFFFFFFFFFFFFFFFFFF AND DUP4 PUSH32 0x3646A897C70797ECC134B0ADC32F471B07BF1D6F451133B0384BADAB531E3FD6 PUSH1 0x40 MLOAD PUSH1 0x40 MLOAD DUP1 SWAP2 SUB SWAP1 LOG4 POP POP JUMP JUMPDEST PUSH1 0x0 PUSH20 0xFFFFFFFFFFFFFFFFFFFFFFFFFFFFFFFFFFFFFFFF AND DUP7 PUSH20 0xFFFFFFFFFFFFFFFFFFFFFFFFFFFFFFFFFFFFFFFF AND EQ ISZERO PUSH2 0x14F9 JUMPI PUSH1 0x40 MLOAD PUSH32 0x8C379A000000000000000000000000000000000000000000000000000000000 DUP2 MSTORE PUSH1 0x4 ADD DUP1 DUP1 PUSH1 0x20 ADD DUP3 DUP2 SUB DUP3 MSTORE PUSH1 0x14 DUP2 MSTORE PUSH1 0x20 ADD DUP1 PUSH32 0x496E76616C69642066726F6D2061646472657373000000000000000000000000 DUP2 MSTORE POP PUSH1 0x20 ADD SWAP2 POP POP PUSH1 0x40 MLOAD DUP1 SWAP2 SUB SWAP1 REVERT JUMPDEST PUSH2 0x1503 CALLER DUP8 PUSH2 0x2904 JUMP JUMPDEST DUP1 PUSH2 0x1515 JUMPI POP PUSH2 0x1514 DUP8 CALLER DUP9 PUSH2 0x1ADF JUMP JUMPDEST JUMPDEST PUSH2 0x1587 JUMPI PUSH1 0x40 MLOAD PUSH32 0x8C379A000000000000000000000000000000000000000000000000000000000 DUP2 MSTORE PUSH1 0x4 ADD DUP1 DUP1 PUSH1 0x20 ADD DUP3 DUP2 SUB DUP3 MSTORE PUSH1 0xE DUP2 MSTORE PUSH1 0x20 ADD DUP1 PUSH32 0x4E6F7420617574686F7269736564000000000000000000000000000000000000 DUP2 MSTORE POP PUSH1 0x20 ADD SWAP2 POP POP PUSH1 0x40 MLOAD DUP1 SWAP2 SUB SWAP1 REVERT JUMPDEST PUSH2 0x161D DUP8 DUP8 CALLER DUP9 DUP9 DUP9 DUP1 DUP1 PUSH1 0x1F ADD PUSH1 0x20 DUP1 SWAP2 DIV MUL PUSH1 0x20 ADD PUSH1 0x40 MLOAD SWAP1 DUP2 ADD PUSH1 0x40 MSTORE DUP1 SWAP4 SWAP3 SWAP2 SWAP1 DUP2 DUP2 MSTORE PUSH1 0x20 ADD DUP4 DUP4 DUP1 DUP3 DUP5 CALLDATACOPY PUSH1 0x0 DUP2 DUP5 ADD MSTORE PUSH1 0x1F NOT PUSH1 0x1F DUP3 ADD AND SWAP1 POP DUP1 DUP4 ADD SWAP3 POP POP POP POP POP POP POP DUP8 DUP8 DUP1 DUP1 PUSH1 0x1F ADD PUSH1 0x20 DUP1 SWAP2 DIV MUL PUSH1 0x20 ADD PUSH1 0x40 MLOAD SWAP1 DUP2 ADD PUSH1 0x40 MSTORE DUP1 SWAP4 SWAP3 SWAP2 SWAP1 DUP2 DUP2 MSTORE PUSH1 0x20 ADD DUP4 DUP4 DUP1 DUP3 DUP5 CALLDATACOPY PUSH1 0x0 DUP2 DUP5 ADD MSTORE PUSH1 0x1F NOT PUSH1 0x1F DUP3 ADD AND SWAP1 POP DUP1 DUP4 ADD SWAP3 POP POP POP POP POP POP POP PUSH2 0x323E JUMP JUMPDEST POP POP POP POP POP POP POP JUMP JUMPDEST PUSH1 0x0 PUSH1 0x5 PUSH1 0x0 CALLER PUSH20 0xFFFFFFFFFFFFFFFFFFFFFFFFFFFFFFFFFFFFFFFF AND PUSH20 0xFFFFFFFFFFFFFFFFFFFFFFFFFFFFFFFFFFFFFFFF AND DUP2 MSTORE PUSH1 0x20 ADD SWAP1 DUP2 MSTORE PUSH1 0x20 ADD PUSH1 0x0 KECCAK256 PUSH1 0x0 DUP5 DUP2 MSTORE PUSH1 0x20 ADD SWAP1 DUP2 MSTORE PUSH1 0x20 ADD PUSH1 0x0 KECCAK256 PUSH1 0x0 DUP4 PUSH20 0xFFFFFFFFFFFFFFFFFFFFFFFFFFFFFFFFFFFFFFFF AND PUSH20 0xFFFFFFFFFFFFFFFFFFFFFFFFFFFFFFFFFFFFFFFF AND DUP2 MSTORE PUSH1 0x20 ADD SWAP1 DUP2 MSTORE PUSH1 0x20 ADD PUSH1 0x0 KECCAK256 PUSH1 0x0 PUSH2 0x100 EXP DUP2 SLOAD DUP2 PUSH1 0xFF MUL NOT AND SWAP1 DUP4 ISZERO ISZERO MUL OR SWAP1 SSTORE POP CALLER PUSH20 0xFFFFFFFFFFFFFFFFFFFFFFFFFFFFFFFFFFFFFFFF AND DUP2 PUSH20 0xFFFFFFFFFFFFFFFFFFFFFFFFFFFFFFFFFFFFFFFF AND DUP4 PUSH32 0x3B287C4F1BAB4DF949B33BCEACEF984F544DC5D5479930D00E4EE8C9D8DD96F2 PUSH1 0x40 MLOAD PUSH1 0x40 MLOAD DUP1 SWAP2 SUB SWAP1 LOG4 POP POP JUMP JUMPDEST PUSH1 0x0 PUSH1 0x1 SLOAD SWAP1 POP SWAP1 JUMP JUMPDEST PUSH1 0x0 PUSH2 0x1741 DUP4 DUP4 PUSH2 0x3727 JUMP JUMPDEST ISZERO PUSH2 0x17FC JUMPI PUSH1 0x3 PUSH1 0x0 DUP4 PUSH20 0xFFFFFFFFFFFFFFFFFFFFFFFFFFFFFFFFFFFFFFFF AND PUSH20 0xFFFFFFFFFFFFFFFFFFFFFFFFFFFFFFFFFFFFFFFF AND DUP2 MSTORE PUSH1 0x20 ADD SWAP1 DUP2 MSTORE PUSH1 0x20 ADD PUSH1 0x0 KECCAK256 PUSH1 0x1 PUSH1 0x4 PUSH1 0x0 DUP6 PUSH20 0xFFFFFFFFFFFFFFFFFFFFFFFFFFFFFFFFFFFFFFFF AND PUSH20 0xFFFFFFFFFFFFFFFFFFFFFFFFFFFFFFFFFFFFFFFF AND DUP2 MSTORE PUSH1 0x20 ADD SWAP1 DUP2 MSTORE PUSH1 0x20 ADD PUSH1 0x0 KECCAK256 PUSH1 0x0 DUP7 DUP2 MSTORE PUSH1 0x20 ADD SWAP1 DUP2 MSTORE PUSH1 0x20 ADD PUSH1 0x0 KECCAK256 SLOAD SUB DUP2 SLOAD DUP2 LT PUSH2 0x17E3 JUMPI INVALID JUMPDEST SWAP1 PUSH1 0x0 MSTORE PUSH1 0x20 PUSH1 0x0 KECCAK256 SWAP1 PUSH1 0x2 MUL ADD PUSH1 0x0 ADD SLOAD SWAP1 POP PUSH2 0x1801 JUMP JUMPDEST PUSH1 0x0 SWAP1 POP JUMPDEST SWAP3 SWAP2 POP POP JUMP JUMPDEST PUSH1 0x0 DUP1 PUSH32 0x7465737400000000000000000000000000000000000000000000000000000000 PUSH1 0x0 SHL SWAP1 POP PUSH2 0x183A CALLER DUP11 PUSH2 0x2904 JUMP JUMPDEST DUP1 PUSH2 0x184C JUMPI POP PUSH2 0x184B DUP2 CALLER DUP12 PUSH2 0x1ADF JUMP JUMPDEST JUMPDEST PUSH2 0x18BE JUMPI PUSH1 0x40 MLOAD PUSH32 0x8C379A000000000000000000000000000000000000000000000000000000000 DUP2 MSTORE PUSH1 0x4 ADD DUP1 DUP1 PUSH1 0x20 ADD DUP3 DUP2 SUB DUP3 MSTORE PUSH1 0xE DUP2 MSTORE PUSH1 0x20 ADD DUP1 PUSH32 0x4E6F7420617574686F7269736564000000000000000000000000000000000000 DUP2 MSTORE POP PUSH1 0x20 ADD SWAP2 POP POP PUSH1 0x40 MLOAD DUP1 SWAP2 SUB SWAP1 REVERT JUMPDEST PUSH2 0x1955 DUP10 DUP10 DUP10 DUP5 DUP11 DUP11 DUP1 DUP1 PUSH1 0x1F ADD PUSH1 0x20 DUP1 SWAP2 DIV MUL PUSH1 0x20 ADD PUSH1 0x40 MLOAD SWAP1 DUP2 ADD PUSH1 0x40 MSTORE DUP1 SWAP4 SWAP3 SWAP2 SWAP1 DUP2 DUP2 MSTORE PUSH1 0x20 ADD DUP4 DUP4 DUP1 DUP3 DUP5 CALLDATACOPY PUSH1 0x0 DUP2 DUP5 ADD MSTORE PUSH1 0x1F NOT PUSH1 0x1F DUP3 ADD AND SWAP1 POP DUP1 DUP4 ADD SWAP3 POP POP POP POP POP POP POP CALLER DUP11 DUP11 DUP1 DUP1 PUSH1 0x1F ADD PUSH1 0x20 DUP1 SWAP2 DIV MUL PUSH1 0x20 ADD PUSH1 0x40 MLOAD SWAP1 DUP2 ADD PUSH1 0x40 MSTORE DUP1 SWAP4 SWAP3 SWAP2 SWAP1 DUP2 DUP2 MSTORE PUSH1 0x20 ADD DUP4 DUP4 DUP1 DUP3 DUP5 CALLDATACOPY PUSH1 0x0 DUP2 DUP5 ADD MSTORE PUSH1 0x1F NOT PUSH1 0x1F DUP3 ADD AND SWAP1 POP DUP1 DUP4 ADD SWAP3 POP POP POP POP POP POP POP PUSH2 0x3832 JUMP JUMPDEST POP SWAP8 SWAP7 POP POP POP POP POP POP POP JUMP JUMPDEST PUSH2 0x19C3 DUP5 CALLER PUSH1 0x0 DUP7 DUP7 DUP7 DUP1 DUP1 PUSH1 0x1F ADD PUSH1 0x20 DUP1 SWAP2 DIV MUL PUSH1 0x20 ADD PUSH1 0x40 MLOAD SWAP1 DUP2 ADD PUSH1 0x40 MSTORE DUP1 SWAP4 SWAP3 SWAP2 SWAP1 DUP2 DUP2 MSTORE PUSH1 0x20 ADD DUP4 DUP4 DUP1 DUP3 DUP5 CALLDATACOPY PUSH1 0x0 DUP2 DUP5 ADD MSTORE PUSH1 0x1F NOT PUSH1 0x1F DUP3 ADD AND SWAP1 POP DUP1 DUP4 ADD SWAP3 POP POP POP POP POP POP POP PUSH1 0x40 MLOAD DUP1 PUSH1 0x20 ADD PUSH1 0x40 MSTORE DUP1 PUSH1 0x0 DUP2 MSTORE POP PUSH2 0x323E JUMP JUMPDEST POP POP POP POP JUMP JUMPDEST PUSH2 0x19D1 PUSH2 0x408C JUMP JUMPDEST PUSH20 0xFFFFFFFFFFFFFFFFFFFFFFFFFFFFFFFFFFFFFFFF AND PUSH2 0x19EF PUSH2 0x1FD4 JUMP JUMPDEST PUSH20 0xFFFFFFFFFFFFFFFFFFFFFFFFFFFFFFFFFFFFFFFF AND EQ PUSH2 0x1A78 JUMPI PUSH1 0x40 MLOAD PUSH32 0x8C379A000000000000000000000000000000000000000000000000000000000 DUP2 MSTORE PUSH1 0x4 ADD DUP1 DUP1 PUSH1 0x20 ADD DUP3 DUP2 SUB DUP3 MSTORE PUSH1 0x20 DUP2 MSTORE PUSH1 0x20 ADD DUP1 PUSH32 0x4F776E61626C653A2063616C6C6572206973206E6F7420746865206F776E6572 DUP2 MSTORE POP PUSH1 0x20 ADD SWAP2 POP POP PUSH1 0x40 MLOAD DUP1 SWAP2 SUB SWAP1 REVERT JUMPDEST PUSH2 0x1AD8 DUP6 DUP6 DUP6 DUP6 DUP6 DUP1 DUP1 PUSH1 0x1F ADD PUSH1 0x20 DUP1 SWAP2 DIV MUL PUSH1 0x20 ADD PUSH1 0x40 MLOAD SWAP1 DUP2 ADD PUSH1 0x40 MSTORE DUP1 SWAP4 SWAP3 SWAP2 SWAP1 DUP2 DUP2 MSTORE PUSH1 0x20 ADD DUP4 DUP4 DUP1 DUP3 DUP5 CALLDATACOPY PUSH1 0x0 DUP2 DUP5 ADD MSTORE PUSH1 0x1F NOT PUSH1 0x1F DUP3 ADD AND SWAP1 POP DUP1 DUP4 ADD SWAP3 POP POP POP POP POP POP POP PUSH1 0x40 MLOAD DUP1 PUSH1 0x20 ADD PUSH1 0x40 MSTORE DUP1 PUSH1 0x0 DUP2 MSTORE POP PUSH2 0x4094 JUMP JUMPDEST POP POP POP POP POP JUMP JUMPDEST PUSH1 0x0 PUSH1 0x5 PUSH1 0x0 DUP4 PUSH20 0xFFFFFFFFFFFFFFFFFFFFFFFFFFFFFFFFFFFFFFFF AND PUSH20 0xFFFFFFFFFFFFFFFFFFFFFFFFFFFFFFFFFFFFFFFF AND DUP2 MSTORE PUSH1 0x20 ADD SWAP1 DUP2 MSTORE PUSH1 0x20 ADD PUSH1 0x0 KECCAK256 PUSH1 0x0 DUP6 DUP2 MSTORE PUSH1 0x20 ADD SWAP1 DUP2 MSTORE PUSH1 0x20 ADD PUSH1 0x0 KECCAK256 PUSH1 0x0 DUP5 PUSH20 0xFFFFFFFFFFFFFFFFFFFFFFFFFFFFFFFFFFFFFFFF AND PUSH20 0xFFFFFFFFFFFFFFFFFFFFFFFFFFFFFFFFFFFFFFFF AND DUP2 MSTORE PUSH1 0x20 ADD SWAP1 DUP2 MSTORE PUSH1 0x20 ADD PUSH1 0x0 KECCAK256 PUSH1 0x0 SWAP1 SLOAD SWAP1 PUSH2 0x100 EXP SWAP1 DIV PUSH1 0xFF AND SWAP1 POP SWAP4 SWAP3 POP POP POP JUMP JUMPDEST PUSH1 0x0 PUSH1 0x2 PUSH1 0x0 DUP4 PUSH20 0xFFFFFFFFFFFFFFFFFFFFFFFFFFFFFFFFFFFFFFFF AND PUSH20 0xFFFFFFFFFFFFFFFFFFFFFFFFFFFFFFFFFFFFFFFF AND DUP2 MSTORE PUSH1 0x20 ADD SWAP1 DUP2 MSTORE PUSH1 0x20 ADD PUSH1 0x0 KECCAK256 SLOAD SWAP1 POP SWAP2 SWAP1 POP JUMP JUMPDEST PUSH2 0x1BD6 PUSH2 0x408C JUMP JUMPDEST PUSH20 0xFFFFFFFFFFFFFFFFFFFFFFFFFFFFFFFFFFFFFFFF AND PUSH2 0x1BF4 PUSH2 0x1FD4 JUMP JUMPDEST PUSH20 0xFFFFFFFFFFFFFFFFFFFFFFFFFFFFFFFFFFFFFFFF AND EQ PUSH2 0x1C7D JUMPI PUSH1 0x40 MLOAD PUSH32 0x8C379A000000000000000000000000000000000000000000000000000000000 DUP2 MSTORE PUSH1 0x4 ADD DUP1 DUP1 PUSH1 0x20 ADD DUP3 DUP2 SUB DUP3 MSTORE PUSH1 0x20 DUP2 MSTORE PUSH1 0x20 ADD DUP1 PUSH32 0x4F776E61626C653A2063616C6C6572206973206E6F7420746865206F776E6572 DUP2 MSTORE POP PUSH1 0x20 ADD SWAP2 POP POP PUSH1 0x40 MLOAD DUP1 SWAP2 SUB SWAP1 REVERT JUMPDEST PUSH1 0x0 PUSH20 0xFFFFFFFFFFFFFFFFFFFFFFFFFFFFFFFFFFFFFFFF AND PUSH1 0x0 DUP1 SLOAD SWAP1 PUSH2 0x100 EXP SWAP1 DIV PUSH20 0xFFFFFFFFFFFFFFFFFFFFFFFFFFFFFFFFFFFFFFFF AND PUSH20 0xFFFFFFFFFFFFFFFFFFFFFFFFFFFFFFFFFFFFFFFF AND PUSH32 0x8BE0079C531659141344CD1FD0A4F28419497F9722A3DAAFE3B4186F6B6457E0 PUSH1 0x40 MLOAD PUSH1 0x40 MLOAD DUP1 SWAP2 SUB SWAP1 LOG3 PUSH1 0x0 DUP1 PUSH1 0x0 PUSH2 0x100 EXP DUP2 SLOAD DUP2 PUSH20 0xFFFFFFFFFFFFFFFFFFFFFFFFFFFFFFFFFFFFFFFF MUL NOT AND SWAP1 DUP4 PUSH20 0xFFFFFFFFFFFFFFFFFFFFFFFFFFFFFFFFFFFFFFFF AND MUL OR SWAP1 SSTORE POP JUMP JUMPDEST PUSH1 0x60 DUP1 PUSH1 0x3 PUSH1 0x0 DUP5 PUSH20 0xFFFFFFFFFFFFFFFFFFFFFFFFFFFFFFFFFFFFFFFF AND PUSH20 0xFFFFFFFFFFFFFFFFFFFFFFFFFFFFFFFFFFFFFFFF AND DUP2 MSTORE PUSH1 0x20 ADD SWAP1 DUP2 MSTORE PUSH1 0x20 ADD PUSH1 0x0 KECCAK256 DUP1 SLOAD SWAP1 POP PUSH8 0xFFFFFFFFFFFFFFFF DUP2 GT DUP1 ISZERO PUSH2 0x1D97 JUMPI PUSH1 0x0 DUP1 REVERT JUMPDEST POP PUSH1 0x40 MLOAD SWAP1 DUP1 DUP3 MSTORE DUP1 PUSH1 0x20 MUL PUSH1 0x20 ADD DUP3 ADD PUSH1 0x40 MSTORE DUP1 ISZERO PUSH2 0x1DC6 JUMPI DUP2 PUSH1 0x20 ADD PUSH1 0x20 DUP3 MUL DUP1 CALLDATASIZE DUP4 CALLDATACOPY DUP1 DUP3 ADD SWAP2 POP POP SWAP1 POP JUMPDEST POP SWAP1 POP PUSH1 0x0 JUMPDEST PUSH1 0x3 PUSH1 0x0 DUP6 PUSH20 0xFFFFFFFFFFFFFFFFFFFFFFFFFFFFFFFFFFFFFFFF AND PUSH20 0xFFFFFFFFFFFFFFFFFFFFFFFFFFFFFFFFFFFFFFFF AND DUP2 MSTORE PUSH1 0x20 ADD SWAP1 DUP2 MSTORE PUSH1 0x20 ADD PUSH1 0x0 KECCAK256 DUP1 SLOAD SWAP1 POP DUP2 LT ISZERO PUSH2 0x1E97 JUMPI PUSH1 0x3 PUSH1 0x0 DUP6 PUSH20 0xFFFFFFFFFFFFFFFFFFFFFFFFFFFFFFFFFFFFFFFF AND PUSH20 0xFFFFFFFFFFFFFFFFFFFFFFFFFFFFFFFFFFFFFFFF AND DUP2 MSTORE PUSH1 0x20 ADD SWAP1 DUP2 MSTORE PUSH1 0x20 ADD PUSH1 0x0 KECCAK256 DUP2 DUP2 SLOAD DUP2 LT PUSH2 0x1E60 JUMPI INVALID JUMPDEST SWAP1 PUSH1 0x0 MSTORE PUSH1 0x20 PUSH1 0x0 KECCAK256 SWAP1 PUSH1 0x2 MUL ADD PUSH1 0x1 ADD SLOAD DUP3 DUP3 DUP2 MLOAD DUP2 LT PUSH2 0x1E7E JUMPI INVALID JUMPDEST PUSH1 0x20 MUL PUSH1 0x20 ADD ADD DUP2 DUP2 MSTORE POP POP DUP1 DUP1 PUSH1 0x1 ADD SWAP2 POP POP PUSH2 0x1DCC JUMP JUMPDEST POP DUP1 SWAP2 POP POP SWAP2 SWAP1 POP JUMP JUMPDEST PUSH1 0x0 PUSH2 0x1EAD CALLER DUP10 PUSH2 0x2904 JUMP JUMPDEST DUP1 PUSH2 0x1EBF JUMPI POP PUSH2 0x1EBE DUP10 CALLER DUP11 PUSH2 0x1ADF JUMP JUMPDEST JUMPDEST PUSH2 0x1F31 JUMPI PUSH1 0x40 MLOAD PUSH32 0x8C379A000000000000000000000000000000000000000000000000000000000 DUP2 MSTORE PUSH1 0x4 ADD DUP1 DUP1 PUSH1 0x20 ADD DUP3 DUP2 SUB DUP3 MSTORE PUSH1 0xE DUP2 MSTORE PUSH1 0x20 ADD DUP1 PUSH32 0x4E6F7420617574686F7269736564000000000000000000000000000000000000 DUP2 MSTORE POP PUSH1 0x20 ADD SWAP2 POP POP PUSH1 0x40 MLOAD DUP1 SWAP2 SUB SWAP1 REVERT JUMPDEST PUSH2 0x1FC8 DUP9 DUP9 DUP9 DUP13 DUP10 DUP10 DUP1 DUP1 PUSH1 0x1F ADD PUSH1 0x20 DUP1 SWAP2 DIV MUL PUSH1 0x20 ADD PUSH1 0x40 MLOAD SWAP1 DUP2 ADD PUSH1 0x40 MSTORE DUP1 SWAP4 SWAP3 SWAP2 SWAP1 DUP2 DUP2 MSTORE PUSH1 0x20 ADD DUP4 DUP4 DUP1 DUP3 DUP5 CALLDATACOPY PUSH1 0x0 DUP2 DUP5 ADD MSTORE PUSH1 0x1F NOT PUSH1 0x1F DUP3 ADD AND SWAP1 POP DUP1 DUP4 ADD SWAP3 POP POP POP POP POP POP POP CALLER DUP10 DUP10 DUP1 DUP1 PUSH1 0x1F ADD PUSH1 0x20 DUP1 SWAP2 DIV MUL PUSH1 0x20 ADD PUSH1 0x40 MLOAD SWAP1 DUP2 ADD PUSH1 0x40 MSTORE DUP1 SWAP4 SWAP3 SWAP2 SWAP1 DUP2 DUP2 MSTORE PUSH1 0x20 ADD DUP4 DUP4 DUP1 DUP3 DUP5 CALLDATACOPY PUSH1 0x0 DUP2 DUP5 ADD MSTORE PUSH1 0x1F NOT PUSH1 0x1F DUP3 ADD AND SWAP1 POP DUP1 DUP4 ADD SWAP3 POP POP POP POP POP POP POP PUSH2 0x3832 JUMP JUMPDEST SWAP9 SWAP8 POP POP POP POP POP POP POP POP JUMP JUMPDEST PUSH1 0x0 DUP1 PUSH1 0x0 SWAP1 SLOAD SWAP1 PUSH2 0x100 EXP SWAP1 DIV PUSH20 0xFFFFFFFFFFFFFFFFFFFFFFFFFFFFFFFFFFFFFFFF AND SWAP1 POP SWAP1 JUMP JUMPDEST PUSH1 0x1 PUSH1 0x6 PUSH1 0x0 CALLER PUSH20 0xFFFFFFFFFFFFFFFFFFFFFFFFFFFFFFFFFFFFFFFF AND PUSH20 0xFFFFFFFFFFFFFFFFFFFFFFFFFFFFFFFFFFFFFFFF AND DUP2 MSTORE PUSH1 0x20 ADD SWAP1 DUP2 MSTORE PUSH1 0x20 ADD PUSH1 0x0 KECCAK256 PUSH1 0x0 DUP4 PUSH20 0xFFFFFFFFFFFFFFFFFFFFFFFFFFFFFFFFFFFFFFFF AND PUSH20 0xFFFFFFFFFFFFFFFFFFFFFFFFFFFFFFFFFFFFFFFF AND DUP2 MSTORE PUSH1 0x20 ADD SWAP1 DUP2 MSTORE PUSH1 0x20 ADD PUSH1 0x0 KECCAK256 PUSH1 0x0 PUSH2 0x100 EXP DUP2 SLOAD DUP2 PUSH1 0xFF MUL NOT AND SWAP1 DUP4 ISZERO ISZERO MUL OR SWAP1 SSTORE POP CALLER PUSH20 0xFFFFFFFFFFFFFFFFFFFFFFFFFFFFFFFFFFFFFFFF AND DUP2 PUSH20 0xFFFFFFFFFFFFFFFFFFFFFFFFFFFFFFFFFFFFFFFF AND PUSH32 0xF4CAEB2D6CA8932A215A353D0703C326EC2D81FC68170F320EB2AB49E9DF61F9 PUSH1 0x40 MLOAD PUSH1 0x40 MLOAD DUP1 SWAP2 SUB SWAP1 LOG3 POP JUMP JUMPDEST PUSH1 0x0 DUP1 PUSH1 0x0 PUSH2 0x20FE DUP8 DUP11 PUSH2 0x3727 JUMP JUMPDEST PUSH2 0x2139 JUMPI PUSH1 0x50 PUSH1 0x0 DUP2 PUSH1 0xF8 SHL SWAP2 POP PUSH32 0x506172746974696F6E206E6F7420657869737473000000000000000000000000 SWAP1 SWAP3 POP SWAP3 POP SWAP3 POP PUSH2 0x2398 JUMP JUMPDEST DUP6 PUSH1 0x3 PUSH1 0x0 DUP12 PUSH20 0xFFFFFFFFFFFFFFFFFFFFFFFFFFFFFFFFFFFFFFFF AND PUSH20 0xFFFFFFFFFFFFFFFFFFFFFFFFFFFFFFFFFFFFFFFF AND DUP2 MSTORE PUSH1 0x20 ADD SWAP1 DUP2 MSTORE PUSH1 0x20 ADD PUSH1 0x0 KECCAK256 PUSH1 0x4 PUSH1 0x0 DUP13 PUSH20 0xFFFFFFFFFFFFFFFFFFFFFFFFFFFFFFFFFFFFFFFF AND PUSH20 0xFFFFFFFFFFFFFFFFFFFFFFFFFFFFFFFFFFFFFFFF AND DUP2 MSTORE PUSH1 0x20 ADD SWAP1 DUP2 MSTORE PUSH1 0x20 ADD PUSH1 0x0 KECCAK256 PUSH1 0x0 DUP11 DUP2 MSTORE PUSH1 0x20 ADD SWAP1 DUP2 MSTORE PUSH1 0x20 ADD PUSH1 0x0 KECCAK256 SLOAD DUP2 SLOAD DUP2 LT PUSH2 0x21D4 JUMPI INVALID JUMPDEST SWAP1 PUSH1 0x0 MSTORE PUSH1 0x20 PUSH1 0x0 KECCAK256 SWAP1 PUSH1 0x2 MUL ADD PUSH1 0x0 ADD SLOAD LT ISZERO PUSH2 0x2223 JUMPI PUSH1 0x52 PUSH1 0x0 DUP2 PUSH1 0xF8 SHL SWAP2 POP PUSH32 0x496E737566666963656E742062616C616E636500000000000000000000000000 SWAP1 SWAP3 POP SWAP3 POP SWAP3 POP PUSH2 0x2398 JUMP JUMPDEST PUSH1 0x0 PUSH20 0xFFFFFFFFFFFFFFFFFFFFFFFFFFFFFFFFFFFFFFFF AND DUP9 PUSH20 0xFFFFFFFFFFFFFFFFFFFFFFFFFFFFFFFFFFFFFFFF AND EQ ISZERO PUSH2 0x228F JUMPI PUSH1 0x57 PUSH1 0x0 DUP2 PUSH1 0xF8 SHL SWAP2 POP PUSH32 0x496E76616C696420726563656976657200000000000000000000000000000000 SWAP1 SWAP3 POP SWAP3 POP SWAP3 POP PUSH2 0x2398 JUMP JUMPDEST PUSH2 0x22D8 PUSH1 0x2 PUSH1 0x0 DUP12 PUSH20 0xFFFFFFFFFFFFFFFFFFFFFFFFFFFFFFFFFFFFFFFF AND PUSH20 0xFFFFFFFFFFFFFFFFFFFFFFFFFFFFFFFFFFFFFFFF AND DUP2 MSTORE PUSH1 0x20 ADD SWAP1 DUP2 MSTORE PUSH1 0x20 ADD PUSH1 0x0 KECCAK256 SLOAD DUP8 PUSH2 0x4516 JUMP JUMPDEST ISZERO DUP1 PUSH2 0x232A JUMPI POP PUSH2 0x2328 PUSH1 0x2 PUSH1 0x0 DUP11 PUSH20 0xFFFFFFFFFFFFFFFFFFFFFFFFFFFFFFFFFFFFFFFF AND PUSH20 0xFFFFFFFFFFFFFFFFFFFFFFFFFFFFFFFFFFFFFFFF AND DUP2 MSTORE PUSH1 0x20 ADD SWAP1 DUP2 MSTORE PUSH1 0x20 ADD PUSH1 0x0 KECCAK256 SLOAD DUP8 PUSH2 0x4533 JUMP JUMPDEST ISZERO JUMPDEST ISZERO PUSH2 0x2366 JUMPI PUSH1 0x50 PUSH1 0x0 DUP2 PUSH1 0xF8 SHL SWAP2 POP PUSH32 0x4F766572666C6F77000000000000000000000000000000000000000000000000 SWAP1 SWAP3 POP SWAP3 POP SWAP3 POP PUSH2 0x2398 JUMP JUMPDEST PUSH1 0x51 DUP8 DUP2 PUSH1 0xF8 SHL SWAP2 POP PUSH32 0x5375636365737300000000000000000000000000000000000000000000000000 SWAP1 SWAP3 POP SWAP3 POP SWAP3 POP JUMPDEST SWAP7 POP SWAP7 POP SWAP7 SWAP4 POP POP POP POP JUMP JUMPDEST PUSH1 0x0 DUP1 PUSH1 0x0 DUP1 PUSH32 0x7465737400000000000000000000000000000000000000000000000000000000 PUSH1 0x0 SHL SWAP1 POP PUSH2 0x23DA DUP2 DUP11 PUSH2 0x3727 JUMP JUMPDEST PUSH2 0x2416 JUMPI PUSH1 0x50 PUSH1 0x0 DUP2 PUSH1 0xF8 SHL SWAP2 POP PUSH32 0x506172746974696F6E206E6F7420657869737473000000000000000000000000 SWAP1 SWAP4 POP SWAP4 POP SWAP4 POP POP PUSH2 0x2679 JUMP JUMPDEST DUP7 PUSH1 0x3 PUSH1 0x0 DUP12 PUSH20 0xFFFFFFFFFFFFFFFFFFFFFFFFFFFFFFFFFFFFFFFF AND PUSH20 0xFFFFFFFFFFFFFFFFFFFFFFFFFFFFFFFFFFFFFFFF AND DUP2 MSTORE PUSH1 0x20 ADD SWAP1 DUP2 MSTORE PUSH1 0x20 ADD PUSH1 0x0 KECCAK256 PUSH1 0x4 PUSH1 0x0 DUP13 PUSH20 0xFFFFFFFFFFFFFFFFFFFFFFFFFFFFFFFFFFFFFFFF AND PUSH20 0xFFFFFFFFFFFFFFFFFFFFFFFFFFFFFFFFFFFFFFFF AND DUP2 MSTORE PUSH1 0x20 ADD SWAP1 DUP2 MSTORE PUSH1 0x20 ADD PUSH1 0x0 KECCAK256 PUSH1 0x0 DUP5 DUP2 MSTORE PUSH1 0x20 ADD SWAP1 DUP2 MSTORE PUSH1 0x20 ADD PUSH1 0x0 KECCAK256 SLOAD DUP2 SLOAD DUP2 LT PUSH2 0x24B1 JUMPI INVALID JUMPDEST SWAP1 PUSH1 0x0 MSTORE PUSH1 0x20 PUSH1 0x0 KECCAK256 SWAP1 PUSH1 0x2 MUL ADD PUSH1 0x0 ADD SLOAD LT ISZERO PUSH2 0x2501 JUMPI PUSH1 0x52 PUSH1 0x0 DUP2 PUSH1 0xF8 SHL SWAP2 POP PUSH32 0x496E737566666963656E742062616C616E636500000000000000000000000000 SWAP1 SWAP4 POP SWAP4 POP SWAP4 POP POP PUSH2 0x2679 JUMP JUMPDEST PUSH1 0x0 PUSH20 0xFFFFFFFFFFFFFFFFFFFFFFFFFFFFFFFFFFFFFFFF AND DUP9 PUSH20 0xFFFFFFFFFFFFFFFFFFFFFFFFFFFFFFFFFFFFFFFF AND EQ ISZERO PUSH2 0x256E JUMPI PUSH1 0x57 PUSH1 0x0 DUP2 PUSH1 0xF8 SHL SWAP2 POP PUSH32 0x496E76616C696420726563656976657200000000000000000000000000000000 SWAP1 SWAP4 POP SWAP4 POP SWAP4 POP POP PUSH2 0x2679 JUMP JUMPDEST PUSH2 0x25B7 PUSH1 0x2 PUSH1 0x0 DUP12 PUSH20 0xFFFFFFFFFFFFFFFFFFFFFFFFFFFFFFFFFFFFFFFF AND PUSH20 0xFFFFFFFFFFFFFFFFFFFFFFFFFFFFFFFFFFFFFFFF AND DUP2 MSTORE PUSH1 0x20 ADD SWAP1 DUP2 MSTORE PUSH1 0x20 ADD PUSH1 0x0 KECCAK256 SLOAD DUP9 PUSH2 0x4516 JUMP JUMPDEST ISZERO DUP1 PUSH2 0x2609 JUMPI POP PUSH2 0x2607 PUSH1 0x2 PUSH1 0x0 DUP11 PUSH20 0xFFFFFFFFFFFFFFFFFFFFFFFFFFFFFFFFFFFFFFFF AND PUSH20 0xFFFFFFFFFFFFFFFFFFFFFFFFFFFFFFFFFFFFFFFF AND DUP2 MSTORE PUSH1 0x20 ADD SWAP1 DUP2 MSTORE PUSH1 0x20 ADD PUSH1 0x0 KECCAK256 SLOAD DUP9 PUSH2 0x4533 JUMP JUMPDEST ISZERO JUMPDEST ISZERO PUSH2 0x2646 JUMPI PUSH1 0x50 PUSH1 0x0 DUP2 PUSH1 0xF8 SHL SWAP2 POP PUSH32 0x4F766572666C6F77000000000000000000000000000000000000000000000000 SWAP1 SWAP4 POP SWAP4 POP SWAP4 POP POP PUSH2 0x2679 JUMP JUMPDEST PUSH1 0x51 DUP2 DUP2 PUSH1 0xF8 SHL SWAP2 POP PUSH32 0x5375636365737300000000000000000000000000000000000000000000000000 SWAP1 SWAP4 POP SWAP4 POP SWAP4 POP POP JUMPDEST SWAP6 POP SWAP6 POP SWAP6 SWAP3 POP POP POP JUMP JUMPDEST PUSH1 0x0 PUSH32 0x7465737400000000000000000000000000000000000000000000000000000000 PUSH1 0x0 SHL SWAP1 POP PUSH2 0x26B6 CALLER DUP9 PUSH2 0x2904 JUMP JUMPDEST DUP1 PUSH2 0x26C8 JUMPI POP PUSH2 0x26C7 DUP2 CALLER DUP10 PUSH2 0x1ADF JUMP JUMPDEST JUMPDEST PUSH2 0x273A JUMPI PUSH1 0x40 MLOAD PUSH32 0x8C379A000000000000000000000000000000000000000000000000000000000 DUP2 MSTORE PUSH1 0x4 ADD DUP1 DUP1 PUSH1 0x20 ADD DUP3 DUP2 SUB DUP3 MSTORE PUSH1 0xE DUP2 MSTORE PUSH1 0x20 ADD DUP1 PUSH32 0x4E6F7420617574686F7269736564000000000000000000000000000000000000 DUP2 MSTORE POP PUSH1 0x20 ADD SWAP2 POP POP PUSH1 0x40 MLOAD DUP1 SWAP2 SUB SWAP1 REVERT JUMPDEST PUSH2 0x27CF DUP2 DUP9 DUP9 DUP9 DUP9 DUP1 DUP1 PUSH1 0x1F ADD PUSH1 0x20 DUP1 SWAP2 DIV MUL PUSH1 0x20 ADD PUSH1 0x40 MLOAD SWAP1 DUP2 ADD PUSH1 0x40 MSTORE DUP1 SWAP4 SWAP3 SWAP2 SWAP1 DUP2 DUP2 MSTORE PUSH1 0x20 ADD DUP4 DUP4 DUP1 DUP3 DUP5 CALLDATACOPY PUSH1 0x0 DUP2 DUP5 ADD MSTORE PUSH1 0x1F NOT PUSH1 0x1F DUP3 ADD AND SWAP1 POP DUP1 DUP4 ADD SWAP3 POP POP POP POP POP POP POP DUP8 DUP8 DUP1 DUP1 PUSH1 0x1F ADD PUSH1 0x20 DUP1 SWAP2 DIV MUL PUSH1 0x20 ADD PUSH1 0x40 MLOAD SWAP1 DUP2 ADD PUSH1 0x40 MSTORE DUP1 SWAP4 SWAP3 SWAP2 SWAP1 DUP2 DUP2 MSTORE PUSH1 0x20 ADD DUP4 DUP4 DUP1 DUP3 DUP5 CALLDATACOPY PUSH1 0x0 DUP2 DUP5 ADD MSTORE PUSH1 0x1F NOT PUSH1 0x1F DUP3 ADD AND SWAP1 POP DUP1 DUP4 ADD SWAP3 POP POP POP POP POP POP POP PUSH2 0x4094 JUMP JUMPDEST POP POP POP POP POP POP POP JUMP JUMPDEST PUSH2 0x27E2 CALLER DUP8 PUSH2 0x2904 JUMP JUMPDEST DUP1 PUSH2 0x27F4 JUMPI POP PUSH2 0x27F3 DUP8 CALLER DUP9 PUSH2 0x1ADF JUMP JUMPDEST JUMPDEST PUSH2 0x2866 JUMPI PUSH1 0x40 MLOAD PUSH32 0x8C379A000000000000000000000000000000000000000000000000000000000 DUP2 MSTORE PUSH1 0x4 ADD DUP1 DUP1 PUSH1 0x20 ADD DUP3 DUP2 SUB DUP3 MSTORE PUSH1 0xE DUP2 MSTORE PUSH1 0x20 ADD DUP1 PUSH32 0x4E6F7420617574686F7269736564000000000000000000000000000000000000 DUP2 MSTORE POP PUSH1 0x20 ADD SWAP2 POP POP PUSH1 0x40 MLOAD DUP1 SWAP2 SUB SWAP1 REVERT JUMPDEST PUSH2 0x28FB DUP8 DUP8 DUP8 DUP8 DUP8 DUP1 DUP1 PUSH1 0x1F ADD PUSH1 0x20 DUP1 SWAP2 DIV MUL PUSH1 0x20 ADD PUSH1 0x40 MLOAD SWAP1 DUP2 ADD PUSH1 0x40 MSTORE DUP1 SWAP4 SWAP3 SWAP2 SWAP1 DUP2 DUP2 MSTORE PUSH1 0x20 ADD DUP4 DUP4 DUP1 DUP3 DUP5 CALLDATACOPY PUSH1 0x0 DUP2 DUP5 ADD MSTORE PUSH1 0x1F NOT PUSH1 0x1F DUP3 ADD AND SWAP1 POP DUP1 DUP4 ADD SWAP3 POP POP POP POP POP POP POP DUP7 DUP7 DUP1 DUP1 PUSH1 0x1F ADD PUSH1 0x20 DUP1 SWAP2 DIV MUL PUSH1 0x20 ADD PUSH1 0x40 MLOAD SWAP1 DUP2 ADD PUSH1 0x40 MSTORE DUP1 SWAP4 SWAP3 SWAP2 SWAP1 DUP2 DUP2 MSTORE PUSH1 0x20 ADD DUP4 DUP4 DUP1 DUP3 DUP5 CALLDATACOPY PUSH1 0x0 DUP2 DUP5 ADD MSTORE PUSH1 0x1F NOT PUSH1 0x1F DUP3 ADD AND SWAP1 POP DUP1 DUP4 ADD SWAP3 POP POP POP POP POP POP POP PUSH2 0x4094 JUMP JUMPDEST POP POP POP POP POP POP POP JUMP JUMPDEST PUSH1 0x0 PUSH1 0x6 PUSH1 0x0 DUP4 PUSH20 0xFFFFFFFFFFFFFFFFFFFFFFFFFFFFFFFFFFFFFFFF AND PUSH20 0xFFFFFFFFFFFFFFFFFFFFFFFFFFFFFFFFFFFFFFFF AND DUP2 MSTORE PUSH1 0x20 ADD SWAP1 DUP2 MSTORE PUSH1 0x20 ADD PUSH1 0x0 KECCAK256 PUSH1 0x0 DUP5 PUSH20 0xFFFFFFFFFFFFFFFFFFFFFFFFFFFFFFFFFFFFFFFF AND PUSH20 0xFFFFFFFFFFFFFFFFFFFFFFFFFFFFFFFFFFFFFFFF AND DUP2 MSTORE PUSH1 0x20 ADD SWAP1 DUP2 MSTORE PUSH1 0x20 ADD PUSH1 0x0 KECCAK256 PUSH1 0x0 SWAP1 SLOAD SWAP1 PUSH2 0x100 EXP SWAP1 DIV PUSH1 0xFF AND SWAP1 POP SWAP3 SWAP2 POP POP JUMP JUMPDEST PUSH2 0x29A0 PUSH2 0x408C JUMP JUMPDEST PUSH20 0xFFFFFFFFFFFFFFFFFFFFFFFFFFFFFFFFFFFFFFFF AND PUSH2 0x29BE PUSH2 0x1FD4 JUMP JUMPDEST PUSH20 0xFFFFFFFFFFFFFFFFFFFFFFFFFFFFFFFFFFFFFFFF AND EQ PUSH2 0x2A47 JUMPI PUSH1 0x40 MLOAD PUSH32 0x8C379A000000000000000000000000000000000000000000000000000000000 DUP2 MSTORE PUSH1 0x4 ADD DUP1 DUP1 PUSH1 0x20 ADD DUP3 DUP2 SUB DUP3 MSTORE PUSH1 0x20 DUP2 MSTORE PUSH1 0x20 ADD DUP1 PUSH32 0x4F776E61626C653A2063616C6C6572206973206E6F7420746865206F776E6572 DUP2 MSTORE POP PUSH1 0x20 ADD SWAP2 POP POP PUSH1 0x40 MLOAD DUP1 SWAP2 SUB SWAP1 REVERT JUMPDEST PUSH1 0x0 PUSH32 0x7465737400000000000000000000000000000000000000000000000000000000 PUSH1 0x0 SHL SWAP1 POP PUSH2 0x2ACF DUP2 DUP7 DUP7 DUP7 DUP7 DUP1 DUP1 PUSH1 0x1F ADD PUSH1 0x20 DUP1 SWAP2 DIV MUL PUSH1 0x20 ADD PUSH1 0x40 MLOAD SWAP1 DUP2 ADD PUSH1 0x40 MSTORE DUP1 SWAP4 SWAP3 SWAP2 SWAP1 DUP2 DUP2 MSTORE PUSH1 0x20 ADD DUP4 DUP4 DUP1 DUP3 DUP5 CALLDATACOPY PUSH1 0x0 DUP2 DUP5 ADD MSTORE PUSH1 0x1F NOT PUSH1 0x1F DUP3 ADD AND SWAP1 POP DUP1 DUP4 ADD SWAP3 POP POP POP POP POP POP POP PUSH1 0x40 MLOAD DUP1 PUSH1 0x20 ADD PUSH1 0x40 MSTORE DUP1 PUSH1 0x0 DUP2 MSTORE POP PUSH2 0x4094 JUMP JUMPDEST POP POP POP POP POP JUMP JUMPDEST PUSH1 0x0 DUP1 PUSH32 0x7465737400000000000000000000000000000000000000000000000000000000 PUSH1 0x0 SHL SWAP1 POP PUSH2 0x2B62 CALLER DUP8 DUP8 DUP5 DUP9 DUP9 DUP1 DUP1 PUSH1 0x1F ADD PUSH1 0x20 DUP1 SWAP2 DIV MUL PUSH1 0x20 ADD PUSH1 0x40 MLOAD SWAP1 DUP2 ADD PUSH1 0x40 MSTORE DUP1 SWAP4 SWAP3 SWAP2 SWAP1 DUP2 DUP2 MSTORE PUSH1 0x20 ADD DUP4 DUP4 DUP1 DUP3 DUP5 CALLDATACOPY PUSH1 0x0 DUP2 DUP5 ADD MSTORE PUSH1 0x1F NOT PUSH1 0x1F DUP3 ADD AND SWAP1 POP DUP1 DUP4 ADD SWAP3 POP POP POP POP POP POP POP PUSH1 0x0 PUSH1 0x40 MLOAD DUP1 PUSH1 0x20 ADD PUSH1 0x40 MSTORE DUP1 PUSH1 0x0 DUP2 MSTORE POP PUSH2 0x3832 JUMP JUMPDEST POP SWAP5 SWAP4 POP POP POP POP JUMP JUMPDEST PUSH32 0x7465737800000000000000000000000000000000000000000000000000000000 PUSH1 0x0 SHL DUP2 JUMP JUMPDEST PUSH1 0x0 PUSH32 0x7465737400000000000000000000000000000000000000000000000000000000 PUSH1 0x0 SHL SWAP1 POP PUSH1 0x0 PUSH20 0xFFFFFFFFFFFFFFFFFFFFFFFFFFFFFFFFFFFFFFFF AND DUP8 PUSH20 0xFFFFFFFFFFFFFFFFFFFFFFFFFFFFFFFFFFFFFFFF AND EQ ISZERO PUSH2 0x2C5D JUMPI PUSH1 0x40 MLOAD PUSH32 0x8C379A000000000000000000000000000000000000000000000000000000000 DUP2 MSTORE PUSH1 0x4 ADD DUP1 DUP1 PUSH1 0x20 ADD DUP3 DUP2 SUB DUP3 MSTORE PUSH1 0x14 DUP2 MSTORE PUSH1 0x20 ADD DUP1 PUSH32 0x496E76616C69642066726F6D2061646472657373000000000000000000000000 DUP2 MSTORE POP PUSH1 0x20 ADD SWAP2 POP POP PUSH1 0x40 MLOAD DUP1 SWAP2 SUB SWAP1 REVERT JUMPDEST PUSH2 0x2C67 CALLER DUP9 PUSH2 0x2904 JUMP JUMPDEST DUP1 PUSH2 0x2C79 JUMPI POP PUSH2 0x2C78 DUP2 CALLER DUP10 PUSH2 0x1ADF JUMP JUMPDEST JUMPDEST PUSH2 0x2CEB JUMPI PUSH1 0x40 MLOAD PUSH32 0x8C379A000000000000000000000000000000000000000000000000000000000 DUP2 MSTORE PUSH1 0x4 ADD DUP1 DUP1 PUSH1 0x20 ADD DUP3 DUP2 SUB DUP3 MSTORE PUSH1 0xE DUP2 MSTORE PUSH1 0x20 ADD DUP1 PUSH32 0x4E6F7420617574686F7269736564000000000000000000000000000000000000 DUP2 MSTORE POP PUSH1 0x20 ADD SWAP2 POP POP PUSH1 0x40 MLOAD DUP1 SWAP2 SUB SWAP1 REVERT JUMPDEST PUSH2 0x2D81 DUP2 DUP9 CALLER DUP10 DUP10 DUP10 DUP1 DUP1 PUSH1 0x1F ADD PUSH1 0x20 DUP1 SWAP2 DIV MUL PUSH1 0x20 ADD PUSH1 0x40 MLOAD SWAP1 DUP2 ADD PUSH1 0x40 MSTORE DUP1 SWAP4 SWAP3 SWAP2 SWAP1 DUP2 DUP2 MSTORE PUSH1 0x20 ADD DUP4 DUP4 DUP1 DUP3 DUP5 CALLDATACOPY PUSH1 0x0 DUP2 DUP5 ADD MSTORE PUSH1 0x1F NOT PUSH1 0x1F DUP3 ADD AND SWAP1 POP DUP1 DUP4 ADD SWAP3 POP POP POP POP POP POP POP DUP9 DUP9 DUP1 DUP1 PUSH1 0x1F ADD PUSH1 0x20 DUP1 SWAP2 DIV MUL PUSH1 0x20 ADD PUSH1 0x40 MLOAD SWAP1 DUP2 ADD PUSH1 0x40 MSTORE DUP1 SWAP4 SWAP3 SWAP2 SWAP1 DUP2 DUP2 MSTORE PUSH1 0x20 ADD DUP4 DUP4 DUP1 DUP3 DUP5 CALLDATACOPY PUSH1 0x0 DUP2 DUP5 ADD MSTORE PUSH1 0x1F NOT PUSH1 0x1F DUP3 ADD AND SWAP1 POP DUP1 DUP4 ADD SWAP3 POP POP POP POP POP POP POP PUSH2 0x323E JUMP JUMPDEST POP POP POP POP POP POP POP JUMP JUMPDEST PUSH2 0x2E0F PUSH32 0x7465737400000000000000000000000000000000000000000000000000000000 PUSH1 0x0 SHL CALLER PUSH1 0x0 DUP7 DUP7 DUP7 DUP1 DUP1 PUSH1 0x1F ADD PUSH1 0x20 DUP1 SWAP2 DIV MUL PUSH1 0x20 ADD PUSH1 0x40 MLOAD SWAP1 DUP2 ADD PUSH1 0x40 MSTORE DUP1 SWAP4 SWAP3 SWAP2 SWAP1 DUP2 DUP2 MSTORE PUSH1 0x20 ADD DUP4 DUP4 DUP1 DUP3 DUP5 CALLDATACOPY PUSH1 0x0 DUP2 DUP5 ADD MSTORE PUSH1 0x1F NOT PUSH1 0x1F DUP3 ADD AND SWAP1 POP DUP1 DUP4 ADD SWAP3 POP POP POP POP POP POP POP PUSH1 0x40 MLOAD DUP1 PUSH1 0x20 ADD PUSH1 0x40 MSTORE DUP1 PUSH1 0x0 DUP2 MSTORE POP PUSH2 0x323E JUMP JUMPDEST POP POP POP JUMP JUMPDEST PUSH1 0x0 DUP1 PUSH1 0x0 SWAP1 POP JUMPDEST PUSH1 0x3 PUSH1 0x0 DUP5 PUSH20 0xFFFFFFFFFFFFFFFFFFFFFFFFFFFFFFFFFFFFFFFF AND PUSH20 0xFFFFFFFFFFFFFFFFFFFFFFFFFFFFFFFFFFFFFFFF AND DUP2 MSTORE PUSH1 0x20 ADD SWAP1 DUP2 MSTORE PUSH1 0x20 ADD PUSH1 0x0 KECCAK256 DUP1 SLOAD SWAP1 POP DUP2 LT ISZERO PUSH2 0x2EE0 JUMPI DUP4 PUSH1 0x3 PUSH1 0x0 DUP6 PUSH20 0xFFFFFFFFFFFFFFFFFFFFFFFFFFFFFFFFFFFFFFFF AND PUSH20 0xFFFFFFFFFFFFFFFFFFFFFFFFFFFFFFFFFFFFFFFF AND DUP2 MSTORE PUSH1 0x20 ADD SWAP1 DUP2 MSTORE PUSH1 0x20 ADD PUSH1 0x0 KECCAK256 DUP3 DUP2 SLOAD DUP2 LT PUSH2 0x2EB1 JUMPI INVALID JUMPDEST SWAP1 PUSH1 0x0 MSTORE PUSH1 0x20 PUSH1 0x0 KECCAK256 SWAP1 PUSH1 0x2 MUL ADD PUSH1 0x1 ADD SLOAD EQ ISZERO PUSH2 0x2ED3 JUMPI PUSH1 0x1 SWAP2 POP POP PUSH2 0x2EE6 JUMP JUMPDEST DUP1 DUP1 PUSH1 0x1 ADD SWAP2 POP POP PUSH2 0x2E1C JUMP JUMPDEST POP PUSH1 0x0 SWAP1 POP JUMPDEST SWAP3 SWAP2 POP POP JUMP JUMPDEST PUSH2 0x2EF4 PUSH2 0x408C JUMP JUMPDEST PUSH20 0xFFFFFFFFFFFFFFFFFFFFFFFFFFFFFFFFFFFFFFFF AND PUSH2 0x2F12 PUSH2 0x1FD4 JUMP JUMPDEST PUSH20 0xFFFFFFFFFFFFFFFFFFFFFFFFFFFFFFFFFFFFFFFF AND EQ PUSH2 0x2F9B JUMPI PUSH1 0x40 MLOAD PUSH32 0x8C379A000000000000000000000000000000000000000000000000000000000 DUP2 MSTORE PUSH1 0x4 ADD DUP1 DUP1 PUSH1 0x20 ADD DUP3 DUP2 SUB DUP3 MSTORE PUSH1 0x20 DUP2 MSTORE PUSH1 0x20 ADD DUP1 PUSH32 0x4F776E61626C653A2063616C6C6572206973206E6F7420746865206F776E6572 DUP2 MSTORE POP PUSH1 0x20 ADD SWAP2 POP POP PUSH1 0x40 MLOAD DUP1 SWAP2 SUB SWAP1 REVERT JUMPDEST PUSH1 0x0 PUSH20 0xFFFFFFFFFFFFFFFFFFFFFFFFFFFFFFFFFFFFFFFF AND DUP2 PUSH20 0xFFFFFFFFFFFFFFFFFFFFFFFFFFFFFFFFFFFFFFFF AND EQ ISZERO PUSH2 0x3021 JUMPI PUSH1 0x40 MLOAD PUSH32 0x8C379A000000000000000000000000000000000000000000000000000000000 DUP2 MSTORE PUSH1 0x4 ADD DUP1 DUP1 PUSH1 0x20 ADD DUP3 DUP2 SUB DUP3 MSTORE PUSH1 0x26 DUP2 MSTORE PUSH1 0x20 ADD DUP1 PUSH2 0x4A93 PUSH1 0x26 SWAP2 CODECOPY PUSH1 0x40 ADD SWAP2 POP POP PUSH1 0x40 MLOAD DUP1 SWAP2 SUB SWAP1 REVERT JUMPDEST DUP1 PUSH20 0xFFFFFFFFFFFFFFFFFFFFFFFFFFFFFFFFFFFFFFFF AND PUSH1 0x0 DUP1 SLOAD SWAP1 PUSH2 0x100 EXP SWAP1 DIV PUSH20 0xFFFFFFFFFFFFFFFFFFFFFFFFFFFFFFFFFFFFFFFF AND PUSH20 0xFFFFFFFFFFFFFFFFFFFFFFFFFFFFFFFFFFFFFFFF AND PUSH32 0x8BE0079C531659141344CD1FD0A4F28419497F9722A3DAAFE3B4186F6B6457E0 PUSH1 0x40 MLOAD PUSH1 0x40 MLOAD DUP1 SWAP2 SUB SWAP1 LOG3 DUP1 PUSH1 0x0 DUP1 PUSH2 0x100 EXP DUP2 SLOAD DUP2 PUSH20 0xFFFFFFFFFFFFFFFFFFFFFFFFFFFFFFFFFFFFFFFF MUL NOT AND SWAP1 DUP4 PUSH20 0xFFFFFFFFFFFFFFFFFFFFFFFFFFFFFFFFFFFFFFFF AND MUL OR SWAP1 SSTORE POP POP JUMP JUMPDEST PUSH1 0x0 PUSH2 0x3143 CALLER DUP7 DUP7 DUP10 DUP8 DUP8 DUP1 DUP1 PUSH1 0x1F ADD PUSH1 0x20 DUP1 SWAP2 DIV MUL PUSH1 0x20 ADD PUSH1 0x40 MLOAD SWAP1 DUP2 ADD PUSH1 0x40 MSTORE DUP1 SWAP4 SWAP3 SWAP2 SWAP1 DUP2 DUP2 MSTORE PUSH1 0x20 ADD DUP4 DUP4 DUP1 DUP3 DUP5 CALLDATACOPY PUSH1 0x0 DUP2 DUP5 ADD MSTORE PUSH1 0x1F NOT PUSH1 0x1F DUP3 ADD AND SWAP1 POP DUP1 DUP4 ADD SWAP3 POP POP POP POP POP POP POP PUSH1 0x0 PUSH1 0x40 MLOAD DUP1 PUSH1 0x20 ADD PUSH1 0x40 MSTORE DUP1 PUSH1 0x0 DUP2 MSTORE POP PUSH2 0x3832 JUMP JUMPDEST SWAP6 SWAP5 POP POP POP POP POP JUMP JUMPDEST PUSH1 0x0 PUSH1 0x6 PUSH1 0x0 CALLER PUSH20 0xFFFFFFFFFFFFFFFFFFFFFFFFFFFFFFFFFFFFFFFF AND PUSH20 0xFFFFFFFFFFFFFFFFFFFFFFFFFFFFFFFFFFFFFFFF AND DUP2 MSTORE PUSH1 0x20 ADD SWAP1 DUP2 MSTORE PUSH1 0x20 ADD PUSH1 0x0 KECCAK256 PUSH1 0x0 DUP4 PUSH20 0xFFFFFFFFFFFFFFFFFFFFFFFFFFFFFFFFFFFFFFFF AND PUSH20 0xFFFFFFFFFFFFFFFFFFFFFFFFFFFFFFFFFFFFFFFF AND DUP2 MSTORE PUSH1 0x20 ADD SWAP1 DUP2 MSTORE PUSH1 0x20 ADD PUSH1 0x0 KECCAK256 PUSH1 0x0 PUSH2 0x100 EXP DUP2 SLOAD DUP2 PUSH1 0xFF MUL NOT AND SWAP1 DUP4 ISZERO ISZERO MUL OR SWAP1 SSTORE POP CALLER PUSH20 0xFFFFFFFFFFFFFFFFFFFFFFFFFFFFFFFFFFFFFFFF AND DUP2 PUSH20 0xFFFFFFFFFFFFFFFFFFFFFFFFFFFFFFFFFFFFFFFF AND PUSH32 0x50546E66E5F44D728365DC3908C63BC5CFEEAB470722C1677E3073A6AC294AA1 PUSH1 0x40 MLOAD PUSH1 0x40 MLOAD DUP1 SWAP2 SUB SWAP1 LOG3 POP JUMP JUMPDEST PUSH2 0x3248 DUP7 DUP5 PUSH2 0x4559 JUMP JUMPDEST PUSH2 0x3252 DUP7 DUP7 PUSH2 0x3727 JUMP JUMPDEST PUSH2 0x32C4 JUMPI PUSH1 0x40 MLOAD PUSH32 0x8C379A000000000000000000000000000000000000000000000000000000000 DUP2 MSTORE PUSH1 0x4 ADD DUP1 DUP1 PUSH1 0x20 ADD DUP3 DUP2 SUB DUP3 MSTORE PUSH1 0x11 DUP2 MSTORE PUSH1 0x20 ADD DUP1 PUSH32 0x496E76616C696420706172746974696F6E000000000000000000000000000000 DUP2 MSTORE POP PUSH1 0x20 ADD SWAP2 POP POP PUSH1 0x40 MLOAD DUP1 SWAP2 SUB SWAP1 REVERT JUMPDEST PUSH1 0x0 PUSH1 0x1 PUSH1 0x4 PUSH1 0x0 DUP9 PUSH20 0xFFFFFFFFFFFFFFFFFFFFFFFFFFFFFFFFFFFFFFFF AND PUSH20 0xFFFFFFFFFFFFFFFFFFFFFFFFFFFFFFFFFFFFFFFF AND DUP2 MSTORE PUSH1 0x20 ADD SWAP1 DUP2 MSTORE PUSH1 0x20 ADD PUSH1 0x0 KECCAK256 PUSH1 0x0 DUP10 DUP2 MSTORE PUSH1 0x20 ADD SWAP1 DUP2 MSTORE PUSH1 0x20 ADD PUSH1 0x0 KECCAK256 SLOAD SUB SWAP1 POP DUP4 PUSH1 0x3 PUSH1 0x0 DUP9 PUSH20 0xFFFFFFFFFFFFFFFFFFFFFFFFFFFFFFFFFFFFFFFF AND PUSH20 0xFFFFFFFFFFFFFFFFFFFFFFFFFFFFFFFFFFFFFFFF AND DUP2 MSTORE PUSH1 0x20 ADD SWAP1 DUP2 MSTORE PUSH1 0x20 ADD PUSH1 0x0 KECCAK256 DUP3 DUP2 SLOAD DUP2 LT PUSH2 0x3367 JUMPI INVALID JUMPDEST SWAP1 PUSH1 0x0 MSTORE PUSH1 0x20 PUSH1 0x0 KECCAK256 SWAP1 PUSH1 0x2 MUL ADD PUSH1 0x0 ADD SLOAD LT ISZERO PUSH2 0x33ED JUMPI PUSH1 0x40 MLOAD PUSH32 0x8C379A000000000000000000000000000000000000000000000000000000000 DUP2 MSTORE PUSH1 0x4 ADD DUP1 DUP1 PUSH1 0x20 ADD DUP3 DUP2 SUB DUP3 MSTORE PUSH1 0x12 DUP2 MSTORE PUSH1 0x20 ADD DUP1 PUSH32 0x496E73756666696369656E742076616C75650000000000000000000000000000 DUP2 MSTORE POP PUSH1 0x20 ADD SWAP2 POP POP PUSH1 0x40 MLOAD DUP1 SWAP2 SUB SWAP1 REVERT JUMPDEST DUP4 PUSH1 0x3 PUSH1 0x0 DUP9 PUSH20 0xFFFFFFFFFFFFFFFFFFFFFFFFFFFFFFFFFFFFFFFF AND PUSH20 0xFFFFFFFFFFFFFFFFFFFFFFFFFFFFFFFFFFFFFFFF AND DUP2 MSTORE PUSH1 0x20 ADD SWAP1 DUP2 MSTORE PUSH1 0x20 ADD PUSH1 0x0 KECCAK256 DUP3 DUP2 SLOAD DUP2 LT PUSH2 0x3438 JUMPI INVALID JUMPDEST SWAP1 PUSH1 0x0 MSTORE PUSH1 0x20 PUSH1 0x0 KECCAK256 SWAP1 PUSH1 0x2 MUL ADD PUSH1 0x0 ADD SLOAD EQ ISZERO PUSH2 0x3460 JUMPI PUSH2 0x345B DUP7 DUP9 DUP4 PUSH2 0x4722 JUMP JUMPDEST PUSH2 0x352E JUMP JUMPDEST PUSH2 0x34CE DUP5 PUSH1 0x3 PUSH1 0x0 DUP10 PUSH20 0xFFFFFFFFFFFFFFFFFFFFFFFFFFFFFFFFFFFFFFFF AND PUSH20 0xFFFFFFFFFFFFFFFFFFFFFFFFFFFFFFFFFFFFFFFF AND DUP2 MSTORE PUSH1 0x20 ADD SWAP1 DUP2 MSTORE PUSH1 0x20 ADD PUSH1 0x0 KECCAK256 DUP4 DUP2 SLOAD DUP2 LT PUSH2 0x34AE JUMPI INVALID JUMPDEST SWAP1 PUSH1 0x0 MSTORE PUSH1 0x20 PUSH1 0x0 KECCAK256 SWAP1 PUSH1 0x2 MUL ADD PUSH1 0x0 ADD SLOAD PUSH2 0x4987 SWAP1 SWAP2 SWAP1 PUSH4 0xFFFFFFFF AND JUMP JUMPDEST PUSH1 0x3 PUSH1 0x0 DUP9 PUSH20 0xFFFFFFFFFFFFFFFFFFFFFFFFFFFFFFFFFFFFFFFF AND PUSH20 0xFFFFFFFFFFFFFFFFFFFFFFFFFFFFFFFFFFFFFFFF AND DUP2 MSTORE PUSH1 0x20 ADD SWAP1 DUP2 MSTORE PUSH1 0x20 ADD PUSH1 0x0 KECCAK256 DUP3 DUP2 SLOAD DUP2 LT PUSH2 0x3518 JUMPI INVALID JUMPDEST SWAP1 PUSH1 0x0 MSTORE PUSH1 0x20 PUSH1 0x0 KECCAK256 SWAP1 PUSH1 0x2 MUL ADD PUSH1 0x0 ADD DUP2 SWAP1 SSTORE POP JUMPDEST PUSH2 0x3580 DUP5 PUSH1 0x2 PUSH1 0x0 DUP10 PUSH20 0xFFFFFFFFFFFFFFFFFFFFFFFFFFFFFFFFFFFFFFFF AND PUSH20 0xFFFFFFFFFFFFFFFFFFFFFFFFFFFFFFFFFFFFFFFF AND DUP2 MSTORE PUSH1 0x20 ADD SWAP1 DUP2 MSTORE PUSH1 0x20 ADD PUSH1 0x0 KECCAK256 SLOAD PUSH2 0x4987 SWAP1 SWAP2 SWAP1 PUSH4 0xFFFFFFFF AND JUMP JUMPDEST PUSH1 0x2 PUSH1 0x0 DUP9 PUSH20 0xFFFFFFFFFFFFFFFFFFFFFFFFFFFFFFFFFFFFFFFF AND PUSH20 0xFFFFFFFFFFFFFFFFFFFFFFFFFFFFFFFFFFFFFFFF AND DUP2 MSTORE PUSH1 0x20 ADD SWAP1 DUP2 MSTORE PUSH1 0x20 ADD PUSH1 0x0 KECCAK256 DUP2 SWAP1 SSTORE POP PUSH2 0x35D8 DUP5 PUSH1 0x1 SLOAD PUSH2 0x4987 SWAP1 SWAP2 SWAP1 PUSH4 0xFFFFFFFF AND JUMP JUMPDEST PUSH1 0x1 DUP2 SWAP1 SSTORE POP DUP6 PUSH20 0xFFFFFFFFFFFFFFFFFFFFFFFFFFFFFFFFFFFFFFFF AND DUP6 PUSH20 0xFFFFFFFFFFFFFFFFFFFFFFFFFFFFFFFFFFFFFFFF AND DUP9 PUSH32 0xA4F62471C9BDF88115B97203943C74C59B655913EE5EE592706D84EF53FB6BE2 DUP8 DUP8 DUP8 PUSH1 0x40 MLOAD DUP1 DUP5 DUP2 MSTORE PUSH1 0x20 ADD DUP1 PUSH1 0x20 ADD DUP1 PUSH1 0x20 ADD DUP4 DUP2 SUB DUP4 MSTORE DUP6 DUP2 DUP2 MLOAD DUP2 MSTORE PUSH1 0x20 ADD SWAP2 POP DUP1 MLOAD SWAP1 PUSH1 0x20 ADD SWAP1 DUP1 DUP4 DUP4 PUSH1 0x0 JUMPDEST DUP4 DUP2 LT ISZERO PUSH2 0x367B JUMPI DUP1 DUP3 ADD MLOAD DUP2 DUP5 ADD MSTORE PUSH1 0x20 DUP2 ADD SWAP1 POP PUSH2 0x3660 JUMP JUMPDEST POP POP POP POP SWAP1 POP SWAP1 DUP2 ADD SWAP1 PUSH1 0x1F AND DUP1 ISZERO PUSH2 0x36A8 JUMPI DUP1 DUP3 SUB DUP1 MLOAD PUSH1 0x1 DUP4 PUSH1 0x20 SUB PUSH2 0x100 EXP SUB NOT AND DUP2 MSTORE PUSH1 0x20 ADD SWAP2 POP JUMPDEST POP DUP4 DUP2 SUB DUP3 MSTORE DUP5 DUP2 DUP2 MLOAD DUP2 MSTORE PUSH1 0x20 ADD SWAP2 POP DUP1 MLOAD SWAP1 PUSH1 0x20 ADD SWAP1 DUP1 DUP4 DUP4 PUSH1 0x0 JUMPDEST DUP4 DUP2 LT ISZERO PUSH2 0x36E1 JUMPI DUP1 DUP3 ADD MLOAD DUP2 DUP5 ADD MSTORE PUSH1 0x20 DUP2 ADD SWAP1 POP PUSH2 0x36C6 JUMP JUMPDEST POP POP POP POP SWAP1 POP SWAP1 DUP2 ADD SWAP1 PUSH1 0x1F AND DUP1 ISZERO PUSH2 0x370E JUMPI DUP1 DUP3 SUB DUP1 MLOAD PUSH1 0x1 DUP4 PUSH1 0x20 SUB PUSH2 0x100 EXP SUB NOT AND DUP2 MSTORE PUSH1 0x20 ADD SWAP2 POP JUMPDEST POP SWAP6 POP POP POP POP POP POP PUSH1 0x40 MLOAD DUP1 SWAP2 SUB SWAP1 LOG4 POP POP POP POP POP POP POP JUMP JUMPDEST PUSH1 0x0 PUSH1 0x4 PUSH1 0x0 DUP4 PUSH20 0xFFFFFFFFFFFFFFFFFFFFFFFFFFFFFFFFFFFFFFFF AND PUSH20 0xFFFFFFFFFFFFFFFFFFFFFFFFFFFFFFFFFFFFFFFF AND DUP2 MSTORE PUSH1 0x20 ADD SWAP1 DUP2 MSTORE PUSH1 0x20 ADD PUSH1 0x0 KECCAK256 PUSH1 0x0 DUP5 DUP2 MSTORE PUSH1 0x20 ADD SWAP1 DUP2 MSTORE PUSH1 0x20 ADD PUSH1 0x0 KECCAK256 SLOAD PUSH1 0x3 PUSH1 0x0 DUP5 PUSH20 0xFFFFFFFFFFFFFFFFFFFFFFFFFFFFFFFFFFFFFFFF AND PUSH20 0xFFFFFFFFFFFFFFFFFFFFFFFFFFFFFFFFFFFFFFFF AND DUP2 MSTORE PUSH1 0x20 ADD SWAP1 DUP2 MSTORE PUSH1 0x20 ADD PUSH1 0x0 KECCAK256 DUP1 SLOAD SWAP1 POP LT DUP1 PUSH2 0x3819 JUMPI POP PUSH1 0x0 PUSH1 0x4 PUSH1 0x0 DUP5 PUSH20 0xFFFFFFFFFFFFFFFFFFFFFFFFFFFFFFFFFFFFFFFF AND PUSH20 0xFFFFFFFFFFFFFFFFFFFFFFFFFFFFFFFFFFFFFFFF AND DUP2 MSTORE PUSH1 0x20 ADD SWAP1 DUP2 MSTORE PUSH1 0x20 ADD PUSH1 0x0 KECCAK256 PUSH1 0x0 DUP6 DUP2 MSTORE PUSH1 0x20 ADD SWAP1 DUP2 MSTORE PUSH1 0x20 ADD PUSH1 0x0 KECCAK256 SLOAD EQ JUMPDEST ISZERO PUSH2 0x3827 JUMPI PUSH1 0x0 SWAP1 POP PUSH2 0x382C JUMP JUMPDEST PUSH1 0x1 SWAP1 POP JUMPDEST SWAP3 SWAP2 POP POP JUMP JUMPDEST PUSH2 0x383C DUP5 DUP9 PUSH2 0x3727 JUMP JUMPDEST PUSH2 0x38AE JUMPI PUSH1 0x40 MLOAD PUSH32 0x8C379A000000000000000000000000000000000000000000000000000000000 DUP2 MSTORE PUSH1 0x4 ADD DUP1 DUP1 PUSH1 0x20 ADD DUP3 DUP2 SUB DUP3 MSTORE PUSH1 0x11 DUP2 MSTORE PUSH1 0x20 ADD DUP1 PUSH32 0x496E76616C696420706172746974696F6E000000000000000000000000000000 DUP2 MSTORE POP PUSH1 0x20 ADD SWAP2 POP POP PUSH1 0x40 MLOAD DUP1 SWAP2 SUB SWAP1 REVERT JUMPDEST DUP5 PUSH1 0x3 PUSH1 0x0 DUP10 PUSH20 0xFFFFFFFFFFFFFFFFFFFFFFFFFFFFFFFFFFFFFFFF AND PUSH20 0xFFFFFFFFFFFFFFFFFFFFFFFFFFFFFFFFFFFFFFFF AND DUP2 MSTORE PUSH1 0x20 ADD SWAP1 DUP2 MSTORE PUSH1 0x20 ADD PUSH1 0x0 KECCAK256 PUSH1 0x1 PUSH1 0x4 PUSH1 0x0 DUP12 PUSH20 0xFFFFFFFFFFFFFFFFFFFFFFFFFFFFFFFFFFFFFFFF AND PUSH20 0xFFFFFFFFFFFFFFFFFFFFFFFFFFFFFFFFFFFFFFFF AND DUP2 MSTORE PUSH1 0x20 ADD SWAP1 DUP2 MSTORE PUSH1 0x20 ADD PUSH1 0x0 KECCAK256 PUSH1 0x0 DUP9 DUP2 MSTORE PUSH1 0x20 ADD SWAP1 DUP2 MSTORE PUSH1 0x20 ADD PUSH1 0x0 KECCAK256 SLOAD SUB DUP2 SLOAD DUP2 LT PUSH2 0x394C JUMPI INVALID JUMPDEST SWAP1 PUSH1 0x0 MSTORE PUSH1 0x20 PUSH1 0x0 KECCAK256 SWAP1 PUSH1 0x2 MUL ADD PUSH1 0x0 ADD SLOAD LT ISZERO PUSH2 0x39D2 JUMPI PUSH1 0x40 MLOAD PUSH32 0x8C379A000000000000000000000000000000000000000000000000000000000 DUP2 MSTORE PUSH1 0x4 ADD DUP1 DUP1 PUSH1 0x20 ADD DUP3 DUP2 SUB DUP3 MSTORE PUSH1 0x14 DUP2 MSTORE PUSH1 0x20 ADD DUP1 PUSH32 0x496E73756666696369656E742062616C616E6365000000000000000000000000 DUP2 MSTORE POP PUSH1 0x20 ADD SWAP2 POP POP PUSH1 0x40 MLOAD DUP1 SWAP2 SUB SWAP1 REVERT JUMPDEST PUSH1 0x0 PUSH20 0xFFFFFFFFFFFFFFFFFFFFFFFFFFFFFFFFFFFFFFFF AND DUP7 PUSH20 0xFFFFFFFFFFFFFFFFFFFFFFFFFFFFFFFFFFFFFFFF AND EQ ISZERO PUSH2 0x3A75 JUMPI PUSH1 0x40 MLOAD PUSH32 0x8C379A000000000000000000000000000000000000000000000000000000000 DUP2 MSTORE PUSH1 0x4 ADD DUP1 DUP1 PUSH1 0x20 ADD DUP3 DUP2 SUB DUP3 MSTORE PUSH1 0x16 DUP2 MSTORE PUSH1 0x20 ADD DUP1 PUSH32 0x30782061646472657373206E6F7420616C6C6F77656400000000000000000000 DUP2 MSTORE POP PUSH1 0x20 ADD SWAP2 POP POP PUSH1 0x40 MLOAD DUP1 SWAP2 SUB SWAP1 REVERT JUMPDEST PUSH1 0x0 PUSH1 0x1 PUSH1 0x4 PUSH1 0x0 DUP11 PUSH20 0xFFFFFFFFFFFFFFFFFFFFFFFFFFFFFFFFFFFFFFFF AND PUSH20 0xFFFFFFFFFFFFFFFFFFFFFFFFFFFFFFFFFFFFFFFF AND DUP2 MSTORE PUSH1 0x20 ADD SWAP1 DUP2 MSTORE PUSH1 0x20 ADD PUSH1 0x0 KECCAK256 PUSH1 0x0 DUP8 DUP2 MSTORE PUSH1 0x20 ADD SWAP1 DUP2 MSTORE PUSH1 0x20 ADD PUSH1 0x0 KECCAK256 SLOAD SUB SWAP1 POP PUSH2 0x3AD7 DUP6 DUP9 PUSH2 0x2E14 JUMP JUMPDEST PUSH2 0x3C07 JUMPI PUSH1 0x3 PUSH1 0x0 DUP9 PUSH20 0xFFFFFFFFFFFFFFFFFFFFFFFFFFFFFFFFFFFFFFFF AND PUSH20 0xFFFFFFFFFFFFFFFFFFFFFFFFFFFFFFFFFFFFFFFF AND DUP2 MSTORE PUSH1 0x20 ADD SWAP1 DUP2 MSTORE PUSH1 0x20 ADD PUSH1 0x0 KECCAK256 PUSH1 0x40 MLOAD DUP1 PUSH1 0x40 ADD PUSH1 0x40 MSTORE DUP1 PUSH1 0x0 DUP2 MSTORE PUSH1 0x20 ADD DUP8 DUP2 MSTORE POP SWAP1 DUP1 PUSH1 0x1 DUP2 SLOAD ADD DUP1 DUP3 SSTORE DUP1 SWAP2 POP POP PUSH1 0x1 SWAP1 SUB SWAP1 PUSH1 0x0 MSTORE PUSH1 0x20 PUSH1 0x0 KECCAK256 SWAP1 PUSH1 0x2 MUL ADD PUSH1 0x0 SWAP1 SWAP2 SWAP1 SWAP2 SWAP1 SWAP2 POP PUSH1 0x0 DUP3 ADD MLOAD DUP2 PUSH1 0x0 ADD SSTORE PUSH1 0x20 DUP3 ADD MLOAD DUP2 PUSH1 0x1 ADD SSTORE POP POP PUSH1 0x3 PUSH1 0x0 DUP9 PUSH20 0xFFFFFFFFFFFFFFFFFFFFFFFFFFFFFFFFFFFFFFFF AND PUSH20 0xFFFFFFFFFFFFFFFFFFFFFFFFFFFFFFFFFFFFFFFF AND DUP2 MSTORE PUSH1 0x20 ADD SWAP1 DUP2 MSTORE PUSH1 0x20 ADD PUSH1 0x0 KECCAK256 DUP1 SLOAD SWAP1 POP PUSH1 0x4 PUSH1 0x0 DUP10 PUSH20 0xFFFFFFFFFFFFFFFFFFFFFFFFFFFFFFFFFFFFFFFF AND PUSH20 0xFFFFFFFFFFFFFFFFFFFFFFFFFFFFFFFFFFFFFFFF AND DUP2 MSTORE PUSH1 0x20 ADD SWAP1 DUP2 MSTORE PUSH1 0x20 ADD PUSH1 0x0 KECCAK256 PUSH1 0x0 DUP8 DUP2 MSTORE PUSH1 0x20 ADD SWAP1 DUP2 MSTORE PUSH1 0x20 ADD PUSH1 0x0 KECCAK256 DUP2 SWAP1 SSTORE POP JUMPDEST PUSH1 0x0 PUSH1 0x1 PUSH1 0x4 PUSH1 0x0 DUP11 PUSH20 0xFFFFFFFFFFFFFFFFFFFFFFFFFFFFFFFFFFFFFFFF AND PUSH20 0xFFFFFFFFFFFFFFFFFFFFFFFFFFFFFFFFFFFFFFFF AND DUP2 MSTORE PUSH1 0x20 ADD SWAP1 DUP2 MSTORE PUSH1 0x20 ADD PUSH1 0x0 KECCAK256 PUSH1 0x0 DUP9 DUP2 MSTORE PUSH1 0x20 ADD SWAP1 DUP2 MSTORE PUSH1 0x20 ADD PUSH1 0x0 KECCAK256 SLOAD SUB SWAP1 POP PUSH2 0x3CCD DUP8 PUSH1 0x3 PUSH1 0x0 DUP13 PUSH20 0xFFFFFFFFFFFFFFFFFFFFFFFFFFFFFFFFFFFFFFFF AND PUSH20 0xFFFFFFFFFFFFFFFFFFFFFFFFFFFFFFFFFFFFFFFF AND DUP2 MSTORE PUSH1 0x20 ADD SWAP1 DUP2 MSTORE PUSH1 0x20 ADD PUSH1 0x0 KECCAK256 DUP5 DUP2 SLOAD DUP2 LT PUSH2 0x3CAD JUMPI INVALID JUMPDEST SWAP1 PUSH1 0x0 MSTORE PUSH1 0x20 PUSH1 0x0 KECCAK256 SWAP1 PUSH1 0x2 MUL ADD PUSH1 0x0 ADD SLOAD PUSH2 0x4987 SWAP1 SWAP2 SWAP1 PUSH4 0xFFFFFFFF AND JUMP JUMPDEST PUSH1 0x3 PUSH1 0x0 DUP12 PUSH20 0xFFFFFFFFFFFFFFFFFFFFFFFFFFFFFFFFFFFFFFFF AND PUSH20 0xFFFFFFFFFFFFFFFFFFFFFFFFFFFFFFFFFFFFFFFF AND DUP2 MSTORE PUSH1 0x20 ADD SWAP1 DUP2 MSTORE PUSH1 0x20 ADD PUSH1 0x0 KECCAK256 DUP4 DUP2 SLOAD DUP2 LT PUSH2 0x3D17 JUMPI INVALID JUMPDEST SWAP1 PUSH1 0x0 MSTORE PUSH1 0x20 PUSH1 0x0 KECCAK256 SWAP1 PUSH1 0x2 MUL ADD PUSH1 0x0 ADD DUP2 SWAP1 SSTORE POP PUSH2 0x3D7E DUP8 PUSH1 0x2 PUSH1 0x0 DUP13 PUSH20 0xFFFFFFFFFFFFFFFFFFFFFFFFFFFFFFFFFFFFFFFF AND PUSH20 0xFFFFFFFFFFFFFFFFFFFFFFFFFFFFFFFFFFFFFFFF AND DUP2 MSTORE PUSH1 0x20 ADD SWAP1 DUP2 MSTORE PUSH1 0x20 ADD PUSH1 0x0 KECCAK256 SLOAD PUSH2 0x4987 SWAP1 SWAP2 SWAP1 PUSH4 0xFFFFFFFF AND JUMP JUMPDEST PUSH1 0x2 PUSH1 0x0 DUP12 PUSH20 0xFFFFFFFFFFFFFFFFFFFFFFFFFFFFFFFFFFFFFFFF AND PUSH20 0xFFFFFFFFFFFFFFFFFFFFFFFFFFFFFFFFFFFFFFFF AND DUP2 MSTORE PUSH1 0x20 ADD SWAP1 DUP2 MSTORE PUSH1 0x20 ADD PUSH1 0x0 KECCAK256 DUP2 SWAP1 SSTORE POP PUSH2 0x3E2F DUP8 PUSH1 0x3 PUSH1 0x0 DUP12 PUSH20 0xFFFFFFFFFFFFFFFFFFFFFFFFFFFFFFFFFFFFFFFF AND PUSH20 0xFFFFFFFFFFFFFFFFFFFFFFFFFFFFFFFFFFFFFFFF AND DUP2 MSTORE PUSH1 0x20 ADD SWAP1 DUP2 MSTORE PUSH1 0x20 ADD PUSH1 0x0 KECCAK256 DUP4 DUP2 SLOAD DUP2 LT PUSH2 0x3E0F JUMPI INVALID JUMPDEST SWAP1 PUSH1 0x0 MSTORE PUSH1 0x20 PUSH1 0x0 KECCAK256 SWAP1 PUSH1 0x2 MUL ADD PUSH1 0x0 ADD SLOAD PUSH2 0x4A0A SWAP1 SWAP2 SWAP1 PUSH4 0xFFFFFFFF AND JUMP JUMPDEST PUSH1 0x3 PUSH1 0x0 DUP11 PUSH20 0xFFFFFFFFFFFFFFFFFFFFFFFFFFFFFFFFFFFFFFFF AND PUSH20 0xFFFFFFFFFFFFFFFFFFFFFFFFFFFFFFFFFFFFFFFF AND DUP2 MSTORE PUSH1 0x20 ADD SWAP1 DUP2 MSTORE PUSH1 0x20 ADD PUSH1 0x0 KECCAK256 DUP3 DUP2 SLOAD DUP2 LT PUSH2 0x3E79 JUMPI INVALID JUMPDEST SWAP1 PUSH1 0x0 MSTORE PUSH1 0x20 PUSH1 0x0 KECCAK256 SWAP1 PUSH1 0x2 MUL ADD PUSH1 0x0 ADD DUP2 SWAP1 SSTORE POP PUSH2 0x3EE0 DUP8 PUSH1 0x2 PUSH1 0x0 DUP12 PUSH20 0xFFFFFFFFFFFFFFFFFFFFFFFFFFFFFFFFFFFFFFFF AND PUSH20 0xFFFFFFFFFFFFFFFFFFFFFFFFFFFFFFFFFFFFFFFF AND DUP2 MSTORE PUSH1 0x20 ADD SWAP1 DUP2 MSTORE PUSH1 0x20 ADD PUSH1 0x0 KECCAK256 SLOAD PUSH2 0x4A0A SWAP1 SWAP2 SWAP1 PUSH4 0xFFFFFFFF AND JUMP JUMPDEST PUSH1 0x2 PUSH1 0x0 DUP11 PUSH20 0xFFFFFFFFFFFFFFFFFFFFFFFFFFFFFFFFFFFFFFFF AND PUSH20 0xFFFFFFFFFFFFFFFFFFFFFFFFFFFFFFFFFFFFFFFF AND DUP2 MSTORE PUSH1 0x20 ADD SWAP1 DUP2 MSTORE PUSH1 0x20 ADD PUSH1 0x0 KECCAK256 DUP2 SWAP1 SSTORE POP DUP8 PUSH20 0xFFFFFFFFFFFFFFFFFFFFFFFFFFFFFFFFFFFFFFFF AND DUP10 PUSH20 0xFFFFFFFFFFFFFFFFFFFFFFFFFFFFFFFFFFFFFFFF AND DUP8 PUSH32 0xFF4E9A26AF4EB73B8BACFAA4ABD4FEA03D9448E7B912DC5FF4019048875AA2D4 DUP8 DUP12 DUP11 DUP10 PUSH1 0x40 MLOAD DUP1 DUP6 PUSH20 0xFFFFFFFFFFFFFFFFFFFFFFFFFFFFFFFFFFFFFFFF AND DUP2 MSTORE PUSH1 0x20 ADD DUP5 DUP2 MSTORE PUSH1 0x20 ADD DUP1 PUSH1 0x20 ADD DUP1 PUSH1 0x20 ADD DUP4 DUP2 SUB DUP4 MSTORE DUP6 DUP2 DUP2 MLOAD DUP2 MSTORE PUSH1 0x20 ADD SWAP2 POP DUP1 MLOAD SWAP1 PUSH1 0x20 ADD SWAP1 DUP1 DUP4 DUP4 PUSH1 0x0 JUMPDEST DUP4 DUP2 LT ISZERO PUSH2 0x3FDD JUMPI DUP1 DUP3 ADD MLOAD DUP2 DUP5 ADD MSTORE PUSH1 0x20 DUP2 ADD SWAP1 POP PUSH2 0x3FC2 JUMP JUMPDEST POP POP POP POP SWAP1 POP SWAP1 DUP2 ADD SWAP1 PUSH1 0x1F AND DUP1 ISZERO PUSH2 0x400A JUMPI DUP1 DUP3 SUB DUP1 MLOAD PUSH1 0x1 DUP4 PUSH1 0x20 SUB PUSH2 0x100 EXP SUB NOT AND DUP2 MSTORE PUSH1 0x20 ADD SWAP2 POP JUMPDEST POP DUP4 DUP2 SUB DUP3 MSTORE DUP5 DUP2 DUP2 MLOAD DUP2 MSTORE PUSH1 0x20 ADD SWAP2 POP DUP1 MLOAD SWAP1 PUSH1 0x20 ADD SWAP1 DUP1 DUP4 DUP4 PUSH1 0x0 JUMPDEST DUP4 DUP2 LT ISZERO PUSH2 0x4043 JUMPI DUP1 DUP3 ADD MLOAD DUP2 DUP5 ADD MSTORE PUSH1 0x20 DUP2 ADD SWAP1 POP PUSH2 0x4028 JUMP JUMPDEST POP POP POP POP SWAP1 POP SWAP1 DUP2 ADD SWAP1 PUSH1 0x1F AND DUP1 ISZERO PUSH2 0x4070 JUMPI DUP1 DUP3 SUB DUP1 MLOAD PUSH1 0x1 DUP4 PUSH1 0x20 SUB PUSH2 0x100 EXP SUB NOT AND DUP2 MSTORE PUSH1 0x20 ADD SWAP2 POP JUMPDEST POP SWAP7 POP POP POP POP POP POP POP PUSH1 0x40 MLOAD DUP1 SWAP2 SUB SWAP1 LOG4 POP POP POP POP POP POP POP POP POP JUMP JUMPDEST PUSH1 0x0 CALLER SWAP1 POP SWAP1 JUMP JUMPDEST PUSH2 0x409E DUP6 DUP5 PUSH2 0x4559 JUMP JUMPDEST PUSH1 0x0 PUSH20 0xFFFFFFFFFFFFFFFFFFFFFFFFFFFFFFFFFFFFFFFF AND DUP5 PUSH20 0xFFFFFFFFFFFFFFFFFFFFFFFFFFFFFFFFFFFFFFFF AND EQ ISZERO PUSH2 0x4141 JUMPI PUSH1 0x40 MLOAD PUSH32 0x8C379A000000000000000000000000000000000000000000000000000000000 DUP2 MSTORE PUSH1 0x4 ADD DUP1 DUP1 PUSH1 0x20 ADD DUP3 DUP2 SUB DUP3 MSTORE PUSH1 0x16 DUP2 MSTORE PUSH1 0x20 ADD DUP1 PUSH32 0x496E76616C696420746F6B656E20726563656976657200000000000000000000 DUP2 MSTORE POP PUSH1 0x20 ADD SWAP2 POP POP PUSH1 0x40 MLOAD DUP1 SWAP2 SUB SWAP1 REVERT JUMPDEST PUSH1 0x0 PUSH1 0x4 PUSH1 0x0 DUP7 PUSH20 0xFFFFFFFFFFFFFFFFFFFFFFFFFFFFFFFFFFFFFFFF AND PUSH20 0xFFFFFFFFFFFFFFFFFFFFFFFFFFFFFFFFFFFFFFFF AND DUP2 MSTORE PUSH1 0x20 ADD SWAP1 DUP2 MSTORE PUSH1 0x20 ADD PUSH1 0x0 KECCAK256 PUSH1 0x0 DUP8 DUP2 MSTORE PUSH1 0x20 ADD SWAP1 DUP2 MSTORE PUSH1 0x20 ADD PUSH1 0x0 KECCAK256 SLOAD SWAP1 POP PUSH1 0x0 DUP2 EQ ISZERO PUSH2 0x42CE JUMPI PUSH1 0x3 PUSH1 0x0 DUP7 PUSH20 0xFFFFFFFFFFFFFFFFFFFFFFFFFFFFFFFFFFFFFFFF AND PUSH20 0xFFFFFFFFFFFFFFFFFFFFFFFFFFFFFFFFFFFFFFFF AND DUP2 MSTORE PUSH1 0x20 ADD SWAP1 DUP2 MSTORE PUSH1 0x20 ADD PUSH1 0x0 KECCAK256 PUSH1 0x40 MLOAD DUP1 PUSH1 0x40 ADD PUSH1 0x40 MSTORE DUP1 DUP7 DUP2 MSTORE PUSH1 0x20 ADD DUP9 DUP2 MSTORE POP SWAP1 DUP1 PUSH1 0x1 DUP2 SLOAD ADD DUP1 DUP3 SSTORE DUP1 SWAP2 POP POP PUSH1 0x1 SWAP1 SUB SWAP1 PUSH1 0x0 MSTORE PUSH1 0x20 PUSH1 0x0 KECCAK256 SWAP1 PUSH1 0x2 MUL ADD PUSH1 0x0 SWAP1 SWAP2 SWAP1 SWAP2 SWAP1 SWAP2 POP PUSH1 0x0 DUP3 ADD MLOAD DUP2 PUSH1 0x0 ADD SSTORE PUSH1 0x20 DUP3 ADD MLOAD DUP2 PUSH1 0x1 ADD SSTORE POP POP PUSH1 0x3 PUSH1 0x0 DUP7 PUSH20 0xFFFFFFFFFFFFFFFFFFFFFFFFFFFFFFFFFFFFFFFF AND PUSH20 0xFFFFFFFFFFFFFFFFFFFFFFFFFFFFFFFFFFFFFFFF AND DUP2 MSTORE PUSH1 0x20 ADD SWAP1 DUP2 MSTORE PUSH1 0x20 ADD PUSH1 0x0 KECCAK256 DUP1 SLOAD SWAP1 POP PUSH1 0x4 PUSH1 0x0 DUP8 PUSH20 0xFFFFFFFFFFFFFFFFFFFFFFFFFFFFFFFFFFFFFFFF AND PUSH20 0xFFFFFFFFFFFFFFFFFFFFFFFFFFFFFFFFFFFFFFFF AND DUP2 MSTORE PUSH1 0x20 ADD SWAP1 DUP2 MSTORE PUSH1 0x20 ADD PUSH1 0x0 KECCAK256 PUSH1 0x0 DUP9 DUP2 MSTORE PUSH1 0x20 ADD SWAP1 DUP2 MSTORE PUSH1 0x20 ADD PUSH1 0x0 KECCAK256 DUP2 SWAP1 SSTORE POP PUSH2 0x43A2 JUMP JUMPDEST PUSH2 0x433F DUP5 PUSH1 0x3 PUSH1 0x0 DUP9 PUSH20 0xFFFFFFFFFFFFFFFFFFFFFFFFFFFFFFFFFFFFFFFF AND PUSH20 0xFFFFFFFFFFFFFFFFFFFFFFFFFFFFFFFFFFFFFFFF AND DUP2 MSTORE PUSH1 0x20 ADD SWAP1 DUP2 MSTORE PUSH1 0x20 ADD PUSH1 0x0 KECCAK256 PUSH1 0x1 DUP5 SUB DUP2 SLOAD DUP2 LT PUSH2 0x431F JUMPI INVALID JUMPDEST SWAP1 PUSH1 0x0 MSTORE PUSH1 0x20 PUSH1 0x0 KECCAK256 SWAP1 PUSH1 0x2 MUL ADD PUSH1 0x0 ADD SLOAD PUSH2 0x4A0A SWAP1 SWAP2 SWAP1 PUSH4 0xFFFFFFFF AND JUMP JUMPDEST PUSH1 0x3 PUSH1 0x0 DUP8 PUSH20 0xFFFFFFFFFFFFFFFFFFFFFFFFFFFFFFFFFFFFFFFF AND PUSH20 0xFFFFFFFFFFFFFFFFFFFFFFFFFFFFFFFFFFFFFFFF AND DUP2 MSTORE PUSH1 0x20 ADD SWAP1 DUP2 MSTORE PUSH1 0x20 ADD PUSH1 0x0 KECCAK256 PUSH1 0x1 DUP4 SUB DUP2 SLOAD DUP2 LT PUSH2 0x438C JUMPI INVALID JUMPDEST SWAP1 PUSH1 0x0 MSTORE PUSH1 0x20 PUSH1 0x0 KECCAK256 SWAP1 PUSH1 0x2 MUL ADD PUSH1 0x0 ADD DUP2 SWAP1 SSTORE POP JUMPDEST PUSH2 0x43B7 DUP5 PUSH1 0x1 SLOAD PUSH2 0x4A0A SWAP1 SWAP2 SWAP1 PUSH4 0xFFFFFFFF AND JUMP JUMPDEST PUSH1 0x1 DUP2 SWAP1 SSTORE POP PUSH2 0x440F DUP5 PUSH1 0x2 PUSH1 0x0 DUP9 PUSH20 0xFFFFFFFFFFFFFFFFFFFFFFFFFFFFFFFFFFFFFFFF AND PUSH20 0xFFFFFFFFFFFFFFFFFFFFFFFFFFFFFFFFFFFFFFFF AND DUP2 MSTORE PUSH1 0x20 ADD SWAP1 DUP2 MSTORE PUSH1 0x20 ADD PUSH1 0x0 KECCAK256 SLOAD PUSH2 0x4A0A SWAP1 SWAP2 SWAP1 PUSH4 0xFFFFFFFF AND JUMP JUMPDEST PUSH1 0x2 PUSH1 0x0 DUP8 PUSH20 0xFFFFFFFFFFFFFFFFFFFFFFFFFFFFFFFFFFFFFFFF AND PUSH20 0xFFFFFFFFFFFFFFFFFFFFFFFFFFFFFFFFFFFFFFFF AND DUP2 MSTORE PUSH1 0x20 ADD SWAP1 DUP2 MSTORE PUSH1 0x20 ADD PUSH1 0x0 KECCAK256 DUP2 SWAP1 SSTORE POP DUP5 PUSH20 0xFFFFFFFFFFFFFFFFFFFFFFFFFFFFFFFFFFFFFFFF AND DUP7 PUSH32 0x6032E2468B0F94DFA63C61D6C8A84842A99C049263EAE408A52B945020B6578D DUP7 DUP7 PUSH1 0x40 MLOAD DUP1 DUP4 DUP2 MSTORE PUSH1 0x20 ADD DUP1 PUSH1 0x20 ADD DUP3 DUP2 SUB DUP3 MSTORE DUP4 DUP2 DUP2 MLOAD DUP2 MSTORE PUSH1 0x20 ADD SWAP2 POP DUP1 MLOAD SWAP1 PUSH1 0x20 ADD SWAP1 DUP1 DUP4 DUP4 PUSH1 0x0 JUMPDEST DUP4 DUP2 LT ISZERO PUSH2 0x44D3 JUMPI DUP1 DUP3 ADD MLOAD DUP2 DUP5 ADD MSTORE PUSH1 0x20 DUP2 ADD SWAP1 POP PUSH2 0x44B8 JUMP JUMPDEST POP POP POP POP SWAP1 POP SWAP1 DUP2 ADD SWAP1 PUSH1 0x1F AND DUP1 ISZERO PUSH2 0x4500 JUMPI DUP1 DUP3 SUB DUP1 MLOAD PUSH1 0x1 DUP4 PUSH1 0x20 SUB PUSH2 0x100 EXP SUB NOT AND DUP2 MSTORE PUSH1 0x20 ADD SWAP2 POP JUMPDEST POP SWAP4 POP POP POP POP PUSH1 0x40 MLOAD DUP1 SWAP2 SUB SWAP1 LOG3 POP POP POP POP POP POP JUMP JUMPDEST PUSH1 0x0 DUP3 DUP3 GT PUSH2 0x4528 JUMPI PUSH1 0x1 SWAP1 POP PUSH2 0x452D JUMP JUMPDEST PUSH1 0x0 SWAP1 POP JUMPDEST SWAP3 SWAP2 POP POP JUMP JUMPDEST PUSH1 0x0 DUP1 DUP3 DUP5 ADD SWAP1 POP DUP4 DUP2 LT ISZERO PUSH2 0x454D JUMPI PUSH1 0x0 SWAP2 POP POP PUSH2 0x4553 JUMP JUMPDEST PUSH1 0x1 SWAP2 POP POP JUMPDEST SWAP3 SWAP2 POP POP JUMP JUMPDEST PUSH1 0x0 DUP2 EQ ISZERO PUSH2 0x45D0 JUMPI PUSH1 0x40 MLOAD PUSH32 0x8C379A000000000000000000000000000000000000000000000000000000000 DUP2 MSTORE PUSH1 0x4 ADD DUP1 DUP1 PUSH1 0x20 ADD DUP3 DUP2 SUB DUP3 MSTORE PUSH1 0x16 DUP2 MSTORE PUSH1 0x20 ADD DUP1 PUSH32 0x5A65726F2076616C7565206E6F7420616C6C6F77656400000000000000000000 DUP2 MSTORE POP PUSH1 0x20 ADD SWAP2 POP POP PUSH1 0x40 MLOAD DUP1 SWAP2 SUB SWAP1 REVERT JUMPDEST PUSH1 0x0 DUP1 SHL DUP3 EQ ISZERO PUSH2 0x4649 JUMPI PUSH1 0x40 MLOAD PUSH32 0x8C379A000000000000000000000000000000000000000000000000000000000 DUP2 MSTORE PUSH1 0x4 ADD DUP1 DUP1 PUSH1 0x20 ADD DUP3 DUP2 SUB DUP3 MSTORE PUSH1 0x11 DUP2 MSTORE PUSH1 0x20 ADD DUP1 PUSH32 0x496E76616C696420706172746974696F6E000000000000000000000000000000 DUP2 MSTORE POP PUSH1 0x20 ADD SWAP2 POP POP PUSH1 0x40 MLOAD DUP1 SWAP2 SUB SWAP1 REVERT JUMPDEST PUSH32 0x7465737400000000000000000000000000000000000000000000000000000000 PUSH1 0x0 SHL DUP3 EQ DUP1 PUSH2 0x469C JUMPI POP PUSH32 0x7465737600000000000000000000000000000000000000000000000000000000 PUSH1 0x0 SHL DUP3 EQ JUMPDEST DUP1 PUSH2 0x46C9 JUMPI POP PUSH32 0x7465737800000000000000000000000000000000000000000000000000000000 PUSH1 0x0 SHL DUP3 EQ JUMPDEST PUSH2 0x471E JUMPI PUSH1 0x40 MLOAD PUSH32 0x8C379A000000000000000000000000000000000000000000000000000000000 DUP2 MSTORE PUSH1 0x4 ADD DUP1 DUP1 PUSH1 0x20 ADD DUP3 DUP2 SUB DUP3 MSTORE PUSH1 0x56 DUP2 MSTORE PUSH1 0x20 ADD DUP1 PUSH2 0x4AB9 PUSH1 0x56 SWAP2 CODECOPY PUSH1 0x60 ADD SWAP2 POP POP PUSH1 0x40 MLOAD DUP1 SWAP2 SUB SWAP1 REVERT JUMPDEST POP POP JUMP JUMPDEST PUSH1 0x1 PUSH1 0x3 PUSH1 0x0 DUP6 PUSH20 0xFFFFFFFFFFFFFFFFFFFFFFFFFFFFFFFFFFFFFFFF AND PUSH20 0xFFFFFFFFFFFFFFFFFFFFFFFFFFFFFFFFFFFFFFFF AND DUP2 MSTORE PUSH1 0x20 ADD SWAP1 DUP2 MSTORE PUSH1 0x20 ADD PUSH1 0x0 KECCAK256 DUP1 SLOAD SWAP1 POP SUB DUP2 EQ PUSH2 0x492E JUMPI PUSH1 0x3 PUSH1 0x0 DUP5 PUSH20 0xFFFFFFFFFFFFFFFFFFFFFFFFFFFFFFFFFFFFFFFF AND PUSH20 0xFFFFFFFFFFFFFFFFFFFFFFFFFFFFFFFFFFFFFFFF AND DUP2 MSTORE PUSH1 0x20 ADD SWAP1 DUP2 MSTORE PUSH1 0x20 ADD PUSH1 0x0 KECCAK256 PUSH1 0x1 PUSH1 0x3 PUSH1 0x0 DUP7 PUSH20 0xFFFFFFFFFFFFFFFFFFFFFFFFFFFFFFFFFFFFFFFF AND PUSH20 0xFFFFFFFFFFFFFFFFFFFFFFFFFFFFFFFFFFFFFFFF AND DUP2 MSTORE PUSH1 0x20 ADD SWAP1 DUP2 MSTORE PUSH1 0x20 ADD PUSH1 0x0 KECCAK256 DUP1 SLOAD SWAP1 POP SUB DUP2 SLOAD DUP2 LT PUSH2 0x47FD JUMPI INVALID JUMPDEST SWAP1 PUSH1 0x0 MSTORE PUSH1 0x20 PUSH1 0x0 KECCAK256 SWAP1 PUSH1 0x2 MUL ADD PUSH1 0x3 PUSH1 0x0 DUP6 PUSH20 0xFFFFFFFFFFFFFFFFFFFFFFFFFFFFFFFFFFFFFFFF AND PUSH20 0xFFFFFFFFFFFFFFFFFFFFFFFFFFFFFFFFFFFFFFFF AND DUP2 MSTORE PUSH1 0x20 ADD SWAP1 DUP2 MSTORE PUSH1 0x20 ADD PUSH1 0x0 KECCAK256 DUP3 DUP2 SLOAD DUP2 LT PUSH2 0x4855 JUMPI INVALID JUMPDEST SWAP1 PUSH1 0x0 MSTORE PUSH1 0x20 PUSH1 0x0 KECCAK256 SWAP1 PUSH1 0x2 MUL ADD PUSH1 0x0 DUP3 ADD SLOAD DUP2 PUSH1 0x0 ADD SSTORE PUSH1 0x1 DUP3 ADD SLOAD DUP2 PUSH1 0x1 ADD SSTORE SWAP1 POP POP PUSH1 0x1 DUP2 ADD PUSH1 0x4 PUSH1 0x0 DUP6 PUSH20 0xFFFFFFFFFFFFFFFFFFFFFFFFFFFFFFFFFFFFFFFF AND PUSH20 0xFFFFFFFFFFFFFFFFFFFFFFFFFFFFFFFFFFFFFFFF AND DUP2 MSTORE PUSH1 0x20 ADD SWAP1 DUP2 MSTORE PUSH1 0x20 ADD PUSH1 0x0 KECCAK256 PUSH1 0x0 PUSH1 0x3 PUSH1 0x0 DUP8 PUSH20 0xFFFFFFFFFFFFFFFFFFFFFFFFFFFFFFFFFFFFFFFF AND PUSH20 0xFFFFFFFFFFFFFFFFFFFFFFFFFFFFFFFFFFFFFFFF AND DUP2 MSTORE PUSH1 0x20 ADD SWAP1 DUP2 MSTORE PUSH1 0x20 ADD PUSH1 0x0 KECCAK256 DUP5 DUP2 SLOAD DUP2 LT PUSH2 0x4909 JUMPI INVALID JUMPDEST SWAP1 PUSH1 0x0 MSTORE PUSH1 0x20 PUSH1 0x0 KECCAK256 SWAP1 PUSH1 0x2 MUL ADD PUSH1 0x1 ADD SLOAD DUP2 MSTORE PUSH1 0x20 ADD SWAP1 DUP2 MSTORE PUSH1 0x20 ADD PUSH1 0x0 KECCAK256 DUP2 SWAP1 SSTORE POP JUMPDEST PUSH1 0x4 PUSH1 0x0 DUP5 PUSH20 0xFFFFFFFFFFFFFFFFFFFFFFFFFFFFFFFFFFFFFFFF AND PUSH20 0xFFFFFFFFFFFFFFFFFFFFFFFFFFFFFFFFFFFFFFFF AND DUP2 MSTORE PUSH1 0x20 ADD SWAP1 DUP2 MSTORE PUSH1 0x20 ADD PUSH1 0x0 KECCAK256 PUSH1 0x0 DUP4 DUP2 MSTORE PUSH1 0x20 ADD SWAP1 DUP2 MSTORE PUSH1 0x20 ADD PUSH1 0x0 KECCAK256 PUSH1 0x0 SWAP1 SSTORE POP POP POP JUMP JUMPDEST PUSH1 0x0 DUP3 DUP3 GT ISZERO PUSH2 0x49FF JUMPI PUSH1 0x40 MLOAD PUSH32 0x8C379A000000000000000000000000000000000000000000000000000000000 DUP2 MSTORE PUSH1 0x4 ADD DUP1 DUP1 PUSH1 0x20 ADD DUP3 DUP2 SUB DUP3 MSTORE PUSH1 0x1E DUP2 MSTORE PUSH1 0x20 ADD DUP1 PUSH32 0x536166654D6174683A207375627472616374696F6E206F766572666C6F770000 DUP2 MSTORE POP PUSH1 0x20 ADD SWAP2 POP POP PUSH1 0x40 MLOAD DUP1 SWAP2 SUB SWAP1 REVERT JUMPDEST DUP2 DUP4 SUB SWAP1 POP SWAP3 SWAP2 POP POP JUMP JUMPDEST PUSH1 0x0 DUP1 DUP3 DUP5 ADD SWAP1 POP DUP4 DUP2 LT ISZERO PUSH2 0x4A88 JUMPI PUSH1 0x40 MLOAD PUSH32 0x8C379A000000000000000000000000000000000000000000000000000000000 DUP2 MSTORE PUSH1 0x4 ADD DUP1 DUP1 PUSH1 0x20 ADD DUP3 DUP2 SUB DUP3 MSTORE PUSH1 0x1B DUP2 MSTORE PUSH1 0x20 ADD DUP1 PUSH32 0x536166654D6174683A206164646974696F6E206F766572666C6F770000000000 DUP2 MSTORE POP PUSH1 0x20 ADD SWAP2 POP POP PUSH1 0x40 MLOAD DUP1 SWAP2 SUB SWAP1 REVERT JUMPDEST DUP1 SWAP2 POP POP SWAP3 SWAP2 POP POP JUMP INVALID 0x4F PUSH24 0x6E61626C653A206E6577206F776E65722069732074686520 PUSH27 0x65726F2061646472657373506172746974696F6E2073686F756C64 KECCAK256 PUSH3 0x652048 GASLIMIT 0x4C DIFFICULTY 0x5F CHAINID MSTORE GASLIMIT GASLIMIT 0x5F POP COINBASE MSTORE SLOAD 0x49 SLOAD 0x49 0x4F 0x4E KECCAK256 PUSH16 0x72205452414E5349545F504152544954 0x49 0x4F 0x4E KECCAK256 PUSH16 0x7220554E434F4E4649524D45445F5041 MSTORE SLOAD 0x49 SLOAD 0x49 0x4F 0x4E KECCAK256 LOG2 PUSH5 0x6970667358 0x22 SLT KECCAK256 SLT BYTE DUP12 CREATE2 0xE3 0xDC STOP 0x28 0xAA 0xCC 0xEA 0xB4 SWAP8 JUMPI DUP8 0xA5 KECCAK256 SWAP5 0xAF 0x2E SHR SHL JUMP RETURNDATASIZE 0x5C DUP15 0xBE 0xAF DUP8 STATICCALL SELFDESTRUCT SWAP2 PUSH5 0x736F6C6343 STOP MOD 0xC STOP CALLER "
				},
				"gasEstimates": {
					"creation": {
						"codeDepositCost": "3853600",
						"executionCost": "infinite",
						"totalCost": "infinite"
					},
					"external": {
						"HELD_FREE_PARTITION()": "280",
						"TRANSIT_PARTITION()": "258",
						"UNCONFIRMED_PARTITION()": "278",
						"_validPartitionForReceiver(bytes32,address)": "infinite",
						"authorizeOperator(address)": "22892",
						"authorizeOperatorByPartition(bytes32,address)": "23400",
						"balanceOf(address)": "1241",
						"balanceOfByPartition(bytes32,address)": "3415",
						"canTransfer(address,address,uint256,bytes)": "3750",
						"canTransferByPartition(address,address,bytes32,uint256,bytes)": "3738",
						"isOperator(address,address)": "1452",
						"isOperatorForPartition(bytes32,address,address)": "1582",
						"issue(address,uint256,bytes)": "infinite",
						"issueByPartition(bytes32,address,uint256,bytes)": "infinite",
						"operatorIssue(address,uint256,bytes,bytes)": "infinite",
						"operatorIssueByPartition(bytes32,address,uint256,bytes,bytes)": "infinite",
						"operatorRedeem(address,uint256,bytes,bytes)": "infinite",
						"operatorRedeemByPartition(bytes32,address,uint256,bytes,bytes)": "infinite",
						"operatorTransfer(address,address,uint256,bytes,bytes)": "infinite",
						"operatorTransferByPartition(bytes32,address,address,uint256,bytes,bytes)": "infinite",
						"owner()": "1101",
						"partitionsOf(address)": "infinite",
						"redeem(uint256,bytes)": "infinite",
						"redeemByPartition(bytes32,uint256,bytes)": "infinite",
						"renounceOwnership()": "24396",
						"revokeOperator(address)": "22934",
						"revokeOperatorByPartition(bytes32,address)": "23377",
						"totalSupply()": "1103",
						"transfer(address,uint256,bytes)": "infinite",
						"transferByPartition(bytes32,address,uint256,bytes)": "infinite",
						"transferOwnership(address)": "infinite"
					},
					"internal": {
						"_deletePartitionForHolder(address,bytes32,uint256)": "72615",
						"_issueByPartition(bytes32,address,uint256,bytes memory,bytes memory)": "infinite",
						"_redeemByPartition(bytes32,address,address,uint256,bytes memory,bytes memory)": "infinite",
						"_transferByPartition(address,address,uint256,bytes32,bytes memory,address,bytes memory)": "infinite",
						"_validPartition(bytes32,address)": "2935",
						"_validateParams(bytes32,uint256)": "infinite"
					}
				},
				"methodIdentifiers": {
					"HELD_FREE_PARTITION()": "0d361c0a",
					"TRANSIT_PARTITION()": "054426ce",
					"UNCONFIRMED_PARTITION()": "c01f3d65",
					"_validPartitionForReceiver(bytes32,address)": "f2e35647",
					"authorizeOperator(address)": "959b8c3f",
					"authorizeOperatorByPartition(bytes32,address)": "103ef9e1",
					"balanceOf(address)": "70a08231",
					"balanceOfByPartition(bytes32,address)": "30e82803",
					"canTransfer(address,address,uint256,bytes)": "9d6232fa",
					"canTransferByPartition(address,address,bytes32,uint256,bytes)": "9945e70e",
					"isOperator(address,address)": "b6363cf2",
					"isOperatorForPartition(bytes32,address,address)": "6d77cad6",
					"issue(address,uint256,bytes)": "bb3acde9",
					"issueByPartition(bytes32,address,uint256,bytes)": "67c84919",
					"operatorIssue(address,uint256,bytes,bytes)": "a82a4a62",
					"operatorIssueByPartition(bytes32,address,uint256,bytes,bytes)": "ac781627",
					"operatorRedeem(address,uint256,bytes,bytes)": "d7d5b928",
					"operatorRedeemByPartition(bytes32,address,uint256,bytes,bytes)": "13d557bc",
					"operatorTransfer(address,address,uint256,bytes,bytes)": "4ad12aa4",
					"operatorTransferByPartition(bytes32,address,address,uint256,bytes,bytes)": "8c0dee9c",
					"owner()": "8da5cb5b",
					"partitionsOf(address)": "740ab8f4",
					"redeem(uint256,bytes)": "e77c646d",
					"redeemByPartition(bytes32,uint256,bytes)": "62eb0068",
					"renounceOwnership()": "715018a6",
					"revokeOperator(address)": "fad8b32a",
					"revokeOperatorByPartition(bytes32,address)": "168ecec5",
					"totalSupply()": "18160ddd",
					"transfer(address,uint256,bytes)": "be45fd62",
					"transferByPartition(bytes32,address,uint256,bytes)": "f3d490db",
					"transferOwnership(address)": "f2fde38b"
				}
			},
			"storageLayout": {
				"storage": [
					{
						"astId": 2017,
						"contract": "contracts/ERC1410/ERC1410Standard.sol:ERC1410Standard",
						"label": "_owner",
						"offset": 0,
						"slot": "0",
						"type": "t_address"
					},
					{
						"astId": 31,
						"contract": "contracts/ERC1410/ERC1410Standard.sol:ERC1410Standard",
						"label": "_totalSupply",
						"offset": 0,
						"slot": "1",
						"type": "t_uint256"
					},
					{
						"astId": 35,
						"contract": "contracts/ERC1410/ERC1410Standard.sol:ERC1410Standard",
						"label": "balances",
						"offset": 0,
						"slot": "2",
						"type": "t_mapping(t_address,t_uint256)"
					},
					{
						"astId": 40,
						"contract": "contracts/ERC1410/ERC1410Standard.sol:ERC1410Standard",
						"label": "partitions",
						"offset": 0,
						"slot": "3",
						"type": "t_mapping(t_address,t_array(t_struct(Partition)29_storage)dyn_storage)"
					},
					{
						"astId": 46,
						"contract": "contracts/ERC1410/ERC1410Standard.sol:ERC1410Standard",
						"label": "partitionToIndex",
						"offset": 0,
						"slot": "4",
						"type": "t_mapping(t_address,t_mapping(t_bytes32,t_uint256))"
					},
					{
						"astId": 689,
						"contract": "contracts/ERC1410/ERC1410Standard.sol:ERC1410Standard",
						"label": "partitionApprovals",
						"offset": 0,
						"slot": "5",
						"type": "t_mapping(t_address,t_mapping(t_bytes32,t_mapping(t_address,t_bool)))"
					},
					{
						"astId": 695,
						"contract": "contracts/ERC1410/ERC1410Standard.sol:ERC1410Standard",
						"label": "approvals",
						"offset": 0,
						"slot": "6",
						"type": "t_mapping(t_address,t_mapping(t_address,t_bool))"
					}
				],
				"types": {
					"t_address": {
						"encoding": "inplace",
						"label": "address",
						"numberOfBytes": "20"
					},
					"t_array(t_struct(Partition)29_storage)dyn_storage": {
						"base": "t_struct(Partition)29_storage",
						"encoding": "dynamic_array",
						"label": "struct ERC1410Standard.Partition[]",
						"numberOfBytes": "32"
					},
					"t_bool": {
						"encoding": "inplace",
						"label": "bool",
						"numberOfBytes": "1"
					},
					"t_bytes32": {
						"encoding": "inplace",
						"label": "bytes32",
						"numberOfBytes": "32"
					},
					"t_mapping(t_address,t_array(t_struct(Partition)29_storage)dyn_storage)": {
						"encoding": "mapping",
						"key": "t_address",
						"label": "mapping(address => struct ERC1410Standard.Partition[])",
						"numberOfBytes": "32",
						"value": "t_array(t_struct(Partition)29_storage)dyn_storage"
					},
					"t_mapping(t_address,t_bool)": {
						"encoding": "mapping",
						"key": "t_address",
						"label": "mapping(address => bool)",
						"numberOfBytes": "32",
						"value": "t_bool"
					},
					"t_mapping(t_address,t_mapping(t_address,t_bool))": {
						"encoding": "mapping",
						"key": "t_address",
						"label": "mapping(address => mapping(address => bool))",
						"numberOfBytes": "32",
						"value": "t_mapping(t_address,t_bool)"
					},
					"t_mapping(t_address,t_mapping(t_bytes32,t_mapping(t_address,t_bool)))": {
						"encoding": "mapping",
						"key": "t_address",
						"label": "mapping(address => mapping(bytes32 => mapping(address => bool)))",
						"numberOfBytes": "32",
						"value": "t_mapping(t_bytes32,t_mapping(t_address,t_bool))"
					},
					"t_mapping(t_address,t_mapping(t_bytes32,t_uint256))": {
						"encoding": "mapping",
						"key": "t_address",
						"label": "mapping(address => mapping(bytes32 => uint256))",
						"numberOfBytes": "32",
						"value": "t_mapping(t_bytes32,t_uint256)"
					},
					"t_mapping(t_address,t_uint256)": {
						"encoding": "mapping",
						"key": "t_address",
						"label": "mapping(address => uint256)",
						"numberOfBytes": "32",
						"value": "t_uint256"
					},
					"t_mapping(t_bytes32,t_mapping(t_address,t_bool))": {
						"encoding": "mapping",
						"key": "t_bytes32",
						"label": "mapping(bytes32 => mapping(address => bool))",
						"numberOfBytes": "32",
						"value": "t_mapping(t_address,t_bool)"
					},
					"t_mapping(t_bytes32,t_uint256)": {
						"encoding": "mapping",
						"key": "t_bytes32",
						"label": "mapping(bytes32 => uint256)",
						"numberOfBytes": "32",
						"value": "t_uint256"
					},
					"t_struct(Partition)29_storage": {
						"encoding": "inplace",
						"label": "struct ERC1410Standard.Partition",
						"members": [
							{
								"astId": 26,
								"contract": "contracts/ERC1410/ERC1410Standard.sol:ERC1410Standard",
								"label": "amount",
								"offset": 0,
								"slot": "0",
								"type": "t_uint256"
							},
							{
								"astId": 28,
								"contract": "contracts/ERC1410/ERC1410Standard.sol:ERC1410Standard",
								"label": "partition",
								"offset": 0,
								"slot": "1",
								"type": "t_bytes32"
							}
						],
						"numberOfBytes": "64"
					},
					"t_uint256": {
						"encoding": "inplace",
						"label": "uint256",
						"numberOfBytes": "32"
					}
				}
			},
			"userdoc": {
				"kind": "user",
				"methods": {
					"authorizeOperator(address)": {
						"notice": "Authorises an operator for all partitions of `msg.sender`"
					},
					"authorizeOperatorByPartition(bytes32,address)": {
						"notice": "Authorises an operator for a given partition of `msg.sender`"
					},
					"balanceOfByPartition(bytes32,address)": {
						"notice": "Counts the balance associated with a specific partition assigned to an tokenHolder"
					},
					"canTransfer(address,address,uint256,bytes)": {
						"notice": "The standard provides an on-chain function to determine whether a transfer will succeed, and return details indicating the reason if the transfer is not valid."
					},
					"canTransferByPartition(address,address,bytes32,uint256,bytes)": {
						"notice": "The standard provides an on-chain function to determine whether a transfer will succeed, and return details indicating the reason if the transfer is not valid."
					},
					"isOperator(address,address)": {
						"notice": "Determines whether `_operator` is an operator for all partitions of `_tokenHolder`"
					},
					"isOperatorForPartition(bytes32,address,address)": {
						"notice": "Determines whether `_operator` is an operator for a specified partition of `_tokenHolder`"
					},
					"issue(address,uint256,bytes)": {
						"notice": "Increases totalSupply and the corresponding amount of the specified owners partition"
					},
					"issueByPartition(bytes32,address,uint256,bytes)": {
						"notice": "Increases totalSupply and the corresponding amount of the specified owners partition"
					},
					"operatorRedeem(address,uint256,bytes,bytes)": {
						"notice": "Decreases totalSupply and the corresponding amount of the specified partition of tokenHolder"
					},
					"operatorRedeemByPartition(bytes32,address,uint256,bytes,bytes)": {
						"notice": "Decreases totalSupply and the corresponding amount of the specified partition of tokenHolder"
					},
					"operatorTransfer(address,address,uint256,bytes,bytes)": {
						"notice": "Transfers the ownership of tokens from a specified partition from one address to another address"
					},
					"operatorTransferByPartition(bytes32,address,address,uint256,bytes,bytes)": {
						"notice": "Transfers the ownership of tokens from a specified partition from one address to another address"
					},
					"partitionsOf(address)": {
						"notice": "Use to get the list of partitions `_tokenHolder` is associated with"
					},
					"redeem(uint256,bytes)": {
						"notice": "Decreases totalSupply and the corresponding amount of the specified partition of msg.sender"
					},
					"redeemByPartition(bytes32,uint256,bytes)": {
						"notice": "Decreases totalSupply and the corresponding amount of the specified partition of msg.sender"
					},
					"revokeOperator(address)": {
						"notice": "Revokes authorisation of an operator previously given for all partitions of `msg.sender`"
					},
					"revokeOperatorByPartition(bytes32,address)": {
						"notice": "Revokes authorisation of an operator previously given for a specified partition of `msg.sender`"
					},
					"transfer(address,uint256,bytes)": {
						"notice": "Transfers the ownership of tokens from a specified partition from one address to another address"
					},
					"transferByPartition(bytes32,address,uint256,bytes)": {
						"notice": "Transfers the ownership of tokens from a specified partition from one address to another address"
					}
				},
				"version": 1
			}
		}
	}
}